{
  "_format": "hh-sol-artifact-1",
  "contractName": "NaiveFriends721",
  "sourceName": "contracts/NaiveFriends721.sol",
  "abi": [
    {
      "inputs": [
        {
          "internalType": "uint256",
          "name": "_tokenPrice",
          "type": "uint256"
        },
        {
          "internalType": "address",
          "name": "_admin",
          "type": "address"
        },
        {
          "internalType": "string",
          "name": "_pk",
          "type": "string"
        }
      ],
      "stateMutability": "nonpayable",
      "type": "constructor"
    },
    {
      "inputs": [
        {
          "internalType": "address",
          "name": "admin",
          "type": "address"
        },
        {
          "internalType": "address",
          "name": "caller",
          "type": "address"
        }
      ],
      "name": "AdminOnly",
      "type": "error"
    },
    {
      "inputs": [
        {
          "internalType": "uint256",
          "name": "price",
          "type": "uint256"
        },
        {
          "internalType": "uint256",
          "name": "offer",
          "type": "uint256"
        }
      ],
      "name": "InsufficientOffer",
      "type": "error"
    },
    {
      "inputs": [
        {
          "internalType": "uint256",
          "name": "balance",
          "type": "uint256"
        },
        {
          "internalType": "uint256",
          "name": "amount",
          "type": "uint256"
        }
      ],
      "name": "InsufficientPoolBalance",
      "type": "error"
    },
    {
      "inputs": [
        {
          "internalType": "uint256",
          "name": "price",
          "type": "uint256"
        }
      ],
      "name": "InvalidTokenPrice",
      "type": "error"
    },
    {
      "inputs": [
        {
          "internalType": "uint256",
          "name": "tokenId",
          "type": "uint256"
        },
        {
          "internalType": "address",
          "name": "caller",
          "type": "address"
        }
      ],
      "name": "OwnerOnly",
      "type": "error"
    },
    {
      "anonymous": false,
      "inputs": [
        {
          "indexed": true,
          "internalType": "address",
          "name": "owner",
          "type": "address"
        },
        {
          "indexed": true,
          "internalType": "address",
          "name": "approved",
          "type": "address"
        },
        {
          "indexed": true,
          "internalType": "uint256",
          "name": "tokenId",
          "type": "uint256"
        }
      ],
      "name": "Approval",
      "type": "event"
    },
    {
      "anonymous": false,
      "inputs": [
        {
          "indexed": true,
          "internalType": "address",
          "name": "owner",
          "type": "address"
        },
        {
          "indexed": true,
          "internalType": "address",
          "name": "operator",
          "type": "address"
        },
        {
          "indexed": false,
          "internalType": "bool",
          "name": "approved",
          "type": "bool"
        }
      ],
      "name": "ApprovalForAll",
      "type": "event"
    },
    {
      "anonymous": false,
      "inputs": [
        {
          "indexed": true,
          "internalType": "address",
          "name": "from",
          "type": "address"
        },
        {
          "indexed": true,
          "internalType": "address",
          "name": "to",
          "type": "address"
        },
        {
          "indexed": true,
          "internalType": "uint256",
          "name": "tokenId",
          "type": "uint256"
        }
      ],
      "name": "Transfer",
      "type": "event"
    },
    {
      "inputs": [],
      "name": "admin",
      "outputs": [
        {
          "internalType": "address",
          "name": "",
          "type": "address"
        }
      ],
      "stateMutability": "view",
      "type": "function"
    },
    {
      "inputs": [],
      "name": "adminEncryptPublicKey",
      "outputs": [
        {
          "internalType": "string",
          "name": "",
          "type": "string"
        }
      ],
      "stateMutability": "view",
      "type": "function"
    },
    {
      "inputs": [
        {
          "internalType": "address",
          "name": "to",
          "type": "address"
        },
        {
          "internalType": "uint256",
          "name": "tokenId",
          "type": "uint256"
        }
      ],
      "name": "approve",
      "outputs": [],
      "stateMutability": "nonpayable",
      "type": "function"
    },
    {
      "inputs": [
        {
          "internalType": "address",
          "name": "owner",
          "type": "address"
        }
      ],
      "name": "balanceOf",
      "outputs": [
        {
          "internalType": "uint256",
          "name": "",
          "type": "uint256"
        }
      ],
      "stateMutability": "view",
      "type": "function"
    },
    {
      "inputs": [],
      "name": "baseUri",
      "outputs": [
        {
          "internalType": "string",
          "name": "",
          "type": "string"
        }
      ],
      "stateMutability": "view",
      "type": "function"
    },
    {
      "inputs": [
        {
          "internalType": "uint256",
          "name": "",
          "type": "uint256"
        }
      ],
      "name": "encryptPublicKeys",
      "outputs": [
        {
          "internalType": "string",
          "name": "",
          "type": "string"
        }
      ],
      "stateMutability": "view",
      "type": "function"
    },
    {
      "inputs": [
        {
          "internalType": "uint256",
          "name": "tokenId",
          "type": "uint256"
        }
      ],
      "name": "getApproved",
      "outputs": [
        {
          "internalType": "address",
          "name": "",
          "type": "address"
        }
      ],
      "stateMutability": "view",
      "type": "function"
    },
    {
      "inputs": [
        {
          "internalType": "address",
          "name": "owner",
          "type": "address"
        },
        {
          "internalType": "address",
          "name": "operator",
          "type": "address"
        }
      ],
      "name": "isApprovedForAll",
      "outputs": [
        {
          "internalType": "bool",
          "name": "",
          "type": "bool"
        }
      ],
      "stateMutability": "view",
      "type": "function"
    },
    {
      "inputs": [
        {
          "internalType": "address",
          "name": "player",
          "type": "address"
        }
      ],
      "name": "mint",
      "outputs": [
        {
          "internalType": "uint256",
          "name": "",
          "type": "uint256"
        }
      ],
      "stateMutability": "payable",
      "type": "function"
    },
    {
      "inputs": [],
      "name": "name",
      "outputs": [
        {
          "internalType": "string",
          "name": "",
          "type": "string"
        }
      ],
      "stateMutability": "view",
      "type": "function"
    },
    {
      "inputs": [
        {
          "internalType": "uint256",
          "name": "tokenId",
          "type": "uint256"
        }
      ],
      "name": "ownerOf",
      "outputs": [
        {
          "internalType": "address",
          "name": "",
          "type": "address"
        }
      ],
      "stateMutability": "view",
      "type": "function"
    },
    {
      "inputs": [
        {
          "internalType": "address",
          "name": "from",
          "type": "address"
        },
        {
          "internalType": "address",
          "name": "to",
          "type": "address"
        },
        {
          "internalType": "uint256",
          "name": "tokenId",
          "type": "uint256"
        }
      ],
      "name": "safeTransferFrom",
      "outputs": [],
      "stateMutability": "nonpayable",
      "type": "function"
    },
    {
      "inputs": [
        {
          "internalType": "address",
          "name": "from",
          "type": "address"
        },
        {
          "internalType": "address",
          "name": "to",
          "type": "address"
        },
        {
          "internalType": "uint256",
          "name": "tokenId",
          "type": "uint256"
        },
        {
          "internalType": "bytes",
          "name": "_data",
          "type": "bytes"
        }
      ],
      "name": "safeTransferFrom",
      "outputs": [],
      "stateMutability": "nonpayable",
      "type": "function"
    },
    {
      "inputs": [
        {
          "internalType": "address",
          "name": "_admin",
          "type": "address"
        },
        {
          "internalType": "string",
          "name": "_pk",
          "type": "string"
        }
      ],
      "name": "setAdmin",
      "outputs": [],
      "stateMutability": "nonpayable",
      "type": "function"
    },
    {
      "inputs": [
        {
          "internalType": "string",
          "name": "_pk",
          "type": "string"
        }
      ],
      "name": "setAdminEncryptPublickKey",
      "outputs": [],
      "stateMutability": "nonpayable",
      "type": "function"
    },
    {
      "inputs": [
        {
          "internalType": "address",
          "name": "operator",
          "type": "address"
        },
        {
          "internalType": "bool",
          "name": "approved",
          "type": "bool"
        }
      ],
      "name": "setApprovalForAll",
      "outputs": [],
      "stateMutability": "nonpayable",
      "type": "function"
    },
    {
      "inputs": [
        {
          "internalType": "string",
          "name": "_baseUri",
          "type": "string"
        }
      ],
      "name": "setBaseURI",
      "outputs": [],
      "stateMutability": "nonpayable",
      "type": "function"
    },
    {
      "inputs": [
        {
          "internalType": "uint256",
          "name": "tokenId",
          "type": "uint256"
        },
        {
          "internalType": "string",
          "name": "key",
          "type": "string"
        }
      ],
      "name": "setEncryptPublicKey",
      "outputs": [],
      "stateMutability": "nonpayable",
      "type": "function"
    },
    {
      "inputs": [
        {
          "internalType": "uint256",
          "name": "price",
          "type": "uint256"
        }
      ],
      "name": "setPrice",
      "outputs": [],
      "stateMutability": "nonpayable",
      "type": "function"
    },
    {
      "inputs": [
        {
          "internalType": "address",
          "name": "player",
          "type": "address"
        },
        {
          "internalType": "string",
          "name": "key",
          "type": "string"
        }
      ],
      "name": "subscribe",
      "outputs": [],
      "stateMutability": "payable",
      "type": "function"
    },
    {
      "inputs": [
        {
          "internalType": "bytes4",
          "name": "interfaceId",
          "type": "bytes4"
        }
      ],
      "name": "supportsInterface",
      "outputs": [
        {
          "internalType": "bool",
          "name": "",
          "type": "bool"
        }
      ],
      "stateMutability": "view",
      "type": "function"
    },
    {
      "inputs": [],
      "name": "symbol",
      "outputs": [
        {
          "internalType": "string",
          "name": "",
          "type": "string"
        }
      ],
      "stateMutability": "view",
      "type": "function"
    },
    {
      "inputs": [
        {
          "internalType": "uint256",
          "name": "index",
          "type": "uint256"
        }
      ],
      "name": "tokenByIndex",
      "outputs": [
        {
          "internalType": "uint256",
          "name": "",
          "type": "uint256"
        }
      ],
      "stateMutability": "view",
      "type": "function"
    },
    {
      "inputs": [
        {
          "internalType": "address",
          "name": "owner",
          "type": "address"
        },
        {
          "internalType": "uint256",
          "name": "index",
          "type": "uint256"
        }
      ],
      "name": "tokenOfOwnerByIndex",
      "outputs": [
        {
          "internalType": "uint256",
          "name": "",
          "type": "uint256"
        }
      ],
      "stateMutability": "view",
      "type": "function"
    },
    {
      "inputs": [],
      "name": "tokenPrice",
      "outputs": [
        {
          "internalType": "uint256",
          "name": "",
          "type": "uint256"
        }
      ],
      "stateMutability": "view",
      "type": "function"
    },
    {
      "inputs": [
        {
          "internalType": "uint256",
          "name": "tokenId",
          "type": "uint256"
        }
      ],
      "name": "tokenURI",
      "outputs": [
        {
          "internalType": "string",
          "name": "",
          "type": "string"
        }
      ],
      "stateMutability": "view",
      "type": "function"
    },
    {
      "inputs": [],
      "name": "totalSupply",
      "outputs": [
        {
          "internalType": "uint256",
          "name": "",
          "type": "uint256"
        }
      ],
      "stateMutability": "view",
      "type": "function"
    },
    {
      "inputs": [],
      "name": "totalTokens",
      "outputs": [
        {
          "internalType": "uint256",
          "name": "",
          "type": "uint256"
        }
      ],
      "stateMutability": "view",
      "type": "function"
    },
    {
      "inputs": [
        {
          "internalType": "address",
          "name": "from",
          "type": "address"
        },
        {
          "internalType": "address",
          "name": "to",
          "type": "address"
        },
        {
          "internalType": "uint256",
          "name": "tokenId",
          "type": "uint256"
        }
      ],
      "name": "transferFrom",
      "outputs": [],
      "stateMutability": "nonpayable",
      "type": "function"
    },
    {
      "inputs": [
        {
          "internalType": "uint256",
          "name": "_amount",
          "type": "uint256"
        }
      ],
      "name": "withdraw",
      "outputs": [],
      "stateMutability": "nonpayable",
      "type": "function"
    }
  ],
  "bytecode": "0x60806040523480156200001157600080fd5b5060405162004d9138038062004d91833981810160405281019062000037919062000291565b6040518060400160405280600f81526020017f4e61697665467269656e647337323100000000000000000000000000000000008152506040518060400160405280600481526020017f52414846000000000000000000000000000000000000000000000000000000008152508160009080519060200190620000bb92919062000141565b508060019080519060200190620000d492919062000141565b50505082600c8190555081600d60006101000a81548173ffffffffffffffffffffffffffffffffffffffff021916908373ffffffffffffffffffffffffffffffffffffffff16021790555080600e90805190602001906200013792919062000141565b50505050620004e2565b8280546200014f90620003d3565b90600052602060002090601f016020900481019282620001735760008555620001bf565b82601f106200018e57805160ff1916838001178555620001bf565b82800160010185558215620001bf579182015b82811115620001be578251825591602001919060010190620001a1565b5b509050620001ce9190620001d2565b5090565b5b80821115620001ed576000816000905550600101620001d3565b5090565b600062000208620002028462000329565b62000300565b9050828152602081018484840111156200022157600080fd5b6200022e8482856200039d565b509392505050565b6000815190506200024781620004ae565b92915050565b600082601f8301126200025f57600080fd5b815162000271848260208601620001f1565b91505092915050565b6000815190506200028b81620004c8565b92915050565b600080600060608486031215620002a757600080fd5b6000620002b7868287016200027a565b9350506020620002ca8682870162000236565b925050604084015167ffffffffffffffff811115620002e857600080fd5b620002f6868287016200024d565b9150509250925092565b60006200030c6200031f565b90506200031a828262000409565b919050565b6000604051905090565b600067ffffffffffffffff8211156200034757620003466200046e565b5b62000352826200049d565b9050602081019050919050565b60006200036c8262000373565b9050919050565b600073ffffffffffffffffffffffffffffffffffffffff82169050919050565b6000819050919050565b60005b83811015620003bd578082015181840152602081019050620003a0565b83811115620003cd576000848401525b50505050565b60006002820490506001821680620003ec57607f821691505b602082108114156200040357620004026200043f565b5b50919050565b62000414826200049d565b810181811067ffffffffffffffff821117156200043657620004356200046e565b5b80604052505050565b7f4e487b7100000000000000000000000000000000000000000000000000000000600052602260045260246000fd5b7f4e487b7100000000000000000000000000000000000000000000000000000000600052604160045260246000fd5b6000601f19601f8301169050919050565b620004b9816200035f565b8114620004c557600080fd5b50565b620004d38162000393565b8114620004df57600080fd5b50565b61489f80620004f26000396000f3fe6080604052600436106101cd5760003560e01c80636a627842116100f75780639df8fa9e11610095578063e107cf5d11610064578063e107cf5d146106a2578063e985e9c5146106cd578063f414321a1461070a578063f851a44014610733576101cd565b80639df8fa9e146105d6578063a22cb46514610613578063b88d4fde1461063c578063c87b56dd14610665576101cd565b80637ff9b596116100d15780637ff9b5961461052c57806391b7f5ed1461055757806395d89b41146105805780639abc8320146105ab576101cd565b80636a6278421461049457806370a08231146104c45780637e1c0c0914610501576101cd565b80632f745c591161016f5780634f6ccce71161013e5780634f6ccce7146103c857806355f804b3146104055780635de8f9851461042e5780636352211e14610457576101cd565b80632f745c591461031d5780633c6597431461035a57806342842e0e14610376578063476f6dd41461039f576101cd565b8063095ea7b3116101ab578063095ea7b31461027757806318160ddd146102a057806323b872dd146102cb5780632e1a7d4d146102f4576101cd565b806301ffc9a7146101d257806306fdde031461020f578063081812fc1461023a575b600080fd5b3480156101de57600080fd5b506101f960048036038101906101f491906134f1565b61075e565b6040516102069190613aa0565b60405180910390f35b34801561021b57600080fd5b506102246107d8565b6040516102319190613abb565b60405180910390f35b34801561024657600080fd5b50610261600480360381019061025c9190613584565b61086a565b60405161026e9190613a10565b60405180910390f35b34801561028357600080fd5b5061029e600480360381019061029991906134b5565b6108ef565b005b3480156102ac57600080fd5b506102b5610a07565b6040516102c29190613d82565b60405180910390f35b3480156102d757600080fd5b506102f260048036038101906102ed919061335b565b610a14565b005b34801561030057600080fd5b5061031b60048036038101906103169190613584565b610a74565b005b34801561032957600080fd5b50610344600480360381019061033f91906134b5565b610bbb565b6040516103519190613d82565b60405180910390f35b610374600480360381019061036f9190613461565b610c60565b005b34801561038257600080fd5b5061039d6004803603810190610398919061335b565b610d5d565b005b3480156103ab57600080fd5b506103c660048036038101906103c19190613461565b610d7d565b005b3480156103d457600080fd5b506103ef60048036038101906103ea9190613584565b610e8f565b6040516103fc9190613d82565b60405180910390f35b34801561041157600080fd5b5061042c60048036038101906104279190613543565b610f26565b005b34801561043a57600080fd5b50610455600480360381019061045091906135ad565b610ff6565b005b34801561046357600080fd5b5061047e60048036038101906104799190613584565b61107d565b60405161048b9190613a10565b60405180910390f35b6104ae60048036038101906104a991906132f6565b61112f565b6040516104bb9190613d82565b60405180910390f35b3480156104d057600080fd5b506104eb60048036038101906104e691906132f6565b611228565b6040516104f89190613d82565b60405180910390f35b34801561050d57600080fd5b506105166112e0565b6040516105239190613d82565b60405180910390f35b34801561053857600080fd5b506105416112f6565b60405161054e9190613d82565b60405180910390f35b34801561056357600080fd5b5061057e60048036038101906105799190613584565b6112fc565b005b34801561058c57600080fd5b50610595611401565b6040516105a29190613abb565b60405180910390f35b3480156105b757600080fd5b506105c0611493565b6040516105cd9190613abb565b60405180910390f35b3480156105e257600080fd5b506105fd60048036038101906105f89190613584565b611521565b60405161060a9190613abb565b60405180910390f35b34801561061f57600080fd5b5061063a60048036038101906106359190613425565b6115c1565b005b34801561064857600080fd5b50610663600480360381019061065e91906133aa565b6115d7565b005b34801561067157600080fd5b5061068c60048036038101906106879190613584565b611639565b6040516106999190613abb565b60405180910390f35b3480156106ae57600080fd5b506106b761178b565b6040516106c49190613abb565b60405180910390f35b3480156106d957600080fd5b506106f460048036038101906106ef919061331f565b611819565b6040516107019190613aa0565b60405180910390f35b34801561071657600080fd5b50610731600480360381019061072c9190613543565b6118ad565b005b34801561073f57600080fd5b5061074861197d565b6040516107559190613a10565b60405180910390f35b60007f780e9d63000000000000000000000000000000000000000000000000000000007bffffffffffffffffffffffffffffffffffffffffffffffffffffffff1916827bffffffffffffffffffffffffffffffffffffffffffffffffffffffff191614806107d157506107d0826119a3565b5b9050919050565b6060600080546107e7906140b8565b80601f0160208091040260200160405190810160405280929190818152602001828054610813906140b8565b80156108605780601f1061083557610100808354040283529160200191610860565b820191906000526020600020905b81548152906001019060200180831161084357829003601f168201915b5050505050905090565b600061087582611a85565b6108b4576040517f08c379a00000000000000000000000000000000000000000000000000000000081526004016108ab90613ce2565b60405180910390fd5b6004600083815260200190815260200160002060009054906101000a900473ffffffffffffffffffffffffffffffffffffffff169050919050565b60006108fa8261107d565b90508073ffffffffffffffffffffffffffffffffffffffff168373ffffffffffffffffffffffffffffffffffffffff16141561096b576040517f08c379a000000000000000000000000000000000000000000000000000000000815260040161096290613d22565b60405180910390fd5b8073ffffffffffffffffffffffffffffffffffffffff1661098a611af1565b73ffffffffffffffffffffffffffffffffffffffff1614806109b957506109b8816109b3611af1565b611819565b5b6109f8576040517f08c379a00000000000000000000000000000000000000000000000000000000081526004016109ef90613c22565b60405180910390fd5b610a028383611af9565b505050565b6000600880549050905090565b610a25610a1f611af1565b82611bb2565b610a64576040517f08c379a0000000000000000000000000000000000000000000000000000000008152600401610a5b90613d42565b60405180910390fd5b610a6f838383611c90565b505050565b600d60009054906101000a900473ffffffffffffffffffffffffffffffffffffffff1673ffffffffffffffffffffffffffffffffffffffff163373ffffffffffffffffffffffffffffffffffffffff1614610b2a57600d60009054906101000a900473ffffffffffffffffffffffffffffffffffffffff16336040517f64a14abf000000000000000000000000000000000000000000000000000000008152600401610b21929190613a2b565b60405180910390fd5b47811115610b715747816040517fce9514f9000000000000000000000000000000000000000000000000000000008152600401610b68929190613dc6565b60405180910390fd5b3373ffffffffffffffffffffffffffffffffffffffff166108fc829081150290604051600060405180830381858888f19350505050158015610bb7573d6000803e3d6000fd5b5050565b6000610bc683611228565b8210610c07576040517f08c379a0000000000000000000000000000000000000000000000000000000008152600401610bfe90613b42565b60405180910390fd5b600660008473ffffffffffffffffffffffffffffffffffffffff1673ffffffffffffffffffffffffffffffffffffffff168152602001908152602001600020600083815260200190815260200160002054905092915050565b600c54341015610cab57600c54346040517fa9b308f4000000000000000000000000000000000000000000000000000000008152600401610ca2929190613dc6565b60405180910390fd5b610cb5600b611ef7565b6000610cc1600b611f0d565b9050610ccd8382611f1b565b6000600243610cdc9190613f9a565b4090506000338284604051602001610cf6939291906139af565b6040516020818303038152906040528051906020012090506000610d1c8260001c6120f5565b9050610d28848261217b565b610d4b6040518060600160405280602181526020016148496021913985836121ef565b610d558486610ff6565b505050505050565b610d78838383604051806020016040528060008152506115d7565b505050565b600d60009054906101000a900473ffffffffffffffffffffffffffffffffffffffff1673ffffffffffffffffffffffffffffffffffffffff163373ffffffffffffffffffffffffffffffffffffffff1614610e3357600d60009054906101000a900473ffffffffffffffffffffffffffffffffffffffff16336040517f64a14abf000000000000000000000000000000000000000000000000000000008152600401610e2a929190613a2b565b60405180910390fd5b81600d60006101000a81548173ffffffffffffffffffffffffffffffffffffffff021916908373ffffffffffffffffffffffffffffffffffffffff16021790555080600e9080519060200190610e8a92919061311a565b505050565b6000610e99610a07565b8210610eda576040517f08c379a0000000000000000000000000000000000000000000000000000000008152600401610ed190613d62565b60405180910390fd5b60088281548110610f14577f4e487b7100000000000000000000000000000000000000000000000000000000600052603260045260246000fd5b90600052602060002001549050919050565b600d60009054906101000a900473ffffffffffffffffffffffffffffffffffffffff1673ffffffffffffffffffffffffffffffffffffffff163373ffffffffffffffffffffffffffffffffffffffff1614610fdc57600d60009054906101000a900473ffffffffffffffffffffffffffffffffffffffff16336040517f64a14abf000000000000000000000000000000000000000000000000000000008152600401610fd3929190613a2b565b60405180910390fd5b80600f9080519060200190610ff292919061311a565b5050565b611007611001611af1565b83611bb2565b6110515781611014611af1565b6040517faf2a76f1000000000000000000000000000000000000000000000000000000008152600401611048929190613d9d565b60405180910390fd5b8060106000848152602001908152602001600020908051906020019061107892919061311a565b505050565b6000806002600084815260200190815260200160002060009054906101000a900473ffffffffffffffffffffffffffffffffffffffff169050600073ffffffffffffffffffffffffffffffffffffffff168173ffffffffffffffffffffffffffffffffffffffff161415611126576040517f08c379a000000000000000000000000000000000000000000000000000000000815260040161111d90613c62565b60405180910390fd5b80915050919050565b6000600c5434101561117c57600c54346040517fa9b308f4000000000000000000000000000000000000000000000000000000008152600401611173929190613dc6565b60405180910390fd5b611186600b611ef7565b6000611192600b611f0d565b905061119e8382611f1b565b60006002436111ad9190613f9a565b40905060003382846040516020016111c7939291906139af565b60405160208183030381529060405280519060200120905060006111ed8260001c6120f5565b90506111f9848261217b565b61121c6040518060600160405280602181526020016148496021913985836121ef565b83945050505050919050565b60008073ffffffffffffffffffffffffffffffffffffffff168273ffffffffffffffffffffffffffffffffffffffff161415611299576040517f08c379a000000000000000000000000000000000000000000000000000000000815260040161129090613c42565b60405180910390fd5b600360008373ffffffffffffffffffffffffffffffffffffffff1673ffffffffffffffffffffffffffffffffffffffff168152602001908152602001600020549050919050565b6000806112ed600b611f0d565b90508091505090565b600c5481565b600d60009054906101000a900473ffffffffffffffffffffffffffffffffffffffff1673ffffffffffffffffffffffffffffffffffffffff163373ffffffffffffffffffffffffffffffffffffffff16146113b257600d60009054906101000a900473ffffffffffffffffffffffffffffffffffffffff16336040517f64a14abf0000000000000000000000000000000000000000000000000000000081526004016113a9929190613a2b565b60405180910390fd5b600081116113f757806040517f820f07950000000000000000000000000000000000000000000000000000000081526004016113ee9190613d82565b60405180910390fd5b80600c8190555050565b606060018054611410906140b8565b80601f016020809104026020016040519081016040528092919081815260200182805461143c906140b8565b80156114895780601f1061145e57610100808354040283529160200191611489565b820191906000526020600020905b81548152906001019060200180831161146c57829003601f168201915b5050505050905090565b600f80546114a0906140b8565b80601f01602080910402602001604051908101604052809291908181526020018280546114cc906140b8565b80156115195780601f106114ee57610100808354040283529160200191611519565b820191906000526020600020905b8154815290600101906020018083116114fc57829003601f168201915b505050505081565b60106020528060005260406000206000915090508054611540906140b8565b80601f016020809104026020016040519081016040528092919081815260200182805461156c906140b8565b80156115b95780601f1061158e576101008083540402835291602001916115b9565b820191906000526020600020905b81548152906001019060200180831161159c57829003601f168201915b505050505081565b6115d36115cc611af1565b838361228e565b5050565b6115e86115e2611af1565b83611bb2565b611627576040517f08c379a000000000000000000000000000000000000000000000000000000000815260040161161e90613d42565b60405180910390fd5b611633848484846123fb565b50505050565b606061164482611a85565b611683576040517f08c379a000000000000000000000000000000000000000000000000000000000815260040161167a90613cc2565b60405180910390fd5b6000600a600084815260200190815260200160002080546116a3906140b8565b80601f01602080910402602001604051908101604052809291908181526020018280546116cf906140b8565b801561171c5780601f106116f15761010080835404028352916020019161171c565b820191906000526020600020905b8154815290600101906020018083116116ff57829003601f168201915b50505050509050600061172d612457565b9050600081511415611743578192505050611786565b6000825111156117785780826040516020016117609291906139ec565b60405160208183030381529060405292505050611786565b611781846124e9565b925050505b919050565b600e8054611798906140b8565b80601f01602080910402602001604051908101604052809291908181526020018280546117c4906140b8565b80156118115780601f106117e657610100808354040283529160200191611811565b820191906000526020600020905b8154815290600101906020018083116117f457829003601f168201915b505050505081565b6000600560008473ffffffffffffffffffffffffffffffffffffffff1673ffffffffffffffffffffffffffffffffffffffff16815260200190815260200160002060008373ffffffffffffffffffffffffffffffffffffffff1673ffffffffffffffffffffffffffffffffffffffff16815260200190815260200160002060009054906101000a900460ff16905092915050565b600d60009054906101000a900473ffffffffffffffffffffffffffffffffffffffff1673ffffffffffffffffffffffffffffffffffffffff163373ffffffffffffffffffffffffffffffffffffffff161461196357600d60009054906101000a900473ffffffffffffffffffffffffffffffffffffffff16336040517f64a14abf00000000000000000000000000000000000000000000000000000000815260040161195a929190613a2b565b60405180910390fd5b80600e908051906020019061197992919061311a565b5050565b600d60009054906101000a900473ffffffffffffffffffffffffffffffffffffffff1681565b60007f80ac58cd000000000000000000000000000000000000000000000000000000007bffffffffffffffffffffffffffffffffffffffffffffffffffffffff1916827bffffffffffffffffffffffffffffffffffffffffffffffffffffffff19161480611a6e57507f5b5e139f000000000000000000000000000000000000000000000000000000007bffffffffffffffffffffffffffffffffffffffffffffffffffffffff1916827bffffffffffffffffffffffffffffffffffffffffffffffffffffffff1916145b80611a7e5750611a7d82612590565b5b9050919050565b60008073ffffffffffffffffffffffffffffffffffffffff166002600084815260200190815260200160002060009054906101000a900473ffffffffffffffffffffffffffffffffffffffff1673ffffffffffffffffffffffffffffffffffffffff1614159050919050565b600033905090565b816004600083815260200190815260200160002060006101000a81548173ffffffffffffffffffffffffffffffffffffffff021916908373ffffffffffffffffffffffffffffffffffffffff160217905550808273ffffffffffffffffffffffffffffffffffffffff16611b6c8361107d565b73ffffffffffffffffffffffffffffffffffffffff167f8c5be1e5ebec7d5bd14f71427d1e84f3dd0314c0f7b2291e5b200ac8c7c3b92560405160405180910390a45050565b6000611bbd82611a85565b611bfc576040517f08c379a0000000000000000000000000000000000000000000000000000000008152600401611bf390613c02565b60405180910390fd5b6000611c078361107d565b90508073ffffffffffffffffffffffffffffffffffffffff168473ffffffffffffffffffffffffffffffffffffffff161480611c495750611c488185611819565b5b80611c8757508373ffffffffffffffffffffffffffffffffffffffff16611c6f8461086a565b73ffffffffffffffffffffffffffffffffffffffff16145b91505092915050565b8273ffffffffffffffffffffffffffffffffffffffff16611cb08261107d565b73ffffffffffffffffffffffffffffffffffffffff1614611d06576040517f08c379a0000000000000000000000000000000000000000000000000000000008152600401611cfd90613b82565b60405180910390fd5b600073ffffffffffffffffffffffffffffffffffffffff168273ffffffffffffffffffffffffffffffffffffffff161415611d76576040517f08c379a0000000000000000000000000000000000000000000000000000000008152600401611d6d90613bc2565b60405180910390fd5b611d818383836125fa565b611d8c600082611af9565b6001600360008573ffffffffffffffffffffffffffffffffffffffff1673ffffffffffffffffffffffffffffffffffffffff1681526020019081526020016000206000828254611ddc9190613f9a565b925050819055506001600360008473ffffffffffffffffffffffffffffffffffffffff1673ffffffffffffffffffffffffffffffffffffffff1681526020019081526020016000206000828254611e339190613eb9565b92505081905550816002600083815260200190815260200160002060006101000a81548173ffffffffffffffffffffffffffffffffffffffff021916908373ffffffffffffffffffffffffffffffffffffffff160217905550808273ffffffffffffffffffffffffffffffffffffffff168473ffffffffffffffffffffffffffffffffffffffff167fddf252ad1be2c89b69c2b068fc378daa952ba7f163c4a11628f55a4df523b3ef60405160405180910390a4611ef283838361270e565b505050565b6001816000016000828254019250508190555050565b600081600001549050919050565b600073ffffffffffffffffffffffffffffffffffffffff168273ffffffffffffffffffffffffffffffffffffffff161415611f8b576040517f08c379a0000000000000000000000000000000000000000000000000000000008152600401611f8290613ca2565b60405180910390fd5b611f9481611a85565b15611fd4576040517f08c379a0000000000000000000000000000000000000000000000000000000008152600401611fcb90613ba2565b60405180910390fd5b611fe0600083836125fa565b6001600360008473ffffffffffffffffffffffffffffffffffffffff1673ffffffffffffffffffffffffffffffffffffffff16815260200190815260200160002060008282546120309190613eb9565b92505081905550816002600083815260200190815260200160002060006101000a81548173ffffffffffffffffffffffffffffffffffffffff021916908373ffffffffffffffffffffffffffffffffffffffff160217905550808273ffffffffffffffffffffffffffffffffffffffff16600073ffffffffffffffffffffffffffffffffffffffff167fddf252ad1be2c89b69c2b068fc378daa952ba7f163c4a11628f55a4df523b3ef60405160405180910390a46120f16000838361270e565b5050565b6060600082141561213d576040518060400160405280600481526020017f30783030000000000000000000000000000000000000000000000000000000008152509050612176565b600082905060005b600082146121675780806121589061411b565b915050600882901c9150612145565b6121718482612713565b925050505b919050565b61218482611a85565b6121c3576040517f08c379a00000000000000000000000000000000000000000000000000000000081526004016121ba90613c82565b60405180910390fd5b80600a600084815260200190815260200160002090805190602001906121ea92919061311a565b505050565b61228983838360405160240161220793929190613add565b6040516020818303038152906040527fa3f5c739000000000000000000000000000000000000000000000000000000007bffffffffffffffffffffffffffffffffffffffffffffffffffffffff19166020820180517bffffffffffffffffffffffffffffffffffffffffffffffffffffffff8381831617835250505050612a0d565b505050565b8173ffffffffffffffffffffffffffffffffffffffff168373ffffffffffffffffffffffffffffffffffffffff1614156122fd576040517f08c379a00000000000000000000000000000000000000000000000000000000081526004016122f490613be2565b60405180910390fd5b80600560008573ffffffffffffffffffffffffffffffffffffffff1673ffffffffffffffffffffffffffffffffffffffff16815260200190815260200160002060008473ffffffffffffffffffffffffffffffffffffffff1673ffffffffffffffffffffffffffffffffffffffff16815260200190815260200160002060006101000a81548160ff0219169083151502179055508173ffffffffffffffffffffffffffffffffffffffff168373ffffffffffffffffffffffffffffffffffffffff167f17307eab39ab6107e8899845ad3d59bd9653f200f220920489ca2b5937696c31836040516123ee9190613aa0565b60405180910390a3505050565b612406848484611c90565b61241284848484612a36565b612451576040517f08c379a000000000000000000000000000000000000000000000000000000000815260040161244890613b62565b60405180910390fd5b50505050565b6060600f8054612466906140b8565b80601f0160208091040260200160405190810160405280929190818152602001828054612492906140b8565b80156124df5780601f106124b4576101008083540402835291602001916124df565b820191906000526020600020905b8154815290600101906020018083116124c257829003601f168201915b5050505050905090565b60606124f482611a85565b612533576040517f08c379a000000000000000000000000000000000000000000000000000000000815260040161252a90613d02565b60405180910390fd5b600061253d612457565b9050600081511161255d5760405180602001604052806000815250612588565b8061256784612bcd565b6040516020016125789291906139ec565b6040516020818303038152906040525b915050919050565b60007f01ffc9a7000000000000000000000000000000000000000000000000000000007bffffffffffffffffffffffffffffffffffffffffffffffffffffffff1916827bffffffffffffffffffffffffffffffffffffffffffffffffffffffff1916149050919050565b612605838383612d7a565b600073ffffffffffffffffffffffffffffffffffffffff168373ffffffffffffffffffffffffffffffffffffffff1614156126485761264381612d7f565b612687565b8173ffffffffffffffffffffffffffffffffffffffff168373ffffffffffffffffffffffffffffffffffffffff1614612686576126858382612dc8565b5b5b600073ffffffffffffffffffffffffffffffffffffffff168273ffffffffffffffffffffffffffffffffffffffff1614156126ca576126c581612f35565b612709565b8273ffffffffffffffffffffffffffffffffffffffff168273ffffffffffffffffffffffffffffffffffffffff1614612708576127078282613078565b5b5b505050565b505050565b6060600060028360026127269190613f40565b6127309190613eb9565b67ffffffffffffffff81111561276f577f4e487b7100000000000000000000000000000000000000000000000000000000600052604160045260246000fd5b6040519080825280601f01601f1916602001820160405280156127a15781602001600182028036833780820191505090505b5090507f3000000000000000000000000000000000000000000000000000000000000000816000815181106127ff577f4e487b7100000000000000000000000000000000000000000000000000000000600052603260045260246000fd5b60200101907effffffffffffffffffffffffffffffffffffffffffffffffffffffffffffff1916908160001a9053507f780000000000000000000000000000000000000000000000000000000000000081600181518110612889577f4e487b7100000000000000000000000000000000000000000000000000000000600052603260045260246000fd5b60200101907effffffffffffffffffffffffffffffffffffffffffffffffffffffffffffff1916908160001a905350600060018460026128c99190613f40565b6128d39190613eb9565b90505b60018111156129bf577f3031323334353637383961626364656600000000000000000000000000000000600f86166010811061293b577f4e487b7100000000000000000000000000000000000000000000000000000000600052603260045260246000fd5b1a60f81b828281518110612978577f4e487b7100000000000000000000000000000000000000000000000000000000600052603260045260246000fd5b60200101907effffffffffffffffffffffffffffffffffffffffffffffffffffffffffffff1916908160001a905350600485901c9450806129b89061408e565b90506128d6565b5060008414612a03576040517f08c379a00000000000000000000000000000000000000000000000000000000081526004016129fa90613b22565b60405180910390fd5b8091505092915050565b60008151905060006a636f6e736f6c652e6c6f679050602083016000808483855afa5050505050565b6000612a578473ffffffffffffffffffffffffffffffffffffffff166130f7565b15612bc0578373ffffffffffffffffffffffffffffffffffffffff1663150b7a02612a80611af1565b8786866040518563ffffffff1660e01b8152600401612aa29493929190613a54565b602060405180830381600087803b158015612abc57600080fd5b505af1925050508015612aed57506040513d601f19601f82011682018060405250810190612aea919061351a565b60015b612b70573d8060008114612b1d576040519150601f19603f3d011682016040523d82523d6000602084013e612b22565b606091505b50600081511415612b68576040517f08c379a0000000000000000000000000000000000000000000000000000000008152600401612b5f90613b62565b60405180910390fd5b805181602001fd5b63150b7a0260e01b7bffffffffffffffffffffffffffffffffffffffffffffffffffffffff1916817bffffffffffffffffffffffffffffffffffffffffffffffffffffffff191614915050612bc5565b600190505b949350505050565b60606000821415612c15576040518060400160405280600181526020017f30000000000000000000000000000000000000000000000000000000000000008152509050612d75565b600082905060005b60008214612c47578080612c309061411b565b915050600a82612c409190613f0f565b9150612c1d565b60008167ffffffffffffffff811115612c89577f4e487b7100000000000000000000000000000000000000000000000000000000600052604160045260246000fd5b6040519080825280601f01601f191660200182016040528015612cbb5781602001600182028036833780820191505090505b5090505b60008514612d6e57600182612cd49190613f9a565b9150600a85612ce3919061419c565b6030612cef9190613eb9565b60f81b818381518110612d2b577f4e487b7100000000000000000000000000000000000000000000000000000000600052603260045260246000fd5b60200101907effffffffffffffffffffffffffffffffffffffffffffffffffffffffffffff1916908160001a905350600a85612d679190613f0f565b9450612cbf565b8093505050505b919050565b505050565b6008805490506009600083815260200190815260200160002081905550600881908060018154018082558091505060019003906000526020600020016000909190919091505550565b60006001612dd584611228565b612ddf9190613f9a565b9050600060076000848152602001908152602001600020549050818114612ec4576000600660008673ffffffffffffffffffffffffffffffffffffffff1673ffffffffffffffffffffffffffffffffffffffff168152602001908152602001600020600084815260200190815260200160002054905080600660008773ffffffffffffffffffffffffffffffffffffffff1673ffffffffffffffffffffffffffffffffffffffff168152602001908152602001600020600084815260200190815260200160002081905550816007600083815260200190815260200160002081905550505b6007600084815260200190815260200160002060009055600660008573ffffffffffffffffffffffffffffffffffffffff1673ffffffffffffffffffffffffffffffffffffffff16815260200190815260200160002060008381526020019081526020016000206000905550505050565b60006001600880549050612f499190613f9a565b9050600060096000848152602001908152602001600020549050600060088381548110612f9f577f4e487b7100000000000000000000000000000000000000000000000000000000600052603260045260246000fd5b906000526020600020015490508060088381548110612fe7577f4e487b7100000000000000000000000000000000000000000000000000000000600052603260045260246000fd5b90600052602060002001819055508160096000838152602001908152602001600020819055506009600085815260200190815260200160002060009055600880548061305c577f4e487b7100000000000000000000000000000000000000000000000000000000600052603160045260246000fd5b6001900381819060005260206000200160009055905550505050565b600061308383611228565b905081600660008573ffffffffffffffffffffffffffffffffffffffff1673ffffffffffffffffffffffffffffffffffffffff168152602001908152602001600020600083815260200190815260200160002081905550806007600084815260200190815260200160002081905550505050565b6000808273ffffffffffffffffffffffffffffffffffffffff163b119050919050565b828054613126906140b8565b90600052602060002090601f016020900481019282613148576000855561318f565b82601f1061316157805160ff191683800117855561318f565b8280016001018555821561318f579182015b8281111561318e578251825591602001919060010190613173565b5b50905061319c91906131a0565b5090565b5b808211156131b95760008160009055506001016131a1565b5090565b60006131d06131cb84613e14565b613def565b9050828152602081018484840111156131e857600080fd5b6131f384828561404c565b509392505050565b600061320e61320984613e45565b613def565b90508281526020810184848401111561322657600080fd5b61323184828561404c565b509392505050565b600081359050613248816147ec565b92915050565b60008135905061325d81614803565b92915050565b6000813590506132728161481a565b92915050565b6000815190506132878161481a565b92915050565b600082601f83011261329e57600080fd5b81356132ae8482602086016131bd565b91505092915050565b600082601f8301126132c857600080fd5b81356132d88482602086016131fb565b91505092915050565b6000813590506132f081614831565b92915050565b60006020828403121561330857600080fd5b600061331684828501613239565b91505092915050565b6000806040838503121561333257600080fd5b600061334085828601613239565b925050602061335185828601613239565b9150509250929050565b60008060006060848603121561337057600080fd5b600061337e86828701613239565b935050602061338f86828701613239565b92505060406133a0868287016132e1565b9150509250925092565b600080600080608085870312156133c057600080fd5b60006133ce87828801613239565b94505060206133df87828801613239565b93505060406133f0878288016132e1565b925050606085013567ffffffffffffffff81111561340d57600080fd5b6134198782880161328d565b91505092959194509250565b6000806040838503121561343857600080fd5b600061344685828601613239565b92505060206134578582860161324e565b9150509250929050565b6000806040838503121561347457600080fd5b600061348285828601613239565b925050602083013567ffffffffffffffff81111561349f57600080fd5b6134ab858286016132b7565b9150509250929050565b600080604083850312156134c857600080fd5b60006134d685828601613239565b92505060206134e7858286016132e1565b9150509250929050565b60006020828403121561350357600080fd5b600061351184828501613263565b91505092915050565b60006020828403121561352c57600080fd5b600061353a84828501613278565b91505092915050565b60006020828403121561355557600080fd5b600082013567ffffffffffffffff81111561356f57600080fd5b61357b848285016132b7565b91505092915050565b60006020828403121561359657600080fd5b60006135a4848285016132e1565b91505092915050565b600080604083850312156135c057600080fd5b60006135ce858286016132e1565b925050602083013567ffffffffffffffff8111156135eb57600080fd5b6135f7858286016132b7565b9150509250929050565b61360a81613fce565b82525050565b61362161361c82613fce565b614164565b82525050565b61363081613fe0565b82525050565b61364761364282613fec565b614176565b82525050565b600061365882613e76565b6136628185613e8c565b935061367281856020860161405b565b61367b81614289565b840191505092915050565b600061369182613e81565b61369b8185613e9d565b93506136ab81856020860161405b565b6136b481614289565b840191505092915050565b60006136ca82613e81565b6136d48185613eae565b93506136e481856020860161405b565b80840191505092915050565b60006136fd602083613e9d565b9150613708826142a7565b602082019050919050565b6000613720602b83613e9d565b915061372b826142d0565b604082019050919050565b6000613743603283613e9d565b915061374e8261431f565b604082019050919050565b6000613766602583613e9d565b91506137718261436e565b604082019050919050565b6000613789601c83613e9d565b9150613794826143bd565b602082019050919050565b60006137ac602483613e9d565b91506137b7826143e6565b604082019050919050565b60006137cf601983613e9d565b91506137da82614435565b602082019050919050565b60006137f2602c83613e9d565b91506137fd8261445e565b604082019050919050565b6000613815603883613e9d565b9150613820826144ad565b604082019050919050565b6000613838602a83613e9d565b9150613843826144fc565b604082019050919050565b600061385b602983613e9d565b91506138668261454b565b604082019050919050565b600061387e602e83613e9d565b91506138898261459a565b604082019050919050565b60006138a1602083613e9d565b91506138ac826145e9565b602082019050919050565b60006138c4603183613e9d565b91506138cf82614612565b604082019050919050565b60006138e7602c83613e9d565b91506138f282614661565b604082019050919050565b600061390a602f83613e9d565b9150613915826146b0565b604082019050919050565b600061392d602183613e9d565b9150613938826146ff565b604082019050919050565b6000613950603183613e9d565b915061395b8261474e565b604082019050919050565b6000613973602c83613e9d565b915061397e8261479d565b604082019050919050565b61399281614042565b82525050565b6139a96139a482614042565b614192565b82525050565b60006139bb8286613610565b6014820191506139cb8285613636565b6020820191506139db8284613998565b602082019150819050949350505050565b60006139f882856136bf565b9150613a0482846136bf565b91508190509392505050565b6000602082019050613a256000830184613601565b92915050565b6000604082019050613a406000830185613601565b613a4d6020830184613601565b9392505050565b6000608082019050613a696000830187613601565b613a766020830186613601565b613a836040830185613989565b8181036060830152613a95818461364d565b905095945050505050565b6000602082019050613ab56000830184613627565b92915050565b60006020820190508181036000830152613ad58184613686565b905092915050565b60006060820190508181036000830152613af78186613686565b9050613b066020830185613989565b8181036040830152613b188184613686565b9050949350505050565b60006020820190508181036000830152613b3b816136f0565b9050919050565b60006020820190508181036000830152613b5b81613713565b9050919050565b60006020820190508181036000830152613b7b81613736565b9050919050565b60006020820190508181036000830152613b9b81613759565b9050919050565b60006020820190508181036000830152613bbb8161377c565b9050919050565b60006020820190508181036000830152613bdb8161379f565b9050919050565b60006020820190508181036000830152613bfb816137c2565b9050919050565b60006020820190508181036000830152613c1b816137e5565b9050919050565b60006020820190508181036000830152613c3b81613808565b9050919050565b60006020820190508181036000830152613c5b8161382b565b9050919050565b60006020820190508181036000830152613c7b8161384e565b9050919050565b60006020820190508181036000830152613c9b81613871565b9050919050565b60006020820190508181036000830152613cbb81613894565b9050919050565b60006020820190508181036000830152613cdb816138b7565b9050919050565b60006020820190508181036000830152613cfb816138da565b9050919050565b60006020820190508181036000830152613d1b816138fd565b9050919050565b60006020820190508181036000830152613d3b81613920565b9050919050565b60006020820190508181036000830152613d5b81613943565b9050919050565b60006020820190508181036000830152613d7b81613966565b9050919050565b6000602082019050613d976000830184613989565b92915050565b6000604082019050613db26000830185613989565b613dbf6020830184613601565b9392505050565b6000604082019050613ddb6000830185613989565b613de86020830184613989565b9392505050565b6000613df9613e0a565b9050613e0582826140ea565b919050565b6000604051905090565b600067ffffffffffffffff821115613e2f57613e2e61425a565b5b613e3882614289565b9050602081019050919050565b600067ffffffffffffffff821115613e6057613e5f61425a565b5b613e6982614289565b9050602081019050919050565b600081519050919050565b600081519050919050565b600082825260208201905092915050565b600082825260208201905092915050565b600081905092915050565b6000613ec482614042565b9150613ecf83614042565b9250827fffffffffffffffffffffffffffffffffffffffffffffffffffffffffffffffff03821115613f0457613f036141cd565b5b828201905092915050565b6000613f1a82614042565b9150613f2583614042565b925082613f3557613f346141fc565b5b828204905092915050565b6000613f4b82614042565b9150613f5683614042565b9250817fffffffffffffffffffffffffffffffffffffffffffffffffffffffffffffffff0483118215151615613f8f57613f8e6141cd565b5b828202905092915050565b6000613fa582614042565b9150613fb083614042565b925082821015613fc357613fc26141cd565b5b828203905092915050565b6000613fd982614022565b9050919050565b60008115159050919050565b6000819050919050565b60007fffffffff0000000000000000000000000000000000000000000000000000000082169050919050565b600073ffffffffffffffffffffffffffffffffffffffff82169050919050565b6000819050919050565b82818337600083830152505050565b60005b8381101561407957808201518184015260208101905061405e565b83811115614088576000848401525b50505050565b600061409982614042565b915060008214156140ad576140ac6141cd565b5b600182039050919050565b600060028204905060018216806140d057607f821691505b602082108114156140e4576140e361422b565b5b50919050565b6140f382614289565b810181811067ffffffffffffffff821117156141125761411161425a565b5b80604052505050565b600061412682614042565b91507fffffffffffffffffffffffffffffffffffffffffffffffffffffffffffffffff821415614159576141586141cd565b5b600182019050919050565b600061416f82614180565b9050919050565b6000819050919050565b600061418b8261429a565b9050919050565b6000819050919050565b60006141a782614042565b91506141b283614042565b9250826141c2576141c16141fc565b5b828206905092915050565b7f4e487b7100000000000000000000000000000000000000000000000000000000600052601160045260246000fd5b7f4e487b7100000000000000000000000000000000000000000000000000000000600052601260045260246000fd5b7f4e487b7100000000000000000000000000000000000000000000000000000000600052602260045260246000fd5b7f4e487b7100000000000000000000000000000000000000000000000000000000600052604160045260246000fd5b6000601f19601f8301169050919050565b60008160601b9050919050565b7f537472696e67733a20686578206c656e67746820696e73756666696369656e74600082015250565b7f455243373231456e756d657261626c653a206f776e657220696e646578206f7560008201527f74206f6620626f756e6473000000000000000000000000000000000000000000602082015250565b7f4552433732313a207472616e7366657220746f206e6f6e20455243373231526560008201527f63656976657220696d706c656d656e7465720000000000000000000000000000602082015250565b7f4552433732313a207472616e736665722066726f6d20696e636f72726563742060008201527f6f776e6572000000000000000000000000000000000000000000000000000000602082015250565b7f4552433732313a20746f6b656e20616c7265616479206d696e74656400000000600082015250565b7f4552433732313a207472616e7366657220746f20746865207a65726f2061646460008201527f7265737300000000000000000000000000000000000000000000000000000000602082015250565b7f4552433732313a20617070726f766520746f2063616c6c657200000000000000600082015250565b7f4552433732313a206f70657261746f7220717565727920666f72206e6f6e657860008201527f697374656e7420746f6b656e0000000000000000000000000000000000000000602082015250565b7f4552433732313a20617070726f76652063616c6c6572206973206e6f74206f7760008201527f6e6572206e6f7220617070726f76656420666f7220616c6c0000000000000000602082015250565b7f4552433732313a2062616c616e636520717565727920666f7220746865207a6560008201527f726f206164647265737300000000000000000000000000000000000000000000602082015250565b7f4552433732313a206f776e657220717565727920666f72206e6f6e657869737460008201527f656e7420746f6b656e0000000000000000000000000000000000000000000000602082015250565b7f45524337323155524953746f726167653a2055524920736574206f66206e6f6e60008201527f6578697374656e7420746f6b656e000000000000000000000000000000000000602082015250565b7f4552433732313a206d696e7420746f20746865207a65726f2061646472657373600082015250565b7f45524337323155524953746f726167653a2055524920717565727920666f722060008201527f6e6f6e6578697374656e7420746f6b656e000000000000000000000000000000602082015250565b7f4552433732313a20617070726f76656420717565727920666f72206e6f6e657860008201527f697374656e7420746f6b656e0000000000000000000000000000000000000000602082015250565b7f4552433732314d657461646174613a2055524920717565727920666f72206e6f60008201527f6e6578697374656e7420746f6b656e0000000000000000000000000000000000602082015250565b7f4552433732313a20617070726f76616c20746f2063757272656e74206f776e6560008201527f7200000000000000000000000000000000000000000000000000000000000000602082015250565b7f4552433732313a207472616e736665722063616c6c6572206973206e6f74206f60008201527f776e6572206e6f7220617070726f766564000000000000000000000000000000602082015250565b7f455243373231456e756d657261626c653a20676c6f62616c20696e646578206f60008201527f7574206f6620626f756e64730000000000000000000000000000000000000000602082015250565b6147f581613fce565b811461480057600080fd5b50565b61480c81613fe0565b811461481757600080fd5b50565b61482381613ff6565b811461482e57600080fd5b50565b61483a81614042565b811461484557600080fd5b5056fe6d696e7465642c20746f6b656e49643a2025732c20746f6b656e5572693a202573a26469706673582212200d9a954ca713e33dc2c3941106ad4d097a4f285c55754a7343afeca51f50aaff64736f6c63430008040033",
  "linkReferences": {},
  "deployedLinkReferences": {}
}