{
  "_format": "hh-sol-artifact-1",
  "contractName": "NaiveFriends721",
  "sourceName": "contracts/NaiveFriends721.sol",
  "abi": [
    {
      "inputs": [
        {
          "internalType": "uint256",
          "name": "_tokenPrice",
          "type": "uint256"
        },
        {
          "internalType": "address",
          "name": "_admin",
          "type": "address"
        },
        {
          "internalType": "string",
          "name": "_pk",
          "type": "string"
        }
      ],
      "stateMutability": "nonpayable",
      "type": "constructor"
    },
    {
      "inputs": [
        {
          "internalType": "address",
          "name": "admin",
          "type": "address"
        },
        {
          "internalType": "address",
          "name": "caller",
          "type": "address"
        }
      ],
      "name": "AdminOnly",
      "type": "error"
    },
    {
      "inputs": [
        {
          "internalType": "uint256",
          "name": "price",
          "type": "uint256"
        },
        {
          "internalType": "uint256",
          "name": "offer",
          "type": "uint256"
        }
      ],
      "name": "InsufficientOffer",
      "type": "error"
    },
    {
      "inputs": [
        {
          "internalType": "uint256",
          "name": "balance",
          "type": "uint256"
        },
        {
          "internalType": "uint256",
          "name": "amount",
          "type": "uint256"
        }
      ],
      "name": "InsufficientPoolBalance",
      "type": "error"
    },
    {
      "inputs": [
        {
          "internalType": "uint256",
          "name": "price",
          "type": "uint256"
        }
      ],
      "name": "InvalidTokenPrice",
      "type": "error"
    },
    {
      "inputs": [
        {
          "internalType": "uint256",
          "name": "tokenId",
          "type": "uint256"
        },
        {
          "internalType": "address",
          "name": "caller",
          "type": "address"
        }
      ],
      "name": "OwnerOnly",
      "type": "error"
    },
    {
      "anonymous": false,
      "inputs": [
        {
          "indexed": true,
          "internalType": "address",
          "name": "owner",
          "type": "address"
        },
        {
          "indexed": true,
          "internalType": "address",
          "name": "approved",
          "type": "address"
        },
        {
          "indexed": true,
          "internalType": "uint256",
          "name": "tokenId",
          "type": "uint256"
        }
      ],
      "name": "Approval",
      "type": "event"
    },
    {
      "anonymous": false,
      "inputs": [
        {
          "indexed": true,
          "internalType": "address",
          "name": "owner",
          "type": "address"
        },
        {
          "indexed": true,
          "internalType": "address",
          "name": "operator",
          "type": "address"
        },
        {
          "indexed": false,
          "internalType": "bool",
          "name": "approved",
          "type": "bool"
        }
      ],
      "name": "ApprovalForAll",
      "type": "event"
    },
    {
      "anonymous": false,
      "inputs": [
        {
          "indexed": true,
          "internalType": "address",
          "name": "from",
          "type": "address"
        },
        {
          "indexed": true,
          "internalType": "address",
          "name": "to",
          "type": "address"
        },
        {
          "indexed": true,
          "internalType": "uint256",
          "name": "tokenId",
          "type": "uint256"
        }
      ],
      "name": "Transfer",
      "type": "event"
    },
    {
      "inputs": [],
      "name": "admin",
      "outputs": [
        {
          "internalType": "address",
          "name": "",
          "type": "address"
        }
      ],
      "stateMutability": "view",
      "type": "function"
    },
    {
      "inputs": [],
      "name": "adminEncryptPublicKey",
      "outputs": [
        {
          "internalType": "string",
          "name": "",
          "type": "string"
        }
      ],
      "stateMutability": "view",
      "type": "function"
    },
    {
      "inputs": [
        {
          "internalType": "address",
          "name": "to",
          "type": "address"
        },
        {
          "internalType": "uint256",
          "name": "tokenId",
          "type": "uint256"
        }
      ],
      "name": "approve",
      "outputs": [],
      "stateMutability": "nonpayable",
      "type": "function"
    },
    {
      "inputs": [
        {
          "internalType": "address",
          "name": "owner",
          "type": "address"
        }
      ],
      "name": "balanceOf",
      "outputs": [
        {
          "internalType": "uint256",
          "name": "",
          "type": "uint256"
        }
      ],
      "stateMutability": "view",
      "type": "function"
    },
    {
      "inputs": [
        {
          "internalType": "uint256",
          "name": "",
          "type": "uint256"
        }
      ],
      "name": "encryptPublicKeys",
      "outputs": [
        {
          "internalType": "string",
          "name": "",
          "type": "string"
        }
      ],
      "stateMutability": "view",
      "type": "function"
    },
    {
      "inputs": [
        {
          "internalType": "uint256",
          "name": "tokenId",
          "type": "uint256"
        }
      ],
      "name": "getApproved",
      "outputs": [
        {
          "internalType": "address",
          "name": "",
          "type": "address"
        }
      ],
      "stateMutability": "view",
      "type": "function"
    },
    {
      "inputs": [
        {
          "internalType": "address",
          "name": "owner",
          "type": "address"
        },
        {
          "internalType": "address",
          "name": "operator",
          "type": "address"
        }
      ],
      "name": "isApprovedForAll",
      "outputs": [
        {
          "internalType": "bool",
          "name": "",
          "type": "bool"
        }
      ],
      "stateMutability": "view",
      "type": "function"
    },
    {
      "inputs": [
        {
          "internalType": "address",
          "name": "player",
          "type": "address"
        }
      ],
      "name": "mint",
      "outputs": [
        {
          "internalType": "uint256",
          "name": "",
          "type": "uint256"
        }
      ],
      "stateMutability": "payable",
      "type": "function"
    },
    {
      "inputs": [],
      "name": "name",
      "outputs": [
        {
          "internalType": "string",
          "name": "",
          "type": "string"
        }
      ],
      "stateMutability": "view",
      "type": "function"
    },
    {
      "inputs": [
        {
          "internalType": "uint256",
          "name": "tokenId",
          "type": "uint256"
        }
      ],
      "name": "ownerOf",
      "outputs": [
        {
          "internalType": "address",
          "name": "",
          "type": "address"
        }
      ],
      "stateMutability": "view",
      "type": "function"
    },
    {
      "inputs": [
        {
          "internalType": "address",
          "name": "from",
          "type": "address"
        },
        {
          "internalType": "address",
          "name": "to",
          "type": "address"
        },
        {
          "internalType": "uint256",
          "name": "tokenId",
          "type": "uint256"
        }
      ],
      "name": "safeTransferFrom",
      "outputs": [],
      "stateMutability": "nonpayable",
      "type": "function"
    },
    {
      "inputs": [
        {
          "internalType": "address",
          "name": "from",
          "type": "address"
        },
        {
          "internalType": "address",
          "name": "to",
          "type": "address"
        },
        {
          "internalType": "uint256",
          "name": "tokenId",
          "type": "uint256"
        },
        {
          "internalType": "bytes",
          "name": "_data",
          "type": "bytes"
        }
      ],
      "name": "safeTransferFrom",
      "outputs": [],
      "stateMutability": "nonpayable",
      "type": "function"
    },
    {
      "inputs": [
        {
          "internalType": "address",
          "name": "_admin",
          "type": "address"
        },
        {
          "internalType": "string",
          "name": "_pk",
          "type": "string"
        }
      ],
      "name": "setAdmin",
      "outputs": [],
      "stateMutability": "nonpayable",
      "type": "function"
    },
    {
      "inputs": [
        {
          "internalType": "string",
          "name": "_pk",
          "type": "string"
        }
      ],
      "name": "setAdminEncryptPublickKey",
      "outputs": [],
      "stateMutability": "nonpayable",
      "type": "function"
    },
    {
      "inputs": [
        {
          "internalType": "address",
          "name": "operator",
          "type": "address"
        },
        {
          "internalType": "bool",
          "name": "approved",
          "type": "bool"
        }
      ],
      "name": "setApprovalForAll",
      "outputs": [],
      "stateMutability": "nonpayable",
      "type": "function"
    },
    {
      "inputs": [
        {
          "internalType": "uint256",
          "name": "tokenId",
          "type": "uint256"
        },
        {
          "internalType": "string",
          "name": "key",
          "type": "string"
        }
      ],
      "name": "setEncryptPublicKey",
      "outputs": [],
      "stateMutability": "nonpayable",
      "type": "function"
    },
    {
      "inputs": [
        {
          "internalType": "uint256",
          "name": "price",
          "type": "uint256"
        }
      ],
      "name": "setPrice",
      "outputs": [],
      "stateMutability": "nonpayable",
      "type": "function"
    },
    {
      "inputs": [
        {
          "internalType": "address",
          "name": "player",
          "type": "address"
        },
        {
          "internalType": "string",
          "name": "key",
          "type": "string"
        }
      ],
      "name": "subscribe",
      "outputs": [],
      "stateMutability": "payable",
      "type": "function"
    },
    {
      "inputs": [
        {
          "internalType": "bytes4",
          "name": "interfaceId",
          "type": "bytes4"
        }
      ],
      "name": "supportsInterface",
      "outputs": [
        {
          "internalType": "bool",
          "name": "",
          "type": "bool"
        }
      ],
      "stateMutability": "view",
      "type": "function"
    },
    {
      "inputs": [],
      "name": "symbol",
      "outputs": [
        {
          "internalType": "string",
          "name": "",
          "type": "string"
        }
      ],
      "stateMutability": "view",
      "type": "function"
    },
    {
      "inputs": [],
      "name": "tokenPrice",
      "outputs": [
        {
          "internalType": "uint256",
          "name": "",
          "type": "uint256"
        }
      ],
      "stateMutability": "view",
      "type": "function"
    },
    {
      "inputs": [
        {
          "internalType": "uint256",
          "name": "tokenId",
          "type": "uint256"
        }
      ],
      "name": "tokenURI",
      "outputs": [
        {
          "internalType": "string",
          "name": "",
          "type": "string"
        }
      ],
      "stateMutability": "view",
      "type": "function"
    },
    {
      "inputs": [],
      "name": "totalTokens",
      "outputs": [
        {
          "internalType": "uint256",
          "name": "",
          "type": "uint256"
        }
      ],
      "stateMutability": "view",
      "type": "function"
    },
    {
      "inputs": [
        {
          "internalType": "address",
          "name": "from",
          "type": "address"
        },
        {
          "internalType": "address",
          "name": "to",
          "type": "address"
        },
        {
          "internalType": "uint256",
          "name": "tokenId",
          "type": "uint256"
        }
      ],
      "name": "transferFrom",
      "outputs": [],
      "stateMutability": "nonpayable",
      "type": "function"
    },
    {
      "inputs": [
        {
          "internalType": "uint256",
          "name": "_amount",
          "type": "uint256"
        }
      ],
      "name": "withdraw",
      "outputs": [],
      "stateMutability": "nonpayable",
      "type": "function"
    }
  ],
  "bytecode": "0x60806040523480156200001157600080fd5b506040516200566338038062005663833981810160405281019062000037919062000400565b6040518060400160405280600f81526020017f4e61697665467269656e647337323100000000000000000000000000000000008152506040518060400160405280600481526020017f52414846000000000000000000000000000000000000000000000000000000008152508160009080519060200190620000bb929190620002b0565b508060019080519060200190620000d4929190620002b0565b5050506200010b7f73864c8a2762ce426fdcef9c7ea2ccafbf6b5798ec6fe9b37edae324a2f52c2860001b620002ad60201b60201c565b6200013f7f8ae0646d23ddadeb6b62837fd9f037b92de9e715df32c773ba681ce4c217cb3960001b620002ad60201b60201c565b620001737fd81e065f896eeecc08fae608064403447a6646f0f6748fee7579a1035247511060001b620002ad60201b60201c565b82600881905550620001ae7fb7cdadf82f82cad81c3d42dfd4413661f605535dfa9d0c77d7585372231c8ed460001b620002ad60201b60201c565b620001e27fef2dfe7bc8a162a7879a57a58e4bdd2d3952955e4febcf0b193f55d95c54361c60001b620002ad60201b60201c565b81600960006101000a81548173ffffffffffffffffffffffffffffffffffffffff021916908373ffffffffffffffffffffffffffffffffffffffff160217905550620002577fe9e1c6d5ba9e9c668fe9e0e1ffe9bb32d68a453f017636ca2d4652aadf0e321c60001b620002ad60201b60201c565b6200028b7f3cb13a46c00bc05c0e67c46c3cd74060e870e93d22085bb8b2eb9f8963dbf64a60001b620002ad60201b60201c565b80600a9080519060200190620002a3929190620002b0565b5050505062000651565b50565b828054620002be9062000542565b90600052602060002090601f016020900481019282620002e257600085556200032e565b82601f10620002fd57805160ff19168380011785556200032e565b828001600101855582156200032e579182015b828111156200032d57825182559160200191906001019062000310565b5b5090506200033d919062000341565b5090565b5b808211156200035c57600081600090555060010162000342565b5090565b600062000377620003718462000498565b6200046f565b9050828152602081018484840111156200039057600080fd5b6200039d8482856200050c565b509392505050565b600081519050620003b6816200061d565b92915050565b600082601f830112620003ce57600080fd5b8151620003e084826020860162000360565b91505092915050565b600081519050620003fa8162000637565b92915050565b6000806000606084860312156200041657600080fd5b60006200042686828701620003e9565b93505060206200043986828701620003a5565b925050604084015167ffffffffffffffff8111156200045757600080fd5b6200046586828701620003bc565b9150509250925092565b60006200047b6200048e565b905062000489828262000578565b919050565b6000604051905090565b600067ffffffffffffffff821115620004b657620004b5620005dd565b5b620004c1826200060c565b9050602081019050919050565b6000620004db82620004e2565b9050919050565b600073ffffffffffffffffffffffffffffffffffffffff82169050919050565b6000819050919050565b60005b838110156200052c5780820151818401526020810190506200050f565b838111156200053c576000848401525b50505050565b600060028204905060018216806200055b57607f821691505b60208210811415620005725762000571620005ae565b5b50919050565b62000583826200060c565b810181811067ffffffffffffffff82111715620005a557620005a4620005dd565b5b80604052505050565b7f4e487b7100000000000000000000000000000000000000000000000000000000600052602260045260246000fd5b7f4e487b7100000000000000000000000000000000000000000000000000000000600052604160045260246000fd5b6000601f19601f8301169050919050565b6200062881620004ce565b81146200063457600080fd5b50565b620006428162000502565b81146200064e57600080fd5b50565b61500280620006616000396000f3fe6080604052600436106101665760003560e01c806370a08231116100d1578063a22cb4651161008a578063e107cf5d11610064578063e107cf5d14610542578063e985e9c51461056d578063f414321a146105aa578063f851a440146105d357610166565b8063a22cb465146104b3578063b88d4fde146104dc578063c87b56dd1461050557610166565b806370a082311461038f5780637e1c0c09146103cc5780637ff9b596146103f757806391b7f5ed1461042257806395d89b411461044b5780639df8fa9e1461047657610166565b80633c659743116101235780633c6597431461028b57806342842e0e146102a7578063476f6dd4146102d05780635de8f985146102f95780636352211e146103225780636a6278421461035f57610166565b806301ffc9a71461016b57806306fdde03146101a8578063081812fc146101d3578063095ea7b31461021057806323b872dd146102395780632e1a7d4d14610262575b600080fd5b34801561017757600080fd5b50610192600480360381019061018d9190613d78565b6105fe565b60405161019f91906142e1565b60405180910390f35b3480156101b457600080fd5b506101bd6106e0565b6040516101ca91906142fc565b60405180910390f35b3480156101df57600080fd5b506101fa60048036038101906101f59190613e0b565b610772565b6040516102079190614251565b60405180910390f35b34801561021c57600080fd5b5061023760048036038101906102329190613d3c565b6107f7565b005b34801561024557600080fd5b50610260600480360381019061025b9190613be2565b61090f565b005b34801561026e57600080fd5b5061028960048036038101906102849190613e0b565b61096f565b005b6102a560048036038101906102a09190613ce8565b610cf2565b005b3480156102b357600080fd5b506102ce60048036038101906102c99190613be2565b61120f565b005b3480156102dc57600080fd5b506102f760048036038101906102f29190613ce8565b61122f565b005b34801561030557600080fd5b50610320600480360381019061031b9190613e34565b6114f9565b005b34801561032e57600080fd5b5061034960048036038101906103449190613e0b565b6116e0565b6040516103569190614251565b60405180910390f35b61037960048036038101906103749190613b7d565b611792565b6040516103869190614583565b60405180910390f35b34801561039b57600080fd5b506103b660048036038101906103b19190613b7d565b611cab565b6040516103c39190614583565b60405180910390f35b3480156103d857600080fd5b506103e1611d63565b6040516103ee9190614583565b60405180910390f35b34801561040357600080fd5b5061040c611e55565b6040516104199190614583565b60405180910390f35b34801561042e57600080fd5b5061044960048036038101906104449190613e0b565b611e5b565b005b34801561045757600080fd5b5061046061219c565b60405161046d91906142fc565b60405180910390f35b34801561048257600080fd5b5061049d60048036038101906104989190613e0b565b61222e565b6040516104aa91906142fc565b60405180910390f35b3480156104bf57600080fd5b506104da60048036038101906104d59190613cac565b6122ce565b005b3480156104e857600080fd5b5061050360048036038101906104fe9190613c31565b6122e4565b005b34801561051157600080fd5b5061052c60048036038101906105279190613e0b565b612346565b60405161053991906142fc565b60405180910390f35b34801561054e57600080fd5b50610557612498565b60405161056491906142fc565b60405180910390f35b34801561057957600080fd5b50610594600480360381019061058f9190613ba6565b612526565b6040516105a191906142e1565b60405180910390f35b3480156105b657600080fd5b506105d160048036038101906105cc9190613dca565b6125ba565b005b3480156105df57600080fd5b506105e86127ea565b6040516105f59190614251565b60405180910390f35b60007f80ac58cd000000000000000000000000000000000000000000000000000000007bffffffffffffffffffffffffffffffffffffffffffffffffffffffff1916827bffffffffffffffffffffffffffffffffffffffffffffffffffffffff191614806106c957507f5b5e139f000000000000000000000000000000000000000000000000000000007bffffffffffffffffffffffffffffffffffffffffffffffffffffffff1916827bffffffffffffffffffffffffffffffffffffffffffffffffffffffff1916145b806106d957506106d882612810565b5b9050919050565b6060600080546106ef906148b9565b80601f016020809104026020016040519081016040528092919081815260200182805461071b906148b9565b80156107685780601f1061073d57610100808354040283529160200191610768565b820191906000526020600020905b81548152906001019060200180831161074b57829003601f168201915b5050505050905090565b600061077d8261287a565b6107bc576040517f08c379a00000000000000000000000000000000000000000000000000000000081526004016107b390614503565b60405180910390fd5b6004600083815260200190815260200160002060009054906101000a900473ffffffffffffffffffffffffffffffffffffffff169050919050565b6000610802826116e0565b90508073ffffffffffffffffffffffffffffffffffffffff168373ffffffffffffffffffffffffffffffffffffffff161415610873576040517f08c379a000000000000000000000000000000000000000000000000000000000815260040161086a90614543565b60405180910390fd5b8073ffffffffffffffffffffffffffffffffffffffff166108926128e6565b73ffffffffffffffffffffffffffffffffffffffff1614806108c157506108c0816108bb6128e6565b612526565b5b610900576040517f08c379a00000000000000000000000000000000000000000000000000000000081526004016108f790614443565b60405180910390fd5b61090a83836128ee565b505050565b61092061091a6128e6565b826129a7565b61095f576040517f08c379a000000000000000000000000000000000000000000000000000000000815260040161095690614563565b60405180910390fd5b61096a838383612a85565b505050565b61099b7f88dddc41562e066610110260b7bc3686da506d21da0a1965084b9fb502c4086760001b612cec565b6109c77ffa93113e296749184b1c08513042c113cc6b6dc6b9e184f52a55effec15ffbc660001b612cec565b6109f37f07abcbeaa130eaf7c204be81953e5ef157bb8e39118b6c4aa02d7b99a62a656360001b612cec565b600960009054906101000a900473ffffffffffffffffffffffffffffffffffffffff1673ffffffffffffffffffffffffffffffffffffffff163373ffffffffffffffffffffffffffffffffffffffff1614610b0157610a747ff88ac7782d2185dfdaa9e6c605166a7b2d5b0e570df3e53dfc1c7daf9cc84b3b60001b612cec565b610aa07fc59607c06095c0bab0e139bc3987f0a54a20be01c8b9b24ad68ba3faf1ae89a860001b612cec565b600960009054906101000a900473ffffffffffffffffffffffffffffffffffffffff16336040517f64a14abf000000000000000000000000000000000000000000000000000000008152600401610af892919061426c565b60405180910390fd5b610b2d7f1508ebe6339115442d4656be625b25d832a358f2a7efed872d435b3c14bb9a2f60001b612cec565b610b597fb3993be46c48267b76f84f3d02a24b0944c4ddfe4961872e58f7d8e3666c950b60001b612cec565b610b857f1e8e4050676f31c09dc24164edd2c507de0011f056f17128d0d67fef037ed6af60001b612cec565b47811115610c2457610bb97fdd1055507cbf6a8d0adfa415fdc12db3b5d56fb76446131ebb6d23e2ba86bc7a60001b612cec565b610be57f419f1dacd137d4580f3c5c08e2b899942b23f12c8044bb8720c64da7634939fc60001b612cec565b47816040517fce9514f9000000000000000000000000000000000000000000000000000000008152600401610c1b9291906145c7565b60405180910390fd5b610c507fa4cea352cd2d4fd312f5934ff863f6a8d8a3d9f7a8b47bd5fc3655b29db09f5960001b612cec565b610c7c7fb5f72a7a725ddf9f523e7625e1534eeab1048c5d97068e1841dc983a47d4a24a60001b612cec565b610ca87f8aac05a9b5ae360c207ff792c5e57443f488c12d729d00b4262446f7484a6daa60001b612cec565b3373ffffffffffffffffffffffffffffffffffffffff166108fc829081150290604051600060405180830381858888f19350505050158015610cee573d6000803e3d6000fd5b5050565b610d1e7f01a1edff5d02d5b2d4e4afa3e0e40b962abcfa9a0de6ea86e528bead9ab5c07b60001b612cec565b610d4a7f7c9dacdef819ae66bc92a573fdbeaade6fa579d6081e6794bec2da04620610da60001b612cec565b610d767fdd1de0e811b7a3eb7c8e38b24aff83b5fbc196e486fcb9c3adef6beabd1718cd60001b612cec565b600854341015610e1957610dac7fae0fdba50277d6fbcbbdca8cda110119644a298ac2b706acfd4232088925e7cd60001b612cec565b610dd87f222cebbe9f1481e6b6bb2049e8117e719100c954fd14377027a700dcab996bc460001b612cec565b600854346040517fa9b308f4000000000000000000000000000000000000000000000000000000008152600401610e109291906145c7565b60405180910390fd5b610e457f6148c34602463171177b001486a896a7cfe0c55926eed525f996e97efaa4031160001b612cec565b610e717f069f92a433f1bda50bf5e2b0b5286bdc8282254fda620ff6b25b69eb0fd77c6360001b612cec565b610e9d7f6d1f71065df9de84fb6b89e4ae25e1b706ab11222ba530dc735071ce1332770d60001b612cec565b610ea76007612cef565b610ed37fa96d83da20e13a2aa9f7738a91506238bfb98d00a11caceaa59f8f4670a8ae0960001b612cec565b610eff7fc328d7596203022fb6cc6858ab964d2689e0f071f92fc7377f1c5f518080d5ff60001b612cec565b6000610f0b6007612d05565b9050610f397f3c3751bb02ea0b24c30e01808982ca90d1bde4804e181a53b1ecfdab7cfb618260001b612cec565b610f657f1595b4f48d436f7d48fed878ab4c60e9863fee2a8e0e6b5ef98f73140d44606b60001b612cec565b610f6f8382612d13565b610f9b7fd3d2d92db2f573191c32d70c3059da9902f923e6bac577eb73cfdbd1c044167260001b612cec565b610fc77f97357881d9668228f6933ac8af7643782389f3691e22ce848a756fc16c4280e860001b612cec565b6000600243610fd6919061479b565b4090506110057f23cb61a6c61f657ddda4974488eb19143c1f444336211185acc73a1c750d468e60001b612cec565b6110317fc1ff7685073ad6cda7bc8353b917ec04895b873393117ced7064e940e3d1fba160001b612cec565b6000338284604051602001611048939291906141f0565b60405160208183030381529060405280519060200120905061108c7f3d4d4be44852f281feaac72458c95ce4860f9df83fb8960b34bb9a9cc9ae2ded60001b612cec565b6110b87f86d623e66305d75f861bf7f0342535c20babd05baf490457aa63c55a6c44cc2e60001b612cec565b60006110c68260001c612eed565b90506110f47ff680486296c07f13828a45479feb091f9a9ccf28d7b88049b9459ce6fa513c8760001b612cec565b6111207f0d17b20a0521c502d061117fd4ac0890ea761f08980e4830907ec4841b86f1a260001b612cec565b61112a8482612f73565b6111567f812e66146b30eb63945b235bc398f0ff6a7ba7dda3e67f84f005e929c2aba4e160001b612cec565b6111827fc43446715ea4c78307a671f66d30e8ace053e697602620392c7da6c1eb64094e60001b612cec565b6111a5604051806060016040528060218152602001614fac602191398583612fe7565b6111d17fdfe1b845f1e102e5fa4a2d09a8f81d925e1b338a8689b3be1b8eb2567d87243360001b612cec565b6111fd7ff07f6ae73e78c89bdab428cf2d287b125f4f015f63f4e656aa07e9f24c1f187c60001b612cec565b61120784866114f9565b505050505050565b61122a838383604051806020016040528060008152506122e4565b505050565b61125b7fc41e2abfdfdd1263aec31955bb792e70aa1a59c878b2678c13f7da5ea0fe332460001b612cec565b6112877f8dfca12aae8997cb95e2b6bdacdd1da6dddda42eab12c59a29ab4baf2e727ca160001b612cec565b6112b37f98d0e310909a6f6472bdb58b2b2651a8c6c19368753bb91c4befceb6ff9e8a0e60001b612cec565b600960009054906101000a900473ffffffffffffffffffffffffffffffffffffffff1673ffffffffffffffffffffffffffffffffffffffff163373ffffffffffffffffffffffffffffffffffffffff16146113c1576113347f77191721977cbf390708a008ab84af64a6082f705ae7e48a1fe32e8d429cd6c960001b612cec565b6113607fe653e7d83318e1ac09c37ba9d93e22e46ed4715cdb84e0e087c63056a06ce3b960001b612cec565b600960009054906101000a900473ffffffffffffffffffffffffffffffffffffffff16336040517f64a14abf0000000000000000000000000000000000000000000000000000000081526004016113b892919061426c565b60405180910390fd5b6113ed7fcadf6593f813e0c18c88c01eb570b97f503d8303d1fb4e0bec9979ce91ad711b60001b612cec565b6114197fc10631d283a4700d7a7f3f4fdfb081cd3a66ac8b0085059995180533e433f3e160001b612cec565b6114457f5875e9a8291e0ab55099ce54a90e16f8466e4ba15651a55abf68efe9f12ce33960001b612cec565b81600960006101000a81548173ffffffffffffffffffffffffffffffffffffffff021916908373ffffffffffffffffffffffffffffffffffffffff1602179055506114b27fe8036f3403e9140ddc584e0a5203c05d28c4ad5c648e0b07cd8711cb30a0829760001b612cec565b6114de7f5d24eb0670b12daaae30f33f2fe1f00656d0739239677aac01194673b2bfc94b60001b612cec565b80600a90805190602001906114f49291906139a1565b505050565b6115257f9b202d833738e6b6638477ba4bac86e7598977526a600d499418804299f7958a60001b612cec565b6115517fb090359d3e5dd0a69b230febc4d6fcc6d70043dd09fc656922053d6f14b3b61460001b612cec565b61157d7f0ba2d88dca96e30084f33dc141b265f98a8d7bbdea318428bb9dc64ddb71ab4960001b612cec565b61158e6115886128e6565b836129a7565b611630576115be7f180b9c6432d87214de26fa74c5c1e242292b57d421f199a2649c6dd5882dd2d960001b612cec565b6115ea7fe5762e90db1d669b8c730d0c9eb3249070ceab1e5617fd94050af8e701fc820d60001b612cec565b816115f36128e6565b6040517faf2a76f100000000000000000000000000000000000000000000000000000000815260040161162792919061459e565b60405180910390fd5b61165c7fcd8625ec897f9dd68996bf2d31c0874bf9e592e3b3998cedcfb881671fc3df3660001b612cec565b6116887f9d9309ba902ae4cd88baaf24c2396511a061f218604b47da179b93d001697c1360001b612cec565b6116b47f33aa083b2149f7bac16411525084d5840247bdb78660b5422dfee3081ddc68c360001b612cec565b80600b600084815260200190815260200160002090805190602001906116db9291906139a1565b505050565b6000806002600084815260200190815260200160002060009054906101000a900473ffffffffffffffffffffffffffffffffffffffff169050600073ffffffffffffffffffffffffffffffffffffffff168173ffffffffffffffffffffffffffffffffffffffff161415611789576040517f08c379a000000000000000000000000000000000000000000000000000000000815260040161178090614483565b60405180910390fd5b80915050919050565b60006117c07fb1910f99dcc955451e69745bb7cf27f0b6dbe57a898f820d15dd482c82e9a42060001b612cec565b6117ec7fdca58ae0cd3715d7c556e72a6753b0636ec8f4e9d6efe403565e75a649c2166460001b612cec565b6118187f2c567b9446e6d18c69562a52ca2e90623690fcf96d81f173c9603ccb5886d01160001b612cec565b6008543410156118bb5761184e7fdb57b98f68847ae36789ef8d691694d315e43b7ee50aca67f875015fcf36355660001b612cec565b61187a7f68c8bcbb114b3ad31e043660a93c80ff05102f05c879c7193e4e957daa74c06660001b612cec565b600854346040517fa9b308f40000000000000000000000000000000000000000000000000000000081526004016118b29291906145c7565b60405180910390fd5b6118e77f497c754fb26eb80059f31097a051c77bee64e1d612b4b62e27e17dfb155cc4c560001b612cec565b6119137fb87a6045e586aa34ed2a358a5b9109ef495e2e169f15ceeb04ac96b2622d871960001b612cec565b61193f7f9955ea797fa564e755182d0d9e2a28f4b5ba06fa953df847d70da17eeedfc50460001b612cec565b6119496007612cef565b6119757f50320103680cb6786374d01d219507d71169de12eb19a2525bc99e4e5f367d3460001b612cec565b6119a17fcc3897cee61858e478debcca4333f3fe7d44bbf4fa48e8e27f29ee57f27ae6e960001b612cec565b60006119ad6007612d05565b90506119db7ff6f045f048d577a5d46adc474eb1b96aad0325061c357be33f8698be392df0ac60001b612cec565b611a077ff237e978bcf141a57cd1c288853c99036692fff0eb72c4480535cce12f58ef5160001b612cec565b611a118382612d13565b611a3d7ff0345d9922460d75cdf863c38fec67f8a24eed6658ed32911988a902826d72f660001b612cec565b611a697fac33c9d356fe9c388bf1164deb2b3b36f94a7af6055d7bcae1818b58743f3a0360001b612cec565b6000600243611a78919061479b565b409050611aa77f79cb12c7966f48b807c97a07f08c1ed4639ec9131e3cda71b1d2c996712d1a1760001b612cec565b611ad37ff697d057b24b075102fb5b72fe33efdf5e2b87a251eb1e09ebbf0547262143a960001b612cec565b6000338284604051602001611aea939291906141f0565b604051602081830303815290604052805190602001209050611b2e7f5b54cbaa4df414c1ec1667252d94f05ffe6f9b26c0a30602f57a663cb7f9c64f60001b612cec565b611b5a7fe891d8eb82bc784037398dd7e0f15f59338f8f30f5064dd4d2defc13101eb93960001b612cec565b6000611b688260001c612eed565b9050611b967f8d0bdcb14354b9a047a46f33b3d9017bc055fb081678d4e8fbb72e40061c4e4b60001b612cec565b611bc27f9e95b7ee89301ef07c0a388e00b1918c0891d38d001e25358cde507aeff886cd60001b612cec565b611bcc8482612f73565b611bf87f3dbfc4ace7e39e8ad4315586cfba373c098661f31f193d3c674ac96afc4b86f660001b612cec565b611c247fcc1cd57e3e3a2576b6a1e145ef75c8c8e3ec9e135979771af82d018c37c9047d60001b612cec565b611c47604051806060016040528060218152602001614fac602191398583612fe7565b611c737f527d8cdf36de5cb47b3a5b0b2acb1275d8788878c06bfdd35c60b6d948daeae560001b612cec565b611c9f7f2233da2f8334b708c0e4269bd22e1732bf6d6d1bc46a461d1dfaa5e7badce7a560001b612cec565b83945050505050919050565b60008073ffffffffffffffffffffffffffffffffffffffff168273ffffffffffffffffffffffffffffffffffffffff161415611d1c576040517f08c379a0000000000000000000000000000000000000000000000000000000008152600401611d1390614463565b60405180910390fd5b600360008373ffffffffffffffffffffffffffffffffffffffff1673ffffffffffffffffffffffffffffffffffffffff168152602001908152602001600020549050919050565b6000611d917fa062c43693767e8a03fdc8c55256b3908f8f2adc00c9887a27891b6585b2d83360001b612cec565b611dbd7f378d692f1f6e216f4bac935ff911ccbc19983d583c93d302579e81af36302d6e60001b612cec565b611de97fe17fd0c4f81c8fdbb0cc00bcbf7da6b362a1c0c063c6068e0ca52d3a52c4566e60001b612cec565b6000611df56007612d05565b9050611e227e661696f79f72a223911ddc5b1bafc48c13e7ab66fbdd3380bb4cf0c1b78e0260001b612cec565b611e4e7f5c1f4f695334f3b35c3962725662a853c8ab9c16854ede4d2997a125977f44f960001b612cec565b8091505090565b60085481565b611e877f0360cc37823e93b7ca1417d193e3c5c914fecda3f6d86d4febd45edc2cf4460260001b612cec565b611eb37ffdcefa0a03aa3a92d0fd1211c661b7754d63bc0c8c125b8b72fe115fd9472d0260001b612cec565b611edf7f8bc88b7ac7372c2e4aa13db13ea30718b75c3bdd9baaf1472aa8fef53a010a3c60001b612cec565b600960009054906101000a900473ffffffffffffffffffffffffffffffffffffffff1673ffffffffffffffffffffffffffffffffffffffff163373ffffffffffffffffffffffffffffffffffffffff1614611fed57611f607f6cc60eedc0fb64af9a6cf4c99854a4b60fda2e76136dcdcfe782214060609b8b60001b612cec565b611f8c7f487a27c77ae94d0ebf5f8c89e2c1e14a33d60048a3a907744cf10f54ffacf15160001b612cec565b600960009054906101000a900473ffffffffffffffffffffffffffffffffffffffff16336040517f64a14abf000000000000000000000000000000000000000000000000000000008152600401611fe492919061426c565b60405180910390fd5b6120197faeafafc4dd55811b5b7e33245cb7e8ecbba02dc407030e31fc533ef55c93464a60001b612cec565b6120457f42036b1d782ed24f41ef930ccd545b3f012afbc3e47ff66ef76d0fa311ed699f60001b612cec565b6120717f0c1efda0f75bd70cca22939fe375d23b5331f70205c69734a64ff933d3da9a3460001b612cec565b6000811161210e576120a57f7869796c2d81d7d2bc3fc474bcd331f04e6cd08f35905b515d1223f912e12e3560001b612cec565b6120d17f86f7bca8c8a4cb9bb38d34da4ecd37c63bdad5305167690d7c5b846bfbff9fd360001b612cec565b806040517f820f07950000000000000000000000000000000000000000000000000000000081526004016121059190614583565b60405180910390fd5b61213a7fa8ba02151427269ec6d84236dafc4d738760aa24c8c7d2665e4ceefad8ae91ef60001b612cec565b6121667ffd5c0f52800dd958708730563b51334df7d05f5745cab3bbd1f622956fd28cc660001b612cec565b6121927f75197e7fe6f5c4b253b03c0a3be198948b226f72d06f3653ec1271e36d471a8360001b612cec565b8060088190555050565b6060600180546121ab906148b9565b80601f01602080910402602001604051908101604052809291908181526020018280546121d7906148b9565b80156122245780601f106121f957610100808354040283529160200191612224565b820191906000526020600020905b81548152906001019060200180831161220757829003601f168201915b5050505050905090565b600b602052806000526040600020600091509050805461224d906148b9565b80601f0160208091040260200160405190810160405280929190818152602001828054612279906148b9565b80156122c65780601f1061229b576101008083540402835291602001916122c6565b820191906000526020600020905b8154815290600101906020018083116122a957829003601f168201915b505050505081565b6122e06122d96128e6565b8383613086565b5050565b6122f56122ef6128e6565b836129a7565b612334576040517f08c379a000000000000000000000000000000000000000000000000000000000815260040161232b90614563565b60405180910390fd5b612340848484846131f3565b50505050565b60606123518261287a565b612390576040517f08c379a0000000000000000000000000000000000000000000000000000000008152600401612387906144e3565b60405180910390fd5b60006006600084815260200190815260200160002080546123b0906148b9565b80601f01602080910402602001604051908101604052809291908181526020018280546123dc906148b9565b80156124295780601f106123fe57610100808354040283529160200191612429565b820191906000526020600020905b81548152906001019060200180831161240c57829003601f168201915b50505050509050600061243a61324f565b9050600081511415612450578192505050612493565b60008251111561248557808260405160200161246d92919061422d565b60405160208183030381529060405292505050612493565b61248e84613266565b925050505b919050565b600a80546124a5906148b9565b80601f01602080910402602001604051908101604052809291908181526020018280546124d1906148b9565b801561251e5780601f106124f35761010080835404028352916020019161251e565b820191906000526020600020905b81548152906001019060200180831161250157829003601f168201915b505050505081565b6000600560008473ffffffffffffffffffffffffffffffffffffffff1673ffffffffffffffffffffffffffffffffffffffff16815260200190815260200160002060008373ffffffffffffffffffffffffffffffffffffffff1673ffffffffffffffffffffffffffffffffffffffff16815260200190815260200160002060009054906101000a900460ff16905092915050565b6125e67ff4f47c4d606465b79fd317d576e09d1f38fcc99144bb7cffa3b22bcb4ae2386c60001b612cec565b6126127fb327531c789feca316ff532d332d994b6e58e328277d886c7b53a6220501118960001b612cec565b61263e7f2542d7e87ab0b18529dd87c16c5e2a2423993eadfbc598bea4a301c3f121390a60001b612cec565b600960009054906101000a900473ffffffffffffffffffffffffffffffffffffffff1673ffffffffffffffffffffffffffffffffffffffff163373ffffffffffffffffffffffffffffffffffffffff161461274c576126bf7fb2452defd852373880391989a2c237a920d2da26018950d94198c3e9b5a3a3e760001b612cec565b6126eb7f856853ce8ca7f1297e393e2f83bc387dfbbe84e3ff83830ddfdb6ec38864125c60001b612cec565b600960009054906101000a900473ffffffffffffffffffffffffffffffffffffffff16336040517f64a14abf00000000000000000000000000000000000000000000000000000000815260040161274392919061426c565b60405180910390fd5b6127787fddc4d3cf6dbf592e2276a853140bec222906c60ac18cc8d8c84b7097eb72217860001b612cec565b6127a47fd385aa659e151061ce3ecb250e01cc12d41a4084137dd4aa64ad987eddf7f01260001b612cec565b6127d07f9bf57917d14936df946847bcc9536a053736c77678666bee910e3b00431dbda560001b612cec565b80600a90805190602001906127e69291906139a1565b5050565b600960009054906101000a900473ffffffffffffffffffffffffffffffffffffffff1681565b60007f01ffc9a7000000000000000000000000000000000000000000000000000000007bffffffffffffffffffffffffffffffffffffffffffffffffffffffff1916827bffffffffffffffffffffffffffffffffffffffffffffffffffffffff1916149050919050565b60008073ffffffffffffffffffffffffffffffffffffffff166002600084815260200190815260200160002060009054906101000a900473ffffffffffffffffffffffffffffffffffffffff1673ffffffffffffffffffffffffffffffffffffffff1614159050919050565b600033905090565b816004600083815260200190815260200160002060006101000a81548173ffffffffffffffffffffffffffffffffffffffff021916908373ffffffffffffffffffffffffffffffffffffffff160217905550808273ffffffffffffffffffffffffffffffffffffffff16612961836116e0565b73ffffffffffffffffffffffffffffffffffffffff167f8c5be1e5ebec7d5bd14f71427d1e84f3dd0314c0f7b2291e5b200ac8c7c3b92560405160405180910390a45050565b60006129b28261287a565b6129f1576040517f08c379a00000000000000000000000000000000000000000000000000000000081526004016129e890614423565b60405180910390fd5b60006129fc836116e0565b90508073ffffffffffffffffffffffffffffffffffffffff168473ffffffffffffffffffffffffffffffffffffffff161480612a3e5750612a3d8185612526565b5b80612a7c57508373ffffffffffffffffffffffffffffffffffffffff16612a6484610772565b73ffffffffffffffffffffffffffffffffffffffff16145b91505092915050565b8273ffffffffffffffffffffffffffffffffffffffff16612aa5826116e0565b73ffffffffffffffffffffffffffffffffffffffff1614612afb576040517f08c379a0000000000000000000000000000000000000000000000000000000008152600401612af2906143a3565b60405180910390fd5b600073ffffffffffffffffffffffffffffffffffffffff168273ffffffffffffffffffffffffffffffffffffffff161415612b6b576040517f08c379a0000000000000000000000000000000000000000000000000000000008152600401612b62906143e3565b60405180910390fd5b612b7683838361330d565b612b816000826128ee565b6001600360008573ffffffffffffffffffffffffffffffffffffffff1673ffffffffffffffffffffffffffffffffffffffff1681526020019081526020016000206000828254612bd1919061479b565b925050819055506001600360008473ffffffffffffffffffffffffffffffffffffffff1673ffffffffffffffffffffffffffffffffffffffff1681526020019081526020016000206000828254612c2891906146ba565b92505081905550816002600083815260200190815260200160002060006101000a81548173ffffffffffffffffffffffffffffffffffffffff021916908373ffffffffffffffffffffffffffffffffffffffff160217905550808273ffffffffffffffffffffffffffffffffffffffff168473ffffffffffffffffffffffffffffffffffffffff167fddf252ad1be2c89b69c2b068fc378daa952ba7f163c4a11628f55a4df523b3ef60405160405180910390a4612ce7838383613312565b505050565b50565b6001816000016000828254019250508190555050565b600081600001549050919050565b600073ffffffffffffffffffffffffffffffffffffffff168273ffffffffffffffffffffffffffffffffffffffff161415612d83576040517f08c379a0000000000000000000000000000000000000000000000000000000008152600401612d7a906144c3565b60405180910390fd5b612d8c8161287a565b15612dcc576040517f08c379a0000000000000000000000000000000000000000000000000000000008152600401612dc3906143c3565b60405180910390fd5b612dd86000838361330d565b6001600360008473ffffffffffffffffffffffffffffffffffffffff1673ffffffffffffffffffffffffffffffffffffffff1681526020019081526020016000206000828254612e2891906146ba565b92505081905550816002600083815260200190815260200160002060006101000a81548173ffffffffffffffffffffffffffffffffffffffff021916908373ffffffffffffffffffffffffffffffffffffffff160217905550808273ffffffffffffffffffffffffffffffffffffffff16600073ffffffffffffffffffffffffffffffffffffffff167fddf252ad1be2c89b69c2b068fc378daa952ba7f163c4a11628f55a4df523b3ef60405160405180910390a4612ee960008383613312565b5050565b60606000821415612f35576040518060400160405280600481526020017f30783030000000000000000000000000000000000000000000000000000000008152509050612f6e565b600082905060005b60008214612f5f578080612f509061491c565b915050600882901c9150612f3d565b612f698482613317565b925050505b919050565b612f7c8261287a565b612fbb576040517f08c379a0000000000000000000000000000000000000000000000000000000008152600401612fb2906144a3565b60405180910390fd5b80600660008481526020019081526020016000209080519060200190612fe29291906139a1565b505050565b613081838383604051602401612fff9392919061431e565b6040516020818303038152906040527fa3f5c739000000000000000000000000000000000000000000000000000000007bffffffffffffffffffffffffffffffffffffffffffffffffffffffff19166020820180517bffffffffffffffffffffffffffffffffffffffffffffffffffffffff8381831617835250505050613611565b505050565b8173ffffffffffffffffffffffffffffffffffffffff168373ffffffffffffffffffffffffffffffffffffffff1614156130f5576040517f08c379a00000000000000000000000000000000000000000000000000000000081526004016130ec90614403565b60405180910390fd5b80600560008573ffffffffffffffffffffffffffffffffffffffff1673ffffffffffffffffffffffffffffffffffffffff16815260200190815260200160002060008473ffffffffffffffffffffffffffffffffffffffff1673ffffffffffffffffffffffffffffffffffffffff16815260200190815260200160002060006101000a81548160ff0219169083151502179055508173ffffffffffffffffffffffffffffffffffffffff168373ffffffffffffffffffffffffffffffffffffffff167f17307eab39ab6107e8899845ad3d59bd9653f200f220920489ca2b5937696c31836040516131e691906142e1565b60405180910390a3505050565b6131fe848484612a85565b61320a8484848461363a565b613249576040517f08c379a000000000000000000000000000000000000000000000000000000000815260040161324090614383565b60405180910390fd5b50505050565b606060405180602001604052806000815250905090565b60606132718261287a565b6132b0576040517f08c379a00000000000000000000000000000000000000000000000000000000081526004016132a790614523565b60405180910390fd5b60006132ba61324f565b905060008151116132da5760405180602001604052806000815250613305565b806132e4846137d1565b6040516020016132f592919061422d565b6040516020818303038152906040525b915050919050565b505050565b505050565b60606000600283600261332a9190614741565b61333491906146ba565b67ffffffffffffffff811115613373577f4e487b7100000000000000000000000000000000000000000000000000000000600052604160045260246000fd5b6040519080825280601f01601f1916602001820160405280156133a55781602001600182028036833780820191505090505b5090507f300000000000000000000000000000000000000000000000000000000000000081600081518110613403577f4e487b7100000000000000000000000000000000000000000000000000000000600052603260045260246000fd5b60200101907effffffffffffffffffffffffffffffffffffffffffffffffffffffffffffff1916908160001a9053507f78000000000000000000000000000000000000000000000000000000000000008160018151811061348d577f4e487b7100000000000000000000000000000000000000000000000000000000600052603260045260246000fd5b60200101907effffffffffffffffffffffffffffffffffffffffffffffffffffffffffffff1916908160001a905350600060018460026134cd9190614741565b6134d791906146ba565b90505b60018111156135c3577f3031323334353637383961626364656600000000000000000000000000000000600f86166010811061353f577f4e487b7100000000000000000000000000000000000000000000000000000000600052603260045260246000fd5b1a60f81b82828151811061357c577f4e487b7100000000000000000000000000000000000000000000000000000000600052603260045260246000fd5b60200101907effffffffffffffffffffffffffffffffffffffffffffffffffffffffffffff1916908160001a905350600485901c9450806135bc9061488f565b90506134da565b5060008414613607576040517f08c379a00000000000000000000000000000000000000000000000000000000081526004016135fe90614363565b60405180910390fd5b8091505092915050565b60008151905060006a636f6e736f6c652e6c6f679050602083016000808483855afa5050505050565b600061365b8473ffffffffffffffffffffffffffffffffffffffff1661397e565b156137c4578373ffffffffffffffffffffffffffffffffffffffff1663150b7a026136846128e6565b8786866040518563ffffffff1660e01b81526004016136a69493929190614295565b602060405180830381600087803b1580156136c057600080fd5b505af19250505080156136f157506040513d601f19601f820116820180604052508101906136ee9190613da1565b60015b613774573d8060008114613721576040519150601f19603f3d011682016040523d82523d6000602084013e613726565b606091505b5060008151141561376c576040517f08c379a000000000000000000000000000000000000000000000000000000000815260040161376390614383565b60405180910390fd5b805181602001fd5b63150b7a0260e01b7bffffffffffffffffffffffffffffffffffffffffffffffffffffffff1916817bffffffffffffffffffffffffffffffffffffffffffffffffffffffff1916149150506137c9565b600190505b949350505050565b60606000821415613819576040518060400160405280600181526020017f30000000000000000000000000000000000000000000000000000000000000008152509050613979565b600082905060005b6000821461384b5780806138349061491c565b915050600a826138449190614710565b9150613821565b60008167ffffffffffffffff81111561388d577f4e487b7100000000000000000000000000000000000000000000000000000000600052604160045260246000fd5b6040519080825280601f01601f1916602001820160405280156138bf5781602001600182028036833780820191505090505b5090505b60008514613972576001826138d8919061479b565b9150600a856138e7919061499d565b60306138f391906146ba565b60f81b81838151811061392f577f4e487b7100000000000000000000000000000000000000000000000000000000600052603260045260246000fd5b60200101907effffffffffffffffffffffffffffffffffffffffffffffffffffffffffffff1916908160001a905350600a8561396b9190614710565b94506138c3565b8093505050505b919050565b6000808273ffffffffffffffffffffffffffffffffffffffff163b119050919050565b8280546139ad906148b9565b90600052602060002090601f0160209004810192826139cf5760008555613a16565b82601f106139e857805160ff1916838001178555613a16565b82800160010185558215613a16579182015b82811115613a155782518255916020019190600101906139fa565b5b509050613a239190613a27565b5090565b5b80821115613a40576000816000905550600101613a28565b5090565b6000613a57613a5284614615565b6145f0565b905082815260208101848484011115613a6f57600080fd5b613a7a84828561484d565b509392505050565b6000613a95613a9084614646565b6145f0565b905082815260208101848484011115613aad57600080fd5b613ab884828561484d565b509392505050565b600081359050613acf81614f4f565b92915050565b600081359050613ae481614f66565b92915050565b600081359050613af981614f7d565b92915050565b600081519050613b0e81614f7d565b92915050565b600082601f830112613b2557600080fd5b8135613b35848260208601613a44565b91505092915050565b600082601f830112613b4f57600080fd5b8135613b5f848260208601613a82565b91505092915050565b600081359050613b7781614f94565b92915050565b600060208284031215613b8f57600080fd5b6000613b9d84828501613ac0565b91505092915050565b60008060408385031215613bb957600080fd5b6000613bc785828601613ac0565b9250506020613bd885828601613ac0565b9150509250929050565b600080600060608486031215613bf757600080fd5b6000613c0586828701613ac0565b9350506020613c1686828701613ac0565b9250506040613c2786828701613b68565b9150509250925092565b60008060008060808587031215613c4757600080fd5b6000613c5587828801613ac0565b9450506020613c6687828801613ac0565b9350506040613c7787828801613b68565b925050606085013567ffffffffffffffff811115613c9457600080fd5b613ca087828801613b14565b91505092959194509250565b60008060408385031215613cbf57600080fd5b6000613ccd85828601613ac0565b9250506020613cde85828601613ad5565b9150509250929050565b60008060408385031215613cfb57600080fd5b6000613d0985828601613ac0565b925050602083013567ffffffffffffffff811115613d2657600080fd5b613d3285828601613b3e565b9150509250929050565b60008060408385031215613d4f57600080fd5b6000613d5d85828601613ac0565b9250506020613d6e85828601613b68565b9150509250929050565b600060208284031215613d8a57600080fd5b6000613d9884828501613aea565b91505092915050565b600060208284031215613db357600080fd5b6000613dc184828501613aff565b91505092915050565b600060208284031215613ddc57600080fd5b600082013567ffffffffffffffff811115613df657600080fd5b613e0284828501613b3e565b91505092915050565b600060208284031215613e1d57600080fd5b6000613e2b84828501613b68565b91505092915050565b60008060408385031215613e4757600080fd5b6000613e5585828601613b68565b925050602083013567ffffffffffffffff811115613e7257600080fd5b613e7e85828601613b3e565b9150509250929050565b613e91816147cf565b82525050565b613ea8613ea3826147cf565b614965565b82525050565b613eb7816147e1565b82525050565b613ece613ec9826147ed565b614977565b82525050565b6000613edf82614677565b613ee9818561468d565b9350613ef981856020860161485c565b613f0281614a8a565b840191505092915050565b6000613f1882614682565b613f22818561469e565b9350613f3281856020860161485c565b613f3b81614a8a565b840191505092915050565b6000613f5182614682565b613f5b81856146af565b9350613f6b81856020860161485c565b80840191505092915050565b6000613f8460208361469e565b9150613f8f82614aa8565b602082019050919050565b6000613fa760328361469e565b9150613fb282614ad1565b604082019050919050565b6000613fca60258361469e565b9150613fd582614b20565b604082019050919050565b6000613fed601c8361469e565b9150613ff882614b6f565b602082019050919050565b600061401060248361469e565b915061401b82614b98565b604082019050919050565b600061403360198361469e565b915061403e82614be7565b602082019050919050565b6000614056602c8361469e565b915061406182614c10565b604082019050919050565b600061407960388361469e565b915061408482614c5f565b604082019050919050565b600061409c602a8361469e565b91506140a782614cae565b604082019050919050565b60006140bf60298361469e565b91506140ca82614cfd565b604082019050919050565b60006140e2602e8361469e565b91506140ed82614d4c565b604082019050919050565b600061410560208361469e565b915061411082614d9b565b602082019050919050565b600061412860318361469e565b915061413382614dc4565b604082019050919050565b600061414b602c8361469e565b915061415682614e13565b604082019050919050565b600061416e602f8361469e565b915061417982614e62565b604082019050919050565b600061419160218361469e565b915061419c82614eb1565b604082019050919050565b60006141b460318361469e565b91506141bf82614f00565b604082019050919050565b6141d381614843565b82525050565b6141ea6141e582614843565b614993565b82525050565b60006141fc8286613e97565b60148201915061420c8285613ebd565b60208201915061421c82846141d9565b602082019150819050949350505050565b60006142398285613f46565b91506142458284613f46565b91508190509392505050565b60006020820190506142666000830184613e88565b92915050565b60006040820190506142816000830185613e88565b61428e6020830184613e88565b9392505050565b60006080820190506142aa6000830187613e88565b6142b76020830186613e88565b6142c460408301856141ca565b81810360608301526142d68184613ed4565b905095945050505050565b60006020820190506142f66000830184613eae565b92915050565b600060208201905081810360008301526143168184613f0d565b905092915050565b600060608201905081810360008301526143388186613f0d565b905061434760208301856141ca565b81810360408301526143598184613f0d565b9050949350505050565b6000602082019050818103600083015261437c81613f77565b9050919050565b6000602082019050818103600083015261439c81613f9a565b9050919050565b600060208201905081810360008301526143bc81613fbd565b9050919050565b600060208201905081810360008301526143dc81613fe0565b9050919050565b600060208201905081810360008301526143fc81614003565b9050919050565b6000602082019050818103600083015261441c81614026565b9050919050565b6000602082019050818103600083015261443c81614049565b9050919050565b6000602082019050818103600083015261445c8161406c565b9050919050565b6000602082019050818103600083015261447c8161408f565b9050919050565b6000602082019050818103600083015261449c816140b2565b9050919050565b600060208201905081810360008301526144bc816140d5565b9050919050565b600060208201905081810360008301526144dc816140f8565b9050919050565b600060208201905081810360008301526144fc8161411b565b9050919050565b6000602082019050818103600083015261451c8161413e565b9050919050565b6000602082019050818103600083015261453c81614161565b9050919050565b6000602082019050818103600083015261455c81614184565b9050919050565b6000602082019050818103600083015261457c816141a7565b9050919050565b600060208201905061459860008301846141ca565b92915050565b60006040820190506145b360008301856141ca565b6145c06020830184613e88565b9392505050565b60006040820190506145dc60008301856141ca565b6145e960208301846141ca565b9392505050565b60006145fa61460b565b905061460682826148eb565b919050565b6000604051905090565b600067ffffffffffffffff8211156146305761462f614a5b565b5b61463982614a8a565b9050602081019050919050565b600067ffffffffffffffff82111561466157614660614a5b565b5b61466a82614a8a565b9050602081019050919050565b600081519050919050565b600081519050919050565b600082825260208201905092915050565b600082825260208201905092915050565b600081905092915050565b60006146c582614843565b91506146d083614843565b9250827fffffffffffffffffffffffffffffffffffffffffffffffffffffffffffffffff03821115614705576147046149ce565b5b828201905092915050565b600061471b82614843565b915061472683614843565b925082614736576147356149fd565b5b828204905092915050565b600061474c82614843565b915061475783614843565b9250817fffffffffffffffffffffffffffffffffffffffffffffffffffffffffffffffff04831182151516156147905761478f6149ce565b5b828202905092915050565b60006147a682614843565b91506147b183614843565b9250828210156147c4576147c36149ce565b5b828203905092915050565b60006147da82614823565b9050919050565b60008115159050919050565b6000819050919050565b60007fffffffff0000000000000000000000000000000000000000000000000000000082169050919050565b600073ffffffffffffffffffffffffffffffffffffffff82169050919050565b6000819050919050565b82818337600083830152505050565b60005b8381101561487a57808201518184015260208101905061485f565b83811115614889576000848401525b50505050565b600061489a82614843565b915060008214156148ae576148ad6149ce565b5b600182039050919050565b600060028204905060018216806148d157607f821691505b602082108114156148e5576148e4614a2c565b5b50919050565b6148f482614a8a565b810181811067ffffffffffffffff8211171561491357614912614a5b565b5b80604052505050565b600061492782614843565b91507fffffffffffffffffffffffffffffffffffffffffffffffffffffffffffffffff82141561495a576149596149ce565b5b600182019050919050565b600061497082614981565b9050919050565b6000819050919050565b600061498c82614a9b565b9050919050565b6000819050919050565b60006149a882614843565b91506149b383614843565b9250826149c3576149c26149fd565b5b828206905092915050565b7f4e487b7100000000000000000000000000000000000000000000000000000000600052601160045260246000fd5b7f4e487b7100000000000000000000000000000000000000000000000000000000600052601260045260246000fd5b7f4e487b7100000000000000000000000000000000000000000000000000000000600052602260045260246000fd5b7f4e487b7100000000000000000000000000000000000000000000000000000000600052604160045260246000fd5b6000601f19601f8301169050919050565b60008160601b9050919050565b7f537472696e67733a20686578206c656e67746820696e73756666696369656e74600082015250565b7f4552433732313a207472616e7366657220746f206e6f6e20455243373231526560008201527f63656976657220696d706c656d656e7465720000000000000000000000000000602082015250565b7f4552433732313a207472616e736665722066726f6d20696e636f72726563742060008201527f6f776e6572000000000000000000000000000000000000000000000000000000602082015250565b7f4552433732313a20746f6b656e20616c7265616479206d696e74656400000000600082015250565b7f4552433732313a207472616e7366657220746f20746865207a65726f2061646460008201527f7265737300000000000000000000000000000000000000000000000000000000602082015250565b7f4552433732313a20617070726f766520746f2063616c6c657200000000000000600082015250565b7f4552433732313a206f70657261746f7220717565727920666f72206e6f6e657860008201527f697374656e7420746f6b656e0000000000000000000000000000000000000000602082015250565b7f4552433732313a20617070726f76652063616c6c6572206973206e6f74206f7760008201527f6e6572206e6f7220617070726f76656420666f7220616c6c0000000000000000602082015250565b7f4552433732313a2062616c616e636520717565727920666f7220746865207a6560008201527f726f206164647265737300000000000000000000000000000000000000000000602082015250565b7f4552433732313a206f776e657220717565727920666f72206e6f6e657869737460008201527f656e7420746f6b656e0000000000000000000000000000000000000000000000602082015250565b7f45524337323155524953746f726167653a2055524920736574206f66206e6f6e60008201527f6578697374656e7420746f6b656e000000000000000000000000000000000000602082015250565b7f4552433732313a206d696e7420746f20746865207a65726f2061646472657373600082015250565b7f45524337323155524953746f726167653a2055524920717565727920666f722060008201527f6e6f6e6578697374656e7420746f6b656e000000000000000000000000000000602082015250565b7f4552433732313a20617070726f76656420717565727920666f72206e6f6e657860008201527f697374656e7420746f6b656e0000000000000000000000000000000000000000602082015250565b7f4552433732314d657461646174613a2055524920717565727920666f72206e6f60008201527f6e6578697374656e7420746f6b656e0000000000000000000000000000000000602082015250565b7f4552433732313a20617070726f76616c20746f2063757272656e74206f776e6560008201527f7200000000000000000000000000000000000000000000000000000000000000602082015250565b7f4552433732313a207472616e736665722063616c6c6572206973206e6f74206f60008201527f776e6572206e6f7220617070726f766564000000000000000000000000000000602082015250565b614f58816147cf565b8114614f6357600080fd5b50565b614f6f816147e1565b8114614f7a57600080fd5b50565b614f86816147f7565b8114614f9157600080fd5b50565b614f9d81614843565b8114614fa857600080fd5b5056fe6d696e7465642c20746f6b656e49643a2025732c20746f6b656e5572693a202573a2646970667358221220a484cf54cf395dc3513f29476a6c061c82f4a59640cbfe69b036b6d14b972b7864736f6c63430008040033",
  "linkReferences": {},
  "deployedLinkReferences": {}
}