{
  "_format": "hh-sol-artifact-1",
  "contractName": "NaiveFriends721",
  "sourceName": "contracts/NaiveFriends721.sol",
  "abi": [
    {
      "inputs": [
        {
          "internalType": "uint256",
          "name": "_tokenPrice",
          "type": "uint256"
        },
        {
          "internalType": "address",
          "name": "_admin",
          "type": "address"
        }
      ],
      "stateMutability": "nonpayable",
      "type": "constructor"
    },
    {
      "inputs": [
        {
          "internalType": "address",
          "name": "admin",
          "type": "address"
        },
        {
          "internalType": "address",
          "name": "caller",
          "type": "address"
        }
      ],
      "name": "AdminOnly",
      "type": "error"
    },
    {
      "inputs": [
        {
          "internalType": "uint256",
          "name": "price",
          "type": "uint256"
        },
        {
          "internalType": "uint256",
          "name": "offer",
          "type": "uint256"
        }
      ],
      "name": "InsufficientOffer",
      "type": "error"
    },
    {
      "inputs": [
        {
          "internalType": "uint256",
          "name": "balance",
          "type": "uint256"
        },
        {
          "internalType": "uint256",
          "name": "amount",
          "type": "uint256"
        }
      ],
      "name": "InsufficientPoolBalance",
      "type": "error"
    },
    {
      "inputs": [
        {
          "internalType": "uint256",
          "name": "tokenId",
          "type": "uint256"
        },
        {
          "internalType": "address",
          "name": "caller",
          "type": "address"
        }
      ],
      "name": "OwnerOnly",
      "type": "error"
    },
    {
      "anonymous": false,
      "inputs": [
        {
          "indexed": true,
          "internalType": "address",
          "name": "owner",
          "type": "address"
        },
        {
          "indexed": true,
          "internalType": "address",
          "name": "approved",
          "type": "address"
        },
        {
          "indexed": true,
          "internalType": "uint256",
          "name": "tokenId",
          "type": "uint256"
        }
      ],
      "name": "Approval",
      "type": "event"
    },
    {
      "anonymous": false,
      "inputs": [
        {
          "indexed": true,
          "internalType": "address",
          "name": "owner",
          "type": "address"
        },
        {
          "indexed": true,
          "internalType": "address",
          "name": "operator",
          "type": "address"
        },
        {
          "indexed": false,
          "internalType": "bool",
          "name": "approved",
          "type": "bool"
        }
      ],
      "name": "ApprovalForAll",
      "type": "event"
    },
    {
      "anonymous": false,
      "inputs": [
        {
          "indexed": true,
          "internalType": "address",
          "name": "from",
          "type": "address"
        },
        {
          "indexed": true,
          "internalType": "address",
          "name": "to",
          "type": "address"
        },
        {
          "indexed": true,
          "internalType": "uint256",
          "name": "tokenId",
          "type": "uint256"
        }
      ],
      "name": "Transfer",
      "type": "event"
    },
    {
      "inputs": [],
      "name": "admin",
      "outputs": [
        {
          "internalType": "address",
          "name": "",
          "type": "address"
        }
      ],
      "stateMutability": "view",
      "type": "function"
    },
    {
      "inputs": [
        {
          "internalType": "address",
          "name": "to",
          "type": "address"
        },
        {
          "internalType": "uint256",
          "name": "tokenId",
          "type": "uint256"
        }
      ],
      "name": "approve",
      "outputs": [],
      "stateMutability": "nonpayable",
      "type": "function"
    },
    {
      "inputs": [
        {
          "internalType": "address",
          "name": "owner",
          "type": "address"
        }
      ],
      "name": "balanceOf",
      "outputs": [
        {
          "internalType": "uint256",
          "name": "",
          "type": "uint256"
        }
      ],
      "stateMutability": "view",
      "type": "function"
    },
    {
      "inputs": [
        {
          "internalType": "uint256",
          "name": "",
          "type": "uint256"
        }
      ],
      "name": "encryptPublicKeys",
      "outputs": [
        {
          "internalType": "string",
          "name": "",
          "type": "string"
        }
      ],
      "stateMutability": "view",
      "type": "function"
    },
    {
      "inputs": [
        {
          "internalType": "uint256",
          "name": "tokenId",
          "type": "uint256"
        }
      ],
      "name": "getApproved",
      "outputs": [
        {
          "internalType": "address",
          "name": "",
          "type": "address"
        }
      ],
      "stateMutability": "view",
      "type": "function"
    },
    {
      "inputs": [
        {
          "internalType": "address",
          "name": "owner",
          "type": "address"
        },
        {
          "internalType": "address",
          "name": "operator",
          "type": "address"
        }
      ],
      "name": "isApprovedForAll",
      "outputs": [
        {
          "internalType": "bool",
          "name": "",
          "type": "bool"
        }
      ],
      "stateMutability": "view",
      "type": "function"
    },
    {
      "inputs": [
        {
          "internalType": "address",
          "name": "player",
          "type": "address"
        }
      ],
      "name": "mint",
      "outputs": [
        {
          "internalType": "uint256",
          "name": "",
          "type": "uint256"
        }
      ],
      "stateMutability": "payable",
      "type": "function"
    },
    {
      "inputs": [],
      "name": "name",
      "outputs": [
        {
          "internalType": "string",
          "name": "",
          "type": "string"
        }
      ],
      "stateMutability": "view",
      "type": "function"
    },
    {
      "inputs": [
        {
          "internalType": "uint256",
          "name": "tokenId",
          "type": "uint256"
        }
      ],
      "name": "ownerOf",
      "outputs": [
        {
          "internalType": "address",
          "name": "",
          "type": "address"
        }
      ],
      "stateMutability": "view",
      "type": "function"
    },
    {
      "inputs": [
        {
          "internalType": "address",
          "name": "from",
          "type": "address"
        },
        {
          "internalType": "address",
          "name": "to",
          "type": "address"
        },
        {
          "internalType": "uint256",
          "name": "tokenId",
          "type": "uint256"
        }
      ],
      "name": "safeTransferFrom",
      "outputs": [],
      "stateMutability": "nonpayable",
      "type": "function"
    },
    {
      "inputs": [
        {
          "internalType": "address",
          "name": "from",
          "type": "address"
        },
        {
          "internalType": "address",
          "name": "to",
          "type": "address"
        },
        {
          "internalType": "uint256",
          "name": "tokenId",
          "type": "uint256"
        },
        {
          "internalType": "bytes",
          "name": "_data",
          "type": "bytes"
        }
      ],
      "name": "safeTransferFrom",
      "outputs": [],
      "stateMutability": "nonpayable",
      "type": "function"
    },
    {
      "inputs": [
        {
          "internalType": "address",
          "name": "operator",
          "type": "address"
        },
        {
          "internalType": "bool",
          "name": "approved",
          "type": "bool"
        }
      ],
      "name": "setApprovalForAll",
      "outputs": [],
      "stateMutability": "nonpayable",
      "type": "function"
    },
    {
      "inputs": [
        {
          "internalType": "uint256",
          "name": "tokenId",
          "type": "uint256"
        },
        {
          "internalType": "string",
          "name": "key",
          "type": "string"
        }
      ],
      "name": "setEncryptPublicKey",
      "outputs": [],
      "stateMutability": "nonpayable",
      "type": "function"
    },
    {
      "inputs": [
        {
          "internalType": "bytes4",
          "name": "interfaceId",
          "type": "bytes4"
        }
      ],
      "name": "supportsInterface",
      "outputs": [
        {
          "internalType": "bool",
          "name": "",
          "type": "bool"
        }
      ],
      "stateMutability": "view",
      "type": "function"
    },
    {
      "inputs": [],
      "name": "symbol",
      "outputs": [
        {
          "internalType": "string",
          "name": "",
          "type": "string"
        }
      ],
      "stateMutability": "view",
      "type": "function"
    },
    {
      "inputs": [],
      "name": "tokenPrice",
      "outputs": [
        {
          "internalType": "uint256",
          "name": "",
          "type": "uint256"
        }
      ],
      "stateMutability": "view",
      "type": "function"
    },
    {
      "inputs": [
        {
          "internalType": "uint256",
          "name": "tokenId",
          "type": "uint256"
        }
      ],
      "name": "tokenURI",
      "outputs": [
        {
          "internalType": "string",
          "name": "",
          "type": "string"
        }
      ],
      "stateMutability": "view",
      "type": "function"
    },
    {
      "inputs": [
        {
          "internalType": "address",
          "name": "from",
          "type": "address"
        },
        {
          "internalType": "address",
          "name": "to",
          "type": "address"
        },
        {
          "internalType": "uint256",
          "name": "tokenId",
          "type": "uint256"
        }
      ],
      "name": "transferFrom",
      "outputs": [],
      "stateMutability": "nonpayable",
      "type": "function"
    },
    {
      "inputs": [
        {
          "internalType": "uint256",
          "name": "_amount",
          "type": "uint256"
        }
      ],
      "name": "withdraw",
      "outputs": [],
      "stateMutability": "nonpayable",
      "type": "function"
    }
  ],
  "bytecode": "0x60806040523480156200001157600080fd5b5060405162003ac438038062003ac4833981810160405281019062000037919062000205565b6040518060400160405280600f81526020017f4e61697665467269656e647337323100000000000000000000000000000000008152506040518060400160405280600481526020017f52414846000000000000000000000000000000000000000000000000000000008152508160009080519060200190620000bb92919062000127565b508060019080519060200190620000d492919062000127565b5050508160088190555080600960006101000a81548173ffffffffffffffffffffffffffffffffffffffff021916908373ffffffffffffffffffffffffffffffffffffffff16021790555050506200031d565b828054620001359062000284565b90600052602060002090601f016020900481019282620001595760008555620001a5565b82601f106200017457805160ff1916838001178555620001a5565b82800160010185558215620001a5579182015b82811115620001a457825182559160200191906001019062000187565b5b509050620001b49190620001b8565b5090565b5b80821115620001d3576000816000905550600101620001b9565b5090565b600081519050620001e881620002e9565b92915050565b600081519050620001ff8162000303565b92915050565b600080604083850312156200021957600080fd5b60006200022985828601620001ee565b92505060206200023c85828601620001d7565b9150509250929050565b600062000253826200025a565b9050919050565b600073ffffffffffffffffffffffffffffffffffffffff82169050919050565b6000819050919050565b600060028204905060018216806200029d57607f821691505b60208210811415620002b457620002b3620002ba565b5b50919050565b7f4e487b7100000000000000000000000000000000000000000000000000000000600052602260045260246000fd5b620002f48162000246565b81146200030057600080fd5b50565b6200030e816200027a565b81146200031a57600080fd5b50565b613797806200032d6000396000f3fe6080604052600436106101145760003560e01c80636a627842116100a0578063a22cb46511610064578063a22cb465146103c8578063b88d4fde146103f1578063c87b56dd1461041a578063e985e9c514610457578063f851a4401461049457610114565b80636a627842146102c857806370a08231146102f85780637ff9b5961461033557806395d89b41146103605780639df8fa9e1461038b57610114565b806323b872dd116100e757806323b872dd146101e75780632e1a7d4d1461021057806342842e0e146102395780635de8f985146102625780636352211e1461028b57610114565b806301ffc9a71461011957806306fdde0314610156578063081812fc14610181578063095ea7b3146101be575b600080fd5b34801561012557600080fd5b50610140600480360381019061013b919061254e565b6104bf565b60405161014d9190612a76565b60405180910390f35b34801561016257600080fd5b5061016b6105a1565b6040516101789190612a91565b60405180910390f35b34801561018d57600080fd5b506101a860048036038101906101a391906125a0565b610633565b6040516101b591906129e6565b60405180910390f35b3480156101ca57600080fd5b506101e560048036038101906101e09190612512565b6106b8565b005b3480156101f357600080fd5b5061020e6004803603810190610209919061240c565b6107d0565b005b34801561021c57600080fd5b50610237600480360381019061023291906125a0565b610830565b005b34801561024557600080fd5b50610260600480360381019061025b919061240c565b610977565b005b34801561026e57600080fd5b50610289600480360381019061028491906125c9565b610997565b005b34801561029757600080fd5b506102b260048036038101906102ad91906125a0565b610a1e565b6040516102bf91906129e6565b60405180910390f35b6102e260048036038101906102dd91906123a7565b610ad0565b6040516102ef9190612d18565b60405180910390f35b34801561030457600080fd5b5061031f600480360381019061031a91906123a7565b610bc9565b60405161032c9190612d18565b60405180910390f35b34801561034157600080fd5b5061034a610c81565b6040516103579190612d18565b60405180910390f35b34801561036c57600080fd5b50610375610c87565b6040516103829190612a91565b60405180910390f35b34801561039757600080fd5b506103b260048036038101906103ad91906125a0565b610d19565b6040516103bf9190612a91565b60405180910390f35b3480156103d457600080fd5b506103ef60048036038101906103ea91906124d6565b610db9565b005b3480156103fd57600080fd5b506104186004803603810190610413919061245b565b610dcf565b005b34801561042657600080fd5b50610441600480360381019061043c91906125a0565b610e31565b60405161044e9190612a91565b60405180910390f35b34801561046357600080fd5b5061047e600480360381019061047991906123d0565b610f83565b60405161048b9190612a76565b60405180910390f35b3480156104a057600080fd5b506104a9611017565b6040516104b691906129e6565b60405180910390f35b60007f80ac58cd000000000000000000000000000000000000000000000000000000007bffffffffffffffffffffffffffffffffffffffffffffffffffffffff1916827bffffffffffffffffffffffffffffffffffffffffffffffffffffffff1916148061058a57507f5b5e139f000000000000000000000000000000000000000000000000000000007bffffffffffffffffffffffffffffffffffffffffffffffffffffffff1916827bffffffffffffffffffffffffffffffffffffffffffffffffffffffff1916145b8061059a57506105998261103d565b5b9050919050565b6060600080546105b09061304e565b80601f01602080910402602001604051908101604052809291908181526020018280546105dc9061304e565b80156106295780601f106105fe57610100808354040283529160200191610629565b820191906000526020600020905b81548152906001019060200180831161060c57829003601f168201915b5050505050905090565b600061063e826110a7565b61067d576040517f08c379a000000000000000000000000000000000000000000000000000000000815260040161067490612c98565b60405180910390fd5b6004600083815260200190815260200160002060009054906101000a900473ffffffffffffffffffffffffffffffffffffffff169050919050565b60006106c382610a1e565b90508073ffffffffffffffffffffffffffffffffffffffff168373ffffffffffffffffffffffffffffffffffffffff161415610734576040517f08c379a000000000000000000000000000000000000000000000000000000000815260040161072b90612cd8565b60405180910390fd5b8073ffffffffffffffffffffffffffffffffffffffff16610753611113565b73ffffffffffffffffffffffffffffffffffffffff16148061078257506107818161077c611113565b610f83565b5b6107c1576040517f08c379a00000000000000000000000000000000000000000000000000000000081526004016107b890612bd8565b60405180910390fd5b6107cb838361111b565b505050565b6107e16107db611113565b826111d4565b610820576040517f08c379a000000000000000000000000000000000000000000000000000000000815260040161081790612cf8565b60405180910390fd5b61082b8383836112b2565b505050565b600960009054906101000a900473ffffffffffffffffffffffffffffffffffffffff1673ffffffffffffffffffffffffffffffffffffffff163373ffffffffffffffffffffffffffffffffffffffff16146108e657600960009054906101000a900473ffffffffffffffffffffffffffffffffffffffff16336040517f64a14abf0000000000000000000000000000000000000000000000000000000081526004016108dd929190612a01565b60405180910390fd5b4781111561092d5747816040517fce9514f9000000000000000000000000000000000000000000000000000000008152600401610924929190612d5c565b60405180910390fd5b3373ffffffffffffffffffffffffffffffffffffffff166108fc829081150290604051600060405180830381858888f19350505050158015610973573d6000803e3d6000fd5b5050565b61099283838360405180602001604052806000815250610dcf565b505050565b6109a86109a2611113565b836111d4565b6109f257816109b5611113565b6040517faf2a76f10000000000000000000000000000000000000000000000000000000081526004016109e9929190612d33565b60405180910390fd5b80600a60008481526020019081526020016000209080519060200190610a199291906121cb565b505050565b6000806002600084815260200190815260200160002060009054906101000a900473ffffffffffffffffffffffffffffffffffffffff169050600073ffffffffffffffffffffffffffffffffffffffff168173ffffffffffffffffffffffffffffffffffffffff161415610ac7576040517f08c379a0000000000000000000000000000000000000000000000000000000008152600401610abe90612c18565b60405180910390fd5b80915050919050565b6000600854341015610b1d57600854346040517fa9b308f4000000000000000000000000000000000000000000000000000000008152600401610b14929190612d5c565b60405180910390fd5b610b276007611519565b6000610b33600761152f565b9050610b3f838261153d565b6000600243610b4e9190612f30565b4090506000338284604051602001610b6893929190612985565b6040516020818303038152906040528051906020012090506000610b8e8260001c611717565b9050610b9a848261179d565b610bbd604051806060016040528060218152602001613741602191398583611811565b83945050505050919050565b60008073ffffffffffffffffffffffffffffffffffffffff168273ffffffffffffffffffffffffffffffffffffffff161415610c3a576040517f08c379a0000000000000000000000000000000000000000000000000000000008152600401610c3190612bf8565b60405180910390fd5b600360008373ffffffffffffffffffffffffffffffffffffffff1673ffffffffffffffffffffffffffffffffffffffff168152602001908152602001600020549050919050565b60085481565b606060018054610c969061304e565b80601f0160208091040260200160405190810160405280929190818152602001828054610cc29061304e565b8015610d0f5780601f10610ce457610100808354040283529160200191610d0f565b820191906000526020600020905b815481529060010190602001808311610cf257829003601f168201915b5050505050905090565b600a6020528060005260406000206000915090508054610d389061304e565b80601f0160208091040260200160405190810160405280929190818152602001828054610d649061304e565b8015610db15780601f10610d8657610100808354040283529160200191610db1565b820191906000526020600020905b815481529060010190602001808311610d9457829003601f168201915b505050505081565b610dcb610dc4611113565b83836118b0565b5050565b610de0610dda611113565b836111d4565b610e1f576040517f08c379a0000000000000000000000000000000000000000000000000000000008152600401610e1690612cf8565b60405180910390fd5b610e2b84848484611a1d565b50505050565b6060610e3c826110a7565b610e7b576040517f08c379a0000000000000000000000000000000000000000000000000000000008152600401610e7290612c78565b60405180910390fd5b6000600660008481526020019081526020016000208054610e9b9061304e565b80601f0160208091040260200160405190810160405280929190818152602001828054610ec79061304e565b8015610f145780601f10610ee957610100808354040283529160200191610f14565b820191906000526020600020905b815481529060010190602001808311610ef757829003601f168201915b505050505090506000610f25611a79565b9050600081511415610f3b578192505050610f7e565b600082511115610f70578082604051602001610f589291906129c2565b60405160208183030381529060405292505050610f7e565b610f7984611a90565b925050505b919050565b6000600560008473ffffffffffffffffffffffffffffffffffffffff1673ffffffffffffffffffffffffffffffffffffffff16815260200190815260200160002060008373ffffffffffffffffffffffffffffffffffffffff1673ffffffffffffffffffffffffffffffffffffffff16815260200190815260200160002060009054906101000a900460ff16905092915050565b600960009054906101000a900473ffffffffffffffffffffffffffffffffffffffff1681565b60007f01ffc9a7000000000000000000000000000000000000000000000000000000007bffffffffffffffffffffffffffffffffffffffffffffffffffffffff1916827bffffffffffffffffffffffffffffffffffffffffffffffffffffffff1916149050919050565b60008073ffffffffffffffffffffffffffffffffffffffff166002600084815260200190815260200160002060009054906101000a900473ffffffffffffffffffffffffffffffffffffffff1673ffffffffffffffffffffffffffffffffffffffff1614159050919050565b600033905090565b816004600083815260200190815260200160002060006101000a81548173ffffffffffffffffffffffffffffffffffffffff021916908373ffffffffffffffffffffffffffffffffffffffff160217905550808273ffffffffffffffffffffffffffffffffffffffff1661118e83610a1e565b73ffffffffffffffffffffffffffffffffffffffff167f8c5be1e5ebec7d5bd14f71427d1e84f3dd0314c0f7b2291e5b200ac8c7c3b92560405160405180910390a45050565b60006111df826110a7565b61121e576040517f08c379a000000000000000000000000000000000000000000000000000000000815260040161121590612bb8565b60405180910390fd5b600061122983610a1e565b90508073ffffffffffffffffffffffffffffffffffffffff168473ffffffffffffffffffffffffffffffffffffffff16148061126b575061126a8185610f83565b5b806112a957508373ffffffffffffffffffffffffffffffffffffffff1661129184610633565b73ffffffffffffffffffffffffffffffffffffffff16145b91505092915050565b8273ffffffffffffffffffffffffffffffffffffffff166112d282610a1e565b73ffffffffffffffffffffffffffffffffffffffff1614611328576040517f08c379a000000000000000000000000000000000000000000000000000000000815260040161131f90612b38565b60405180910390fd5b600073ffffffffffffffffffffffffffffffffffffffff168273ffffffffffffffffffffffffffffffffffffffff161415611398576040517f08c379a000000000000000000000000000000000000000000000000000000000815260040161138f90612b78565b60405180910390fd5b6113a3838383611b37565b6113ae60008261111b565b6001600360008573ffffffffffffffffffffffffffffffffffffffff1673ffffffffffffffffffffffffffffffffffffffff16815260200190815260200160002060008282546113fe9190612f30565b925050819055506001600360008473ffffffffffffffffffffffffffffffffffffffff1673ffffffffffffffffffffffffffffffffffffffff16815260200190815260200160002060008282546114559190612e4f565b92505081905550816002600083815260200190815260200160002060006101000a81548173ffffffffffffffffffffffffffffffffffffffff021916908373ffffffffffffffffffffffffffffffffffffffff160217905550808273ffffffffffffffffffffffffffffffffffffffff168473ffffffffffffffffffffffffffffffffffffffff167fddf252ad1be2c89b69c2b068fc378daa952ba7f163c4a11628f55a4df523b3ef60405160405180910390a4611514838383611b3c565b505050565b6001816000016000828254019250508190555050565b600081600001549050919050565b600073ffffffffffffffffffffffffffffffffffffffff168273ffffffffffffffffffffffffffffffffffffffff1614156115ad576040517f08c379a00000000000000000000000000000000000000000000000000000000081526004016115a490612c58565b60405180910390fd5b6115b6816110a7565b156115f6576040517f08c379a00000000000000000000000000000000000000000000000000000000081526004016115ed90612b58565b60405180910390fd5b61160260008383611b37565b6001600360008473ffffffffffffffffffffffffffffffffffffffff1673ffffffffffffffffffffffffffffffffffffffff16815260200190815260200160002060008282546116529190612e4f565b92505081905550816002600083815260200190815260200160002060006101000a81548173ffffffffffffffffffffffffffffffffffffffff021916908373ffffffffffffffffffffffffffffffffffffffff160217905550808273ffffffffffffffffffffffffffffffffffffffff16600073ffffffffffffffffffffffffffffffffffffffff167fddf252ad1be2c89b69c2b068fc378daa952ba7f163c4a11628f55a4df523b3ef60405160405180910390a461171360008383611b3c565b5050565b6060600082141561175f576040518060400160405280600481526020017f30783030000000000000000000000000000000000000000000000000000000008152509050611798565b600082905060005b6000821461178957808061177a906130b1565b915050600882901c9150611767565b6117938482611b41565b925050505b919050565b6117a6826110a7565b6117e5576040517f08c379a00000000000000000000000000000000000000000000000000000000081526004016117dc90612c38565b60405180910390fd5b8060066000848152602001908152602001600020908051906020019061180c9291906121cb565b505050565b6118ab83838360405160240161182993929190612ab3565b6040516020818303038152906040527fa3f5c739000000000000000000000000000000000000000000000000000000007bffffffffffffffffffffffffffffffffffffffffffffffffffffffff19166020820180517bffffffffffffffffffffffffffffffffffffffffffffffffffffffff8381831617835250505050611e3b565b505050565b8173ffffffffffffffffffffffffffffffffffffffff168373ffffffffffffffffffffffffffffffffffffffff16141561191f576040517f08c379a000000000000000000000000000000000000000000000000000000000815260040161191690612b98565b60405180910390fd5b80600560008573ffffffffffffffffffffffffffffffffffffffff1673ffffffffffffffffffffffffffffffffffffffff16815260200190815260200160002060008473ffffffffffffffffffffffffffffffffffffffff1673ffffffffffffffffffffffffffffffffffffffff16815260200190815260200160002060006101000a81548160ff0219169083151502179055508173ffffffffffffffffffffffffffffffffffffffff168373ffffffffffffffffffffffffffffffffffffffff167f17307eab39ab6107e8899845ad3d59bd9653f200f220920489ca2b5937696c3183604051611a109190612a76565b60405180910390a3505050565b611a288484846112b2565b611a3484848484611e64565b611a73576040517f08c379a0000000000000000000000000000000000000000000000000000000008152600401611a6a90612b18565b60405180910390fd5b50505050565b606060405180602001604052806000815250905090565b6060611a9b826110a7565b611ada576040517f08c379a0000000000000000000000000000000000000000000000000000000008152600401611ad190612cb8565b60405180910390fd5b6000611ae4611a79565b90506000815111611b045760405180602001604052806000815250611b2f565b80611b0e84611ffb565b604051602001611b1f9291906129c2565b6040516020818303038152906040525b915050919050565b505050565b505050565b606060006002836002611b549190612ed6565b611b5e9190612e4f565b67ffffffffffffffff811115611b9d577f4e487b7100000000000000000000000000000000000000000000000000000000600052604160045260246000fd5b6040519080825280601f01601f191660200182016040528015611bcf5781602001600182028036833780820191505090505b5090507f300000000000000000000000000000000000000000000000000000000000000081600081518110611c2d577f4e487b7100000000000000000000000000000000000000000000000000000000600052603260045260246000fd5b60200101907effffffffffffffffffffffffffffffffffffffffffffffffffffffffffffff1916908160001a9053507f780000000000000000000000000000000000000000000000000000000000000081600181518110611cb7577f4e487b7100000000000000000000000000000000000000000000000000000000600052603260045260246000fd5b60200101907effffffffffffffffffffffffffffffffffffffffffffffffffffffffffffff1916908160001a90535060006001846002611cf79190612ed6565b611d019190612e4f565b90505b6001811115611ded577f3031323334353637383961626364656600000000000000000000000000000000600f861660108110611d69577f4e487b7100000000000000000000000000000000000000000000000000000000600052603260045260246000fd5b1a60f81b828281518110611da6577f4e487b7100000000000000000000000000000000000000000000000000000000600052603260045260246000fd5b60200101907effffffffffffffffffffffffffffffffffffffffffffffffffffffffffffff1916908160001a905350600485901c945080611de690613024565b9050611d04565b5060008414611e31576040517f08c379a0000000000000000000000000000000000000000000000000000000008152600401611e2890612af8565b60405180910390fd5b8091505092915050565b60008151905060006a636f6e736f6c652e6c6f679050602083016000808483855afa5050505050565b6000611e858473ffffffffffffffffffffffffffffffffffffffff166121a8565b15611fee578373ffffffffffffffffffffffffffffffffffffffff1663150b7a02611eae611113565b8786866040518563ffffffff1660e01b8152600401611ed09493929190612a2a565b602060405180830381600087803b158015611eea57600080fd5b505af1925050508015611f1b57506040513d601f19601f82011682018060405250810190611f189190612577565b60015b611f9e573d8060008114611f4b576040519150601f19603f3d011682016040523d82523d6000602084013e611f50565b606091505b50600081511415611f96576040517f08c379a0000000000000000000000000000000000000000000000000000000008152600401611f8d90612b18565b60405180910390fd5b805181602001fd5b63150b7a0260e01b7bffffffffffffffffffffffffffffffffffffffffffffffffffffffff1916817bffffffffffffffffffffffffffffffffffffffffffffffffffffffff191614915050611ff3565b600190505b949350505050565b60606000821415612043576040518060400160405280600181526020017f300000000000000000000000000000000000000000000000000000000000000081525090506121a3565b600082905060005b6000821461207557808061205e906130b1565b915050600a8261206e9190612ea5565b915061204b565b60008167ffffffffffffffff8111156120b7577f4e487b7100000000000000000000000000000000000000000000000000000000600052604160045260246000fd5b6040519080825280601f01601f1916602001820160405280156120e95781602001600182028036833780820191505090505b5090505b6000851461219c576001826121029190612f30565b9150600a856121119190613132565b603061211d9190612e4f565b60f81b818381518110612159577f4e487b7100000000000000000000000000000000000000000000000000000000600052603260045260246000fd5b60200101907effffffffffffffffffffffffffffffffffffffffffffffffffffffffffffff1916908160001a905350600a856121959190612ea5565b94506120ed565b8093505050505b919050565b6000808273ffffffffffffffffffffffffffffffffffffffff163b119050919050565b8280546121d79061304e565b90600052602060002090601f0160209004810192826121f95760008555612240565b82601f1061221257805160ff1916838001178555612240565b82800160010185558215612240579182015b8281111561223f578251825591602001919060010190612224565b5b50905061224d9190612251565b5090565b5b8082111561226a576000816000905550600101612252565b5090565b600061228161227c84612daa565b612d85565b90508281526020810184848401111561229957600080fd5b6122a4848285612fe2565b509392505050565b60006122bf6122ba84612ddb565b612d85565b9050828152602081018484840111156122d757600080fd5b6122e2848285612fe2565b509392505050565b6000813590506122f9816136e4565b92915050565b60008135905061230e816136fb565b92915050565b60008135905061232381613712565b92915050565b60008151905061233881613712565b92915050565b600082601f83011261234f57600080fd5b813561235f84826020860161226e565b91505092915050565b600082601f83011261237957600080fd5b81356123898482602086016122ac565b91505092915050565b6000813590506123a181613729565b92915050565b6000602082840312156123b957600080fd5b60006123c7848285016122ea565b91505092915050565b600080604083850312156123e357600080fd5b60006123f1858286016122ea565b9250506020612402858286016122ea565b9150509250929050565b60008060006060848603121561242157600080fd5b600061242f868287016122ea565b9350506020612440868287016122ea565b925050604061245186828701612392565b9150509250925092565b6000806000806080858703121561247157600080fd5b600061247f878288016122ea565b9450506020612490878288016122ea565b93505060406124a187828801612392565b925050606085013567ffffffffffffffff8111156124be57600080fd5b6124ca8782880161233e565b91505092959194509250565b600080604083850312156124e957600080fd5b60006124f7858286016122ea565b9250506020612508858286016122ff565b9150509250929050565b6000806040838503121561252557600080fd5b6000612533858286016122ea565b925050602061254485828601612392565b9150509250929050565b60006020828403121561256057600080fd5b600061256e84828501612314565b91505092915050565b60006020828403121561258957600080fd5b600061259784828501612329565b91505092915050565b6000602082840312156125b257600080fd5b60006125c084828501612392565b91505092915050565b600080604083850312156125dc57600080fd5b60006125ea85828601612392565b925050602083013567ffffffffffffffff81111561260757600080fd5b61261385828601612368565b9150509250929050565b61262681612f64565b82525050565b61263d61263882612f64565b6130fa565b82525050565b61264c81612f76565b82525050565b61266361265e82612f82565b61310c565b82525050565b600061267482612e0c565b61267e8185612e22565b935061268e818560208601612ff1565b6126978161321f565b840191505092915050565b60006126ad82612e17565b6126b78185612e33565b93506126c7818560208601612ff1565b6126d08161321f565b840191505092915050565b60006126e682612e17565b6126f08185612e44565b9350612700818560208601612ff1565b80840191505092915050565b6000612719602083612e33565b91506127248261323d565b602082019050919050565b600061273c603283612e33565b915061274782613266565b604082019050919050565b600061275f602583612e33565b915061276a826132b5565b604082019050919050565b6000612782601c83612e33565b915061278d82613304565b602082019050919050565b60006127a5602483612e33565b91506127b08261332d565b604082019050919050565b60006127c8601983612e33565b91506127d38261337c565b602082019050919050565b60006127eb602c83612e33565b91506127f6826133a5565b604082019050919050565b600061280e603883612e33565b9150612819826133f4565b604082019050919050565b6000612831602a83612e33565b915061283c82613443565b604082019050919050565b6000612854602983612e33565b915061285f82613492565b604082019050919050565b6000612877602e83612e33565b9150612882826134e1565b604082019050919050565b600061289a602083612e33565b91506128a582613530565b602082019050919050565b60006128bd603183612e33565b91506128c882613559565b604082019050919050565b60006128e0602c83612e33565b91506128eb826135a8565b604082019050919050565b6000612903602f83612e33565b915061290e826135f7565b604082019050919050565b6000612926602183612e33565b915061293182613646565b604082019050919050565b6000612949603183612e33565b915061295482613695565b604082019050919050565b61296881612fd8565b82525050565b61297f61297a82612fd8565b613128565b82525050565b6000612991828661262c565b6014820191506129a18285612652565b6020820191506129b1828461296e565b602082019150819050949350505050565b60006129ce82856126db565b91506129da82846126db565b91508190509392505050565b60006020820190506129fb600083018461261d565b92915050565b6000604082019050612a16600083018561261d565b612a23602083018461261d565b9392505050565b6000608082019050612a3f600083018761261d565b612a4c602083018661261d565b612a59604083018561295f565b8181036060830152612a6b8184612669565b905095945050505050565b6000602082019050612a8b6000830184612643565b92915050565b60006020820190508181036000830152612aab81846126a2565b905092915050565b60006060820190508181036000830152612acd81866126a2565b9050612adc602083018561295f565b8181036040830152612aee81846126a2565b9050949350505050565b60006020820190508181036000830152612b118161270c565b9050919050565b60006020820190508181036000830152612b318161272f565b9050919050565b60006020820190508181036000830152612b5181612752565b9050919050565b60006020820190508181036000830152612b7181612775565b9050919050565b60006020820190508181036000830152612b9181612798565b9050919050565b60006020820190508181036000830152612bb1816127bb565b9050919050565b60006020820190508181036000830152612bd1816127de565b9050919050565b60006020820190508181036000830152612bf181612801565b9050919050565b60006020820190508181036000830152612c1181612824565b9050919050565b60006020820190508181036000830152612c3181612847565b9050919050565b60006020820190508181036000830152612c518161286a565b9050919050565b60006020820190508181036000830152612c718161288d565b9050919050565b60006020820190508181036000830152612c91816128b0565b9050919050565b60006020820190508181036000830152612cb1816128d3565b9050919050565b60006020820190508181036000830152612cd1816128f6565b9050919050565b60006020820190508181036000830152612cf181612919565b9050919050565b60006020820190508181036000830152612d118161293c565b9050919050565b6000602082019050612d2d600083018461295f565b92915050565b6000604082019050612d48600083018561295f565b612d55602083018461261d565b9392505050565b6000604082019050612d71600083018561295f565b612d7e602083018461295f565b9392505050565b6000612d8f612da0565b9050612d9b8282613080565b919050565b6000604051905090565b600067ffffffffffffffff821115612dc557612dc46131f0565b5b612dce8261321f565b9050602081019050919050565b600067ffffffffffffffff821115612df657612df56131f0565b5b612dff8261321f565b9050602081019050919050565b600081519050919050565b600081519050919050565b600082825260208201905092915050565b600082825260208201905092915050565b600081905092915050565b6000612e5a82612fd8565b9150612e6583612fd8565b9250827fffffffffffffffffffffffffffffffffffffffffffffffffffffffffffffffff03821115612e9a57612e99613163565b5b828201905092915050565b6000612eb082612fd8565b9150612ebb83612fd8565b925082612ecb57612eca613192565b5b828204905092915050565b6000612ee182612fd8565b9150612eec83612fd8565b9250817fffffffffffffffffffffffffffffffffffffffffffffffffffffffffffffffff0483118215151615612f2557612f24613163565b5b828202905092915050565b6000612f3b82612fd8565b9150612f4683612fd8565b925082821015612f5957612f58613163565b5b828203905092915050565b6000612f6f82612fb8565b9050919050565b60008115159050919050565b6000819050919050565b60007fffffffff0000000000000000000000000000000000000000000000000000000082169050919050565b600073ffffffffffffffffffffffffffffffffffffffff82169050919050565b6000819050919050565b82818337600083830152505050565b60005b8381101561300f578082015181840152602081019050612ff4565b8381111561301e576000848401525b50505050565b600061302f82612fd8565b9150600082141561304357613042613163565b5b600182039050919050565b6000600282049050600182168061306657607f821691505b6020821081141561307a576130796131c1565b5b50919050565b6130898261321f565b810181811067ffffffffffffffff821117156130a8576130a76131f0565b5b80604052505050565b60006130bc82612fd8565b91507fffffffffffffffffffffffffffffffffffffffffffffffffffffffffffffffff8214156130ef576130ee613163565b5b600182019050919050565b600061310582613116565b9050919050565b6000819050919050565b600061312182613230565b9050919050565b6000819050919050565b600061313d82612fd8565b915061314883612fd8565b92508261315857613157613192565b5b828206905092915050565b7f4e487b7100000000000000000000000000000000000000000000000000000000600052601160045260246000fd5b7f4e487b7100000000000000000000000000000000000000000000000000000000600052601260045260246000fd5b7f4e487b7100000000000000000000000000000000000000000000000000000000600052602260045260246000fd5b7f4e487b7100000000000000000000000000000000000000000000000000000000600052604160045260246000fd5b6000601f19601f8301169050919050565b60008160601b9050919050565b7f537472696e67733a20686578206c656e67746820696e73756666696369656e74600082015250565b7f4552433732313a207472616e7366657220746f206e6f6e20455243373231526560008201527f63656976657220696d706c656d656e7465720000000000000000000000000000602082015250565b7f4552433732313a207472616e736665722066726f6d20696e636f72726563742060008201527f6f776e6572000000000000000000000000000000000000000000000000000000602082015250565b7f4552433732313a20746f6b656e20616c7265616479206d696e74656400000000600082015250565b7f4552433732313a207472616e7366657220746f20746865207a65726f2061646460008201527f7265737300000000000000000000000000000000000000000000000000000000602082015250565b7f4552433732313a20617070726f766520746f2063616c6c657200000000000000600082015250565b7f4552433732313a206f70657261746f7220717565727920666f72206e6f6e657860008201527f697374656e7420746f6b656e0000000000000000000000000000000000000000602082015250565b7f4552433732313a20617070726f76652063616c6c6572206973206e6f74206f7760008201527f6e6572206e6f7220617070726f76656420666f7220616c6c0000000000000000602082015250565b7f4552433732313a2062616c616e636520717565727920666f7220746865207a6560008201527f726f206164647265737300000000000000000000000000000000000000000000602082015250565b7f4552433732313a206f776e657220717565727920666f72206e6f6e657869737460008201527f656e7420746f6b656e0000000000000000000000000000000000000000000000602082015250565b7f45524337323155524953746f726167653a2055524920736574206f66206e6f6e60008201527f6578697374656e7420746f6b656e000000000000000000000000000000000000602082015250565b7f4552433732313a206d696e7420746f20746865207a65726f2061646472657373600082015250565b7f45524337323155524953746f726167653a2055524920717565727920666f722060008201527f6e6f6e6578697374656e7420746f6b656e000000000000000000000000000000602082015250565b7f4552433732313a20617070726f76656420717565727920666f72206e6f6e657860008201527f697374656e7420746f6b656e0000000000000000000000000000000000000000602082015250565b7f4552433732314d657461646174613a2055524920717565727920666f72206e6f60008201527f6e6578697374656e7420746f6b656e0000000000000000000000000000000000602082015250565b7f4552433732313a20617070726f76616c20746f2063757272656e74206f776e6560008201527f7200000000000000000000000000000000000000000000000000000000000000602082015250565b7f4552433732313a207472616e736665722063616c6c6572206973206e6f74206f60008201527f776e6572206e6f7220617070726f766564000000000000000000000000000000602082015250565b6136ed81612f64565b81146136f857600080fd5b50565b61370481612f76565b811461370f57600080fd5b50565b61371b81612f8c565b811461372657600080fd5b50565b61373281612fd8565b811461373d57600080fd5b5056fe6d696e7465642c20746f6b656e49643a2025732c20746f6b656e5572693a202573a26469706673582212206b505d8d85e699bd70ed2b08039c15fec783ace0149385d2bbd0e13b43edbf4d64736f6c63430008040033",
  "linkReferences": {},
  "deployedLinkReferences": {}
}