{
  "_format": "hh-sol-artifact-1",
  "contractName": "NaiveFriends721",
  "sourceName": "contracts/NaiveFriends721.sol",
  "abi": [
    {
      "inputs": [
        {
          "internalType": "uint256",
          "name": "_tokenPrice",
          "type": "uint256"
        },
        {
          "internalType": "address",
          "name": "_admin",
          "type": "address"
        },
        {
          "internalType": "string",
          "name": "_pk",
          "type": "string"
        }
      ],
      "stateMutability": "nonpayable",
      "type": "constructor"
    },
    {
      "inputs": [
        {
          "internalType": "address",
          "name": "admin",
          "type": "address"
        },
        {
          "internalType": "address",
          "name": "caller",
          "type": "address"
        }
      ],
      "name": "AdminOnly",
      "type": "error"
    },
    {
      "inputs": [
        {
          "internalType": "uint256",
          "name": "price",
          "type": "uint256"
        },
        {
          "internalType": "uint256",
          "name": "offer",
          "type": "uint256"
        }
      ],
      "name": "InsufficientOffer",
      "type": "error"
    },
    {
      "inputs": [
        {
          "internalType": "uint256",
          "name": "balance",
          "type": "uint256"
        },
        {
          "internalType": "uint256",
          "name": "amount",
          "type": "uint256"
        }
      ],
      "name": "InsufficientPoolBalance",
      "type": "error"
    },
    {
      "inputs": [
        {
          "internalType": "uint256",
          "name": "price",
          "type": "uint256"
        }
      ],
      "name": "InvalidTokenPrice",
      "type": "error"
    },
    {
      "inputs": [
        {
          "internalType": "uint256",
          "name": "tokenId",
          "type": "uint256"
        },
        {
          "internalType": "address",
          "name": "caller",
          "type": "address"
        }
      ],
      "name": "OwnerOnly",
      "type": "error"
    },
    {
      "anonymous": false,
      "inputs": [
        {
          "indexed": true,
          "internalType": "address",
          "name": "owner",
          "type": "address"
        },
        {
          "indexed": true,
          "internalType": "address",
          "name": "approved",
          "type": "address"
        },
        {
          "indexed": true,
          "internalType": "uint256",
          "name": "tokenId",
          "type": "uint256"
        }
      ],
      "name": "Approval",
      "type": "event"
    },
    {
      "anonymous": false,
      "inputs": [
        {
          "indexed": true,
          "internalType": "address",
          "name": "owner",
          "type": "address"
        },
        {
          "indexed": true,
          "internalType": "address",
          "name": "operator",
          "type": "address"
        },
        {
          "indexed": false,
          "internalType": "bool",
          "name": "approved",
          "type": "bool"
        }
      ],
      "name": "ApprovalForAll",
      "type": "event"
    },
    {
      "anonymous": false,
      "inputs": [
        {
          "indexed": true,
          "internalType": "address",
          "name": "from",
          "type": "address"
        },
        {
          "indexed": true,
          "internalType": "address",
          "name": "to",
          "type": "address"
        },
        {
          "indexed": true,
          "internalType": "uint256",
          "name": "tokenId",
          "type": "uint256"
        }
      ],
      "name": "Transfer",
      "type": "event"
    },
    {
      "inputs": [],
      "name": "admin",
      "outputs": [
        {
          "internalType": "address",
          "name": "",
          "type": "address"
        }
      ],
      "stateMutability": "view",
      "type": "function"
    },
    {
      "inputs": [],
      "name": "adminEncryptPublicKey",
      "outputs": [
        {
          "internalType": "string",
          "name": "",
          "type": "string"
        }
      ],
      "stateMutability": "view",
      "type": "function"
    },
    {
      "inputs": [
        {
          "internalType": "address",
          "name": "to",
          "type": "address"
        },
        {
          "internalType": "uint256",
          "name": "tokenId",
          "type": "uint256"
        }
      ],
      "name": "approve",
      "outputs": [],
      "stateMutability": "nonpayable",
      "type": "function"
    },
    {
      "inputs": [
        {
          "internalType": "address",
          "name": "owner",
          "type": "address"
        }
      ],
      "name": "balanceOf",
      "outputs": [
        {
          "internalType": "uint256",
          "name": "",
          "type": "uint256"
        }
      ],
      "stateMutability": "view",
      "type": "function"
    },
    {
      "inputs": [],
      "name": "baseUri",
      "outputs": [
        {
          "internalType": "string",
          "name": "",
          "type": "string"
        }
      ],
      "stateMutability": "view",
      "type": "function"
    },
    {
      "inputs": [
        {
          "internalType": "uint256",
          "name": "",
          "type": "uint256"
        }
      ],
      "name": "encryptPublicKeys",
      "outputs": [
        {
          "internalType": "string",
          "name": "",
          "type": "string"
        }
      ],
      "stateMutability": "view",
      "type": "function"
    },
    {
      "inputs": [
        {
          "internalType": "uint256",
          "name": "tokenId",
          "type": "uint256"
        }
      ],
      "name": "getApproved",
      "outputs": [
        {
          "internalType": "address",
          "name": "",
          "type": "address"
        }
      ],
      "stateMutability": "view",
      "type": "function"
    },
    {
      "inputs": [
        {
          "internalType": "address",
          "name": "owner",
          "type": "address"
        },
        {
          "internalType": "address",
          "name": "operator",
          "type": "address"
        }
      ],
      "name": "isApprovedForAll",
      "outputs": [
        {
          "internalType": "bool",
          "name": "",
          "type": "bool"
        }
      ],
      "stateMutability": "view",
      "type": "function"
    },
    {
      "inputs": [
        {
          "internalType": "address",
          "name": "player",
          "type": "address"
        }
      ],
      "name": "mint",
      "outputs": [
        {
          "internalType": "uint256",
          "name": "",
          "type": "uint256"
        }
      ],
      "stateMutability": "payable",
      "type": "function"
    },
    {
      "inputs": [],
      "name": "name",
      "outputs": [
        {
          "internalType": "string",
          "name": "",
          "type": "string"
        }
      ],
      "stateMutability": "view",
      "type": "function"
    },
    {
      "inputs": [
        {
          "internalType": "uint256",
          "name": "tokenId",
          "type": "uint256"
        }
      ],
      "name": "ownerOf",
      "outputs": [
        {
          "internalType": "address",
          "name": "",
          "type": "address"
        }
      ],
      "stateMutability": "view",
      "type": "function"
    },
    {
      "inputs": [
        {
          "internalType": "address",
          "name": "from",
          "type": "address"
        },
        {
          "internalType": "address",
          "name": "to",
          "type": "address"
        },
        {
          "internalType": "uint256",
          "name": "tokenId",
          "type": "uint256"
        }
      ],
      "name": "safeTransferFrom",
      "outputs": [],
      "stateMutability": "nonpayable",
      "type": "function"
    },
    {
      "inputs": [
        {
          "internalType": "address",
          "name": "from",
          "type": "address"
        },
        {
          "internalType": "address",
          "name": "to",
          "type": "address"
        },
        {
          "internalType": "uint256",
          "name": "tokenId",
          "type": "uint256"
        },
        {
          "internalType": "bytes",
          "name": "_data",
          "type": "bytes"
        }
      ],
      "name": "safeTransferFrom",
      "outputs": [],
      "stateMutability": "nonpayable",
      "type": "function"
    },
    {
      "inputs": [
        {
          "internalType": "address",
          "name": "_admin",
          "type": "address"
        },
        {
          "internalType": "string",
          "name": "_pk",
          "type": "string"
        }
      ],
      "name": "setAdmin",
      "outputs": [],
      "stateMutability": "nonpayable",
      "type": "function"
    },
    {
      "inputs": [
        {
          "internalType": "string",
          "name": "_pk",
          "type": "string"
        }
      ],
      "name": "setAdminEncryptPublickKey",
      "outputs": [],
      "stateMutability": "nonpayable",
      "type": "function"
    },
    {
      "inputs": [
        {
          "internalType": "address",
          "name": "operator",
          "type": "address"
        },
        {
          "internalType": "bool",
          "name": "approved",
          "type": "bool"
        }
      ],
      "name": "setApprovalForAll",
      "outputs": [],
      "stateMutability": "nonpayable",
      "type": "function"
    },
    {
      "inputs": [
        {
          "internalType": "string",
          "name": "_baseUri",
          "type": "string"
        }
      ],
      "name": "setBaseURI",
      "outputs": [],
      "stateMutability": "nonpayable",
      "type": "function"
    },
    {
      "inputs": [
        {
          "internalType": "uint256",
          "name": "tokenId",
          "type": "uint256"
        },
        {
          "internalType": "string",
          "name": "key",
          "type": "string"
        }
      ],
      "name": "setEncryptPublicKey",
      "outputs": [],
      "stateMutability": "nonpayable",
      "type": "function"
    },
    {
      "inputs": [
        {
          "internalType": "uint256",
          "name": "price",
          "type": "uint256"
        }
      ],
      "name": "setPrice",
      "outputs": [],
      "stateMutability": "nonpayable",
      "type": "function"
    },
    {
      "inputs": [
        {
          "internalType": "address",
          "name": "player",
          "type": "address"
        },
        {
          "internalType": "string",
          "name": "key",
          "type": "string"
        }
      ],
      "name": "subscribe",
      "outputs": [],
      "stateMutability": "payable",
      "type": "function"
    },
    {
      "inputs": [
        {
          "internalType": "bytes4",
          "name": "interfaceId",
          "type": "bytes4"
        }
      ],
      "name": "supportsInterface",
      "outputs": [
        {
          "internalType": "bool",
          "name": "",
          "type": "bool"
        }
      ],
      "stateMutability": "view",
      "type": "function"
    },
    {
      "inputs": [],
      "name": "symbol",
      "outputs": [
        {
          "internalType": "string",
          "name": "",
          "type": "string"
        }
      ],
      "stateMutability": "view",
      "type": "function"
    },
    {
      "inputs": [],
      "name": "tokenPrice",
      "outputs": [
        {
          "internalType": "uint256",
          "name": "",
          "type": "uint256"
        }
      ],
      "stateMutability": "view",
      "type": "function"
    },
    {
      "inputs": [
        {
          "internalType": "uint256",
          "name": "tokenId",
          "type": "uint256"
        }
      ],
      "name": "tokenURI",
      "outputs": [
        {
          "internalType": "string",
          "name": "",
          "type": "string"
        }
      ],
      "stateMutability": "view",
      "type": "function"
    },
    {
      "inputs": [],
      "name": "totalTokens",
      "outputs": [
        {
          "internalType": "uint256",
          "name": "",
          "type": "uint256"
        }
      ],
      "stateMutability": "view",
      "type": "function"
    },
    {
      "inputs": [
        {
          "internalType": "address",
          "name": "from",
          "type": "address"
        },
        {
          "internalType": "address",
          "name": "to",
          "type": "address"
        },
        {
          "internalType": "uint256",
          "name": "tokenId",
          "type": "uint256"
        }
      ],
      "name": "transferFrom",
      "outputs": [],
      "stateMutability": "nonpayable",
      "type": "function"
    },
    {
      "inputs": [
        {
          "internalType": "uint256",
          "name": "_amount",
          "type": "uint256"
        }
      ],
      "name": "withdraw",
      "outputs": [],
      "stateMutability": "nonpayable",
      "type": "function"
    }
  ],
  "bytecode": "0x60806040523480156200001157600080fd5b5060405162005aaa38038062005aaa833981810160405281019062000037919062000400565b6040518060400160405280600f81526020017f4e61697665467269656e647337323100000000000000000000000000000000008152506040518060400160405280600481526020017f52414846000000000000000000000000000000000000000000000000000000008152508160009080519060200190620000bb929190620002b0565b508060019080519060200190620000d4929190620002b0565b5050506200010b7fd42db516508112a1c9163e108b02a18974b7119621653071ae4f66bdc91a6d9360001b620002ad60201b60201c565b6200013f7f199f55da71fe4d6f7702dd6f443362ab1331fe2e22afe4397b0c338ac475678760001b620002ad60201b60201c565b620001737fbd723105832340c266a19904a3fa0b650d7e7de1e9f3a44f67f76a3bcfe18dfd60001b620002ad60201b60201c565b82600881905550620001ae7f6ab5f2e44e746d15da51fbd6b02a7e81a2b2f22c58490b52aec30009bbe7c35a60001b620002ad60201b60201c565b620001e27f09c07b9132a7fe4b900570e5c17149638ddaaf5d8b946acd7ac952ec6c561dd360001b620002ad60201b60201c565b81600960006101000a81548173ffffffffffffffffffffffffffffffffffffffff021916908373ffffffffffffffffffffffffffffffffffffffff160217905550620002577fb258153d96832fb883fe926a409f1fda3182971ce082fa88bb354a775384ddf860001b620002ad60201b60201c565b6200028b7f3b960c229a8a394edd899a9bc7349cced0d9dd926ede8b19eb1ceb59fe12b6d260001b620002ad60201b60201c565b80600a9080519060200190620002a3929190620002b0565b5050505062000651565b50565b828054620002be9062000542565b90600052602060002090601f016020900481019282620002e257600085556200032e565b82601f10620002fd57805160ff19168380011785556200032e565b828001600101855582156200032e579182015b828111156200032d57825182559160200191906001019062000310565b5b5090506200033d919062000341565b5090565b5b808211156200035c57600081600090555060010162000342565b5090565b600062000377620003718462000498565b6200046f565b9050828152602081018484840111156200039057600080fd5b6200039d8482856200050c565b509392505050565b600081519050620003b6816200061d565b92915050565b600082601f830112620003ce57600080fd5b8151620003e084826020860162000360565b91505092915050565b600081519050620003fa8162000637565b92915050565b6000806000606084860312156200041657600080fd5b60006200042686828701620003e9565b93505060206200043986828701620003a5565b925050604084015167ffffffffffffffff8111156200045757600080fd5b6200046586828701620003bc565b9150509250925092565b60006200047b6200048e565b905062000489828262000578565b919050565b6000604051905090565b600067ffffffffffffffff821115620004b657620004b5620005dd565b5b620004c1826200060c565b9050602081019050919050565b6000620004db82620004e2565b9050919050565b600073ffffffffffffffffffffffffffffffffffffffff82169050919050565b6000819050919050565b60005b838110156200052c5780820151818401526020810190506200050f565b838111156200053c576000848401525b50505050565b600060028204905060018216806200055b57607f821691505b60208210811415620005725762000571620005ae565b5b50919050565b62000583826200060c565b810181811067ffffffffffffffff82111715620005a557620005a4620005dd565b5b80604052505050565b7f4e487b7100000000000000000000000000000000000000000000000000000000600052602260045260246000fd5b7f4e487b7100000000000000000000000000000000000000000000000000000000600052604160045260246000fd5b6000601f19601f8301169050919050565b6200062881620004ce565b81146200063457600080fd5b50565b620006428162000502565b81146200064e57600080fd5b50565b61544980620006616000396000f3fe60806040526004361061019c5760003560e01c806370a08231116100ec578063a22cb4651161008a578063e107cf5d11610064578063e107cf5d146105cc578063e985e9c5146105f7578063f414321a14610634578063f851a4401461065d5761019c565b8063a22cb4651461053d578063b88d4fde14610566578063c87b56dd1461058f5761019c565b806391b7f5ed116100c657806391b7f5ed1461048157806395d89b41146104aa5780639abc8320146104d55780639df8fa9e146105005761019c565b806370a08231146103ee5780637e1c0c091461042b5780637ff9b596146104565761019c565b80633c6597431161015957806355f804b31161013357806355f804b31461032f5780635de8f985146103585780636352211e146103815780636a627842146103be5761019c565b80633c659743146102c157806342842e0e146102dd578063476f6dd4146103065761019c565b806301ffc9a7146101a157806306fdde03146101de578063081812fc14610209578063095ea7b31461024657806323b872dd1461026f5780632e1a7d4d14610298575b600080fd5b3480156101ad57600080fd5b506101c860048036038101906101c391906141bf565b610688565b6040516101d59190614728565b60405180910390f35b3480156101ea57600080fd5b506101f361076a565b6040516102009190614743565b60405180910390f35b34801561021557600080fd5b50610230600480360381019061022b9190614252565b6107fc565b60405161023d9190614698565b60405180910390f35b34801561025257600080fd5b5061026d60048036038101906102689190614183565b610881565b005b34801561027b57600080fd5b5061029660048036038101906102919190614029565b610999565b005b3480156102a457600080fd5b506102bf60048036038101906102ba9190614252565b6109f9565b005b6102db60048036038101906102d6919061412f565b610d7c565b005b3480156102e957600080fd5b5061030460048036038101906102ff9190614029565b611299565b005b34801561031257600080fd5b5061032d6004803603810190610328919061412f565b6112b9565b005b34801561033b57600080fd5b5061035660048036038101906103519190614211565b611583565b005b34801561036457600080fd5b5061037f600480360381019061037a919061427b565b6117b3565b005b34801561038d57600080fd5b506103a860048036038101906103a39190614252565b61199a565b6040516103b59190614698565b60405180910390f35b6103d860048036038101906103d39190613fc4565b611a4c565b6040516103e591906149ca565b60405180910390f35b3480156103fa57600080fd5b5061041560048036038101906104109190613fc4565b611f65565b60405161042291906149ca565b60405180910390f35b34801561043757600080fd5b5061044061201d565b60405161044d91906149ca565b60405180910390f35b34801561046257600080fd5b5061046b612110565b60405161047891906149ca565b60405180910390f35b34801561048d57600080fd5b506104a860048036038101906104a39190614252565b612116565b005b3480156104b657600080fd5b506104bf612457565b6040516104cc9190614743565b60405180910390f35b3480156104e157600080fd5b506104ea6124e9565b6040516104f79190614743565b60405180910390f35b34801561050c57600080fd5b5061052760048036038101906105229190614252565b612577565b6040516105349190614743565b60405180910390f35b34801561054957600080fd5b50610564600480360381019061055f91906140f3565b612617565b005b34801561057257600080fd5b5061058d60048036038101906105889190614078565b61262d565b005b34801561059b57600080fd5b506105b660048036038101906105b19190614252565b61268f565b6040516105c39190614743565b60405180910390f35b3480156105d857600080fd5b506105e16127e1565b6040516105ee9190614743565b60405180910390f35b34801561060357600080fd5b5061061e60048036038101906106199190613fed565b61286f565b60405161062b9190614728565b60405180910390f35b34801561064057600080fd5b5061065b60048036038101906106569190614211565b612903565b005b34801561066957600080fd5b50610672612b33565b60405161067f9190614698565b60405180910390f35b60007f80ac58cd000000000000000000000000000000000000000000000000000000007bffffffffffffffffffffffffffffffffffffffffffffffffffffffff1916827bffffffffffffffffffffffffffffffffffffffffffffffffffffffff1916148061075357507f5b5e139f000000000000000000000000000000000000000000000000000000007bffffffffffffffffffffffffffffffffffffffffffffffffffffffff1916827bffffffffffffffffffffffffffffffffffffffffffffffffffffffff1916145b80610763575061076282612b59565b5b9050919050565b60606000805461077990614d00565b80601f01602080910402602001604051908101604052809291908181526020018280546107a590614d00565b80156107f25780601f106107c7576101008083540402835291602001916107f2565b820191906000526020600020905b8154815290600101906020018083116107d557829003601f168201915b5050505050905090565b600061080782612bc3565b610846576040517f08c379a000000000000000000000000000000000000000000000000000000000815260040161083d9061494a565b60405180910390fd5b6004600083815260200190815260200160002060009054906101000a900473ffffffffffffffffffffffffffffffffffffffff169050919050565b600061088c8261199a565b90508073ffffffffffffffffffffffffffffffffffffffff168373ffffffffffffffffffffffffffffffffffffffff1614156108fd576040517f08c379a00000000000000000000000000000000000000000000000000000000081526004016108f49061498a565b60405180910390fd5b8073ffffffffffffffffffffffffffffffffffffffff1661091c612c2f565b73ffffffffffffffffffffffffffffffffffffffff16148061094b575061094a81610945612c2f565b61286f565b5b61098a576040517f08c379a00000000000000000000000000000000000000000000000000000000081526004016109819061488a565b60405180910390fd5b6109948383612c37565b505050565b6109aa6109a4612c2f565b82612cf0565b6109e9576040517f08c379a00000000000000000000000000000000000000000000000000000000081526004016109e0906149aa565b60405180910390fd5b6109f4838383612dce565b505050565b610a257f88dddc41562e066610110260b7bc3686da506d21da0a1965084b9fb502c4086760001b613035565b610a517ffa93113e296749184b1c08513042c113cc6b6dc6b9e184f52a55effec15ffbc660001b613035565b610a7d7f07abcbeaa130eaf7c204be81953e5ef157bb8e39118b6c4aa02d7b99a62a656360001b613035565b600960009054906101000a900473ffffffffffffffffffffffffffffffffffffffff1673ffffffffffffffffffffffffffffffffffffffff163373ffffffffffffffffffffffffffffffffffffffff1614610b8b57610afe7ff88ac7782d2185dfdaa9e6c605166a7b2d5b0e570df3e53dfc1c7daf9cc84b3b60001b613035565b610b2a7fc59607c06095c0bab0e139bc3987f0a54a20be01c8b9b24ad68ba3faf1ae89a860001b613035565b600960009054906101000a900473ffffffffffffffffffffffffffffffffffffffff16336040517f64a14abf000000000000000000000000000000000000000000000000000000008152600401610b829291906146b3565b60405180910390fd5b610bb77f1508ebe6339115442d4656be625b25d832a358f2a7efed872d435b3c14bb9a2f60001b613035565b610be37fb3993be46c48267b76f84f3d02a24b0944c4ddfe4961872e58f7d8e3666c950b60001b613035565b610c0f7f1e8e4050676f31c09dc24164edd2c507de0011f056f17128d0d67fef037ed6af60001b613035565b47811115610cae57610c437fdd1055507cbf6a8d0adfa415fdc12db3b5d56fb76446131ebb6d23e2ba86bc7a60001b613035565b610c6f7f419f1dacd137d4580f3c5c08e2b899942b23f12c8044bb8720c64da7634939fc60001b613035565b47816040517fce9514f9000000000000000000000000000000000000000000000000000000008152600401610ca5929190614a0e565b60405180910390fd5b610cda7fa4cea352cd2d4fd312f5934ff863f6a8d8a3d9f7a8b47bd5fc3655b29db09f5960001b613035565b610d067fb5f72a7a725ddf9f523e7625e1534eeab1048c5d97068e1841dc983a47d4a24a60001b613035565b610d327f8aac05a9b5ae360c207ff792c5e57443f488c12d729d00b4262446f7484a6daa60001b613035565b3373ffffffffffffffffffffffffffffffffffffffff166108fc829081150290604051600060405180830381858888f19350505050158015610d78573d6000803e3d6000fd5b5050565b610da87f01a1edff5d02d5b2d4e4afa3e0e40b962abcfa9a0de6ea86e528bead9ab5c07b60001b613035565b610dd47f7c9dacdef819ae66bc92a573fdbeaade6fa579d6081e6794bec2da04620610da60001b613035565b610e007fdd1de0e811b7a3eb7c8e38b24aff83b5fbc196e486fcb9c3adef6beabd1718cd60001b613035565b600854341015610ea357610e367fae0fdba50277d6fbcbbdca8cda110119644a298ac2b706acfd4232088925e7cd60001b613035565b610e627f222cebbe9f1481e6b6bb2049e8117e719100c954fd14377027a700dcab996bc460001b613035565b600854346040517fa9b308f4000000000000000000000000000000000000000000000000000000008152600401610e9a929190614a0e565b60405180910390fd5b610ecf7f6148c34602463171177b001486a896a7cfe0c55926eed525f996e97efaa4031160001b613035565b610efb7f069f92a433f1bda50bf5e2b0b5286bdc8282254fda620ff6b25b69eb0fd77c6360001b613035565b610f277f6d1f71065df9de84fb6b89e4ae25e1b706ab11222ba530dc735071ce1332770d60001b613035565b610f316007613038565b610f5d7fa96d83da20e13a2aa9f7738a91506238bfb98d00a11caceaa59f8f4670a8ae0960001b613035565b610f897fc328d7596203022fb6cc6858ab964d2689e0f071f92fc7377f1c5f518080d5ff60001b613035565b6000610f95600761304e565b9050610fc37f3c3751bb02ea0b24c30e01808982ca90d1bde4804e181a53b1ecfdab7cfb618260001b613035565b610fef7f1595b4f48d436f7d48fed878ab4c60e9863fee2a8e0e6b5ef98f73140d44606b60001b613035565b610ff9838261305c565b6110257fd3d2d92db2f573191c32d70c3059da9902f923e6bac577eb73cfdbd1c044167260001b613035565b6110517f97357881d9668228f6933ac8af7643782389f3691e22ce848a756fc16c4280e860001b613035565b60006002436110609190614be2565b40905061108f7f23cb61a6c61f657ddda4974488eb19143c1f444336211185acc73a1c750d468e60001b613035565b6110bb7fc1ff7685073ad6cda7bc8353b917ec04895b873393117ced7064e940e3d1fba160001b613035565b60003382846040516020016110d293929190614637565b6040516020818303038152906040528051906020012090506111167f3d4d4be44852f281feaac72458c95ce4860f9df83fb8960b34bb9a9cc9ae2ded60001b613035565b6111427f86d623e66305d75f861bf7f0342535c20babd05baf490457aa63c55a6c44cc2e60001b613035565b60006111508260001c613236565b905061117e7ff680486296c07f13828a45479feb091f9a9ccf28d7b88049b9459ce6fa513c8760001b613035565b6111aa7f0d17b20a0521c502d061117fd4ac0890ea761f08980e4830907ec4841b86f1a260001b613035565b6111b484826132bc565b6111e07f812e66146b30eb63945b235bc398f0ff6a7ba7dda3e67f84f005e929c2aba4e160001b613035565b61120c7fc43446715ea4c78307a671f66d30e8ace053e697602620392c7da6c1eb64094e60001b613035565b61122f6040518060600160405280602181526020016153f3602191398583613330565b61125b7fdfe1b845f1e102e5fa4a2d09a8f81d925e1b338a8689b3be1b8eb2567d87243360001b613035565b6112877ff07f6ae73e78c89bdab428cf2d287b125f4f015f63f4e656aa07e9f24c1f187c60001b613035565b61129184866117b3565b505050505050565b6112b48383836040518060200160405280600081525061262d565b505050565b6112e57fa8ba02151427269ec6d84236dafc4d738760aa24c8c7d2665e4ceefad8ae91ef60001b613035565b6113117ffd5c0f52800dd958708730563b51334df7d05f5745cab3bbd1f622956fd28cc660001b613035565b61133d7f75197e7fe6f5c4b253b03c0a3be198948b226f72d06f3653ec1271e36d471a8360001b613035565b600960009054906101000a900473ffffffffffffffffffffffffffffffffffffffff1673ffffffffffffffffffffffffffffffffffffffff163373ffffffffffffffffffffffffffffffffffffffff161461144b576113be7ff4f47c4d606465b79fd317d576e09d1f38fcc99144bb7cffa3b22bcb4ae2386c60001b613035565b6113ea7fb327531c789feca316ff532d332d994b6e58e328277d886c7b53a6220501118960001b613035565b600960009054906101000a900473ffffffffffffffffffffffffffffffffffffffff16336040517f64a14abf0000000000000000000000000000000000000000000000000000000081526004016114429291906146b3565b60405180910390fd5b6114777f2542d7e87ab0b18529dd87c16c5e2a2423993eadfbc598bea4a301c3f121390a60001b613035565b6114a37fb2452defd852373880391989a2c237a920d2da26018950d94198c3e9b5a3a3e760001b613035565b6114cf7f856853ce8ca7f1297e393e2f83bc387dfbbe84e3ff83830ddfdb6ec38864125c60001b613035565b81600960006101000a81548173ffffffffffffffffffffffffffffffffffffffff021916908373ffffffffffffffffffffffffffffffffffffffff16021790555061153c7fddc4d3cf6dbf592e2276a853140bec222906c60ac18cc8d8c84b7097eb72217860001b613035565b6115687fd385aa659e151061ce3ecb250e01cc12d41a4084137dd4aa64ad987eddf7f01260001b613035565b80600a908051906020019061157e929190613de8565b505050565b6115af7fe653e7d83318e1ac09c37ba9d93e22e46ed4715cdb84e0e087c63056a06ce3b960001b613035565b6115db7fcadf6593f813e0c18c88c01eb570b97f503d8303d1fb4e0bec9979ce91ad711b60001b613035565b6116077fc10631d283a4700d7a7f3f4fdfb081cd3a66ac8b0085059995180533e433f3e160001b613035565b600960009054906101000a900473ffffffffffffffffffffffffffffffffffffffff1673ffffffffffffffffffffffffffffffffffffffff163373ffffffffffffffffffffffffffffffffffffffff1614611715576116887f5875e9a8291e0ab55099ce54a90e16f8466e4ba15651a55abf68efe9f12ce33960001b613035565b6116b47fe8036f3403e9140ddc584e0a5203c05d28c4ad5c648e0b07cd8711cb30a0829760001b613035565b600960009054906101000a900473ffffffffffffffffffffffffffffffffffffffff16336040517f64a14abf00000000000000000000000000000000000000000000000000000000815260040161170c9291906146b3565b60405180910390fd5b6117417f5d24eb0670b12daaae30f33f2fe1f00656d0739239677aac01194673b2bfc94b60001b613035565b61176d7fa062c43693767e8a03fdc8c55256b3908f8f2adc00c9887a27891b6585b2d83360001b613035565b6117997f378d692f1f6e216f4bac935ff911ccbc19983d583c93d302579e81af36302d6e60001b613035565b80600b90805190602001906117af929190613de8565b5050565b6117df7f9b202d833738e6b6638477ba4bac86e7598977526a600d499418804299f7958a60001b613035565b61180b7fb090359d3e5dd0a69b230febc4d6fcc6d70043dd09fc656922053d6f14b3b61460001b613035565b6118377f0ba2d88dca96e30084f33dc141b265f98a8d7bbdea318428bb9dc64ddb71ab4960001b613035565b611848611842612c2f565b83612cf0565b6118ea576118787f180b9c6432d87214de26fa74c5c1e242292b57d421f199a2649c6dd5882dd2d960001b613035565b6118a47fe5762e90db1d669b8c730d0c9eb3249070ceab1e5617fd94050af8e701fc820d60001b613035565b816118ad612c2f565b6040517faf2a76f10000000000000000000000000000000000000000000000000000000081526004016118e19291906149e5565b60405180910390fd5b6119167fcd8625ec897f9dd68996bf2d31c0874bf9e592e3b3998cedcfb881671fc3df3660001b613035565b6119427f9d9309ba902ae4cd88baaf24c2396511a061f218604b47da179b93d001697c1360001b613035565b61196e7f33aa083b2149f7bac16411525084d5840247bdb78660b5422dfee3081ddc68c360001b613035565b80600c60008481526020019081526020016000209080519060200190611995929190613de8565b505050565b6000806002600084815260200190815260200160002060009054906101000a900473ffffffffffffffffffffffffffffffffffffffff169050600073ffffffffffffffffffffffffffffffffffffffff168173ffffffffffffffffffffffffffffffffffffffff161415611a43576040517f08c379a0000000000000000000000000000000000000000000000000000000008152600401611a3a906148ca565b60405180910390fd5b80915050919050565b6000611a7a7fb1910f99dcc955451e69745bb7cf27f0b6dbe57a898f820d15dd482c82e9a42060001b613035565b611aa67fdca58ae0cd3715d7c556e72a6753b0636ec8f4e9d6efe403565e75a649c2166460001b613035565b611ad27f2c567b9446e6d18c69562a52ca2e90623690fcf96d81f173c9603ccb5886d01160001b613035565b600854341015611b7557611b087fdb57b98f68847ae36789ef8d691694d315e43b7ee50aca67f875015fcf36355660001b613035565b611b347f68c8bcbb114b3ad31e043660a93c80ff05102f05c879c7193e4e957daa74c06660001b613035565b600854346040517fa9b308f4000000000000000000000000000000000000000000000000000000008152600401611b6c929190614a0e565b60405180910390fd5b611ba17f497c754fb26eb80059f31097a051c77bee64e1d612b4b62e27e17dfb155cc4c560001b613035565b611bcd7fb87a6045e586aa34ed2a358a5b9109ef495e2e169f15ceeb04ac96b2622d871960001b613035565b611bf97f9955ea797fa564e755182d0d9e2a28f4b5ba06fa953df847d70da17eeedfc50460001b613035565b611c036007613038565b611c2f7f50320103680cb6786374d01d219507d71169de12eb19a2525bc99e4e5f367d3460001b613035565b611c5b7fcc3897cee61858e478debcca4333f3fe7d44bbf4fa48e8e27f29ee57f27ae6e960001b613035565b6000611c67600761304e565b9050611c957ff6f045f048d577a5d46adc474eb1b96aad0325061c357be33f8698be392df0ac60001b613035565b611cc17ff237e978bcf141a57cd1c288853c99036692fff0eb72c4480535cce12f58ef5160001b613035565b611ccb838261305c565b611cf77ff0345d9922460d75cdf863c38fec67f8a24eed6658ed32911988a902826d72f660001b613035565b611d237fac33c9d356fe9c388bf1164deb2b3b36f94a7af6055d7bcae1818b58743f3a0360001b613035565b6000600243611d329190614be2565b409050611d617f79cb12c7966f48b807c97a07f08c1ed4639ec9131e3cda71b1d2c996712d1a1760001b613035565b611d8d7ff697d057b24b075102fb5b72fe33efdf5e2b87a251eb1e09ebbf0547262143a960001b613035565b6000338284604051602001611da493929190614637565b604051602081830303815290604052805190602001209050611de87f5b54cbaa4df414c1ec1667252d94f05ffe6f9b26c0a30602f57a663cb7f9c64f60001b613035565b611e147fe891d8eb82bc784037398dd7e0f15f59338f8f30f5064dd4d2defc13101eb93960001b613035565b6000611e228260001c613236565b9050611e507f8d0bdcb14354b9a047a46f33b3d9017bc055fb081678d4e8fbb72e40061c4e4b60001b613035565b611e7c7f9e95b7ee89301ef07c0a388e00b1918c0891d38d001e25358cde507aeff886cd60001b613035565b611e8684826132bc565b611eb27f3dbfc4ace7e39e8ad4315586cfba373c098661f31f193d3c674ac96afc4b86f660001b613035565b611ede7fcc1cd57e3e3a2576b6a1e145ef75c8c8e3ec9e135979771af82d018c37c9047d60001b613035565b611f016040518060600160405280602181526020016153f3602191398583613330565b611f2d7f527d8cdf36de5cb47b3a5b0b2acb1275d8788878c06bfdd35c60b6d948daeae560001b613035565b611f597f2233da2f8334b708c0e4269bd22e1732bf6d6d1bc46a461d1dfaa5e7badce7a560001b613035565b83945050505050919050565b60008073ffffffffffffffffffffffffffffffffffffffff168273ffffffffffffffffffffffffffffffffffffffff161415611fd6576040517f08c379a0000000000000000000000000000000000000000000000000000000008152600401611fcd906148aa565b60405180910390fd5b600360008373ffffffffffffffffffffffffffffffffffffffff1673ffffffffffffffffffffffffffffffffffffffff168152602001908152602001600020549050919050565b600061204b7f9bf57917d14936df946847bcc9536a053736c77678666bee910e3b00431dbda560001b613035565b6120777fc41e2abfdfdd1263aec31955bb792e70aa1a59c878b2678c13f7da5ea0fe332460001b613035565b6120a37f8dfca12aae8997cb95e2b6bdacdd1da6dddda42eab12c59a29ab4baf2e727ca160001b613035565b60006120af600761304e565b90506120dd7f98d0e310909a6f6472bdb58b2b2651a8c6c19368753bb91c4befceb6ff9e8a0e60001b613035565b6121097f77191721977cbf390708a008ab84af64a6082f705ae7e48a1fe32e8d429cd6c960001b613035565b8091505090565b60085481565b6121427f50370fbf393de009cb6d8e5906dd0972a8f38a979552724b8d1f17e482f8803460001b613035565b61216e7fb54d5212506ae4c995ad5340a5367b7ec4ee97e8ef290a841b8f67df77da60e160001b613035565b61219a7f2a6718697ee30340a8ece5566706d42a7336700067f303b222f9151f624f130260001b613035565b600960009054906101000a900473ffffffffffffffffffffffffffffffffffffffff1673ffffffffffffffffffffffffffffffffffffffff163373ffffffffffffffffffffffffffffffffffffffff16146122a85761221b7fd838db2fb54ec24da4510f2bcd423309404576c4464ece03eecad9431a97a58a60001b613035565b6122477f73864c8a2762ce426fdcef9c7ea2ccafbf6b5798ec6fe9b37edae324a2f52c2860001b613035565b600960009054906101000a900473ffffffffffffffffffffffffffffffffffffffff16336040517f64a14abf00000000000000000000000000000000000000000000000000000000815260040161229f9291906146b3565b60405180910390fd5b6122d47f8ae0646d23ddadeb6b62837fd9f037b92de9e715df32c773ba681ce4c217cb3960001b613035565b6123007fd81e065f896eeecc08fae608064403447a6646f0f6748fee7579a1035247511060001b613035565b61232c7fb7cdadf82f82cad81c3d42dfd4413661f605535dfa9d0c77d7585372231c8ed460001b613035565b600081116123c9576123607fef2dfe7bc8a162a7879a57a58e4bdd2d3952955e4febcf0b193f55d95c54361c60001b613035565b61238c7fe9e1c6d5ba9e9c668fe9e0e1ffe9bb32d68a453f017636ca2d4652aadf0e321c60001b613035565b806040517f820f07950000000000000000000000000000000000000000000000000000000081526004016123c091906149ca565b60405180910390fd5b6123f57f3cb13a46c00bc05c0e67c46c3cd74060e870e93d22085bb8b2eb9f8963dbf64a60001b613035565b6124217f0360cc37823e93b7ca1417d193e3c5c914fecda3f6d86d4febd45edc2cf4460260001b613035565b61244d7ffdcefa0a03aa3a92d0fd1211c661b7754d63bc0c8c125b8b72fe115fd9472d0260001b613035565b8060088190555050565b60606001805461246690614d00565b80601f016020809104026020016040519081016040528092919081815260200182805461249290614d00565b80156124df5780601f106124b4576101008083540402835291602001916124df565b820191906000526020600020905b8154815290600101906020018083116124c257829003601f168201915b5050505050905090565b600b80546124f690614d00565b80601f016020809104026020016040519081016040528092919081815260200182805461252290614d00565b801561256f5780601f106125445761010080835404028352916020019161256f565b820191906000526020600020905b81548152906001019060200180831161255257829003601f168201915b505050505081565b600c602052806000526040600020600091509050805461259690614d00565b80601f01602080910402602001604051908101604052809291908181526020018280546125c290614d00565b801561260f5780601f106125e45761010080835404028352916020019161260f565b820191906000526020600020905b8154815290600101906020018083116125f257829003601f168201915b505050505081565b612629612622612c2f565b83836133cf565b5050565b61263e612638612c2f565b83612cf0565b61267d576040517f08c379a0000000000000000000000000000000000000000000000000000000008152600401612674906149aa565b60405180910390fd5b6126898484848461353c565b50505050565b606061269a82612bc3565b6126d9576040517f08c379a00000000000000000000000000000000000000000000000000000000081526004016126d09061492a565b60405180910390fd5b60006006600084815260200190815260200160002080546126f990614d00565b80601f016020809104026020016040519081016040528092919081815260200182805461272590614d00565b80156127725780601f1061274757610100808354040283529160200191612772565b820191906000526020600020905b81548152906001019060200180831161275557829003601f168201915b505050505090506000612783613598565b90506000815114156127995781925050506127dc565b6000825111156127ce5780826040516020016127b6929190614674565b604051602081830303815290604052925050506127dc565b6127d7846136ad565b925050505b919050565b600a80546127ee90614d00565b80601f016020809104026020016040519081016040528092919081815260200182805461281a90614d00565b80156128675780601f1061283c57610100808354040283529160200191612867565b820191906000526020600020905b81548152906001019060200180831161284a57829003601f168201915b505050505081565b6000600560008473ffffffffffffffffffffffffffffffffffffffff1673ffffffffffffffffffffffffffffffffffffffff16815260200190815260200160002060008373ffffffffffffffffffffffffffffffffffffffff1673ffffffffffffffffffffffffffffffffffffffff16815260200190815260200160002060009054906101000a900460ff16905092915050565b61292f7f8bc88b7ac7372c2e4aa13db13ea30718b75c3bdd9baaf1472aa8fef53a010a3c60001b613035565b61295b7f6cc60eedc0fb64af9a6cf4c99854a4b60fda2e76136dcdcfe782214060609b8b60001b613035565b6129877f487a27c77ae94d0ebf5f8c89e2c1e14a33d60048a3a907744cf10f54ffacf15160001b613035565b600960009054906101000a900473ffffffffffffffffffffffffffffffffffffffff1673ffffffffffffffffffffffffffffffffffffffff163373ffffffffffffffffffffffffffffffffffffffff1614612a9557612a087faeafafc4dd55811b5b7e33245cb7e8ecbba02dc407030e31fc533ef55c93464a60001b613035565b612a347f42036b1d782ed24f41ef930ccd545b3f012afbc3e47ff66ef76d0fa311ed699f60001b613035565b600960009054906101000a900473ffffffffffffffffffffffffffffffffffffffff16336040517f64a14abf000000000000000000000000000000000000000000000000000000008152600401612a8c9291906146b3565b60405180910390fd5b612ac17f0c1efda0f75bd70cca22939fe375d23b5331f70205c69734a64ff933d3da9a3460001b613035565b612aed7f7869796c2d81d7d2bc3fc474bcd331f04e6cd08f35905b515d1223f912e12e3560001b613035565b612b197f86f7bca8c8a4cb9bb38d34da4ecd37c63bdad5305167690d7c5b846bfbff9fd360001b613035565b80600a9080519060200190612b2f929190613de8565b5050565b600960009054906101000a900473ffffffffffffffffffffffffffffffffffffffff1681565b60007f01ffc9a7000000000000000000000000000000000000000000000000000000007bffffffffffffffffffffffffffffffffffffffffffffffffffffffff1916827bffffffffffffffffffffffffffffffffffffffffffffffffffffffff1916149050919050565b60008073ffffffffffffffffffffffffffffffffffffffff166002600084815260200190815260200160002060009054906101000a900473ffffffffffffffffffffffffffffffffffffffff1673ffffffffffffffffffffffffffffffffffffffff1614159050919050565b600033905090565b816004600083815260200190815260200160002060006101000a81548173ffffffffffffffffffffffffffffffffffffffff021916908373ffffffffffffffffffffffffffffffffffffffff160217905550808273ffffffffffffffffffffffffffffffffffffffff16612caa8361199a565b73ffffffffffffffffffffffffffffffffffffffff167f8c5be1e5ebec7d5bd14f71427d1e84f3dd0314c0f7b2291e5b200ac8c7c3b92560405160405180910390a45050565b6000612cfb82612bc3565b612d3a576040517f08c379a0000000000000000000000000000000000000000000000000000000008152600401612d319061486a565b60405180910390fd5b6000612d458361199a565b90508073ffffffffffffffffffffffffffffffffffffffff168473ffffffffffffffffffffffffffffffffffffffff161480612d875750612d86818561286f565b5b80612dc557508373ffffffffffffffffffffffffffffffffffffffff16612dad846107fc565b73ffffffffffffffffffffffffffffffffffffffff16145b91505092915050565b8273ffffffffffffffffffffffffffffffffffffffff16612dee8261199a565b73ffffffffffffffffffffffffffffffffffffffff1614612e44576040517f08c379a0000000000000000000000000000000000000000000000000000000008152600401612e3b906147ea565b60405180910390fd5b600073ffffffffffffffffffffffffffffffffffffffff168273ffffffffffffffffffffffffffffffffffffffff161415612eb4576040517f08c379a0000000000000000000000000000000000000000000000000000000008152600401612eab9061482a565b60405180910390fd5b612ebf838383613754565b612eca600082612c37565b6001600360008573ffffffffffffffffffffffffffffffffffffffff1673ffffffffffffffffffffffffffffffffffffffff1681526020019081526020016000206000828254612f1a9190614be2565b925050819055506001600360008473ffffffffffffffffffffffffffffffffffffffff1673ffffffffffffffffffffffffffffffffffffffff1681526020019081526020016000206000828254612f719190614b01565b92505081905550816002600083815260200190815260200160002060006101000a81548173ffffffffffffffffffffffffffffffffffffffff021916908373ffffffffffffffffffffffffffffffffffffffff160217905550808273ffffffffffffffffffffffffffffffffffffffff168473ffffffffffffffffffffffffffffffffffffffff167fddf252ad1be2c89b69c2b068fc378daa952ba7f163c4a11628f55a4df523b3ef60405160405180910390a4613030838383613759565b505050565b50565b6001816000016000828254019250508190555050565b600081600001549050919050565b600073ffffffffffffffffffffffffffffffffffffffff168273ffffffffffffffffffffffffffffffffffffffff1614156130cc576040517f08c379a00000000000000000000000000000000000000000000000000000000081526004016130c39061490a565b60405180910390fd5b6130d581612bc3565b15613115576040517f08c379a000000000000000000000000000000000000000000000000000000000815260040161310c9061480a565b60405180910390fd5b61312160008383613754565b6001600360008473ffffffffffffffffffffffffffffffffffffffff1673ffffffffffffffffffffffffffffffffffffffff16815260200190815260200160002060008282546131719190614b01565b92505081905550816002600083815260200190815260200160002060006101000a81548173ffffffffffffffffffffffffffffffffffffffff021916908373ffffffffffffffffffffffffffffffffffffffff160217905550808273ffffffffffffffffffffffffffffffffffffffff16600073ffffffffffffffffffffffffffffffffffffffff167fddf252ad1be2c89b69c2b068fc378daa952ba7f163c4a11628f55a4df523b3ef60405160405180910390a461323260008383613759565b5050565b6060600082141561327e576040518060400160405280600481526020017f307830300000000000000000000000000000000000000000000000000000000081525090506132b7565b600082905060005b600082146132a857808061329990614d63565b915050600882901c9150613286565b6132b2848261375e565b925050505b919050565b6132c582612bc3565b613304576040517f08c379a00000000000000000000000000000000000000000000000000000000081526004016132fb906148ea565b60405180910390fd5b8060066000848152602001908152602001600020908051906020019061332b929190613de8565b505050565b6133ca83838360405160240161334893929190614765565b6040516020818303038152906040527fa3f5c739000000000000000000000000000000000000000000000000000000007bffffffffffffffffffffffffffffffffffffffffffffffffffffffff19166020820180517bffffffffffffffffffffffffffffffffffffffffffffffffffffffff8381831617835250505050613a58565b505050565b8173ffffffffffffffffffffffffffffffffffffffff168373ffffffffffffffffffffffffffffffffffffffff16141561343e576040517f08c379a00000000000000000000000000000000000000000000000000000000081526004016134359061484a565b60405180910390fd5b80600560008573ffffffffffffffffffffffffffffffffffffffff1673ffffffffffffffffffffffffffffffffffffffff16815260200190815260200160002060008473ffffffffffffffffffffffffffffffffffffffff1673ffffffffffffffffffffffffffffffffffffffff16815260200190815260200160002060006101000a81548160ff0219169083151502179055508173ffffffffffffffffffffffffffffffffffffffff168373ffffffffffffffffffffffffffffffffffffffff167f17307eab39ab6107e8899845ad3d59bd9653f200f220920489ca2b5937696c318360405161352f9190614728565b60405180910390a3505050565b613547848484612dce565b61355384848484613a81565b613592576040517f08c379a0000000000000000000000000000000000000000000000000000000008152600401613589906147ca565b60405180910390fd5b50505050565b60606135c67fe17fd0c4f81c8fdbb0cc00bcbf7da6b362a1c0c063c6068e0ca52d3a52c4566e60001b613035565b6135f17e661696f79f72a223911ddc5b1bafc48c13e7ab66fbdd3380bb4cf0c1b78e0260001b613035565b61361d7f5c1f4f695334f3b35c3962725662a853c8ab9c16854ede4d2997a125977f44f960001b613035565b600b805461362a90614d00565b80601f016020809104026020016040519081016040528092919081815260200182805461365690614d00565b80156136a35780601f10613678576101008083540402835291602001916136a3565b820191906000526020600020905b81548152906001019060200180831161368657829003601f168201915b5050505050905090565b60606136b882612bc3565b6136f7576040517f08c379a00000000000000000000000000000000000000000000000000000000081526004016136ee9061496a565b60405180910390fd5b6000613701613598565b90506000815111613721576040518060200160405280600081525061374c565b8061372b84613c18565b60405160200161373c929190614674565b6040516020818303038152906040525b915050919050565b505050565b505050565b6060600060028360026137719190614b88565b61377b9190614b01565b67ffffffffffffffff8111156137ba577f4e487b7100000000000000000000000000000000000000000000000000000000600052604160045260246000fd5b6040519080825280601f01601f1916602001820160405280156137ec5781602001600182028036833780820191505090505b5090507f30000000000000000000000000000000000000000000000000000000000000008160008151811061384a577f4e487b7100000000000000000000000000000000000000000000000000000000600052603260045260246000fd5b60200101907effffffffffffffffffffffffffffffffffffffffffffffffffffffffffffff1916908160001a9053507f7800000000000000000000000000000000000000000000000000000000000000816001815181106138d4577f4e487b7100000000000000000000000000000000000000000000000000000000600052603260045260246000fd5b60200101907effffffffffffffffffffffffffffffffffffffffffffffffffffffffffffff1916908160001a905350600060018460026139149190614b88565b61391e9190614b01565b90505b6001811115613a0a577f3031323334353637383961626364656600000000000000000000000000000000600f861660108110613986577f4e487b7100000000000000000000000000000000000000000000000000000000600052603260045260246000fd5b1a60f81b8282815181106139c3577f4e487b7100000000000000000000000000000000000000000000000000000000600052603260045260246000fd5b60200101907effffffffffffffffffffffffffffffffffffffffffffffffffffffffffffff1916908160001a905350600485901c945080613a0390614cd6565b9050613921565b5060008414613a4e576040517f08c379a0000000000000000000000000000000000000000000000000000000008152600401613a45906147aa565b60405180910390fd5b8091505092915050565b60008151905060006a636f6e736f6c652e6c6f679050602083016000808483855afa5050505050565b6000613aa28473ffffffffffffffffffffffffffffffffffffffff16613dc5565b15613c0b578373ffffffffffffffffffffffffffffffffffffffff1663150b7a02613acb612c2f565b8786866040518563ffffffff1660e01b8152600401613aed94939291906146dc565b602060405180830381600087803b158015613b0757600080fd5b505af1925050508015613b3857506040513d601f19601f82011682018060405250810190613b3591906141e8565b60015b613bbb573d8060008114613b68576040519150601f19603f3d011682016040523d82523d6000602084013e613b6d565b606091505b50600081511415613bb3576040517f08c379a0000000000000000000000000000000000000000000000000000000008152600401613baa906147ca565b60405180910390fd5b805181602001fd5b63150b7a0260e01b7bffffffffffffffffffffffffffffffffffffffffffffffffffffffff1916817bffffffffffffffffffffffffffffffffffffffffffffffffffffffff191614915050613c10565b600190505b949350505050565b60606000821415613c60576040518060400160405280600181526020017f30000000000000000000000000000000000000000000000000000000000000008152509050613dc0565b600082905060005b60008214613c92578080613c7b90614d63565b915050600a82613c8b9190614b57565b9150613c68565b60008167ffffffffffffffff811115613cd4577f4e487b7100000000000000000000000000000000000000000000000000000000600052604160045260246000fd5b6040519080825280601f01601f191660200182016040528015613d065781602001600182028036833780820191505090505b5090505b60008514613db957600182613d1f9190614be2565b9150600a85613d2e9190614de4565b6030613d3a9190614b01565b60f81b818381518110613d76577f4e487b7100000000000000000000000000000000000000000000000000000000600052603260045260246000fd5b60200101907effffffffffffffffffffffffffffffffffffffffffffffffffffffffffffff1916908160001a905350600a85613db29190614b57565b9450613d0a565b8093505050505b919050565b6000808273ffffffffffffffffffffffffffffffffffffffff163b119050919050565b828054613df490614d00565b90600052602060002090601f016020900481019282613e165760008555613e5d565b82601f10613e2f57805160ff1916838001178555613e5d565b82800160010185558215613e5d579182015b82811115613e5c578251825591602001919060010190613e41565b5b509050613e6a9190613e6e565b5090565b5b80821115613e87576000816000905550600101613e6f565b5090565b6000613e9e613e9984614a5c565b614a37565b905082815260208101848484011115613eb657600080fd5b613ec1848285614c94565b509392505050565b6000613edc613ed784614a8d565b614a37565b905082815260208101848484011115613ef457600080fd5b613eff848285614c94565b509392505050565b600081359050613f1681615396565b92915050565b600081359050613f2b816153ad565b92915050565b600081359050613f40816153c4565b92915050565b600081519050613f55816153c4565b92915050565b600082601f830112613f6c57600080fd5b8135613f7c848260208601613e8b565b91505092915050565b600082601f830112613f9657600080fd5b8135613fa6848260208601613ec9565b91505092915050565b600081359050613fbe816153db565b92915050565b600060208284031215613fd657600080fd5b6000613fe484828501613f07565b91505092915050565b6000806040838503121561400057600080fd5b600061400e85828601613f07565b925050602061401f85828601613f07565b9150509250929050565b60008060006060848603121561403e57600080fd5b600061404c86828701613f07565b935050602061405d86828701613f07565b925050604061406e86828701613faf565b9150509250925092565b6000806000806080858703121561408e57600080fd5b600061409c87828801613f07565b94505060206140ad87828801613f07565b93505060406140be87828801613faf565b925050606085013567ffffffffffffffff8111156140db57600080fd5b6140e787828801613f5b565b91505092959194509250565b6000806040838503121561410657600080fd5b600061411485828601613f07565b925050602061412585828601613f1c565b9150509250929050565b6000806040838503121561414257600080fd5b600061415085828601613f07565b925050602083013567ffffffffffffffff81111561416d57600080fd5b61417985828601613f85565b9150509250929050565b6000806040838503121561419657600080fd5b60006141a485828601613f07565b92505060206141b585828601613faf565b9150509250929050565b6000602082840312156141d157600080fd5b60006141df84828501613f31565b91505092915050565b6000602082840312156141fa57600080fd5b600061420884828501613f46565b91505092915050565b60006020828403121561422357600080fd5b600082013567ffffffffffffffff81111561423d57600080fd5b61424984828501613f85565b91505092915050565b60006020828403121561426457600080fd5b600061427284828501613faf565b91505092915050565b6000806040838503121561428e57600080fd5b600061429c85828601613faf565b925050602083013567ffffffffffffffff8111156142b957600080fd5b6142c585828601613f85565b9150509250929050565b6142d881614c16565b82525050565b6142ef6142ea82614c16565b614dac565b82525050565b6142fe81614c28565b82525050565b61431561431082614c34565b614dbe565b82525050565b600061432682614abe565b6143308185614ad4565b9350614340818560208601614ca3565b61434981614ed1565b840191505092915050565b600061435f82614ac9565b6143698185614ae5565b9350614379818560208601614ca3565b61438281614ed1565b840191505092915050565b600061439882614ac9565b6143a28185614af6565b93506143b2818560208601614ca3565b80840191505092915050565b60006143cb602083614ae5565b91506143d682614eef565b602082019050919050565b60006143ee603283614ae5565b91506143f982614f18565b604082019050919050565b6000614411602583614ae5565b915061441c82614f67565b604082019050919050565b6000614434601c83614ae5565b915061443f82614fb6565b602082019050919050565b6000614457602483614ae5565b915061446282614fdf565b604082019050919050565b600061447a601983614ae5565b91506144858261502e565b602082019050919050565b600061449d602c83614ae5565b91506144a882615057565b604082019050919050565b60006144c0603883614ae5565b91506144cb826150a6565b604082019050919050565b60006144e3602a83614ae5565b91506144ee826150f5565b604082019050919050565b6000614506602983614ae5565b915061451182615144565b604082019050919050565b6000614529602e83614ae5565b915061453482615193565b604082019050919050565b600061454c602083614ae5565b9150614557826151e2565b602082019050919050565b600061456f603183614ae5565b915061457a8261520b565b604082019050919050565b6000614592602c83614ae5565b915061459d8261525a565b604082019050919050565b60006145b5602f83614ae5565b91506145c0826152a9565b604082019050919050565b60006145d8602183614ae5565b91506145e3826152f8565b604082019050919050565b60006145fb603183614ae5565b915061460682615347565b604082019050919050565b61461a81614c8a565b82525050565b61463161462c82614c8a565b614dda565b82525050565b600061464382866142de565b6014820191506146538285614304565b6020820191506146638284614620565b602082019150819050949350505050565b6000614680828561438d565b915061468c828461438d565b91508190509392505050565b60006020820190506146ad60008301846142cf565b92915050565b60006040820190506146c860008301856142cf565b6146d560208301846142cf565b9392505050565b60006080820190506146f160008301876142cf565b6146fe60208301866142cf565b61470b6040830185614611565b818103606083015261471d818461431b565b905095945050505050565b600060208201905061473d60008301846142f5565b92915050565b6000602082019050818103600083015261475d8184614354565b905092915050565b6000606082019050818103600083015261477f8186614354565b905061478e6020830185614611565b81810360408301526147a08184614354565b9050949350505050565b600060208201905081810360008301526147c3816143be565b9050919050565b600060208201905081810360008301526147e3816143e1565b9050919050565b6000602082019050818103600083015261480381614404565b9050919050565b6000602082019050818103600083015261482381614427565b9050919050565b600060208201905081810360008301526148438161444a565b9050919050565b600060208201905081810360008301526148638161446d565b9050919050565b6000602082019050818103600083015261488381614490565b9050919050565b600060208201905081810360008301526148a3816144b3565b9050919050565b600060208201905081810360008301526148c3816144d6565b9050919050565b600060208201905081810360008301526148e3816144f9565b9050919050565b600060208201905081810360008301526149038161451c565b9050919050565b600060208201905081810360008301526149238161453f565b9050919050565b6000602082019050818103600083015261494381614562565b9050919050565b6000602082019050818103600083015261496381614585565b9050919050565b60006020820190508181036000830152614983816145a8565b9050919050565b600060208201905081810360008301526149a3816145cb565b9050919050565b600060208201905081810360008301526149c3816145ee565b9050919050565b60006020820190506149df6000830184614611565b92915050565b60006040820190506149fa6000830185614611565b614a0760208301846142cf565b9392505050565b6000604082019050614a236000830185614611565b614a306020830184614611565b9392505050565b6000614a41614a52565b9050614a4d8282614d32565b919050565b6000604051905090565b600067ffffffffffffffff821115614a7757614a76614ea2565b5b614a8082614ed1565b9050602081019050919050565b600067ffffffffffffffff821115614aa857614aa7614ea2565b5b614ab182614ed1565b9050602081019050919050565b600081519050919050565b600081519050919050565b600082825260208201905092915050565b600082825260208201905092915050565b600081905092915050565b6000614b0c82614c8a565b9150614b1783614c8a565b9250827fffffffffffffffffffffffffffffffffffffffffffffffffffffffffffffffff03821115614b4c57614b4b614e15565b5b828201905092915050565b6000614b6282614c8a565b9150614b6d83614c8a565b925082614b7d57614b7c614e44565b5b828204905092915050565b6000614b9382614c8a565b9150614b9e83614c8a565b9250817fffffffffffffffffffffffffffffffffffffffffffffffffffffffffffffffff0483118215151615614bd757614bd6614e15565b5b828202905092915050565b6000614bed82614c8a565b9150614bf883614c8a565b925082821015614c0b57614c0a614e15565b5b828203905092915050565b6000614c2182614c6a565b9050919050565b60008115159050919050565b6000819050919050565b60007fffffffff0000000000000000000000000000000000000000000000000000000082169050919050565b600073ffffffffffffffffffffffffffffffffffffffff82169050919050565b6000819050919050565b82818337600083830152505050565b60005b83811015614cc1578082015181840152602081019050614ca6565b83811115614cd0576000848401525b50505050565b6000614ce182614c8a565b91506000821415614cf557614cf4614e15565b5b600182039050919050565b60006002820490506001821680614d1857607f821691505b60208210811415614d2c57614d2b614e73565b5b50919050565b614d3b82614ed1565b810181811067ffffffffffffffff82111715614d5a57614d59614ea2565b5b80604052505050565b6000614d6e82614c8a565b91507fffffffffffffffffffffffffffffffffffffffffffffffffffffffffffffffff821415614da157614da0614e15565b5b600182019050919050565b6000614db782614dc8565b9050919050565b6000819050919050565b6000614dd382614ee2565b9050919050565b6000819050919050565b6000614def82614c8a565b9150614dfa83614c8a565b925082614e0a57614e09614e44565b5b828206905092915050565b7f4e487b7100000000000000000000000000000000000000000000000000000000600052601160045260246000fd5b7f4e487b7100000000000000000000000000000000000000000000000000000000600052601260045260246000fd5b7f4e487b7100000000000000000000000000000000000000000000000000000000600052602260045260246000fd5b7f4e487b7100000000000000000000000000000000000000000000000000000000600052604160045260246000fd5b6000601f19601f8301169050919050565b60008160601b9050919050565b7f537472696e67733a20686578206c656e67746820696e73756666696369656e74600082015250565b7f4552433732313a207472616e7366657220746f206e6f6e20455243373231526560008201527f63656976657220696d706c656d656e7465720000000000000000000000000000602082015250565b7f4552433732313a207472616e736665722066726f6d20696e636f72726563742060008201527f6f776e6572000000000000000000000000000000000000000000000000000000602082015250565b7f4552433732313a20746f6b656e20616c7265616479206d696e74656400000000600082015250565b7f4552433732313a207472616e7366657220746f20746865207a65726f2061646460008201527f7265737300000000000000000000000000000000000000000000000000000000602082015250565b7f4552433732313a20617070726f766520746f2063616c6c657200000000000000600082015250565b7f4552433732313a206f70657261746f7220717565727920666f72206e6f6e657860008201527f697374656e7420746f6b656e0000000000000000000000000000000000000000602082015250565b7f4552433732313a20617070726f76652063616c6c6572206973206e6f74206f7760008201527f6e6572206e6f7220617070726f76656420666f7220616c6c0000000000000000602082015250565b7f4552433732313a2062616c616e636520717565727920666f7220746865207a6560008201527f726f206164647265737300000000000000000000000000000000000000000000602082015250565b7f4552433732313a206f776e657220717565727920666f72206e6f6e657869737460008201527f656e7420746f6b656e0000000000000000000000000000000000000000000000602082015250565b7f45524337323155524953746f726167653a2055524920736574206f66206e6f6e60008201527f6578697374656e7420746f6b656e000000000000000000000000000000000000602082015250565b7f4552433732313a206d696e7420746f20746865207a65726f2061646472657373600082015250565b7f45524337323155524953746f726167653a2055524920717565727920666f722060008201527f6e6f6e6578697374656e7420746f6b656e000000000000000000000000000000602082015250565b7f4552433732313a20617070726f76656420717565727920666f72206e6f6e657860008201527f697374656e7420746f6b656e0000000000000000000000000000000000000000602082015250565b7f4552433732314d657461646174613a2055524920717565727920666f72206e6f60008201527f6e6578697374656e7420746f6b656e0000000000000000000000000000000000602082015250565b7f4552433732313a20617070726f76616c20746f2063757272656e74206f776e6560008201527f7200000000000000000000000000000000000000000000000000000000000000602082015250565b7f4552433732313a207472616e736665722063616c6c6572206973206e6f74206f60008201527f776e6572206e6f7220617070726f766564000000000000000000000000000000602082015250565b61539f81614c16565b81146153aa57600080fd5b50565b6153b681614c28565b81146153c157600080fd5b50565b6153cd81614c3e565b81146153d857600080fd5b50565b6153e481614c8a565b81146153ef57600080fd5b5056fe6d696e7465642c20746f6b656e49643a2025732c20746f6b656e5572693a202573a2646970667358221220b292167c2871c002ca60ad007c40cb6b997818ef39b35dc912254d05d238d3bf64736f6c63430008040033",
  "linkReferences": {},
  "deployedLinkReferences": {}
}