{
  "_format": "hh-sol-artifact-1",
  "contractName": "NaiveMail",
  "sourceName": "contracts/NaiveMail.sol",
  "abi": [
    {
      "inputs": [
        {
          "internalType": "uint256",
          "name": "_tokenPrice",
          "type": "uint256"
        },
        {
          "internalType": "address",
          "name": "_admin",
          "type": "address"
        },
        {
          "internalType": "string",
          "name": "_pk",
          "type": "string"
        },
        {
          "internalType": "uint256",
          "name": "_maxSupply",
          "type": "uint256"
        },
        {
          "internalType": "uint256",
          "name": "_stopMintingCursor",
          "type": "uint256"
        }
      ],
      "stateMutability": "nonpayable",
      "type": "constructor"
    },
    {
      "inputs": [
        {
          "internalType": "address",
          "name": "admin",
          "type": "address"
        },
        {
          "internalType": "address",
          "name": "caller",
          "type": "address"
        }
      ],
      "name": "AdminOnly",
      "type": "error"
    },
    {
      "inputs": [
        {
          "internalType": "string",
          "name": "emailAddress",
          "type": "string"
        }
      ],
      "name": "EmaillAddressAlreadyToken",
      "type": "error"
    },
    {
      "inputs": [
        {
          "internalType": "uint256",
          "name": "price",
          "type": "uint256"
        },
        {
          "internalType": "uint256",
          "name": "offer",
          "type": "uint256"
        }
      ],
      "name": "InsufficientOffer",
      "type": "error"
    },
    {
      "inputs": [
        {
          "internalType": "uint256",
          "name": "balance",
          "type": "uint256"
        },
        {
          "internalType": "uint256",
          "name": "amount",
          "type": "uint256"
        }
      ],
      "name": "InsufficientPoolBalance",
      "type": "error"
    },
    {
      "inputs": [
        {
          "internalType": "uint256",
          "name": "maxSupply",
          "type": "uint256"
        }
      ],
      "name": "InvalidMaxSupply",
      "type": "error"
    },
    {
      "inputs": [
        {
          "internalType": "uint256",
          "name": "stopMintingCursor",
          "type": "uint256"
        }
      ],
      "name": "InvalidStopMintingCursor",
      "type": "error"
    },
    {
      "inputs": [
        {
          "internalType": "uint256",
          "name": "price",
          "type": "uint256"
        }
      ],
      "name": "InvalidTokenPrice",
      "type": "error"
    },
    {
      "inputs": [
        {
          "internalType": "uint256",
          "name": "maxSupply",
          "type": "uint256"
        },
        {
          "internalType": "uint256",
          "name": "nextTokenId",
          "type": "uint256"
        }
      ],
      "name": "MaxSupplyLimit",
      "type": "error"
    },
    {
      "inputs": [
        {
          "internalType": "uint256",
          "name": "tokenId",
          "type": "uint256"
        },
        {
          "internalType": "address",
          "name": "caller",
          "type": "address"
        }
      ],
      "name": "OwnerOnly",
      "type": "error"
    },
    {
      "inputs": [
        {
          "internalType": "uint256",
          "name": "stopMintingCursor",
          "type": "uint256"
        },
        {
          "internalType": "uint256",
          "name": "nextTokenId",
          "type": "uint256"
        }
      ],
      "name": "StopMinting",
      "type": "error"
    },
    {
      "inputs": [
        {
          "internalType": "uint256",
          "name": "stopMintingCursor",
          "type": "uint256"
        },
        {
          "internalType": "uint256",
          "name": "maxSupply",
          "type": "uint256"
        }
      ],
      "name": "StopMintingCursorOutOfMaxSupply",
      "type": "error"
    },
    {
      "inputs": [
        {
          "internalType": "uint256",
          "name": "stopMintingCursor",
          "type": "uint256"
        },
        {
          "internalType": "uint256",
          "name": "totalSupply",
          "type": "uint256"
        }
      ],
      "name": "StopMintingCursorOutOfTotalSupply",
      "type": "error"
    },
    {
      "anonymous": false,
      "inputs": [
        {
          "indexed": true,
          "internalType": "address",
          "name": "owner",
          "type": "address"
        },
        {
          "indexed": true,
          "internalType": "address",
          "name": "approved",
          "type": "address"
        },
        {
          "indexed": true,
          "internalType": "uint256",
          "name": "tokenId",
          "type": "uint256"
        }
      ],
      "name": "Approval",
      "type": "event"
    },
    {
      "anonymous": false,
      "inputs": [
        {
          "indexed": true,
          "internalType": "address",
          "name": "owner",
          "type": "address"
        },
        {
          "indexed": true,
          "internalType": "address",
          "name": "operator",
          "type": "address"
        },
        {
          "indexed": false,
          "internalType": "bool",
          "name": "approved",
          "type": "bool"
        }
      ],
      "name": "ApprovalForAll",
      "type": "event"
    },
    {
      "anonymous": false,
      "inputs": [
        {
          "indexed": true,
          "internalType": "string",
          "name": "mailAddrIndex",
          "type": "string"
        },
        {
          "indexed": true,
          "internalType": "uint256",
          "name": "tokenId",
          "type": "uint256"
        },
        {
          "indexed": true,
          "internalType": "address",
          "name": "initialOwner",
          "type": "address"
        },
        {
          "indexed": false,
          "internalType": "string",
          "name": "mailAddrStr",
          "type": "string"
        }
      ],
      "name": "RegisterMailAddress",
      "type": "event"
    },
    {
      "anonymous": false,
      "inputs": [
        {
          "indexed": true,
          "internalType": "address",
          "name": "from",
          "type": "address"
        },
        {
          "indexed": true,
          "internalType": "address",
          "name": "to",
          "type": "address"
        },
        {
          "indexed": true,
          "internalType": "uint256",
          "name": "tokenId",
          "type": "uint256"
        }
      ],
      "name": "Transfer",
      "type": "event"
    },
    {
      "inputs": [],
      "name": "admin",
      "outputs": [
        {
          "internalType": "address",
          "name": "",
          "type": "address"
        }
      ],
      "stateMutability": "view",
      "type": "function"
    },
    {
      "inputs": [],
      "name": "adminEncryptPublicKey",
      "outputs": [
        {
          "internalType": "string",
          "name": "",
          "type": "string"
        }
      ],
      "stateMutability": "view",
      "type": "function"
    },
    {
      "inputs": [
        {
          "internalType": "address",
          "name": "to",
          "type": "address"
        },
        {
          "internalType": "uint256",
          "name": "tokenId",
          "type": "uint256"
        }
      ],
      "name": "approve",
      "outputs": [],
      "stateMutability": "nonpayable",
      "type": "function"
    },
    {
      "inputs": [
        {
          "internalType": "address",
          "name": "owner",
          "type": "address"
        }
      ],
      "name": "balanceOf",
      "outputs": [
        {
          "internalType": "uint256",
          "name": "",
          "type": "uint256"
        }
      ],
      "stateMutability": "view",
      "type": "function"
    },
    {
      "inputs": [],
      "name": "baseUri",
      "outputs": [
        {
          "internalType": "string",
          "name": "",
          "type": "string"
        }
      ],
      "stateMutability": "view",
      "type": "function"
    },
    {
      "inputs": [
        {
          "internalType": "string",
          "name": "",
          "type": "string"
        }
      ],
      "name": "emailAddressToId",
      "outputs": [
        {
          "internalType": "uint256",
          "name": "",
          "type": "uint256"
        }
      ],
      "stateMutability": "view",
      "type": "function"
    },
    {
      "inputs": [
        {
          "internalType": "uint256",
          "name": "",
          "type": "uint256"
        }
      ],
      "name": "encryptPublicKeys",
      "outputs": [
        {
          "internalType": "string",
          "name": "",
          "type": "string"
        }
      ],
      "stateMutability": "view",
      "type": "function"
    },
    {
      "inputs": [
        {
          "internalType": "uint256",
          "name": "tokenId",
          "type": "uint256"
        }
      ],
      "name": "getApproved",
      "outputs": [
        {
          "internalType": "address",
          "name": "",
          "type": "address"
        }
      ],
      "stateMutability": "view",
      "type": "function"
    },
    {
      "inputs": [
        {
          "internalType": "address",
          "name": "owner",
          "type": "address"
        },
        {
          "internalType": "address",
          "name": "operator",
          "type": "address"
        }
      ],
      "name": "isApprovedForAll",
      "outputs": [
        {
          "internalType": "bool",
          "name": "",
          "type": "bool"
        }
      ],
      "stateMutability": "view",
      "type": "function"
    },
    {
      "inputs": [
        {
          "internalType": "string",
          "name": "",
          "type": "string"
        }
      ],
      "name": "isEmailAddressTaken",
      "outputs": [
        {
          "internalType": "bool",
          "name": "",
          "type": "bool"
        }
      ],
      "stateMutability": "view",
      "type": "function"
    },
    {
      "inputs": [
        {
          "internalType": "uint256",
          "name": "",
          "type": "uint256"
        }
      ],
      "name": "isTokenAlreadyRegister",
      "outputs": [
        {
          "internalType": "bool",
          "name": "",
          "type": "bool"
        }
      ],
      "stateMutability": "view",
      "type": "function"
    },
    {
      "inputs": [],
      "name": "maxSupply",
      "outputs": [
        {
          "internalType": "uint256",
          "name": "",
          "type": "uint256"
        }
      ],
      "stateMutability": "view",
      "type": "function"
    },
    {
      "inputs": [
        {
          "internalType": "address",
          "name": "player",
          "type": "address"
        }
      ],
      "name": "mint",
      "outputs": [
        {
          "internalType": "uint256",
          "name": "",
          "type": "uint256"
        }
      ],
      "stateMutability": "payable",
      "type": "function"
    },
    {
      "inputs": [],
      "name": "name",
      "outputs": [
        {
          "internalType": "string",
          "name": "",
          "type": "string"
        }
      ],
      "stateMutability": "view",
      "type": "function"
    },
    {
      "inputs": [
        {
          "internalType": "uint256",
          "name": "tokenId",
          "type": "uint256"
        }
      ],
      "name": "ownerOf",
      "outputs": [
        {
          "internalType": "address",
          "name": "",
          "type": "address"
        }
      ],
      "stateMutability": "view",
      "type": "function"
    },
    {
      "inputs": [
        {
          "internalType": "address",
          "name": "from",
          "type": "address"
        },
        {
          "internalType": "address",
          "name": "to",
          "type": "address"
        },
        {
          "internalType": "uint256",
          "name": "tokenId",
          "type": "uint256"
        }
      ],
      "name": "safeTransferFrom",
      "outputs": [],
      "stateMutability": "nonpayable",
      "type": "function"
    },
    {
      "inputs": [
        {
          "internalType": "address",
          "name": "from",
          "type": "address"
        },
        {
          "internalType": "address",
          "name": "to",
          "type": "address"
        },
        {
          "internalType": "uint256",
          "name": "tokenId",
          "type": "uint256"
        },
        {
          "internalType": "bytes",
          "name": "_data",
          "type": "bytes"
        }
      ],
      "name": "safeTransferFrom",
      "outputs": [],
      "stateMutability": "nonpayable",
      "type": "function"
    },
    {
      "inputs": [
        {
          "internalType": "address",
          "name": "_admin",
          "type": "address"
        },
        {
          "internalType": "string",
          "name": "_pk",
          "type": "string"
        }
      ],
      "name": "setAdmin",
      "outputs": [],
      "stateMutability": "nonpayable",
      "type": "function"
    },
    {
      "inputs": [
        {
          "internalType": "string",
          "name": "_pk",
          "type": "string"
        }
      ],
      "name": "setAdminEncryptPublickKey",
      "outputs": [],
      "stateMutability": "nonpayable",
      "type": "function"
    },
    {
      "inputs": [
        {
          "internalType": "address",
          "name": "operator",
          "type": "address"
        },
        {
          "internalType": "bool",
          "name": "approved",
          "type": "bool"
        }
      ],
      "name": "setApprovalForAll",
      "outputs": [],
      "stateMutability": "nonpayable",
      "type": "function"
    },
    {
      "inputs": [
        {
          "internalType": "string",
          "name": "_baseUri",
          "type": "string"
        }
      ],
      "name": "setBaseURI",
      "outputs": [],
      "stateMutability": "nonpayable",
      "type": "function"
    },
    {
      "inputs": [
        {
          "internalType": "uint256",
          "name": "tokenId",
          "type": "uint256"
        },
        {
          "internalType": "string",
          "name": "emailAddress",
          "type": "string"
        }
      ],
      "name": "setEmailAddress",
      "outputs": [],
      "stateMutability": "nonpayable",
      "type": "function"
    },
    {
      "inputs": [
        {
          "internalType": "uint256",
          "name": "tokenId",
          "type": "uint256"
        },
        {
          "internalType": "string",
          "name": "key",
          "type": "string"
        }
      ],
      "name": "setEncryptPublicKey",
      "outputs": [],
      "stateMutability": "nonpayable",
      "type": "function"
    },
    {
      "inputs": [
        {
          "internalType": "uint256",
          "name": "price",
          "type": "uint256"
        }
      ],
      "name": "setPrice",
      "outputs": [],
      "stateMutability": "nonpayable",
      "type": "function"
    },
    {
      "inputs": [
        {
          "internalType": "uint256",
          "name": "_stopMintingCursor",
          "type": "uint256"
        }
      ],
      "name": "setStopMintingCursor",
      "outputs": [],
      "stateMutability": "nonpayable",
      "type": "function"
    },
    {
      "inputs": [],
      "name": "stopMintingCursor",
      "outputs": [
        {
          "internalType": "uint256",
          "name": "",
          "type": "uint256"
        }
      ],
      "stateMutability": "view",
      "type": "function"
    },
    {
      "inputs": [
        {
          "internalType": "address",
          "name": "player",
          "type": "address"
        },
        {
          "internalType": "string",
          "name": "key",
          "type": "string"
        }
      ],
      "name": "subscribe",
      "outputs": [],
      "stateMutability": "payable",
      "type": "function"
    },
    {
      "inputs": [
        {
          "internalType": "address",
          "name": "player",
          "type": "address"
        },
        {
          "internalType": "string",
          "name": "key",
          "type": "string"
        },
        {
          "internalType": "string",
          "name": "emailAddress",
          "type": "string"
        }
      ],
      "name": "subscribeMail",
      "outputs": [],
      "stateMutability": "payable",
      "type": "function"
    },
    {
      "inputs": [
        {
          "internalType": "bytes4",
          "name": "interfaceId",
          "type": "bytes4"
        }
      ],
      "name": "supportsInterface",
      "outputs": [
        {
          "internalType": "bool",
          "name": "",
          "type": "bool"
        }
      ],
      "stateMutability": "view",
      "type": "function"
    },
    {
      "inputs": [],
      "name": "symbol",
      "outputs": [
        {
          "internalType": "string",
          "name": "",
          "type": "string"
        }
      ],
      "stateMutability": "view",
      "type": "function"
    },
    {
      "inputs": [
        {
          "internalType": "uint256",
          "name": "index",
          "type": "uint256"
        }
      ],
      "name": "tokenByIndex",
      "outputs": [
        {
          "internalType": "uint256",
          "name": "",
          "type": "uint256"
        }
      ],
      "stateMutability": "view",
      "type": "function"
    },
    {
      "inputs": [
        {
          "internalType": "address",
          "name": "owner",
          "type": "address"
        },
        {
          "internalType": "uint256",
          "name": "index",
          "type": "uint256"
        }
      ],
      "name": "tokenOfOwnerByIndex",
      "outputs": [
        {
          "internalType": "uint256",
          "name": "",
          "type": "uint256"
        }
      ],
      "stateMutability": "view",
      "type": "function"
    },
    {
      "inputs": [],
      "name": "tokenPrice",
      "outputs": [
        {
          "internalType": "uint256",
          "name": "",
          "type": "uint256"
        }
      ],
      "stateMutability": "view",
      "type": "function"
    },
    {
      "inputs": [
        {
          "internalType": "uint256",
          "name": "tokenId",
          "type": "uint256"
        }
      ],
      "name": "tokenURI",
      "outputs": [
        {
          "internalType": "string",
          "name": "",
          "type": "string"
        }
      ],
      "stateMutability": "view",
      "type": "function"
    },
    {
      "inputs": [],
      "name": "totalSupply",
      "outputs": [
        {
          "internalType": "uint256",
          "name": "",
          "type": "uint256"
        }
      ],
      "stateMutability": "view",
      "type": "function"
    },
    {
      "inputs": [],
      "name": "totalTokens",
      "outputs": [
        {
          "internalType": "uint256",
          "name": "",
          "type": "uint256"
        }
      ],
      "stateMutability": "view",
      "type": "function"
    },
    {
      "inputs": [
        {
          "internalType": "address",
          "name": "from",
          "type": "address"
        },
        {
          "internalType": "address",
          "name": "to",
          "type": "address"
        },
        {
          "internalType": "uint256",
          "name": "tokenId",
          "type": "uint256"
        }
      ],
      "name": "transferFrom",
      "outputs": [],
      "stateMutability": "nonpayable",
      "type": "function"
    },
    {
      "inputs": [
        {
          "internalType": "uint256",
          "name": "_amount",
          "type": "uint256"
        }
      ],
      "name": "withdraw",
      "outputs": [],
      "stateMutability": "nonpayable",
      "type": "function"
    }
  ],
  "bytecode": "0x60806040523480156200001157600080fd5b5060405162002f8e38038062002f8e8339810160408190526200003491620001f9565b84848484846040518060400160405280600f81526020016e4e61697665467269656e647337323160881b815250604051806040016040528060038152602001622720a360e91b81525081600090805190602001906200009592919062000153565b508051620000ab90600190602084019062000153565b50620000be915050565b60405180910390fd5b600081118015620000cf5750600082115b8015620000db57508181115b156200010557604051630836aafb60e31b81526004810182905260248101839052604401620000b5565b600c859055600d80546001600160a01b0319166001600160a01b03861617905582516200013a90600e90602086019062000153565b5060119190915560125550620003609650505050505050565b82805462000161906200030d565b90600052602060002090601f016020900481019282620001855760008555620001d0565b82601f10620001a057805160ff1916838001178555620001d0565b82800160010185558215620001d0579182015b82811115620001d0578251825591602001919060010190620001b3565b50620001de929150620001e2565b5090565b5b80821115620001de5760008155600101620001e3565b600080600080600060a0868803121562000211578081fd5b8551602080880151919650906001600160a01b038116811462000232578283fd5b60408801519095506001600160401b03808211156200024f578384fd5b818901915089601f83011262000263578384fd5b8151818111156200027857620002786200034a565b604051601f8201601f19908116603f01168101908382118183101715620002a357620002a36200034a565b816040528281528c86848701011115620002bb578687fd5b8693505b82841015620002de5784840186015181850187015292850192620002bf565b82841115620002ef57868684830101525b60608c01516080909c01519a9d999c509a9998975050505050505050565b600181811c908216806200032257607f821691505b602082108114156200034457634e487b7160e01b600052602260045260246000fd5b50919050565b634e487b7160e01b600052604160045260246000fd5b612c1e80620003706000396000f3fe6080604052600436106102255760003560e01c806375f9b7c111610123578063a22cb465116100ab578063e107cf5d1161006f578063e107cf5d14610661578063e985e9c514610676578063f414321a146106bf578063f7da793b146106df578063f851a440146106f557600080fd5b8063a22cb465146105b3578063b88d4fde146105d3578063c87b56dd146105f3578063d5abeb0114610613578063dc4fdc811461062957600080fd5b806395d89b41116100f257806395d89b411461050e57806397227c1c146105235780639abc83201461055e5780639df8fa9e146105735780639ebd51f81461059357600080fd5b806375f9b7c1146104935780637e1c0c09146104c35780637ff9b596146104d857806391b7f5ed146104ee57600080fd5b80632f745c59116101b157806355f804b31161017557806355f804b3146104005780635de8f985146104205780636352211e146104405780636a6278421461046057806370a082311461047357600080fd5b80632f745c591461036d5780633c6597431461038d57806342842e0e146103a0578063476f6dd4146103c05780634f6ccce7146103e057600080fd5b8063095ea7b3116101f8578063095ea7b3146102ce57806318160ddd146102ee57806323b872dd1461030d578063255f07841461032d5780632e1a7d4d1461034d57600080fd5b806301ffc9a71461022a57806306fdde031461025f57806307de81eb14610281578063081812fc14610296575b600080fd5b34801561023657600080fd5b5061024a610245366004612816565b610715565b60405190151581526020015b60405180910390f35b34801561026b57600080fd5b50610274610740565b604051610256919061297c565b61029461028f36600461277c565b6107d2565b005b3480156102a257600080fd5b506102b66102b1366004612881565b6107f9565b6040516001600160a01b039091168152602001610256565b3480156102da57600080fd5b506102946102e93660046127ed565b610886565b3480156102fa57600080fd5b506008545b604051908152602001610256565b34801561031957600080fd5b50610294610328366004612642565b61099c565b34801561033957600080fd5b50610294610348366004612881565b6109cd565b34801561035957600080fd5b50610294610368366004612881565b610aa2565b34801561037957600080fd5b506102ff6103883660046127ed565b610b3d565b61029461039b366004612730565b610bd3565b3480156103ac57600080fd5b506102946103bb366004612642565b610d4c565b3480156103cc57600080fd5b506102946103db366004612730565b610d67565b3480156103ec57600080fd5b506102ff6103fb366004612881565b610dd5565b34801561040c57600080fd5b5061029461041b36600461284e565b610e76565b34801561042c57600080fd5b5061029461043b366004612899565b610ec9565b34801561044c57600080fd5b506102b661045b366004612881565b610f19565b6102ff61046e3660046125f6565b610f90565b34801561047f57600080fd5b506102ff61048e3660046125f6565b611103565b34801561049f57600080fd5b5061024a6104ae366004612881565b60156020526000908152604090205460ff1681565b3480156104cf57600080fd5b506102ff61118a565b3480156104e457600080fd5b506102ff600c5481565b3480156104fa57600080fd5b50610294610509366004612881565b611196565b34801561051a57600080fd5b506102746111db565b34801561052f57600080fd5b5061024a61053e36600461284e565b805160208183018101805160148252928201919093012091525460ff1681565b34801561056a57600080fd5b506102746111ea565b34801561057f57600080fd5b5061027461058e366004612881565b611278565b34801561059f57600080fd5b506102946105ae366004612899565b611291565b3480156105bf57600080fd5b506102946105ce3660046126f6565b61145e565b3480156105df57600080fd5b506102946105ee36600461267d565b611469565b3480156105ff57600080fd5b5061027461060e366004612881565b61149a565b34801561061f57600080fd5b506102ff60115481565b34801561063557600080fd5b506102ff61064436600461284e565b805160208183018101805160138252928201919093012091525481565b34801561066d57600080fd5b50610274611604565b34801561068257600080fd5b5061024a610691366004612610565b6001600160a01b03918216600090815260056020908152604080832093909416825291909152205460ff1690565b3480156106cb57600080fd5b506102946106da36600461284e565b611611565b3480156106eb57600080fd5b506102ff60125481565b34801561070157600080fd5b50600d546102b6906001600160a01b031681565b60006001600160e01b0319821663780e9d6360e01b148061073a575061073a82611664565b92915050565b60606000805461074f90612b02565b80601f016020809104026020016040519081016040528092919081815260200182805461077b90612b02565b80156107c85780601f1061079d576101008083540402835291602001916107c8565b820191906000526020600020905b8154815290600101906020018083116107ab57829003601f168201915b5050505050905090565b60006107dd84610f90565b90506107e98184610ec9565b6107f38183611291565b50505050565b6000610804826116b4565b61086a5760405162461bcd60e51b815260206004820152602c60248201527f4552433732313a20617070726f76656420717565727920666f72206e6f6e657860448201526b34b9ba32b73a103a37b5b2b760a11b60648201526084015b60405180910390fd5b506000908152600460205260409020546001600160a01b031690565b600061089182610f19565b9050806001600160a01b0316836001600160a01b031614156108ff5760405162461bcd60e51b815260206004820152602160248201527f4552433732313a20617070726f76616c20746f2063757272656e74206f776e656044820152603960f91b6064820152608401610861565b336001600160a01b038216148061091b575061091b8133610691565b61098d5760405162461bcd60e51b815260206004820152603860248201527f4552433732313a20617070726f76652063616c6c6572206973206e6f74206f7760448201527f6e6572206e6f7220617070726f76656420666f7220616c6c00000000000000006064820152608401610861565b61099783836116d1565b505050565b6109a6338261173f565b6109c25760405162461bcd60e51b815260040161086190612a0c565b610997838383611828565b600d546001600160a01b03163314610a0d57600d546040516364a14abf60e01b81526001600160a01b039091166004820152336024820152604401610861565b600081118015610a1f57506000601154115b8015610a2c575060115481115b15610a5857601154604051630836aafb60e31b8152610861918391600401918252602082015260400190565b6000610a6360085490565b9050600082118015610a7457508082105b15610a9c57604051636f68148b60e11b81526004810183905260248101829052604401610861565b50601255565b600d546001600160a01b03163314610ae257600d546040516364a14abf60e01b81526001600160a01b039091166004820152336024820152604401610861565b47811115610b0c5760405163ce9514f960e01b815247600482015260248101829052604401610861565b604051339082156108fc029083906000818181858888f19350505050158015610b39573d6000803e3d6000fd5b5050565b6000610b4883611103565b8210610baa5760405162461bcd60e51b815260206004820152602b60248201527f455243373231456e756d657261626c653a206f776e657220696e646578206f7560448201526a74206f6620626f756e647360a81b6064820152608401610861565b506001600160a01b03919091166000908152600660209081526040808320938352929052205490565b600c54341015610c0357600c54604051632a6cc23d60e21b81526004810191909152346024820152604401610861565b610c11600b80546001019055565b6000610c1c600b5490565b90506000601254118015610c31575080601254105b15610c5c5760125460405162fe039360e71b8152600481019190915260248101829052604401610861565b6000601154118015610c6f575080601154105b15610c9b576011546040516351e1f26360e01b8152600481019190915260248101829052604401610861565b610ca583826119cf565b6000610cb2600243612aa8565b6040516bffffffffffffffffffffffff193360601b1660208201529040603482018190526054820184905291506000906074016040516020818303038152906040528051906020012090506000610d0b8260001c611b0e565b9050610d178482611b62565b610d3a604051806060016040528060218152602001612bc8602191398583611bed565b610d448486610ec9565b505050505050565b61099783838360405180602001604052806000815250611469565b600d546001600160a01b03163314610da757600d546040516364a14abf60e01b81526001600160a01b039091166004820152336024820152604401610861565b600d80546001600160a01b0319166001600160a01b038416179055805161099790600e9060208401906124ac565b6000610de060085490565b8210610e435760405162461bcd60e51b815260206004820152602c60248201527f455243373231456e756d657261626c653a20676c6f62616c20696e646578206f60448201526b7574206f6620626f756e647360a01b6064820152608401610861565b60088281548110610e6457634e487b7160e01b600052603260045260246000fd5b90600052602060002001549050919050565b600d546001600160a01b03163314610eb657600d546040516364a14abf60e01b81526001600160a01b039091166004820152336024820152604401610861565b8051610b3990600f9060208401906124ac565b610ed4335b8361173f565b610efa5760405163af2a76f160e01b815260048101839052336024820152604401610861565b60008281526010602090815260409091208251610997928401906124ac565b6000818152600260205260408120546001600160a01b03168061073a5760405162461bcd60e51b815260206004820152602960248201527f4552433732313a206f776e657220717565727920666f72206e6f6e657869737460448201526832b73a103a37b5b2b760b91b6064820152608401610861565b6000600c54341015610fc257600c54604051632a6cc23d60e21b81526004810191909152346024820152604401610861565b610fd0600b80546001019055565b6000610fdb600b5490565b90506000601254118015610ff0575080601254105b1561101b5760125460405162fe039360e71b8152600481019190915260248101829052604401610861565b600060115411801561102e575080601154105b1561105a576011546040516351e1f26360e01b8152600481019190915260248101829052604401610861565b61106483826119cf565b6000611071600243612aa8565b6040516bffffffffffffffffffffffff193360601b16602082015290406034820181905260548201849052915060009060740160405160208183030381529060405280519060200120905060006110ca8260001c611b0e565b90506110d68482611b62565b6110f9604051806060016040528060218152602001612bc8602191398583611bed565b5091949350505050565b60006001600160a01b03821661116e5760405162461bcd60e51b815260206004820152602a60248201527f4552433732313a2062616c616e636520717565727920666f7220746865207a65604482015269726f206164647265737360b01b6064820152608401610861565b506001600160a01b031660009081526003602052604090205490565b60008061073a600b5490565b600d546001600160a01b031633146111d657600d546040516364a14abf60e01b81526001600160a01b039091166004820152336024820152604401610861565b600c55565b60606001805461074f90612b02565b600f80546111f790612b02565b80601f016020809104026020016040519081016040528092919081815260200182805461122390612b02565b80156112705780601f1061124557610100808354040283529160200191611270565b820191906000526020600020905b81548152906001019060200180831161125357829003601f168201915b505050505081565b601060205260009081526040902080546111f790612b02565b3361129b83610f19565b6001600160a01b0316146112e45760405162461bcd60e51b815260206004820152601060248201526f37b7363c903a37b5b2b71037bbb732b960811b6044820152606401610861565b60008281526015602052604090205460ff161515600114156113525760405162461bcd60e51b815260206004820152602160248201527f616c726561647920726567697374657221206f6e6c79206f6e65206368616e636044820152606560f81b6064820152608401610861565b60148160405161136291906128f4565b9081526040519081900360200190205460ff1615156001141561139a5780604051630b28566360e31b8152600401610861919061297c565b60008281526015602052604090819020805460ff1916600190811790915590516014906113c89084906128f4565b908152604051908190036020018120805492151560ff199093169290921790915582906013906113f99084906128f4565b908152604051908190036020018120919091553390839061141b9084906128f4565b60405180910390207f94519c9d9b121a53eb7401f1c25f0d9a32e839cb9d13bf4222f1898c7d89b81884604051611452919061297c565b60405180910390a45050565b610b39338383611c34565b61147233610ece565b61148e5760405162461bcd60e51b815260040161086190612a0c565b6107f384848484611d03565b60606114a5826116b4565b61150b5760405162461bcd60e51b815260206004820152603160248201527f45524337323155524953746f726167653a2055524920717565727920666f72206044820152703737b732bc34b9ba32b73a103a37b5b2b760791b6064820152608401610861565b6000828152600a60205260408120805461152490612b02565b80601f016020809104026020016040519081016040528092919081815260200182805461155090612b02565b801561159d5780601f106115725761010080835404028352916020019161159d565b820191906000526020600020905b81548152906001019060200180831161158057829003601f168201915b5050505050905060006115ae611d36565b90508051600014156115c1575092915050565b8151156115f35780826040516020016115db929190612910565b60405160208183030381529060405292505050919050565b6115fc84611d45565b949350505050565b600e80546111f790612b02565b600d546001600160a01b0316331461165157600d546040516364a14abf60e01b81526001600160a01b039091166004820152336024820152604401610861565b8051610b3990600e9060208401906124ac565b60006001600160e01b031982166380ac58cd60e01b148061169557506001600160e01b03198216635b5e139f60e01b145b8061073a57506301ffc9a760e01b6001600160e01b031983161461073a565b6000908152600260205260409020546001600160a01b0316151590565b600081815260046020526040902080546001600160a01b0319166001600160a01b038416908117909155819061170682610f19565b6001600160a01b03167f8c5be1e5ebec7d5bd14f71427d1e84f3dd0314c0f7b2291e5b200ac8c7c3b92560405160405180910390a45050565b600061174a826116b4565b6117ab5760405162461bcd60e51b815260206004820152602c60248201527f4552433732313a206f70657261746f7220717565727920666f72206e6f6e657860448201526b34b9ba32b73a103a37b5b2b760a11b6064820152608401610861565b60006117b683610f19565b9050806001600160a01b0316846001600160a01b031614806117fd57506001600160a01b0380821660009081526005602090815260408083209388168352929052205460ff165b806115fc5750836001600160a01b0316611816846107f9565b6001600160a01b031614949350505050565b826001600160a01b031661183b82610f19565b6001600160a01b03161461189f5760405162461bcd60e51b815260206004820152602560248201527f4552433732313a207472616e736665722066726f6d20696e636f72726563742060448201526437bbb732b960d91b6064820152608401610861565b6001600160a01b0382166119015760405162461bcd60e51b8152602060048201526024808201527f4552433732313a207472616e7366657220746f20746865207a65726f206164646044820152637265737360e01b6064820152608401610861565b61190c838383611e10565b6119176000826116d1565b6001600160a01b0383166000908152600360205260408120805460019290611940908490612aa8565b90915550506001600160a01b038216600090815260036020526040812080546001929061196e908490612a5d565b909155505060008181526002602052604080822080546001600160a01b0319166001600160a01b0386811691821790925591518493918716917fddf252ad1be2c89b69c2b068fc378daa952ba7f163c4a11628f55a4df523b3ef91a4505050565b6001600160a01b038216611a255760405162461bcd60e51b815260206004820181905260248201527f4552433732313a206d696e7420746f20746865207a65726f20616464726573736044820152606401610861565b611a2e816116b4565b15611a7b5760405162461bcd60e51b815260206004820152601c60248201527f4552433732313a20746f6b656e20616c7265616479206d696e746564000000006044820152606401610861565b611a8760008383611e10565b6001600160a01b0382166000908152600360205260408120805460019290611ab0908490612a5d565b909155505060008181526002602052604080822080546001600160a01b0319166001600160a01b03861690811790915590518392907fddf252ad1be2c89b69c2b068fc378daa952ba7f163c4a11628f55a4df523b3ef908290a45050565b606081611b355750506040805180820190915260048152630307830360e41b602082015290565b8160005b8115611b585780611b4981612b3d565b915050600882901c9150611b39565b6115fc8482611ec8565b611b6b826116b4565b611bce5760405162461bcd60e51b815260206004820152602e60248201527f45524337323155524953746f726167653a2055524920736574206f66206e6f6e60448201526d32bc34b9ba32b73a103a37b5b2b760911b6064820152608401610861565b6000828152600a602090815260409091208251610997928401906124ac565b610997838383604051602401611c059392919061298f565b60408051601f198184030181529190526020810180516001600160e01b031663a3f5c73960e01b1790526120aa565b816001600160a01b0316836001600160a01b03161415611c965760405162461bcd60e51b815260206004820152601960248201527f4552433732313a20617070726f766520746f2063616c6c6572000000000000006044820152606401610861565b6001600160a01b03838116600081815260056020908152604080832094871680845294825291829020805460ff191686151590811790915591519182527f17307eab39ab6107e8899845ad3d59bd9653f200f220920489ca2b5937696c31910160405180910390a3505050565b611d0e848484611828565b611d1a848484846120cb565b6107f35760405162461bcd60e51b8152600401610861906129ba565b6060600f805461074f90612b02565b6060611d50826116b4565b611db45760405162461bcd60e51b815260206004820152602f60248201527f4552433732314d657461646174613a2055524920717565727920666f72206e6f60448201526e3732bc34b9ba32b73a103a37b5b2b760891b6064820152608401610861565b6000611dbe611d36565b90506000815111611dde5760405180602001604052806000815250611e09565b80611de8846121d8565b604051602001611df9929190612910565b6040516020818303038152906040525b9392505050565b6001600160a01b038316611e6b57611e6681600880546000838152600960205260408120829055600182018355919091527ff3f7a9fe364faab93b216da50a3214154f22a0a2b415b23a84c8169e8b636ee30155565b611e8e565b816001600160a01b0316836001600160a01b031614611e8e57611e8e83826122f2565b6001600160a01b038216611ea5576109978161238f565b826001600160a01b0316826001600160a01b031614610997576109978282612468565b60606000611ed7836002612a89565b611ee2906002612a5d565b67ffffffffffffffff811115611f0857634e487b7160e01b600052604160045260246000fd5b6040519080825280601f01601f191660200182016040528015611f32576020820181803683370190505b509050600360fc1b81600081518110611f5b57634e487b7160e01b600052603260045260246000fd5b60200101906001600160f81b031916908160001a905350600f60fb1b81600181518110611f9857634e487b7160e01b600052603260045260246000fd5b60200101906001600160f81b031916908160001a9053506000611fbc846002612a89565b611fc7906001612a5d565b90505b600181111561205b576f181899199a1a9b1b9c1cb0b131b232b360811b85600f166010811061200957634e487b7160e01b600052603260045260246000fd5b1a60f81b82828151811061202d57634e487b7160e01b600052603260045260246000fd5b60200101906001600160f81b031916908160001a90535060049490941c9361205481612aeb565b9050611fca565b508315611e095760405162461bcd60e51b815260206004820181905260248201527f537472696e67733a20686578206c656e67746820696e73756666696369656e746044820152606401610861565b80516a636f6e736f6c652e6c6f67602083016000808483855afa5050505050565b60006001600160a01b0384163b156121cd57604051630a85bd0160e11b81526001600160a01b0385169063150b7a029061210f90339089908890889060040161293f565b602060405180830381600087803b15801561212957600080fd5b505af1925050508015612159575060408051601f3d908101601f1916820190925261215691810190612832565b60015b6121b3573d808015612187576040519150601f19603f3d011682016040523d82523d6000602084013e61218c565b606091505b5080516121ab5760405162461bcd60e51b8152600401610861906129ba565b805181602001fd5b6001600160e01b031916630a85bd0160e11b1490506115fc565b506001949350505050565b6060816121fc5750506040805180820190915260018152600360fc1b602082015290565b8160005b8115612226578061221081612b3d565b915061221f9050600a83612a75565b9150612200565b60008167ffffffffffffffff81111561224f57634e487b7160e01b600052604160045260246000fd5b6040519080825280601f01601f191660200182016040528015612279576020820181803683370190505b5090505b84156115fc5761228e600183612aa8565b915061229b600a86612b58565b6122a6906030612a5d565b60f81b8183815181106122c957634e487b7160e01b600052603260045260246000fd5b60200101906001600160f81b031916908160001a9053506122eb600a86612a75565b945061227d565b600060016122ff84611103565b6123099190612aa8565b60008381526007602052604090205490915080821461235c576001600160a01b03841660009081526006602090815260408083208584528252808320548484528184208190558352600790915290208190555b5060009182526007602090815260408084208490556001600160a01b039094168352600681528383209183525290812055565b6008546000906123a190600190612aa8565b600083815260096020526040812054600880549394509092849081106123d757634e487b7160e01b600052603260045260246000fd5b90600052602060002001549050806008838154811061240657634e487b7160e01b600052603260045260246000fd5b600091825260208083209091019290925582815260099091526040808220849055858252812055600880548061244c57634e487b7160e01b600052603160045260246000fd5b6001900381819060005260206000200160009055905550505050565b600061247383611103565b6001600160a01b039093166000908152600660209081526040808320868452825280832085905593825260079052919091209190915550565b8280546124b890612b02565b90600052602060002090601f0160209004810192826124da5760008555612520565b82601f106124f357805160ff1916838001178555612520565b82800160010185558215612520579182015b82811115612520578251825591602001919060010190612505565b5061252c929150612530565b5090565b5b8082111561252c5760008155600101612531565b600067ffffffffffffffff8084111561256057612560612b98565b604051601f8501601f19908116603f0116810190828211818310171561258857612588612b98565b816040528093508581528686860111156125a157600080fd5b858560208301376000602087830101525050509392505050565b80356001600160a01b03811681146125d257600080fd5b919050565b600082601f8301126125e7578081fd5b611e0983833560208501612545565b600060208284031215612607578081fd5b611e09826125bb565b60008060408385031215612622578081fd5b61262b836125bb565b9150612639602084016125bb565b90509250929050565b600080600060608486031215612656578081fd5b61265f846125bb565b925061266d602085016125bb565b9150604084013590509250925092565b60008060008060808587031215612692578081fd5b61269b856125bb565b93506126a9602086016125bb565b925060408501359150606085013567ffffffffffffffff8111156126cb578182fd5b8501601f810187136126db578182fd5b6126ea87823560208401612545565b91505092959194509250565b60008060408385031215612708578182fd5b612711836125bb565b915060208301358015158114612725578182fd5b809150509250929050565b60008060408385031215612742578182fd5b61274b836125bb565b9150602083013567ffffffffffffffff811115612766578182fd5b612772858286016125d7565b9150509250929050565b600080600060608486031215612790578283fd5b612799846125bb565b9250602084013567ffffffffffffffff808211156127b5578384fd5b6127c1878388016125d7565b935060408601359150808211156127d6578283fd5b506127e3868287016125d7565b9150509250925092565b600080604083850312156127ff578182fd5b612808836125bb565b946020939093013593505050565b600060208284031215612827578081fd5b8135611e0981612bae565b600060208284031215612843578081fd5b8151611e0981612bae565b60006020828403121561285f578081fd5b813567ffffffffffffffff811115612875578182fd5b6115fc848285016125d7565b600060208284031215612892578081fd5b5035919050565b600080604083850312156128ab578182fd5b82359150602083013567ffffffffffffffff811115612766578182fd5b600081518084526128e0816020860160208601612abf565b601f01601f19169290920160200192915050565b60008251612906818460208701612abf565b9190910192915050565b60008351612922818460208801612abf565b835190830190612936818360208801612abf565b01949350505050565b6001600160a01b0385811682528416602082015260408101839052608060608201819052600090612972908301846128c8565b9695505050505050565b602081526000611e0960208301846128c8565b6060815260006129a260608301866128c8565b846020840152828103604084015261297281856128c8565b60208082526032908201527f4552433732313a207472616e7366657220746f206e6f6e20455243373231526560408201527131b2b4bb32b91034b6b83632b6b2b73a32b960711b606082015260800190565b60208082526031908201527f4552433732313a207472616e736665722063616c6c6572206973206e6f74206f6040820152701ddb995c881b9bdc88185c1c1c9bdd9959607a1b606082015260800190565b60008219821115612a7057612a70612b6c565b500190565b600082612a8457612a84612b82565b500490565b6000816000190483118215151615612aa357612aa3612b6c565b500290565b600082821015612aba57612aba612b6c565b500390565b60005b83811015612ada578181015183820152602001612ac2565b838111156107f35750506000910152565b600081612afa57612afa612b6c565b506000190190565b600181811c90821680612b1657607f821691505b60208210811415612b3757634e487b7160e01b600052602260045260246000fd5b50919050565b6000600019821415612b5157612b51612b6c565b5060010190565b600082612b6757612b67612b82565b500690565b634e487b7160e01b600052601160045260246000fd5b634e487b7160e01b600052601260045260246000fd5b634e487b7160e01b600052604160045260246000fd5b6001600160e01b031981168114612bc457600080fd5b5056fe6d696e7465642c20746f6b656e49643a2025732c20746f6b656e5572693a202573a2646970667358221220bc3d14d6257f8426453767f33eb76e97d776d4d3bc0c2e3dd05453a06c97b17664736f6c63430008040033",
  "linkReferences": {},
  "deployedLinkReferences": {}
}