{
  "_format": "hh-sol-artifact-1",
  "contractName": "NaiveMessage",
  "sourceName": "contracts/NaiveMessage.sol",
  "abi": [
    {
      "inputs": [],
      "stateMutability": "nonpayable",
      "type": "constructor"
    },
    {
      "inputs": [
        {
          "internalType": "uint256",
          "name": "channelId",
          "type": "uint256"
        }
      ],
      "name": "wrongChannel",
      "type": "error"
    },
    {
      "inputs": [
        {
          "internalType": "address",
          "name": "nft",
          "type": "address"
        },
        {
          "internalType": "address",
          "name": "user",
          "type": "address"
        },
        {
          "internalType": "uint256",
          "name": "tokenId",
          "type": "uint256"
        }
      ],
      "name": "wrongTokenOwner",
      "type": "error"
    },
    {
      "anonymous": false,
      "inputs": [
        {
          "indexed": true,
          "internalType": "uint256",
          "name": "channelId",
          "type": "uint256"
        },
        {
          "indexed": true,
          "internalType": "address",
          "name": "toNotifyUser",
          "type": "address"
        },
        {
          "indexed": true,
          "internalType": "string",
          "name": "msg",
          "type": "string"
        }
      ],
      "name": "NewMessage",
      "type": "event"
    },
    {
      "inputs": [
        {
          "internalType": "uint256",
          "name": "",
          "type": "uint256"
        }
      ],
      "name": "channelById",
      "outputs": [
        {
          "internalType": "address",
          "name": "nft1",
          "type": "address"
        },
        {
          "internalType": "address",
          "name": "nft2",
          "type": "address"
        },
        {
          "internalType": "uint256",
          "name": "token1",
          "type": "uint256"
        },
        {
          "internalType": "uint256",
          "name": "token2",
          "type": "uint256"
        },
        {
          "internalType": "bool",
          "name": "muteToken1",
          "type": "bool"
        },
        {
          "internalType": "bool",
          "name": "muteToken2",
          "type": "bool"
        },
        {
          "internalType": "string",
          "name": "msg1",
          "type": "string"
        },
        {
          "internalType": "string",
          "name": "msg2",
          "type": "string"
        }
      ],
      "stateMutability": "view",
      "type": "function"
    },
    {
      "inputs": [
        {
          "internalType": "address",
          "name": "nft",
          "type": "address"
        },
        {
          "internalType": "address",
          "name": "_owner",
          "type": "address"
        },
        {
          "internalType": "uint256",
          "name": "tokenId",
          "type": "uint256"
        }
      ],
      "name": "chekOwnerOfToken",
      "outputs": [],
      "stateMutability": "view",
      "type": "function"
    },
    {
      "inputs": [
        {
          "internalType": "address",
          "name": "nft1",
          "type": "address"
        },
        {
          "internalType": "address",
          "name": "nft2",
          "type": "address"
        },
        {
          "internalType": "address",
          "name": "user1",
          "type": "address"
        },
        {
          "internalType": "address",
          "name": "user2",
          "type": "address"
        },
        {
          "internalType": "uint256",
          "name": "tokenId1",
          "type": "uint256"
        },
        {
          "internalType": "uint256",
          "name": "tokenId2",
          "type": "uint256"
        }
      ],
      "name": "createChannel",
      "outputs": [
        {
          "internalType": "uint256",
          "name": "channelId",
          "type": "uint256"
        }
      ],
      "stateMutability": "nonpayable",
      "type": "function"
    },
    {
      "inputs": [
        {
          "internalType": "uint256",
          "name": "channelId",
          "type": "uint256"
        },
        {
          "internalType": "uint256",
          "name": "tokenId",
          "type": "uint256"
        }
      ],
      "name": "readMsg",
      "outputs": [
        {
          "internalType": "string",
          "name": "encryptText",
          "type": "string"
        }
      ],
      "stateMutability": "view",
      "type": "function"
    },
    {
      "inputs": [
        {
          "internalType": "uint256",
          "name": "channelId",
          "type": "uint256"
        },
        {
          "internalType": "uint256",
          "name": "tokenId",
          "type": "uint256"
        },
        {
          "internalType": "string",
          "name": "encryptMsg",
          "type": "string"
        }
      ],
      "name": "sendMsg",
      "outputs": [],
      "stateMutability": "nonpayable",
      "type": "function"
    }
  ],
  "bytecode": "0x608060405234801561001057600080fd5b50610d22806100206000396000f3fe608060405234801561001057600080fd5b50600436106100575760003560e01c806379b9fc241461005c5780638b90109c14610071578063a51fee0214610097578063d2e3922d146100aa578063f029c18c146100ca575b600080fd5b61006f61006a366004610acf565b6100f1565b005b61008461007f3660046109e9565b61036f565b6040519081526020015b60405180910390f35b61006f6100a5366004610a56565b6104df565b6100bd6100b8366004610aae565b6105ba565b60405161008e9190610c44565b6100dd6100d8366004610a96565b6107c4565b60405161008e989796959493929190610bd6565b600083815260208190526040902060028101548314801590610117575080600301548314155b1561013d5760405163ae11a8db60e01b8152600481018590526024015b60405180910390fd5b806002015483141561025357805461015f906001600160a01b031633856104df565b8151610174906005830190602085019061092d565b50600181015460038201546040516331a9108f60e11b81526001600160a01b03909216916000918391636352211e916101b39160040190815260200190565b60206040518083038186803b1580156101cb57600080fd5b505afa1580156101df573d6000803e3d6000fd5b505050506040513d601f19601f8201168201806040525081019061020391906109c6565b9050836040516102139190610bba565b604051908190038120906001600160a01b0383169088907f1ab234db2d5e3b8ec86f332884ebf3a7229adcd69095e1a75c67b6f592d9bc0990600090a450505b8060030154831415610369576001810154610278906001600160a01b031633856104df565b815161028d906006830190602085019061092d565b50805460028201546040516331a9108f60e11b81526001600160a01b03909216916000918391636352211e916102c99160040190815260200190565b60206040518083038186803b1580156102e157600080fd5b505afa1580156102f5573d6000803e3d6000fd5b505050506040513d601f19601f8201168201806040525081019061031991906109c6565b9050836040516103299190610bba565b604051908190038120906001600160a01b0383169088907f1ab234db2d5e3b8ec86f332884ebf3a7229adcd69095e1a75c67b6f592d9bc0990600090a450505b50505050565b600061037c8786856104df565b6103878685846104df565b6000604051806101000160405280896001600160a01b03168152602001886001600160a01b03168152602001858152602001848152602001600015158152602001600015158152602001604051806020016040528060008152508152602001604051806020016040528060008152508152509050610409600180546001019055565b600061041460015490565b60008181526020818152604091829020855181546001600160a01b039182166001600160a01b03199182161783558388015160018401805491909316911617905591850151600283015560608501516003830155608085015160048301805460a088015115156101000261ff00199315159390931661ffff199091161791909117905560c0850151805193945085936104b3926005850192019061092d565b5060e082015180516104cf91600684019160209091019061092d565b50919a9950505050505050505050565b6040516331a9108f60e11b81526004810182905283906000906001600160a01b03831690636352211e9060240160206040518083038186803b15801561052457600080fd5b505afa158015610538573d6000803e3d6000fd5b505050506040513d601f19601f8201168201806040525081019061055c91906109c6565b9050806001600160a01b0316846001600160a01b0316146105b35760405162461bcd60e51b81526020600482015260116024820152703bb7b93733903a37b5b2b71037bbb732b960791b6044820152606401610134565b5050505050565b6000828152602081815260408083208151610100808201845282546001600160a01b039081168352600184015416948201949094526002820154928101929092526003810154606083810191909152600482015460ff80821615156080860152949004909316151560a083015260058101805493949360c08401919061063f90610c83565b80601f016020809104026020016040519081016040528092919081815260200182805461066b90610c83565b80156106b85780601f1061068d576101008083540402835291602001916106b8565b820191906000526020600020905b81548152906001019060200180831161069b57829003601f168201915b505050505081526020016006820180546106d190610c83565b80601f01602080910402602001604051908101604052809291908181526020018280546106fd90610c83565b801561074a5780601f1061071f5761010080835404028352916020019161074a565b820191906000526020600020905b81548152906001019060200180831161072d57829003601f168201915b50505050508152505090508060400151831415801561076d575080606001518314155b1561078e5760405163ae11a8db60e01b815260048101859052602401610134565b80604001518314156107a55760e0015190506107be565b80606001518314156107bc5760c0015190506107be565b505b92915050565b6000602081905290815260409020805460018201546002830154600384015460048501546005860180546001600160a01b039687169795909616959394929360ff808416946101009094041692919061081c90610c83565b80601f016020809104026020016040519081016040528092919081815260200182805461084890610c83565b80156108955780601f1061086a57610100808354040283529160200191610895565b820191906000526020600020905b81548152906001019060200180831161087857829003601f168201915b5050505050908060060180546108aa90610c83565b80601f01602080910402602001604051908101604052809291908181526020018280546108d690610c83565b80156109235780601f106108f857610100808354040283529160200191610923565b820191906000526020600020905b81548152906001019060200180831161090657829003601f168201915b5050505050905088565b82805461093990610c83565b90600052602060002090601f01602090048101928261095b57600085556109a1565b82601f1061097457805160ff19168380011785556109a1565b828001600101855582156109a1579182015b828111156109a1578251825591602001919060010190610986565b506109ad9291506109b1565b5090565b5b808211156109ad57600081556001016109b2565b6000602082840312156109d7578081fd5b81516109e281610cd4565b9392505050565b60008060008060008060c08789031215610a01578182fd5b8635610a0c81610cd4565b95506020870135610a1c81610cd4565b94506040870135610a2c81610cd4565b93506060870135610a3c81610cd4565b9598949750929560808101359460a0909101359350915050565b600080600060608486031215610a6a578283fd5b8335610a7581610cd4565b92506020840135610a8581610cd4565b929592945050506040919091013590565b600060208284031215610aa7578081fd5b5035919050565b60008060408385031215610ac0578182fd5b50508035926020909101359150565b600080600060608486031215610ae3578283fd5b8335925060208401359150604084013567ffffffffffffffff80821115610b08578283fd5b818601915086601f830112610b1b578283fd5b813581811115610b2d57610b2d610cbe565b604051601f8201601f19908116603f01168101908382118183101715610b5557610b55610cbe565b81604052828152896020848701011115610b6d578586fd5b82602086016020830137856020848301015280955050505050509250925092565b60008151808452610ba6816020860160208601610c57565b601f01601f19169290920160200192915050565b60008251610bcc818460208701610c57565b9190910192915050565b6001600160a01b038981168252881660208201526040810187905260608101869052841515608082015283151560a082015261010060c08201819052600090610c2183820186610b8e565b905082810360e0840152610c358185610b8e565b9b9a5050505050505050505050565b6020815260006109e26020830184610b8e565b60005b83811015610c72578181015183820152602001610c5a565b838111156103695750506000910152565b600181811c90821680610c9757607f821691505b60208210811415610cb857634e487b7160e01b600052602260045260246000fd5b50919050565b634e487b7160e01b600052604160045260246000fd5b6001600160a01b0381168114610ce957600080fd5b5056fea2646970667358221220b45e6bfd2c870e4017bc95c46a95aa2cce05df3fd98a89e5e7e2bae03a67b57264736f6c63430008040033",
  "linkReferences": {},
  "deployedLinkReferences": {}
}