{
  "_format": "hh-sol-artifact-1",
  "contractName": "NaiveChannel",
  "sourceName": "contracts/NaiveChannel.sol",
  "abi": [
    {
      "inputs": [],
      "stateMutability": "nonpayable",
      "type": "constructor"
    },
    {
      "inputs": [
        {
          "internalType": "uint256",
          "name": "channelId",
          "type": "uint256"
        }
      ],
      "name": "wrongChannel",
      "type": "error"
    },
    {
      "inputs": [
        {
          "internalType": "uint256",
          "name": "channelId",
          "type": "uint256"
        }
      ],
      "name": "wrongSideChannel",
      "type": "error"
    },
    {
      "inputs": [
        {
          "internalType": "address",
          "name": "nft",
          "type": "address"
        },
        {
          "internalType": "address",
          "name": "user",
          "type": "address"
        },
        {
          "internalType": "uint256",
          "name": "tokenId",
          "type": "uint256"
        }
      ],
      "name": "wrongTokenOwner",
      "type": "error"
    },
    {
      "anonymous": false,
      "inputs": [
        {
          "indexed": true,
          "internalType": "uint256",
          "name": "channelId",
          "type": "uint256"
        },
        {
          "indexed": true,
          "internalType": "address",
          "name": "user1",
          "type": "address"
        },
        {
          "indexed": true,
          "internalType": "address",
          "name": "user2",
          "type": "address"
        }
      ],
      "name": "CreateChannel",
      "type": "event"
    },
    {
      "anonymous": false,
      "inputs": [
        {
          "indexed": true,
          "internalType": "uint256",
          "name": "channelId",
          "type": "uint256"
        },
        {
          "indexed": true,
          "internalType": "address",
          "name": "toNotifyUser",
          "type": "address"
        },
        {
          "indexed": false,
          "internalType": "string",
          "name": "msg",
          "type": "string"
        }
      ],
      "name": "NewMessage",
      "type": "event"
    },
    {
      "anonymous": false,
      "inputs": [
        {
          "indexed": true,
          "internalType": "uint256",
          "name": "channelId",
          "type": "uint256"
        },
        {
          "indexed": true,
          "internalType": "address",
          "name": "sentFromUser",
          "type": "address"
        },
        {
          "indexed": false,
          "internalType": "string",
          "name": "msg",
          "type": "string"
        }
      ],
      "name": "SentMessage",
      "type": "event"
    },
    {
      "inputs": [
        {
          "internalType": "uint256",
          "name": "",
          "type": "uint256"
        }
      ],
      "name": "channelById",
      "outputs": [
        {
          "internalType": "address",
          "name": "nft1",
          "type": "address"
        },
        {
          "internalType": "address",
          "name": "nft2",
          "type": "address"
        },
        {
          "internalType": "uint256",
          "name": "token1",
          "type": "uint256"
        },
        {
          "internalType": "uint256",
          "name": "token2",
          "type": "uint256"
        },
        {
          "internalType": "bool",
          "name": "muteToken1",
          "type": "bool"
        },
        {
          "internalType": "bool",
          "name": "muteToken2",
          "type": "bool"
        }
      ],
      "stateMutability": "view",
      "type": "function"
    },
    {
      "inputs": [
        {
          "internalType": "address",
          "name": "nft",
          "type": "address"
        },
        {
          "internalType": "address",
          "name": "_owner",
          "type": "address"
        },
        {
          "internalType": "uint256",
          "name": "tokenId",
          "type": "uint256"
        }
      ],
      "name": "checkOwnerOfToken",
      "outputs": [],
      "stateMutability": "view",
      "type": "function"
    },
    {
      "inputs": [
        {
          "internalType": "address",
          "name": "nft1",
          "type": "address"
        },
        {
          "internalType": "address",
          "name": "nft2",
          "type": "address"
        },
        {
          "internalType": "address",
          "name": "user1",
          "type": "address"
        },
        {
          "internalType": "address",
          "name": "user2",
          "type": "address"
        },
        {
          "internalType": "uint256",
          "name": "tokenId1",
          "type": "uint256"
        },
        {
          "internalType": "uint256",
          "name": "tokenId2",
          "type": "uint256"
        }
      ],
      "name": "createChannel",
      "outputs": [
        {
          "internalType": "uint256",
          "name": "channelId",
          "type": "uint256"
        }
      ],
      "stateMutability": "nonpayable",
      "type": "function"
    },
    {
      "inputs": [
        {
          "internalType": "uint256",
          "name": "channelId",
          "type": "uint256"
        },
        {
          "internalType": "address",
          "name": "nft",
          "type": "address"
        },
        {
          "internalType": "uint256",
          "name": "tokenId",
          "type": "uint256"
        },
        {
          "internalType": "string",
          "name": "encryptToMsg",
          "type": "string"
        },
        {
          "internalType": "string",
          "name": "encryptFromMsg",
          "type": "string"
        }
      ],
      "name": "sendMsg",
      "outputs": [],
      "stateMutability": "nonpayable",
      "type": "function"
    }
  ],
  "bytecode": "0x608060405234801561001057600080fd5b5061086c806100206000396000f3fe608060405234801561001057600080fd5b506004361061004c5760003560e01c806312e43ec1146100515780638b90109c14610066578063dc6a4c101461008c578063f029c18c1461009f575b600080fd5b61006461005f3660046106d6565b610130565b005b610079610074366004610669565b610210565b6040519081526020015b60405180910390f35b61006461009a36600461072e565b61033d565b6100f46100ad366004610716565b600060208190529081526040902080546001820154600283015460038401546004909401546001600160a01b03938416949390921692909160ff8082169161010090041686565b604080516001600160a01b03978816815296909516602087015293850192909252606084015215156080830152151560a082015260c001610083565b6040516331a9108f60e11b81526004810182905283906000906001600160a01b03831690636352211e9060240160206040518083038186803b15801561017557600080fd5b505afa158015610189573d6000803e3d6000fd5b505050506040513d601f19601f820116820180604052508101906101ad9190610646565b9050806001600160a01b0316846001600160a01b0316146102095760405162461bcd60e51b81526020600482015260116024820152703bb7b93733903a37b5b2b71037bbb732b960791b60448201526064015b60405180910390fd5b5050505050565b600061021d878685610130565b610228868584610130565b6040805160c0810182526001600160a01b03808a168252881660208201529081018490526060810183905260006080820181905260a082015261026f600180546001019055565b600061027a60015490565b600081815260208181526040808320865181546001600160a01b039182166001600160a01b03199182161783559388015160018301805491831691909516179093558187015160028201556060870151600382015560808701516004909101805460a089015115156101000261ff00199315159390931661ffff19909116179190911790555192935088811692908a169184917f1492b5192f7bb12723ebf90b991296ee902cd6723b88f38e9a0ec3c2404d89979190a498975050505050505050565b600085815260208190526040902060028101548414801590610363575080600301548414155b156103845760405163ae11a8db60e01b815260048101879052602401610200565b80546001600160a01b038681169116148015906103b1575060018101546001600160a01b03868116911614155b156103d25760405163ae11a8db60e01b815260048101879052602401610200565b80546001600160a01b0386811691161480156103f15750806002015484145b1561052857805461040c906001600160a01b03163386610130565b600181015460038201546040516331a9108f60e11b81526001600160a01b03909216916000918391636352211e9161044a9160040190815260200190565b60206040518083038186803b15801561046257600080fd5b505afa158015610476573d6000803e3d6000fd5b505050506040513d601f19601f8201168201806040525081019061049a9190610646565b9050806001600160a01b0316887f1ab234db2d5e3b8ec86f332884ebf3a7229adcd69095e1a75c67b6f592d9bc09876040516104d691906107b5565b60405180910390a3336001600160a01b0316887ffa846712e3aad5270be6e87a086157948b7135d646861466a84f160c0f483ed48660405161051891906107b5565b60405180910390a3505050610209565b60018101546001600160a01b03868116911614801561054a5750806003015484145b156105a3576001810154610568906001600160a01b03163386610130565b805460028201546040516331a9108f60e11b81526001600160a01b03909216916000918391636352211e9161044a9160040190815260200190565b60405163e88a9d4b60e01b815260048101879052602401610200565b600082601f8301126105cf578081fd5b813567ffffffffffffffff808211156105ea576105ea610808565b604051601f8301601f19908116603f0116810190828211818310171561061257610612610808565b8160405283815286602085880101111561062a578485fd5b8360208701602083013792830160200193909352509392505050565b600060208284031215610657578081fd5b81516106628161081e565b9392505050565b60008060008060008060c08789031215610681578182fd5b863561068c8161081e565b9550602087013561069c8161081e565b945060408701356106ac8161081e565b935060608701356106bc8161081e565b9598949750929560808101359460a0909101359350915050565b6000806000606084860312156106ea578283fd5b83356106f58161081e565b925060208401356107058161081e565b929592945050506040919091013590565b600060208284031215610727578081fd5b5035919050565b600080600080600060a08688031215610745578081fd5b8535945060208601356107578161081e565b935060408601359250606086013567ffffffffffffffff8082111561077a578283fd5b61078689838a016105bf565b9350608088013591508082111561079b578283fd5b506107a8888289016105bf565b9150509295509295909350565b6000602080835283518082850152825b818110156107e1578581018301518582016040015282016107c5565b818111156107f25783604083870101525b50601f01601f1916929092016040019392505050565b634e487b7160e01b600052604160045260246000fd5b6001600160a01b038116811461083357600080fd5b5056fea2646970667358221220edcd7d9a34def5545e079d1699645d1fa7a9b0c8205ba9efd6aa3b966d450ddd64736f6c63430008040033",
  "linkReferences": {},
  "deployedLinkReferences": {}
}