{
  "_format": "hh-sol-artifact-1",
  "contractName": "NaiveRootServer",
  "sourceName": "contracts/NaiveRootServer.sol",
  "abi": [
    {
      "inputs": [],
      "stateMutability": "nonpayable",
      "type": "constructor"
    },
    {
      "inputs": [
        {
          "internalType": "string",
          "name": "mailAddr",
          "type": "string"
        },
        {
          "internalType": "string",
          "name": "serverName",
          "type": "string"
        }
      ],
      "name": "EmailAddressNotRegister",
      "type": "error"
    },
    {
      "inputs": [
        {
          "internalType": "address",
          "name": "mail",
          "type": "address"
        }
      ],
      "name": "EmailServerAlreadyRegister",
      "type": "error"
    },
    {
      "inputs": [
        {
          "internalType": "address",
          "name": "mail",
          "type": "address"
        }
      ],
      "name": "MailMustBeContract",
      "type": "error"
    },
    {
      "inputs": [
        {
          "internalType": "address",
          "name": "mail",
          "type": "address"
        }
      ],
      "name": "MailMustBeNoMaxSupply",
      "type": "error"
    },
    {
      "inputs": [
        {
          "internalType": "string",
          "name": "name",
          "type": "string"
        }
      ],
      "name": "ServerNameAlreadyTaken",
      "type": "error"
    },
    {
      "inputs": [
        {
          "internalType": "string",
          "name": "name",
          "type": "string"
        }
      ],
      "name": "ServerNameNotRegister",
      "type": "error"
    },
    {
      "anonymous": false,
      "inputs": [
        {
          "indexed": false,
          "internalType": "string",
          "name": "name",
          "type": "string"
        },
        {
          "indexed": true,
          "internalType": "address",
          "name": "mailServer",
          "type": "address"
        }
      ],
      "name": "RegisterServerName",
      "type": "event"
    },
    {
      "inputs": [
        {
          "internalType": "string",
          "name": "_emailAddr",
          "type": "string"
        },
        {
          "internalType": "string",
          "name": "_serverName",
          "type": "string"
        }
      ],
      "name": "getUserInfoByMailAddress",
      "outputs": [
        {
          "internalType": "address",
          "name": "nft",
          "type": "address"
        },
        {
          "internalType": "string",
          "name": "pk",
          "type": "string"
        },
        {
          "internalType": "uint256",
          "name": "tokenId",
          "type": "uint256"
        },
        {
          "internalType": "address",
          "name": "owner",
          "type": "address"
        }
      ],
      "stateMutability": "view",
      "type": "function"
    },
    {
      "inputs": [
        {
          "internalType": "address",
          "name": "_address",
          "type": "address"
        }
      ],
      "name": "isContract",
      "outputs": [
        {
          "internalType": "bool",
          "name": "",
          "type": "bool"
        }
      ],
      "stateMutability": "view",
      "type": "function"
    },
    {
      "inputs": [
        {
          "internalType": "address",
          "name": "",
          "type": "address"
        }
      ],
      "name": "isMailServerAlreadyRegister",
      "outputs": [
        {
          "internalType": "bool",
          "name": "",
          "type": "bool"
        }
      ],
      "stateMutability": "view",
      "type": "function"
    },
    {
      "inputs": [
        {
          "internalType": "string",
          "name": "",
          "type": "string"
        }
      ],
      "name": "isServerNameTaken",
      "outputs": [
        {
          "internalType": "bool",
          "name": "",
          "type": "bool"
        }
      ],
      "stateMutability": "view",
      "type": "function"
    },
    {
      "inputs": [
        {
          "internalType": "string",
          "name": "",
          "type": "string"
        }
      ],
      "name": "serverName",
      "outputs": [
        {
          "internalType": "address",
          "name": "",
          "type": "address"
        }
      ],
      "stateMutability": "view",
      "type": "function"
    },
    {
      "inputs": [
        {
          "internalType": "address",
          "name": "mailContract",
          "type": "address"
        },
        {
          "internalType": "string",
          "name": "name",
          "type": "string"
        }
      ],
      "name": "setServerName",
      "outputs": [],
      "stateMutability": "nonpayable",
      "type": "function"
    }
  ],
  "bytecode": "0x608060405234801561001057600080fd5b506109d5806100206000396000f3fe608060405234801561001057600080fd5b50600436106100625760003560e01c80630d0e2bc11461006757806316279055146100b85780633c805381146100e257806363ec15f2146100f7578063a51a634614610125578063fa5e45a114610148575b600080fd5b61009b610075366004610710565b80516020818301810180516000825292820191909301209152546001600160a01b031681565b6040516001600160a01b0390911681526020015b60405180910390f35b6100d26100c6366004610663565b3b63ffffffff16151590565b60405190151581526020016100af565b6100f56100f03660046106a2565b61016b565b005b6100d2610105366004610710565b805160208183018101805160018252928201919093012091525460ff1681565b6101386101333660046107be565b61037c565b6040516100af9493929190610875565b6100d2610156366004610663565b60026020526000908152604090205460ff1681565b813b63ffffffff166101a0576040516350a000c960e01b81526001600160a01b03831660048201526024015b60405180910390fd5b6001600160a01b03821660009081526002602052604090205460ff161515600114156101ea576040516351bfba9160e11b81526001600160a01b0383166004820152602401610197565b6000829050806001600160a01b031663d5abeb016040518163ffffffff1660e01b815260040160206040518083038186803b15801561022857600080fd5b505afa15801561023c573d6000803e3d6000fd5b505050506040513d601f19601f820116820180604052508101906102609190610815565b15610289576040516371f831df60e11b81526001600160a01b0384166004820152602401610197565b6001826040516102999190610859565b9081526040519081900360200190205460ff161515600114156102d157816040516305318f2960e01b815260040161019791906108b0565b600180836040516102e29190610859565b908152604051908190036020018120805492151560ff19909316929092179091558390600090610313908590610859565b90815260405190819003602001812080546001600160a01b039384166001600160a01b0319909116179055908416907fec7a96ca25e394015eab3c6ac114776ec3114d0705a852f87c7a9121261f4a469061036f9085906108b0565b60405180910390a2505050565b600060606000806001856040516103939190610859565b9081526040519081900360200190205460ff1615156001146103ca5784604051633fe2020360e11b815260040161019791906108b0565b600080866040516103db9190610859565b908152604051908190036020018120546325c89f0760e21b82526001600160a01b03169150819081906397227c1c90610418908b906004016108b0565b60206040518083038186803b15801561043057600080fd5b505afa158015610444573d6000803e3d6000fd5b505050506040513d601f19601f8201168201806040525081019061046891906106f0565b151560011461048e578787604051633582c2f360e11b81526004016101979291906108c3565b60405163dc4fdc8160e01b81526001600160a01b0382169063dc4fdc81906104ba908b906004016108b0565b60206040518083038186803b1580156104d257600080fd5b505afa1580156104e6573d6000803e3d6000fd5b505050506040513d601f19601f8201168201806040525081019061050a9190610815565b604051634efc7d4f60e11b8152600481018290529094506001600160a01b03821690639df8fa9e9060240160006040518083038186803b15801561054d57600080fd5b505afa158015610561573d6000803e3d6000fd5b505050506040513d6000823e601f3d908101601f19168201604052610589919081019061074b565b6040516331a9108f60e11b8152600481018690529095506001600160a01b03821690636352211e9060240160206040518083038186803b1580156105cc57600080fd5b505afa1580156105e0573d6000803e3d6000fd5b505050506040513d601f19601f820116820180604052508101906106049190610686565b919894975092955093505050565b600082601f830112610622578081fd5b813561063561063082610919565b6108e8565b818152846020838601011115610649578283fd5b816020850160208301379081016020019190915292915050565b600060208284031215610674578081fd5b813561067f81610987565b9392505050565b600060208284031215610697578081fd5b815161067f81610987565b600080604083850312156106b4578081fd5b82356106bf81610987565b9150602083013567ffffffffffffffff8111156106da578182fd5b6106e685828601610612565b9150509250929050565b600060208284031215610701578081fd5b8151801515811461067f578182fd5b600060208284031215610721578081fd5b813567ffffffffffffffff811115610737578182fd5b61074384828501610612565b949350505050565b60006020828403121561075c578081fd5b815167ffffffffffffffff811115610772578182fd5b8201601f81018413610782578182fd5b805161079061063082610919565b8181528560208385010111156107a4578384fd5b6107b5826020830160208601610941565b95945050505050565b600080604083850312156107d0578182fd5b823567ffffffffffffffff808211156107e7578384fd5b6107f386838701610612565b93506020850135915080821115610808578283fd5b506106e685828601610612565b600060208284031215610826578081fd5b5051919050565b60008151808452610845816020860160208601610941565b601f01601f19169290920160200192915050565b6000825161086b818460208701610941565b9190910192915050565b600060018060a01b03808716835260806020840152610897608084018761082d565b6040840195909552929092166060909101525092915050565b60208152600061067f602083018461082d565b6040815260006108d6604083018561082d565b82810360208401526107b5818561082d565b604051601f8201601f1916810167ffffffffffffffff8111828210171561091157610911610971565b604052919050565b600067ffffffffffffffff82111561093357610933610971565b50601f01601f191660200190565b60005b8381101561095c578181015183820152602001610944565b8381111561096b576000848401525b50505050565b634e487b7160e01b600052604160045260246000fd5b6001600160a01b038116811461099c57600080fd5b5056fea26469706673582212208c13c285affa7693caec7be49bcfd2b0e96fe867e874f27a8c2455e3b7e1e9f064736f6c63430008040033",
  "linkReferences": {},
  "deployedLinkReferences": {}
}