{
  "_format": "hh-sol-artifact-1",
  "contractName": "NaiveFriends721",
  "sourceName": "contracts/NaiveFriends721.sol",
  "abi": [
    {
      "inputs": [
        {
          "internalType": "uint256",
          "name": "_tokenPrice",
          "type": "uint256"
        },
        {
          "internalType": "address",
          "name": "_admin",
          "type": "address"
        }
      ],
      "stateMutability": "nonpayable",
      "type": "constructor"
    },
    {
      "inputs": [
        {
          "internalType": "address",
          "name": "admin",
          "type": "address"
        },
        {
          "internalType": "address",
          "name": "caller",
          "type": "address"
        }
      ],
      "name": "AdminOnly",
      "type": "error"
    },
    {
      "inputs": [
        {
          "internalType": "uint256",
          "name": "price",
          "type": "uint256"
        },
        {
          "internalType": "uint256",
          "name": "offer",
          "type": "uint256"
        }
      ],
      "name": "InsufficientOffer",
      "type": "error"
    },
    {
      "inputs": [
        {
          "internalType": "uint256",
          "name": "balance",
          "type": "uint256"
        },
        {
          "internalType": "uint256",
          "name": "amount",
          "type": "uint256"
        }
      ],
      "name": "InsufficientPoolBalance",
      "type": "error"
    },
    {
      "inputs": [
        {
          "internalType": "uint256",
          "name": "tokenId",
          "type": "uint256"
        },
        {
          "internalType": "address",
          "name": "caller",
          "type": "address"
        }
      ],
      "name": "OwnerOnly",
      "type": "error"
    },
    {
      "anonymous": false,
      "inputs": [
        {
          "indexed": true,
          "internalType": "address",
          "name": "owner",
          "type": "address"
        },
        {
          "indexed": true,
          "internalType": "address",
          "name": "approved",
          "type": "address"
        },
        {
          "indexed": true,
          "internalType": "uint256",
          "name": "tokenId",
          "type": "uint256"
        }
      ],
      "name": "Approval",
      "type": "event"
    },
    {
      "anonymous": false,
      "inputs": [
        {
          "indexed": true,
          "internalType": "address",
          "name": "owner",
          "type": "address"
        },
        {
          "indexed": true,
          "internalType": "address",
          "name": "operator",
          "type": "address"
        },
        {
          "indexed": false,
          "internalType": "bool",
          "name": "approved",
          "type": "bool"
        }
      ],
      "name": "ApprovalForAll",
      "type": "event"
    },
    {
      "anonymous": false,
      "inputs": [
        {
          "indexed": true,
          "internalType": "address",
          "name": "from",
          "type": "address"
        },
        {
          "indexed": true,
          "internalType": "address",
          "name": "to",
          "type": "address"
        },
        {
          "indexed": true,
          "internalType": "uint256",
          "name": "tokenId",
          "type": "uint256"
        }
      ],
      "name": "Transfer",
      "type": "event"
    },
    {
      "inputs": [],
      "name": "admin",
      "outputs": [
        {
          "internalType": "address",
          "name": "",
          "type": "address"
        }
      ],
      "stateMutability": "view",
      "type": "function"
    },
    {
      "inputs": [
        {
          "internalType": "address",
          "name": "to",
          "type": "address"
        },
        {
          "internalType": "uint256",
          "name": "tokenId",
          "type": "uint256"
        }
      ],
      "name": "approve",
      "outputs": [],
      "stateMutability": "nonpayable",
      "type": "function"
    },
    {
      "inputs": [
        {
          "internalType": "address",
          "name": "owner",
          "type": "address"
        }
      ],
      "name": "balanceOf",
      "outputs": [
        {
          "internalType": "uint256",
          "name": "",
          "type": "uint256"
        }
      ],
      "stateMutability": "view",
      "type": "function"
    },
    {
      "inputs": [
        {
          "internalType": "uint256",
          "name": "",
          "type": "uint256"
        }
      ],
      "name": "encryptPublicKeys",
      "outputs": [
        {
          "internalType": "string",
          "name": "",
          "type": "string"
        }
      ],
      "stateMutability": "view",
      "type": "function"
    },
    {
      "inputs": [
        {
          "internalType": "uint256",
          "name": "tokenId",
          "type": "uint256"
        }
      ],
      "name": "getApproved",
      "outputs": [
        {
          "internalType": "address",
          "name": "",
          "type": "address"
        }
      ],
      "stateMutability": "view",
      "type": "function"
    },
    {
      "inputs": [
        {
          "internalType": "address",
          "name": "owner",
          "type": "address"
        },
        {
          "internalType": "address",
          "name": "operator",
          "type": "address"
        }
      ],
      "name": "isApprovedForAll",
      "outputs": [
        {
          "internalType": "bool",
          "name": "",
          "type": "bool"
        }
      ],
      "stateMutability": "view",
      "type": "function"
    },
    {
      "inputs": [
        {
          "internalType": "address",
          "name": "player",
          "type": "address"
        }
      ],
      "name": "mint",
      "outputs": [
        {
          "internalType": "uint256",
          "name": "",
          "type": "uint256"
        }
      ],
      "stateMutability": "payable",
      "type": "function"
    },
    {
      "inputs": [],
      "name": "name",
      "outputs": [
        {
          "internalType": "string",
          "name": "",
          "type": "string"
        }
      ],
      "stateMutability": "view",
      "type": "function"
    },
    {
      "inputs": [
        {
          "internalType": "uint256",
          "name": "tokenId",
          "type": "uint256"
        }
      ],
      "name": "ownerOf",
      "outputs": [
        {
          "internalType": "address",
          "name": "",
          "type": "address"
        }
      ],
      "stateMutability": "view",
      "type": "function"
    },
    {
      "inputs": [
        {
          "internalType": "address",
          "name": "from",
          "type": "address"
        },
        {
          "internalType": "address",
          "name": "to",
          "type": "address"
        },
        {
          "internalType": "uint256",
          "name": "tokenId",
          "type": "uint256"
        }
      ],
      "name": "safeTransferFrom",
      "outputs": [],
      "stateMutability": "nonpayable",
      "type": "function"
    },
    {
      "inputs": [
        {
          "internalType": "address",
          "name": "from",
          "type": "address"
        },
        {
          "internalType": "address",
          "name": "to",
          "type": "address"
        },
        {
          "internalType": "uint256",
          "name": "tokenId",
          "type": "uint256"
        },
        {
          "internalType": "bytes",
          "name": "_data",
          "type": "bytes"
        }
      ],
      "name": "safeTransferFrom",
      "outputs": [],
      "stateMutability": "nonpayable",
      "type": "function"
    },
    {
      "inputs": [
        {
          "internalType": "address",
          "name": "operator",
          "type": "address"
        },
        {
          "internalType": "bool",
          "name": "approved",
          "type": "bool"
        }
      ],
      "name": "setApprovalForAll",
      "outputs": [],
      "stateMutability": "nonpayable",
      "type": "function"
    },
    {
      "inputs": [
        {
          "internalType": "uint256",
          "name": "tokenId",
          "type": "uint256"
        },
        {
          "internalType": "string",
          "name": "key",
          "type": "string"
        }
      ],
      "name": "setEncryptPublicKey",
      "outputs": [],
      "stateMutability": "nonpayable",
      "type": "function"
    },
    {
      "inputs": [
        {
          "internalType": "address",
          "name": "player",
          "type": "address"
        },
        {
          "internalType": "string",
          "name": "key",
          "type": "string"
        }
      ],
      "name": "subscribe",
      "outputs": [],
      "stateMutability": "payable",
      "type": "function"
    },
    {
      "inputs": [
        {
          "internalType": "bytes4",
          "name": "interfaceId",
          "type": "bytes4"
        }
      ],
      "name": "supportsInterface",
      "outputs": [
        {
          "internalType": "bool",
          "name": "",
          "type": "bool"
        }
      ],
      "stateMutability": "view",
      "type": "function"
    },
    {
      "inputs": [],
      "name": "symbol",
      "outputs": [
        {
          "internalType": "string",
          "name": "",
          "type": "string"
        }
      ],
      "stateMutability": "view",
      "type": "function"
    },
    {
      "inputs": [],
      "name": "tokenPrice",
      "outputs": [
        {
          "internalType": "uint256",
          "name": "",
          "type": "uint256"
        }
      ],
      "stateMutability": "view",
      "type": "function"
    },
    {
      "inputs": [
        {
          "internalType": "uint256",
          "name": "tokenId",
          "type": "uint256"
        }
      ],
      "name": "tokenURI",
      "outputs": [
        {
          "internalType": "string",
          "name": "",
          "type": "string"
        }
      ],
      "stateMutability": "view",
      "type": "function"
    },
    {
      "inputs": [
        {
          "internalType": "address",
          "name": "from",
          "type": "address"
        },
        {
          "internalType": "address",
          "name": "to",
          "type": "address"
        },
        {
          "internalType": "uint256",
          "name": "tokenId",
          "type": "uint256"
        }
      ],
      "name": "transferFrom",
      "outputs": [],
      "stateMutability": "nonpayable",
      "type": "function"
    },
    {
      "inputs": [
        {
          "internalType": "uint256",
          "name": "_amount",
          "type": "uint256"
        }
      ],
      "name": "withdraw",
      "outputs": [],
      "stateMutability": "nonpayable",
      "type": "function"
    }
  ],
  "bytecode": "0x60806040523480156200001157600080fd5b50604051620049213803806200492183398181016040528101906200003791906200030b565b6040518060400160405280600f81526020017f4e61697665467269656e647337323100000000000000000000000000000000008152506040518060400160405280600481526020017f52414846000000000000000000000000000000000000000000000000000000008152508160009080519060200190620000bb9291906200022d565b508060019080519060200190620000d49291906200022d565b5050506200010b7fa062c43693767e8a03fdc8c55256b3908f8f2adc00c9887a27891b6585b2d83360001b6200022a60201b60201c565b6200013f7f378d692f1f6e216f4bac935ff911ccbc19983d583c93d302579e81af36302d6e60001b6200022a60201b60201c565b620001737fe17fd0c4f81c8fdbb0cc00bcbf7da6b362a1c0c063c6068e0ca52d3a52c4566e60001b6200022a60201b60201c565b81600881905550620001ad7e661696f79f72a223911ddc5b1bafc48c13e7ab66fbdd3380bb4cf0c1b78e0260001b6200022a60201b60201c565b620001e17f5c1f4f695334f3b35c3962725662a853c8ab9c16854ede4d2997a125977f44f960001b6200022a60201b60201c565b80600960006101000a81548173ffffffffffffffffffffffffffffffffffffffff021916908373ffffffffffffffffffffffffffffffffffffffff160217905550505062000423565b50565b8280546200023b906200038a565b90600052602060002090601f0160209004810192826200025f5760008555620002ab565b82601f106200027a57805160ff1916838001178555620002ab565b82800160010185558215620002ab579182015b82811115620002aa5782518255916020019190600101906200028d565b5b509050620002ba9190620002be565b5090565b5b80821115620002d9576000816000905550600101620002bf565b5090565b600081519050620002ee81620003ef565b92915050565b600081519050620003058162000409565b92915050565b600080604083850312156200031f57600080fd5b60006200032f85828601620002f4565b92505060206200034285828601620002dd565b9150509250929050565b6000620003598262000360565b9050919050565b600073ffffffffffffffffffffffffffffffffffffffff82169050919050565b6000819050919050565b60006002820490506001821680620003a357607f821691505b60208210811415620003ba57620003b9620003c0565b5b50919050565b7f4e487b7100000000000000000000000000000000000000000000000000000000600052602260045260246000fd5b620003fa816200034c565b81146200040657600080fd5b50565b620004148162000380565b81146200042057600080fd5b50565b6144ee80620004336000396000f3fe60806040526004361061011f5760003560e01c80636a627842116100a0578063a22cb46511610064578063a22cb465146103ef578063b88d4fde14610418578063c87b56dd14610441578063e985e9c51461047e578063f851a440146104bb5761011f565b80636a627842146102ef57806370a082311461031f5780637ff9b5961461035c57806395d89b41146103875780639df8fa9e146103b25761011f565b80632e1a7d4d116100e75780632e1a7d4d1461021b5780633c6597431461024457806342842e0e146102605780635de8f985146102895780636352211e146102b25761011f565b806301ffc9a71461012457806306fdde0314610161578063081812fc1461018c578063095ea7b3146101c957806323b872dd146101f2575b600080fd5b34801561013057600080fd5b5061014b600480360381019061014691906132a5565b6104e6565b60405161015891906137cd565b60405180910390f35b34801561016d57600080fd5b506101766105c8565b60405161018391906137e8565b60405180910390f35b34801561019857600080fd5b506101b360048036038101906101ae91906132f7565b61065a565b6040516101c0919061373d565b60405180910390f35b3480156101d557600080fd5b506101f060048036038101906101eb9190613269565b6106df565b005b3480156101fe57600080fd5b506102196004803603810190610214919061310f565b6107f7565b005b34801561022757600080fd5b50610242600480360381019061023d91906132f7565b610857565b005b61025e60048036038101906102599190613215565b610bda565b005b34801561026c57600080fd5b506102876004803603810190610282919061310f565b6110f7565b005b34801561029557600080fd5b506102b060048036038101906102ab9190613320565b611117565b005b3480156102be57600080fd5b506102d960048036038101906102d491906132f7565b6112fe565b6040516102e6919061373d565b60405180910390f35b610309600480360381019061030491906130aa565b6113b0565b6040516103169190613a6f565b60405180910390f35b34801561032b57600080fd5b50610346600480360381019061034191906130aa565b6118c9565b6040516103539190613a6f565b60405180910390f35b34801561036857600080fd5b50610371611981565b60405161037e9190613a6f565b60405180910390f35b34801561039357600080fd5b5061039c611987565b6040516103a991906137e8565b60405180910390f35b3480156103be57600080fd5b506103d960048036038101906103d491906132f7565b611a19565b6040516103e691906137e8565b60405180910390f35b3480156103fb57600080fd5b50610416600480360381019061041191906131d9565b611ab9565b005b34801561042457600080fd5b5061043f600480360381019061043a919061315e565b611acf565b005b34801561044d57600080fd5b50610468600480360381019061046391906132f7565b611b31565b60405161047591906137e8565b60405180910390f35b34801561048a57600080fd5b506104a560048036038101906104a091906130d3565b611c83565b6040516104b291906137cd565b60405180910390f35b3480156104c757600080fd5b506104d0611d17565b6040516104dd919061373d565b60405180910390f35b60007f80ac58cd000000000000000000000000000000000000000000000000000000007bffffffffffffffffffffffffffffffffffffffffffffffffffffffff1916827bffffffffffffffffffffffffffffffffffffffffffffffffffffffff191614806105b157507f5b5e139f000000000000000000000000000000000000000000000000000000007bffffffffffffffffffffffffffffffffffffffffffffffffffffffff1916827bffffffffffffffffffffffffffffffffffffffffffffffffffffffff1916145b806105c157506105c082611d3d565b5b9050919050565b6060600080546105d790613da5565b80601f016020809104026020016040519081016040528092919081815260200182805461060390613da5565b80156106505780601f1061062557610100808354040283529160200191610650565b820191906000526020600020905b81548152906001019060200180831161063357829003601f168201915b5050505050905090565b600061066582611da7565b6106a4576040517f08c379a000000000000000000000000000000000000000000000000000000000815260040161069b906139ef565b60405180910390fd5b6004600083815260200190815260200160002060009054906101000a900473ffffffffffffffffffffffffffffffffffffffff169050919050565b60006106ea826112fe565b90508073ffffffffffffffffffffffffffffffffffffffff168373ffffffffffffffffffffffffffffffffffffffff16141561075b576040517f08c379a000000000000000000000000000000000000000000000000000000000815260040161075290613a2f565b60405180910390fd5b8073ffffffffffffffffffffffffffffffffffffffff1661077a611e13565b73ffffffffffffffffffffffffffffffffffffffff1614806107a957506107a8816107a3611e13565b611c83565b5b6107e8576040517f08c379a00000000000000000000000000000000000000000000000000000000081526004016107df9061392f565b60405180910390fd5b6107f28383611e1b565b505050565b610808610802611e13565b82611ed4565b610847576040517f08c379a000000000000000000000000000000000000000000000000000000000815260040161083e90613a4f565b60405180910390fd5b610852838383611fb2565b505050565b6108837f88dddc41562e066610110260b7bc3686da506d21da0a1965084b9fb502c4086760001b612219565b6108af7ffa93113e296749184b1c08513042c113cc6b6dc6b9e184f52a55effec15ffbc660001b612219565b6108db7f07abcbeaa130eaf7c204be81953e5ef157bb8e39118b6c4aa02d7b99a62a656360001b612219565b600960009054906101000a900473ffffffffffffffffffffffffffffffffffffffff1673ffffffffffffffffffffffffffffffffffffffff163373ffffffffffffffffffffffffffffffffffffffff16146109e95761095c7ff88ac7782d2185dfdaa9e6c605166a7b2d5b0e570df3e53dfc1c7daf9cc84b3b60001b612219565b6109887fc59607c06095c0bab0e139bc3987f0a54a20be01c8b9b24ad68ba3faf1ae89a860001b612219565b600960009054906101000a900473ffffffffffffffffffffffffffffffffffffffff16336040517f64a14abf0000000000000000000000000000000000000000000000000000000081526004016109e0929190613758565b60405180910390fd5b610a157f1508ebe6339115442d4656be625b25d832a358f2a7efed872d435b3c14bb9a2f60001b612219565b610a417fb3993be46c48267b76f84f3d02a24b0944c4ddfe4961872e58f7d8e3666c950b60001b612219565b610a6d7f1e8e4050676f31c09dc24164edd2c507de0011f056f17128d0d67fef037ed6af60001b612219565b47811115610b0c57610aa17fdd1055507cbf6a8d0adfa415fdc12db3b5d56fb76446131ebb6d23e2ba86bc7a60001b612219565b610acd7f419f1dacd137d4580f3c5c08e2b899942b23f12c8044bb8720c64da7634939fc60001b612219565b47816040517fce9514f9000000000000000000000000000000000000000000000000000000008152600401610b03929190613ab3565b60405180910390fd5b610b387fa4cea352cd2d4fd312f5934ff863f6a8d8a3d9f7a8b47bd5fc3655b29db09f5960001b612219565b610b647fb5f72a7a725ddf9f523e7625e1534eeab1048c5d97068e1841dc983a47d4a24a60001b612219565b610b907f8aac05a9b5ae360c207ff792c5e57443f488c12d729d00b4262446f7484a6daa60001b612219565b3373ffffffffffffffffffffffffffffffffffffffff166108fc829081150290604051600060405180830381858888f19350505050158015610bd6573d6000803e3d6000fd5b5050565b610c067f01a1edff5d02d5b2d4e4afa3e0e40b962abcfa9a0de6ea86e528bead9ab5c07b60001b612219565b610c327f7c9dacdef819ae66bc92a573fdbeaade6fa579d6081e6794bec2da04620610da60001b612219565b610c5e7fdd1de0e811b7a3eb7c8e38b24aff83b5fbc196e486fcb9c3adef6beabd1718cd60001b612219565b600854341015610d0157610c947fae0fdba50277d6fbcbbdca8cda110119644a298ac2b706acfd4232088925e7cd60001b612219565b610cc07f222cebbe9f1481e6b6bb2049e8117e719100c954fd14377027a700dcab996bc460001b612219565b600854346040517fa9b308f4000000000000000000000000000000000000000000000000000000008152600401610cf8929190613ab3565b60405180910390fd5b610d2d7f6148c34602463171177b001486a896a7cfe0c55926eed525f996e97efaa4031160001b612219565b610d597f069f92a433f1bda50bf5e2b0b5286bdc8282254fda620ff6b25b69eb0fd77c6360001b612219565b610d857f6d1f71065df9de84fb6b89e4ae25e1b706ab11222ba530dc735071ce1332770d60001b612219565b610d8f600761221c565b610dbb7fa96d83da20e13a2aa9f7738a91506238bfb98d00a11caceaa59f8f4670a8ae0960001b612219565b610de77fc328d7596203022fb6cc6858ab964d2689e0f071f92fc7377f1c5f518080d5ff60001b612219565b6000610df36007612232565b9050610e217f3c3751bb02ea0b24c30e01808982ca90d1bde4804e181a53b1ecfdab7cfb618260001b612219565b610e4d7f1595b4f48d436f7d48fed878ab4c60e9863fee2a8e0e6b5ef98f73140d44606b60001b612219565b610e578382612240565b610e837fd3d2d92db2f573191c32d70c3059da9902f923e6bac577eb73cfdbd1c044167260001b612219565b610eaf7f97357881d9668228f6933ac8af7643782389f3691e22ce848a756fc16c4280e860001b612219565b6000600243610ebe9190613c87565b409050610eed7f23cb61a6c61f657ddda4974488eb19143c1f444336211185acc73a1c750d468e60001b612219565b610f197fc1ff7685073ad6cda7bc8353b917ec04895b873393117ced7064e940e3d1fba160001b612219565b6000338284604051602001610f30939291906136dc565b604051602081830303815290604052805190602001209050610f747f3d4d4be44852f281feaac72458c95ce4860f9df83fb8960b34bb9a9cc9ae2ded60001b612219565b610fa07f86d623e66305d75f861bf7f0342535c20babd05baf490457aa63c55a6c44cc2e60001b612219565b6000610fae8260001c61241a565b9050610fdc7ff680486296c07f13828a45479feb091f9a9ccf28d7b88049b9459ce6fa513c8760001b612219565b6110087f0d17b20a0521c502d061117fd4ac0890ea761f08980e4830907ec4841b86f1a260001b612219565b61101284826124a0565b61103e7f812e66146b30eb63945b235bc398f0ff6a7ba7dda3e67f84f005e929c2aba4e160001b612219565b61106a7fc43446715ea4c78307a671f66d30e8ace053e697602620392c7da6c1eb64094e60001b612219565b61108d604051806060016040528060218152602001614498602191398583612514565b6110b97fdfe1b845f1e102e5fa4a2d09a8f81d925e1b338a8689b3be1b8eb2567d87243360001b612219565b6110e57ff07f6ae73e78c89bdab428cf2d287b125f4f015f63f4e656aa07e9f24c1f187c60001b612219565b6110ef8486611117565b505050505050565b61111283838360405180602001604052806000815250611acf565b505050565b6111437f9b202d833738e6b6638477ba4bac86e7598977526a600d499418804299f7958a60001b612219565b61116f7fb090359d3e5dd0a69b230febc4d6fcc6d70043dd09fc656922053d6f14b3b61460001b612219565b61119b7f0ba2d88dca96e30084f33dc141b265f98a8d7bbdea318428bb9dc64ddb71ab4960001b612219565b6111ac6111a6611e13565b83611ed4565b61124e576111dc7f180b9c6432d87214de26fa74c5c1e242292b57d421f199a2649c6dd5882dd2d960001b612219565b6112087fe5762e90db1d669b8c730d0c9eb3249070ceab1e5617fd94050af8e701fc820d60001b612219565b81611211611e13565b6040517faf2a76f1000000000000000000000000000000000000000000000000000000008152600401611245929190613a8a565b60405180910390fd5b61127a7fcd8625ec897f9dd68996bf2d31c0874bf9e592e3b3998cedcfb881671fc3df3660001b612219565b6112a67f9d9309ba902ae4cd88baaf24c2396511a061f218604b47da179b93d001697c1360001b612219565b6112d27f33aa083b2149f7bac16411525084d5840247bdb78660b5422dfee3081ddc68c360001b612219565b80600a600084815260200190815260200160002090805190602001906112f9929190612ece565b505050565b6000806002600084815260200190815260200160002060009054906101000a900473ffffffffffffffffffffffffffffffffffffffff169050600073ffffffffffffffffffffffffffffffffffffffff168173ffffffffffffffffffffffffffffffffffffffff1614156113a7576040517f08c379a000000000000000000000000000000000000000000000000000000000815260040161139e9061396f565b60405180910390fd5b80915050919050565b60006113de7fb1910f99dcc955451e69745bb7cf27f0b6dbe57a898f820d15dd482c82e9a42060001b612219565b61140a7fdca58ae0cd3715d7c556e72a6753b0636ec8f4e9d6efe403565e75a649c2166460001b612219565b6114367f2c567b9446e6d18c69562a52ca2e90623690fcf96d81f173c9603ccb5886d01160001b612219565b6008543410156114d95761146c7fdb57b98f68847ae36789ef8d691694d315e43b7ee50aca67f875015fcf36355660001b612219565b6114987f68c8bcbb114b3ad31e043660a93c80ff05102f05c879c7193e4e957daa74c06660001b612219565b600854346040517fa9b308f40000000000000000000000000000000000000000000000000000000081526004016114d0929190613ab3565b60405180910390fd5b6115057f497c754fb26eb80059f31097a051c77bee64e1d612b4b62e27e17dfb155cc4c560001b612219565b6115317fb87a6045e586aa34ed2a358a5b9109ef495e2e169f15ceeb04ac96b2622d871960001b612219565b61155d7f9955ea797fa564e755182d0d9e2a28f4b5ba06fa953df847d70da17eeedfc50460001b612219565b611567600761221c565b6115937f50320103680cb6786374d01d219507d71169de12eb19a2525bc99e4e5f367d3460001b612219565b6115bf7fcc3897cee61858e478debcca4333f3fe7d44bbf4fa48e8e27f29ee57f27ae6e960001b612219565b60006115cb6007612232565b90506115f97ff6f045f048d577a5d46adc474eb1b96aad0325061c357be33f8698be392df0ac60001b612219565b6116257ff237e978bcf141a57cd1c288853c99036692fff0eb72c4480535cce12f58ef5160001b612219565b61162f8382612240565b61165b7ff0345d9922460d75cdf863c38fec67f8a24eed6658ed32911988a902826d72f660001b612219565b6116877fac33c9d356fe9c388bf1164deb2b3b36f94a7af6055d7bcae1818b58743f3a0360001b612219565b60006002436116969190613c87565b4090506116c57f79cb12c7966f48b807c97a07f08c1ed4639ec9131e3cda71b1d2c996712d1a1760001b612219565b6116f17ff697d057b24b075102fb5b72fe33efdf5e2b87a251eb1e09ebbf0547262143a960001b612219565b6000338284604051602001611708939291906136dc565b60405160208183030381529060405280519060200120905061174c7f5b54cbaa4df414c1ec1667252d94f05ffe6f9b26c0a30602f57a663cb7f9c64f60001b612219565b6117787fe891d8eb82bc784037398dd7e0f15f59338f8f30f5064dd4d2defc13101eb93960001b612219565b60006117868260001c61241a565b90506117b47f8d0bdcb14354b9a047a46f33b3d9017bc055fb081678d4e8fbb72e40061c4e4b60001b612219565b6117e07f9e95b7ee89301ef07c0a388e00b1918c0891d38d001e25358cde507aeff886cd60001b612219565b6117ea84826124a0565b6118167f3dbfc4ace7e39e8ad4315586cfba373c098661f31f193d3c674ac96afc4b86f660001b612219565b6118427fcc1cd57e3e3a2576b6a1e145ef75c8c8e3ec9e135979771af82d018c37c9047d60001b612219565b611865604051806060016040528060218152602001614498602191398583612514565b6118917f527d8cdf36de5cb47b3a5b0b2acb1275d8788878c06bfdd35c60b6d948daeae560001b612219565b6118bd7f2233da2f8334b708c0e4269bd22e1732bf6d6d1bc46a461d1dfaa5e7badce7a560001b612219565b83945050505050919050565b60008073ffffffffffffffffffffffffffffffffffffffff168273ffffffffffffffffffffffffffffffffffffffff16141561193a576040517f08c379a00000000000000000000000000000000000000000000000000000000081526004016119319061394f565b60405180910390fd5b600360008373ffffffffffffffffffffffffffffffffffffffff1673ffffffffffffffffffffffffffffffffffffffff168152602001908152602001600020549050919050565b60085481565b60606001805461199690613da5565b80601f01602080910402602001604051908101604052809291908181526020018280546119c290613da5565b8015611a0f5780601f106119e457610100808354040283529160200191611a0f565b820191906000526020600020905b8154815290600101906020018083116119f257829003601f168201915b5050505050905090565b600a6020528060005260406000206000915090508054611a3890613da5565b80601f0160208091040260200160405190810160405280929190818152602001828054611a6490613da5565b8015611ab15780601f10611a8657610100808354040283529160200191611ab1565b820191906000526020600020905b815481529060010190602001808311611a9457829003601f168201915b505050505081565b611acb611ac4611e13565b83836125b3565b5050565b611ae0611ada611e13565b83611ed4565b611b1f576040517f08c379a0000000000000000000000000000000000000000000000000000000008152600401611b1690613a4f565b60405180910390fd5b611b2b84848484612720565b50505050565b6060611b3c82611da7565b611b7b576040517f08c379a0000000000000000000000000000000000000000000000000000000008152600401611b72906139cf565b60405180910390fd5b6000600660008481526020019081526020016000208054611b9b90613da5565b80601f0160208091040260200160405190810160405280929190818152602001828054611bc790613da5565b8015611c145780601f10611be957610100808354040283529160200191611c14565b820191906000526020600020905b815481529060010190602001808311611bf757829003601f168201915b505050505090506000611c2561277c565b9050600081511415611c3b578192505050611c7e565b600082511115611c70578082604051602001611c58929190613719565b60405160208183030381529060405292505050611c7e565b611c7984612793565b925050505b919050565b6000600560008473ffffffffffffffffffffffffffffffffffffffff1673ffffffffffffffffffffffffffffffffffffffff16815260200190815260200160002060008373ffffffffffffffffffffffffffffffffffffffff1673ffffffffffffffffffffffffffffffffffffffff16815260200190815260200160002060009054906101000a900460ff16905092915050565b600960009054906101000a900473ffffffffffffffffffffffffffffffffffffffff1681565b60007f01ffc9a7000000000000000000000000000000000000000000000000000000007bffffffffffffffffffffffffffffffffffffffffffffffffffffffff1916827bffffffffffffffffffffffffffffffffffffffffffffffffffffffff1916149050919050565b60008073ffffffffffffffffffffffffffffffffffffffff166002600084815260200190815260200160002060009054906101000a900473ffffffffffffffffffffffffffffffffffffffff1673ffffffffffffffffffffffffffffffffffffffff1614159050919050565b600033905090565b816004600083815260200190815260200160002060006101000a81548173ffffffffffffffffffffffffffffffffffffffff021916908373ffffffffffffffffffffffffffffffffffffffff160217905550808273ffffffffffffffffffffffffffffffffffffffff16611e8e836112fe565b73ffffffffffffffffffffffffffffffffffffffff167f8c5be1e5ebec7d5bd14f71427d1e84f3dd0314c0f7b2291e5b200ac8c7c3b92560405160405180910390a45050565b6000611edf82611da7565b611f1e576040517f08c379a0000000000000000000000000000000000000000000000000000000008152600401611f159061390f565b60405180910390fd5b6000611f29836112fe565b90508073ffffffffffffffffffffffffffffffffffffffff168473ffffffffffffffffffffffffffffffffffffffff161480611f6b5750611f6a8185611c83565b5b80611fa957508373ffffffffffffffffffffffffffffffffffffffff16611f918461065a565b73ffffffffffffffffffffffffffffffffffffffff16145b91505092915050565b8273ffffffffffffffffffffffffffffffffffffffff16611fd2826112fe565b73ffffffffffffffffffffffffffffffffffffffff1614612028576040517f08c379a000000000000000000000000000000000000000000000000000000000815260040161201f9061388f565b60405180910390fd5b600073ffffffffffffffffffffffffffffffffffffffff168273ffffffffffffffffffffffffffffffffffffffff161415612098576040517f08c379a000000000000000000000000000000000000000000000000000000000815260040161208f906138cf565b60405180910390fd5b6120a383838361283a565b6120ae600082611e1b565b6001600360008573ffffffffffffffffffffffffffffffffffffffff1673ffffffffffffffffffffffffffffffffffffffff16815260200190815260200160002060008282546120fe9190613c87565b925050819055506001600360008473ffffffffffffffffffffffffffffffffffffffff1673ffffffffffffffffffffffffffffffffffffffff16815260200190815260200160002060008282546121559190613ba6565b92505081905550816002600083815260200190815260200160002060006101000a81548173ffffffffffffffffffffffffffffffffffffffff021916908373ffffffffffffffffffffffffffffffffffffffff160217905550808273ffffffffffffffffffffffffffffffffffffffff168473ffffffffffffffffffffffffffffffffffffffff167fddf252ad1be2c89b69c2b068fc378daa952ba7f163c4a11628f55a4df523b3ef60405160405180910390a461221483838361283f565b505050565b50565b6001816000016000828254019250508190555050565b600081600001549050919050565b600073ffffffffffffffffffffffffffffffffffffffff168273ffffffffffffffffffffffffffffffffffffffff1614156122b0576040517f08c379a00000000000000000000000000000000000000000000000000000000081526004016122a7906139af565b60405180910390fd5b6122b981611da7565b156122f9576040517f08c379a00000000000000000000000000000000000000000000000000000000081526004016122f0906138af565b60405180910390fd5b6123056000838361283a565b6001600360008473ffffffffffffffffffffffffffffffffffffffff1673ffffffffffffffffffffffffffffffffffffffff16815260200190815260200160002060008282546123559190613ba6565b92505081905550816002600083815260200190815260200160002060006101000a81548173ffffffffffffffffffffffffffffffffffffffff021916908373ffffffffffffffffffffffffffffffffffffffff160217905550808273ffffffffffffffffffffffffffffffffffffffff16600073ffffffffffffffffffffffffffffffffffffffff167fddf252ad1be2c89b69c2b068fc378daa952ba7f163c4a11628f55a4df523b3ef60405160405180910390a46124166000838361283f565b5050565b60606000821415612462576040518060400160405280600481526020017f3078303000000000000000000000000000000000000000000000000000000000815250905061249b565b600082905060005b6000821461248c57808061247d90613e08565b915050600882901c915061246a565b6124968482612844565b925050505b919050565b6124a982611da7565b6124e8576040517f08c379a00000000000000000000000000000000000000000000000000000000081526004016124df9061398f565b60405180910390fd5b8060066000848152602001908152602001600020908051906020019061250f929190612ece565b505050565b6125ae83838360405160240161252c9392919061380a565b6040516020818303038152906040527fa3f5c739000000000000000000000000000000000000000000000000000000007bffffffffffffffffffffffffffffffffffffffffffffffffffffffff19166020820180517bffffffffffffffffffffffffffffffffffffffffffffffffffffffff8381831617835250505050612b3e565b505050565b8173ffffffffffffffffffffffffffffffffffffffff168373ffffffffffffffffffffffffffffffffffffffff161415612622576040517f08c379a0000000000000000000000000000000000000000000000000000000008152600401612619906138ef565b60405180910390fd5b80600560008573ffffffffffffffffffffffffffffffffffffffff1673ffffffffffffffffffffffffffffffffffffffff16815260200190815260200160002060008473ffffffffffffffffffffffffffffffffffffffff1673ffffffffffffffffffffffffffffffffffffffff16815260200190815260200160002060006101000a81548160ff0219169083151502179055508173ffffffffffffffffffffffffffffffffffffffff168373ffffffffffffffffffffffffffffffffffffffff167f17307eab39ab6107e8899845ad3d59bd9653f200f220920489ca2b5937696c318360405161271391906137cd565b60405180910390a3505050565b61272b848484611fb2565b61273784848484612b67565b612776576040517f08c379a000000000000000000000000000000000000000000000000000000000815260040161276d9061386f565b60405180910390fd5b50505050565b606060405180602001604052806000815250905090565b606061279e82611da7565b6127dd576040517f08c379a00000000000000000000000000000000000000000000000000000000081526004016127d490613a0f565b60405180910390fd5b60006127e761277c565b905060008151116128075760405180602001604052806000815250612832565b8061281184612cfe565b604051602001612822929190613719565b6040516020818303038152906040525b915050919050565b505050565b505050565b6060600060028360026128579190613c2d565b6128619190613ba6565b67ffffffffffffffff8111156128a0577f4e487b7100000000000000000000000000000000000000000000000000000000600052604160045260246000fd5b6040519080825280601f01601f1916602001820160405280156128d25781602001600182028036833780820191505090505b5090507f300000000000000000000000000000000000000000000000000000000000000081600081518110612930577f4e487b7100000000000000000000000000000000000000000000000000000000600052603260045260246000fd5b60200101907effffffffffffffffffffffffffffffffffffffffffffffffffffffffffffff1916908160001a9053507f7800000000000000000000000000000000000000000000000000000000000000816001815181106129ba577f4e487b7100000000000000000000000000000000000000000000000000000000600052603260045260246000fd5b60200101907effffffffffffffffffffffffffffffffffffffffffffffffffffffffffffff1916908160001a905350600060018460026129fa9190613c2d565b612a049190613ba6565b90505b6001811115612af0577f3031323334353637383961626364656600000000000000000000000000000000600f861660108110612a6c577f4e487b7100000000000000000000000000000000000000000000000000000000600052603260045260246000fd5b1a60f81b828281518110612aa9577f4e487b7100000000000000000000000000000000000000000000000000000000600052603260045260246000fd5b60200101907effffffffffffffffffffffffffffffffffffffffffffffffffffffffffffff1916908160001a905350600485901c945080612ae990613d7b565b9050612a07565b5060008414612b34576040517f08c379a0000000000000000000000000000000000000000000000000000000008152600401612b2b9061384f565b60405180910390fd5b8091505092915050565b60008151905060006a636f6e736f6c652e6c6f679050602083016000808483855afa5050505050565b6000612b888473ffffffffffffffffffffffffffffffffffffffff16612eab565b15612cf1578373ffffffffffffffffffffffffffffffffffffffff1663150b7a02612bb1611e13565b8786866040518563ffffffff1660e01b8152600401612bd39493929190613781565b602060405180830381600087803b158015612bed57600080fd5b505af1925050508015612c1e57506040513d601f19601f82011682018060405250810190612c1b91906132ce565b60015b612ca1573d8060008114612c4e576040519150601f19603f3d011682016040523d82523d6000602084013e612c53565b606091505b50600081511415612c99576040517f08c379a0000000000000000000000000000000000000000000000000000000008152600401612c909061386f565b60405180910390fd5b805181602001fd5b63150b7a0260e01b7bffffffffffffffffffffffffffffffffffffffffffffffffffffffff1916817bffffffffffffffffffffffffffffffffffffffffffffffffffffffff191614915050612cf6565b600190505b949350505050565b60606000821415612d46576040518060400160405280600181526020017f30000000000000000000000000000000000000000000000000000000000000008152509050612ea6565b600082905060005b60008214612d78578080612d6190613e08565b915050600a82612d719190613bfc565b9150612d4e565b60008167ffffffffffffffff811115612dba577f4e487b7100000000000000000000000000000000000000000000000000000000600052604160045260246000fd5b6040519080825280601f01601f191660200182016040528015612dec5781602001600182028036833780820191505090505b5090505b60008514612e9f57600182612e059190613c87565b9150600a85612e149190613e89565b6030612e209190613ba6565b60f81b818381518110612e5c577f4e487b7100000000000000000000000000000000000000000000000000000000600052603260045260246000fd5b60200101907effffffffffffffffffffffffffffffffffffffffffffffffffffffffffffff1916908160001a905350600a85612e989190613bfc565b9450612df0565b8093505050505b919050565b6000808273ffffffffffffffffffffffffffffffffffffffff163b119050919050565b828054612eda90613da5565b90600052602060002090601f016020900481019282612efc5760008555612f43565b82601f10612f1557805160ff1916838001178555612f43565b82800160010185558215612f43579182015b82811115612f42578251825591602001919060010190612f27565b5b509050612f509190612f54565b5090565b5b80821115612f6d576000816000905550600101612f55565b5090565b6000612f84612f7f84613b01565b613adc565b905082815260208101848484011115612f9c57600080fd5b612fa7848285613d39565b509392505050565b6000612fc2612fbd84613b32565b613adc565b905082815260208101848484011115612fda57600080fd5b612fe5848285613d39565b509392505050565b600081359050612ffc8161443b565b92915050565b60008135905061301181614452565b92915050565b60008135905061302681614469565b92915050565b60008151905061303b81614469565b92915050565b600082601f83011261305257600080fd5b8135613062848260208601612f71565b91505092915050565b600082601f83011261307c57600080fd5b813561308c848260208601612faf565b91505092915050565b6000813590506130a481614480565b92915050565b6000602082840312156130bc57600080fd5b60006130ca84828501612fed565b91505092915050565b600080604083850312156130e657600080fd5b60006130f485828601612fed565b925050602061310585828601612fed565b9150509250929050565b60008060006060848603121561312457600080fd5b600061313286828701612fed565b935050602061314386828701612fed565b925050604061315486828701613095565b9150509250925092565b6000806000806080858703121561317457600080fd5b600061318287828801612fed565b945050602061319387828801612fed565b93505060406131a487828801613095565b925050606085013567ffffffffffffffff8111156131c157600080fd5b6131cd87828801613041565b91505092959194509250565b600080604083850312156131ec57600080fd5b60006131fa85828601612fed565b925050602061320b85828601613002565b9150509250929050565b6000806040838503121561322857600080fd5b600061323685828601612fed565b925050602083013567ffffffffffffffff81111561325357600080fd5b61325f8582860161306b565b9150509250929050565b6000806040838503121561327c57600080fd5b600061328a85828601612fed565b925050602061329b85828601613095565b9150509250929050565b6000602082840312156132b757600080fd5b60006132c584828501613017565b91505092915050565b6000602082840312156132e057600080fd5b60006132ee8482850161302c565b91505092915050565b60006020828403121561330957600080fd5b600061331784828501613095565b91505092915050565b6000806040838503121561333357600080fd5b600061334185828601613095565b925050602083013567ffffffffffffffff81111561335e57600080fd5b61336a8582860161306b565b9150509250929050565b61337d81613cbb565b82525050565b61339461338f82613cbb565b613e51565b82525050565b6133a381613ccd565b82525050565b6133ba6133b582613cd9565b613e63565b82525050565b60006133cb82613b63565b6133d58185613b79565b93506133e5818560208601613d48565b6133ee81613f76565b840191505092915050565b600061340482613b6e565b61340e8185613b8a565b935061341e818560208601613d48565b61342781613f76565b840191505092915050565b600061343d82613b6e565b6134478185613b9b565b9350613457818560208601613d48565b80840191505092915050565b6000613470602083613b8a565b915061347b82613f94565b602082019050919050565b6000613493603283613b8a565b915061349e82613fbd565b604082019050919050565b60006134b6602583613b8a565b91506134c18261400c565b604082019050919050565b60006134d9601c83613b8a565b91506134e48261405b565b602082019050919050565b60006134fc602483613b8a565b915061350782614084565b604082019050919050565b600061351f601983613b8a565b915061352a826140d3565b602082019050919050565b6000613542602c83613b8a565b915061354d826140fc565b604082019050919050565b6000613565603883613b8a565b91506135708261414b565b604082019050919050565b6000613588602a83613b8a565b91506135938261419a565b604082019050919050565b60006135ab602983613b8a565b91506135b6826141e9565b604082019050919050565b60006135ce602e83613b8a565b91506135d982614238565b604082019050919050565b60006135f1602083613b8a565b91506135fc82614287565b602082019050919050565b6000613614603183613b8a565b915061361f826142b0565b604082019050919050565b6000613637602c83613b8a565b9150613642826142ff565b604082019050919050565b600061365a602f83613b8a565b91506136658261434e565b604082019050919050565b600061367d602183613b8a565b91506136888261439d565b604082019050919050565b60006136a0603183613b8a565b91506136ab826143ec565b604082019050919050565b6136bf81613d2f565b82525050565b6136d66136d182613d2f565b613e7f565b82525050565b60006136e88286613383565b6014820191506136f882856133a9565b60208201915061370882846136c5565b602082019150819050949350505050565b60006137258285613432565b91506137318284613432565b91508190509392505050565b60006020820190506137526000830184613374565b92915050565b600060408201905061376d6000830185613374565b61377a6020830184613374565b9392505050565b60006080820190506137966000830187613374565b6137a36020830186613374565b6137b060408301856136b6565b81810360608301526137c281846133c0565b905095945050505050565b60006020820190506137e2600083018461339a565b92915050565b6000602082019050818103600083015261380281846133f9565b905092915050565b6000606082019050818103600083015261382481866133f9565b905061383360208301856136b6565b818103604083015261384581846133f9565b9050949350505050565b6000602082019050818103600083015261386881613463565b9050919050565b6000602082019050818103600083015261388881613486565b9050919050565b600060208201905081810360008301526138a8816134a9565b9050919050565b600060208201905081810360008301526138c8816134cc565b9050919050565b600060208201905081810360008301526138e8816134ef565b9050919050565b6000602082019050818103600083015261390881613512565b9050919050565b6000602082019050818103600083015261392881613535565b9050919050565b6000602082019050818103600083015261394881613558565b9050919050565b600060208201905081810360008301526139688161357b565b9050919050565b600060208201905081810360008301526139888161359e565b9050919050565b600060208201905081810360008301526139a8816135c1565b9050919050565b600060208201905081810360008301526139c8816135e4565b9050919050565b600060208201905081810360008301526139e881613607565b9050919050565b60006020820190508181036000830152613a088161362a565b9050919050565b60006020820190508181036000830152613a288161364d565b9050919050565b60006020820190508181036000830152613a4881613670565b9050919050565b60006020820190508181036000830152613a6881613693565b9050919050565b6000602082019050613a8460008301846136b6565b92915050565b6000604082019050613a9f60008301856136b6565b613aac6020830184613374565b9392505050565b6000604082019050613ac860008301856136b6565b613ad560208301846136b6565b9392505050565b6000613ae6613af7565b9050613af28282613dd7565b919050565b6000604051905090565b600067ffffffffffffffff821115613b1c57613b1b613f47565b5b613b2582613f76565b9050602081019050919050565b600067ffffffffffffffff821115613b4d57613b4c613f47565b5b613b5682613f76565b9050602081019050919050565b600081519050919050565b600081519050919050565b600082825260208201905092915050565b600082825260208201905092915050565b600081905092915050565b6000613bb182613d2f565b9150613bbc83613d2f565b9250827fffffffffffffffffffffffffffffffffffffffffffffffffffffffffffffffff03821115613bf157613bf0613eba565b5b828201905092915050565b6000613c0782613d2f565b9150613c1283613d2f565b925082613c2257613c21613ee9565b5b828204905092915050565b6000613c3882613d2f565b9150613c4383613d2f565b9250817fffffffffffffffffffffffffffffffffffffffffffffffffffffffffffffffff0483118215151615613c7c57613c7b613eba565b5b828202905092915050565b6000613c9282613d2f565b9150613c9d83613d2f565b925082821015613cb057613caf613eba565b5b828203905092915050565b6000613cc682613d0f565b9050919050565b60008115159050919050565b6000819050919050565b60007fffffffff0000000000000000000000000000000000000000000000000000000082169050919050565b600073ffffffffffffffffffffffffffffffffffffffff82169050919050565b6000819050919050565b82818337600083830152505050565b60005b83811015613d66578082015181840152602081019050613d4b565b83811115613d75576000848401525b50505050565b6000613d8682613d2f565b91506000821415613d9a57613d99613eba565b5b600182039050919050565b60006002820490506001821680613dbd57607f821691505b60208210811415613dd157613dd0613f18565b5b50919050565b613de082613f76565b810181811067ffffffffffffffff82111715613dff57613dfe613f47565b5b80604052505050565b6000613e1382613d2f565b91507fffffffffffffffffffffffffffffffffffffffffffffffffffffffffffffffff821415613e4657613e45613eba565b5b600182019050919050565b6000613e5c82613e6d565b9050919050565b6000819050919050565b6000613e7882613f87565b9050919050565b6000819050919050565b6000613e9482613d2f565b9150613e9f83613d2f565b925082613eaf57613eae613ee9565b5b828206905092915050565b7f4e487b7100000000000000000000000000000000000000000000000000000000600052601160045260246000fd5b7f4e487b7100000000000000000000000000000000000000000000000000000000600052601260045260246000fd5b7f4e487b7100000000000000000000000000000000000000000000000000000000600052602260045260246000fd5b7f4e487b7100000000000000000000000000000000000000000000000000000000600052604160045260246000fd5b6000601f19601f8301169050919050565b60008160601b9050919050565b7f537472696e67733a20686578206c656e67746820696e73756666696369656e74600082015250565b7f4552433732313a207472616e7366657220746f206e6f6e20455243373231526560008201527f63656976657220696d706c656d656e7465720000000000000000000000000000602082015250565b7f4552433732313a207472616e736665722066726f6d20696e636f72726563742060008201527f6f776e6572000000000000000000000000000000000000000000000000000000602082015250565b7f4552433732313a20746f6b656e20616c7265616479206d696e74656400000000600082015250565b7f4552433732313a207472616e7366657220746f20746865207a65726f2061646460008201527f7265737300000000000000000000000000000000000000000000000000000000602082015250565b7f4552433732313a20617070726f766520746f2063616c6c657200000000000000600082015250565b7f4552433732313a206f70657261746f7220717565727920666f72206e6f6e657860008201527f697374656e7420746f6b656e0000000000000000000000000000000000000000602082015250565b7f4552433732313a20617070726f76652063616c6c6572206973206e6f74206f7760008201527f6e6572206e6f7220617070726f76656420666f7220616c6c0000000000000000602082015250565b7f4552433732313a2062616c616e636520717565727920666f7220746865207a6560008201527f726f206164647265737300000000000000000000000000000000000000000000602082015250565b7f4552433732313a206f776e657220717565727920666f72206e6f6e657869737460008201527f656e7420746f6b656e0000000000000000000000000000000000000000000000602082015250565b7f45524337323155524953746f726167653a2055524920736574206f66206e6f6e60008201527f6578697374656e7420746f6b656e000000000000000000000000000000000000602082015250565b7f4552433732313a206d696e7420746f20746865207a65726f2061646472657373600082015250565b7f45524337323155524953746f726167653a2055524920717565727920666f722060008201527f6e6f6e6578697374656e7420746f6b656e000000000000000000000000000000602082015250565b7f4552433732313a20617070726f76656420717565727920666f72206e6f6e657860008201527f697374656e7420746f6b656e0000000000000000000000000000000000000000602082015250565b7f4552433732314d657461646174613a2055524920717565727920666f72206e6f60008201527f6e6578697374656e7420746f6b656e0000000000000000000000000000000000602082015250565b7f4552433732313a20617070726f76616c20746f2063757272656e74206f776e6560008201527f7200000000000000000000000000000000000000000000000000000000000000602082015250565b7f4552433732313a207472616e736665722063616c6c6572206973206e6f74206f60008201527f776e6572206e6f7220617070726f766564000000000000000000000000000000602082015250565b61444481613cbb565b811461444f57600080fd5b50565b61445b81613ccd565b811461446657600080fd5b50565b61447281613ce3565b811461447d57600080fd5b50565b61448981613d2f565b811461449457600080fd5b5056fe6d696e7465642c20746f6b656e49643a2025732c20746f6b656e5572693a202573a264697066735822122019f1d81e87d784eb4458353bc647bd3acf318f0a2730725a3023d2363b4246f664736f6c63430008040033",
  "linkReferences": {},
  "deployedLinkReferences": {}
}