{
  "_format": "hh-sol-artifact-1",
  "contractName": "NaiveFriends721",
  "sourceName": "contracts/NaiveFriends721.sol",
  "abi": [
    {
      "inputs": [
        {
          "internalType": "uint256",
          "name": "_tokenPrice",
          "type": "uint256"
        },
        {
          "internalType": "address",
          "name": "_admin",
          "type": "address"
        },
        {
          "internalType": "string",
          "name": "_pk",
          "type": "string"
        },
        {
          "internalType": "uint256",
          "name": "_maxSupply",
          "type": "uint256"
        },
        {
          "internalType": "uint256",
          "name": "_stopMintingCursor",
          "type": "uint256"
        }
      ],
      "stateMutability": "nonpayable",
      "type": "constructor"
    },
    {
      "inputs": [
        {
          "internalType": "address",
          "name": "admin",
          "type": "address"
        },
        {
          "internalType": "address",
          "name": "caller",
          "type": "address"
        }
      ],
      "name": "AdminOnly",
      "type": "error"
    },
    {
      "inputs": [
        {
          "internalType": "uint256",
          "name": "price",
          "type": "uint256"
        },
        {
          "internalType": "uint256",
          "name": "offer",
          "type": "uint256"
        }
      ],
      "name": "InsufficientOffer",
      "type": "error"
    },
    {
      "inputs": [
        {
          "internalType": "uint256",
          "name": "balance",
          "type": "uint256"
        },
        {
          "internalType": "uint256",
          "name": "amount",
          "type": "uint256"
        }
      ],
      "name": "InsufficientPoolBalance",
      "type": "error"
    },
    {
      "inputs": [
        {
          "internalType": "uint256",
          "name": "maxSupply",
          "type": "uint256"
        }
      ],
      "name": "InvalidMaxSupply",
      "type": "error"
    },
    {
      "inputs": [
        {
          "internalType": "uint256",
          "name": "stopMintingCursor",
          "type": "uint256"
        }
      ],
      "name": "InvalidStopMintingCursor",
      "type": "error"
    },
    {
      "inputs": [
        {
          "internalType": "uint256",
          "name": "price",
          "type": "uint256"
        }
      ],
      "name": "InvalidTokenPrice",
      "type": "error"
    },
    {
      "inputs": [
        {
          "internalType": "uint256",
          "name": "maxSupply",
          "type": "uint256"
        },
        {
          "internalType": "uint256",
          "name": "nextTokenId",
          "type": "uint256"
        }
      ],
      "name": "MaxSupplyLimit",
      "type": "error"
    },
    {
      "inputs": [
        {
          "internalType": "uint256",
          "name": "tokenId",
          "type": "uint256"
        },
        {
          "internalType": "address",
          "name": "caller",
          "type": "address"
        }
      ],
      "name": "OwnerOnly",
      "type": "error"
    },
    {
      "inputs": [
        {
          "internalType": "uint256",
          "name": "stopMintingCursor",
          "type": "uint256"
        },
        {
          "internalType": "uint256",
          "name": "nextTokenId",
          "type": "uint256"
        }
      ],
      "name": "StopMinting",
      "type": "error"
    },
    {
      "inputs": [
        {
          "internalType": "uint256",
          "name": "stopMintingCursor",
          "type": "uint256"
        },
        {
          "internalType": "uint256",
          "name": "maxSupply",
          "type": "uint256"
        }
      ],
      "name": "StopMintingCursorOutOfMaxSupply",
      "type": "error"
    },
    {
      "inputs": [
        {
          "internalType": "uint256",
          "name": "stopMintingCursor",
          "type": "uint256"
        },
        {
          "internalType": "uint256",
          "name": "totalSupply",
          "type": "uint256"
        }
      ],
      "name": "StopMintingCursorOutOfTotalSupply",
      "type": "error"
    },
    {
      "anonymous": false,
      "inputs": [
        {
          "indexed": true,
          "internalType": "address",
          "name": "owner",
          "type": "address"
        },
        {
          "indexed": true,
          "internalType": "address",
          "name": "approved",
          "type": "address"
        },
        {
          "indexed": true,
          "internalType": "uint256",
          "name": "tokenId",
          "type": "uint256"
        }
      ],
      "name": "Approval",
      "type": "event"
    },
    {
      "anonymous": false,
      "inputs": [
        {
          "indexed": true,
          "internalType": "address",
          "name": "owner",
          "type": "address"
        },
        {
          "indexed": true,
          "internalType": "address",
          "name": "operator",
          "type": "address"
        },
        {
          "indexed": false,
          "internalType": "bool",
          "name": "approved",
          "type": "bool"
        }
      ],
      "name": "ApprovalForAll",
      "type": "event"
    },
    {
      "anonymous": false,
      "inputs": [
        {
          "indexed": true,
          "internalType": "address",
          "name": "from",
          "type": "address"
        },
        {
          "indexed": true,
          "internalType": "address",
          "name": "to",
          "type": "address"
        },
        {
          "indexed": true,
          "internalType": "uint256",
          "name": "tokenId",
          "type": "uint256"
        }
      ],
      "name": "Transfer",
      "type": "event"
    },
    {
      "inputs": [],
      "name": "admin",
      "outputs": [
        {
          "internalType": "address",
          "name": "",
          "type": "address"
        }
      ],
      "stateMutability": "view",
      "type": "function"
    },
    {
      "inputs": [],
      "name": "adminEncryptPublicKey",
      "outputs": [
        {
          "internalType": "string",
          "name": "",
          "type": "string"
        }
      ],
      "stateMutability": "view",
      "type": "function"
    },
    {
      "inputs": [
        {
          "internalType": "address",
          "name": "to",
          "type": "address"
        },
        {
          "internalType": "uint256",
          "name": "tokenId",
          "type": "uint256"
        }
      ],
      "name": "approve",
      "outputs": [],
      "stateMutability": "nonpayable",
      "type": "function"
    },
    {
      "inputs": [
        {
          "internalType": "address",
          "name": "owner",
          "type": "address"
        }
      ],
      "name": "balanceOf",
      "outputs": [
        {
          "internalType": "uint256",
          "name": "",
          "type": "uint256"
        }
      ],
      "stateMutability": "view",
      "type": "function"
    },
    {
      "inputs": [],
      "name": "baseUri",
      "outputs": [
        {
          "internalType": "string",
          "name": "",
          "type": "string"
        }
      ],
      "stateMutability": "view",
      "type": "function"
    },
    {
      "inputs": [
        {
          "internalType": "uint256",
          "name": "",
          "type": "uint256"
        }
      ],
      "name": "encryptPublicKeys",
      "outputs": [
        {
          "internalType": "string",
          "name": "",
          "type": "string"
        }
      ],
      "stateMutability": "view",
      "type": "function"
    },
    {
      "inputs": [
        {
          "internalType": "uint256",
          "name": "tokenId",
          "type": "uint256"
        }
      ],
      "name": "getApproved",
      "outputs": [
        {
          "internalType": "address",
          "name": "",
          "type": "address"
        }
      ],
      "stateMutability": "view",
      "type": "function"
    },
    {
      "inputs": [
        {
          "internalType": "address",
          "name": "owner",
          "type": "address"
        },
        {
          "internalType": "address",
          "name": "operator",
          "type": "address"
        }
      ],
      "name": "isApprovedForAll",
      "outputs": [
        {
          "internalType": "bool",
          "name": "",
          "type": "bool"
        }
      ],
      "stateMutability": "view",
      "type": "function"
    },
    {
      "inputs": [],
      "name": "maxSupply",
      "outputs": [
        {
          "internalType": "uint256",
          "name": "",
          "type": "uint256"
        }
      ],
      "stateMutability": "view",
      "type": "function"
    },
    {
      "inputs": [
        {
          "internalType": "address",
          "name": "player",
          "type": "address"
        }
      ],
      "name": "mint",
      "outputs": [
        {
          "internalType": "uint256",
          "name": "",
          "type": "uint256"
        }
      ],
      "stateMutability": "payable",
      "type": "function"
    },
    {
      "inputs": [],
      "name": "name",
      "outputs": [
        {
          "internalType": "string",
          "name": "",
          "type": "string"
        }
      ],
      "stateMutability": "view",
      "type": "function"
    },
    {
      "inputs": [
        {
          "internalType": "uint256",
          "name": "tokenId",
          "type": "uint256"
        }
      ],
      "name": "ownerOf",
      "outputs": [
        {
          "internalType": "address",
          "name": "",
          "type": "address"
        }
      ],
      "stateMutability": "view",
      "type": "function"
    },
    {
      "inputs": [
        {
          "internalType": "address",
          "name": "from",
          "type": "address"
        },
        {
          "internalType": "address",
          "name": "to",
          "type": "address"
        },
        {
          "internalType": "uint256",
          "name": "tokenId",
          "type": "uint256"
        }
      ],
      "name": "safeTransferFrom",
      "outputs": [],
      "stateMutability": "nonpayable",
      "type": "function"
    },
    {
      "inputs": [
        {
          "internalType": "address",
          "name": "from",
          "type": "address"
        },
        {
          "internalType": "address",
          "name": "to",
          "type": "address"
        },
        {
          "internalType": "uint256",
          "name": "tokenId",
          "type": "uint256"
        },
        {
          "internalType": "bytes",
          "name": "_data",
          "type": "bytes"
        }
      ],
      "name": "safeTransferFrom",
      "outputs": [],
      "stateMutability": "nonpayable",
      "type": "function"
    },
    {
      "inputs": [
        {
          "internalType": "address",
          "name": "_admin",
          "type": "address"
        },
        {
          "internalType": "string",
          "name": "_pk",
          "type": "string"
        }
      ],
      "name": "setAdmin",
      "outputs": [],
      "stateMutability": "nonpayable",
      "type": "function"
    },
    {
      "inputs": [
        {
          "internalType": "string",
          "name": "_pk",
          "type": "string"
        }
      ],
      "name": "setAdminEncryptPublickKey",
      "outputs": [],
      "stateMutability": "nonpayable",
      "type": "function"
    },
    {
      "inputs": [
        {
          "internalType": "address",
          "name": "operator",
          "type": "address"
        },
        {
          "internalType": "bool",
          "name": "approved",
          "type": "bool"
        }
      ],
      "name": "setApprovalForAll",
      "outputs": [],
      "stateMutability": "nonpayable",
      "type": "function"
    },
    {
      "inputs": [
        {
          "internalType": "string",
          "name": "_baseUri",
          "type": "string"
        }
      ],
      "name": "setBaseURI",
      "outputs": [],
      "stateMutability": "nonpayable",
      "type": "function"
    },
    {
      "inputs": [
        {
          "internalType": "uint256",
          "name": "tokenId",
          "type": "uint256"
        },
        {
          "internalType": "string",
          "name": "key",
          "type": "string"
        }
      ],
      "name": "setEncryptPublicKey",
      "outputs": [],
      "stateMutability": "nonpayable",
      "type": "function"
    },
    {
      "inputs": [
        {
          "internalType": "uint256",
          "name": "price",
          "type": "uint256"
        }
      ],
      "name": "setPrice",
      "outputs": [],
      "stateMutability": "nonpayable",
      "type": "function"
    },
    {
      "inputs": [
        {
          "internalType": "uint256",
          "name": "_stopMintingCursor",
          "type": "uint256"
        }
      ],
      "name": "setStopMintingCursor",
      "outputs": [],
      "stateMutability": "nonpayable",
      "type": "function"
    },
    {
      "inputs": [],
      "name": "stopMintingCursor",
      "outputs": [
        {
          "internalType": "uint256",
          "name": "",
          "type": "uint256"
        }
      ],
      "stateMutability": "view",
      "type": "function"
    },
    {
      "inputs": [
        {
          "internalType": "address",
          "name": "player",
          "type": "address"
        },
        {
          "internalType": "string",
          "name": "key",
          "type": "string"
        }
      ],
      "name": "subscribe",
      "outputs": [],
      "stateMutability": "payable",
      "type": "function"
    },
    {
      "inputs": [
        {
          "internalType": "bytes4",
          "name": "interfaceId",
          "type": "bytes4"
        }
      ],
      "name": "supportsInterface",
      "outputs": [
        {
          "internalType": "bool",
          "name": "",
          "type": "bool"
        }
      ],
      "stateMutability": "view",
      "type": "function"
    },
    {
      "inputs": [],
      "name": "symbol",
      "outputs": [
        {
          "internalType": "string",
          "name": "",
          "type": "string"
        }
      ],
      "stateMutability": "view",
      "type": "function"
    },
    {
      "inputs": [
        {
          "internalType": "uint256",
          "name": "index",
          "type": "uint256"
        }
      ],
      "name": "tokenByIndex",
      "outputs": [
        {
          "internalType": "uint256",
          "name": "",
          "type": "uint256"
        }
      ],
      "stateMutability": "view",
      "type": "function"
    },
    {
      "inputs": [
        {
          "internalType": "address",
          "name": "owner",
          "type": "address"
        },
        {
          "internalType": "uint256",
          "name": "index",
          "type": "uint256"
        }
      ],
      "name": "tokenOfOwnerByIndex",
      "outputs": [
        {
          "internalType": "uint256",
          "name": "",
          "type": "uint256"
        }
      ],
      "stateMutability": "view",
      "type": "function"
    },
    {
      "inputs": [],
      "name": "tokenPrice",
      "outputs": [
        {
          "internalType": "uint256",
          "name": "",
          "type": "uint256"
        }
      ],
      "stateMutability": "view",
      "type": "function"
    },
    {
      "inputs": [
        {
          "internalType": "uint256",
          "name": "tokenId",
          "type": "uint256"
        }
      ],
      "name": "tokenURI",
      "outputs": [
        {
          "internalType": "string",
          "name": "",
          "type": "string"
        }
      ],
      "stateMutability": "view",
      "type": "function"
    },
    {
      "inputs": [],
      "name": "totalSupply",
      "outputs": [
        {
          "internalType": "uint256",
          "name": "",
          "type": "uint256"
        }
      ],
      "stateMutability": "view",
      "type": "function"
    },
    {
      "inputs": [],
      "name": "totalTokens",
      "outputs": [
        {
          "internalType": "uint256",
          "name": "",
          "type": "uint256"
        }
      ],
      "stateMutability": "view",
      "type": "function"
    },
    {
      "inputs": [
        {
          "internalType": "address",
          "name": "from",
          "type": "address"
        },
        {
          "internalType": "address",
          "name": "to",
          "type": "address"
        },
        {
          "internalType": "uint256",
          "name": "tokenId",
          "type": "uint256"
        }
      ],
      "name": "transferFrom",
      "outputs": [],
      "stateMutability": "nonpayable",
      "type": "function"
    },
    {
      "inputs": [
        {
          "internalType": "uint256",
          "name": "_amount",
          "type": "uint256"
        }
      ],
      "name": "withdraw",
      "outputs": [],
      "stateMutability": "nonpayable",
      "type": "function"
    }
  ],
  "bytecode": "0x60806040523480156200001157600080fd5b5060405162002bf238038062002bf28339810160408190526200003491620001e5565b604080518082018252600f81526e4e61697665467269656e647337323160881b6020808301918252835180850190945260038452622720a360e91b90840152815191929162000086916000916200013f565b5080516200009c9060019060208401906200013f565b50620000af915050565b60405180910390fd5b600081118015620000c05750600082115b8015620000cc57508181115b15620000f657604051630836aafb60e31b81526004810182905260248101839052604401620000a6565b600c859055600d80546001600160a01b0319166001600160a01b03861617905582516200012b90600e9060208601906200013f565b50601191909155601255506200034c915050565b8280546200014d90620002f9565b90600052602060002090601f016020900481019282620001715760008555620001bc565b82601f106200018c57805160ff1916838001178555620001bc565b82800160010185558215620001bc579182015b82811115620001bc5782518255916020019190600101906200019f565b50620001ca929150620001ce565b5090565b5b80821115620001ca5760008155600101620001cf565b600080600080600060a08688031215620001fd578081fd5b8551602080880151919650906001600160a01b03811681146200021e578283fd5b60408801519095506001600160401b03808211156200023b578384fd5b818901915089601f8301126200024f578384fd5b81518181111562000264576200026462000336565b604051601f8201601f19908116603f011681019083821181831017156200028f576200028f62000336565b816040528281528c86848701011115620002a7578687fd5b8693505b82841015620002ca5784840186015181850187015292850192620002ab565b82841115620002db57868684830101525b60608c01516080909c01519a9d999c509a9998975050505050505050565b600181811c908216806200030e57607f821691505b602082108114156200033057634e487b7160e01b600052602260045260246000fd5b50919050565b634e487b7160e01b600052604160045260246000fd5b612896806200035c6000396000f3fe6080604052600436106101ee5760003560e01c80636a6278421161010d578063a22cb465116100a0578063e107cf5d1161006f578063e107cf5d14610554578063e985e9c514610569578063f414321a146105b2578063f7da793b146105d2578063f851a440146105e857600080fd5b8063a22cb465146104de578063b88d4fde146104fe578063c87b56dd1461051e578063d5abeb011461053e57600080fd5b806391b7f5ed116100dc57806391b7f5ed1461047457806395d89b41146104945780639abc8320146104a95780639df8fa9e146104be57600080fd5b80636a6278421461041657806370a08231146104295780637e1c0c09146104495780637ff9b5961461045e57600080fd5b80632f745c59116101855780634f6ccce7116101545780634f6ccce71461039657806355f804b3146103b65780635de8f985146103d65780636352211e146103f657600080fd5b80632f745c59146103235780633c6597431461034357806342842e0e14610356578063476f6dd41461037657600080fd5b806318160ddd116101c157806318160ddd146102a457806323b872dd146102c3578063255f0784146102e35780632e1a7d4d1461030357600080fd5b806301ffc9a7146101f357806306fdde0314610228578063081812fc1461024a578063095ea7b314610282575b600080fd5b3480156101ff57600080fd5b5061021361020e3660046124aa565b610608565b60405190151581526020015b60405180910390f35b34801561023457600080fd5b5061023d610633565b60405161021f91906125f4565b34801561025657600080fd5b5061026a610265366004612515565b6106c5565b6040516001600160a01b03909116815260200161021f565b34801561028e57600080fd5b506102a261029d366004612481565b610752565b005b3480156102b057600080fd5b506008545b60405190815260200161021f565b3480156102cf57600080fd5b506102a26102de366004612347565b610868565b3480156102ef57600080fd5b506102a26102fe366004612515565b610899565b34801561030f57600080fd5b506102a261031e366004612515565b61096e565b34801561032f57600080fd5b506102b561033e366004612481565b610a09565b6102a2610351366004612435565b610a9f565b34801561036257600080fd5b506102a2610371366004612347565b610c18565b34801561038257600080fd5b506102a2610391366004612435565b610c33565b3480156103a257600080fd5b506102b56103b1366004612515565b610ca1565b3480156103c257600080fd5b506102a26103d13660046124e2565b610d42565b3480156103e257600080fd5b506102a26103f136600461252d565b610d95565b34801561040257600080fd5b5061026a610411366004612515565b610de5565b6102b56104243660046122fb565b610e5c565b34801561043557600080fd5b506102b56104443660046122fb565b610fcf565b34801561045557600080fd5b506102b5611056565b34801561046a57600080fd5b506102b5600c5481565b34801561048057600080fd5b506102a261048f366004612515565b611062565b3480156104a057600080fd5b5061023d6110a7565b3480156104b557600080fd5b5061023d6110b6565b3480156104ca57600080fd5b5061023d6104d9366004612515565b611144565b3480156104ea57600080fd5b506102a26104f93660046123fb565b61115d565b34801561050a57600080fd5b506102a2610519366004612382565b611168565b34801561052a57600080fd5b5061023d610539366004612515565b61119f565b34801561054a57600080fd5b506102b560115481565b34801561056057600080fd5b5061023d611309565b34801561057557600080fd5b50610213610584366004612315565b6001600160a01b03918216600090815260056020908152604080832093909416825291909152205460ff1690565b3480156105be57600080fd5b506102a26105cd3660046124e2565b611316565b3480156105de57600080fd5b506102b560125481565b3480156105f457600080fd5b50600d5461026a906001600160a01b031681565b60006001600160e01b0319821663780e9d6360e01b148061062d575061062d82611369565b92915050565b6060600080546106429061277a565b80601f016020809104026020016040519081016040528092919081815260200182805461066e9061277a565b80156106bb5780601f10610690576101008083540402835291602001916106bb565b820191906000526020600020905b81548152906001019060200180831161069e57829003601f168201915b5050505050905090565b60006106d0826113b9565b6107365760405162461bcd60e51b815260206004820152602c60248201527f4552433732313a20617070726f76656420717565727920666f72206e6f6e657860448201526b34b9ba32b73a103a37b5b2b760a11b60648201526084015b60405180910390fd5b506000908152600460205260409020546001600160a01b031690565b600061075d82610de5565b9050806001600160a01b0316836001600160a01b031614156107cb5760405162461bcd60e51b815260206004820152602160248201527f4552433732313a20617070726f76616c20746f2063757272656e74206f776e656044820152603960f91b606482015260840161072d565b336001600160a01b03821614806107e757506107e78133610584565b6108595760405162461bcd60e51b815260206004820152603860248201527f4552433732313a20617070726f76652063616c6c6572206973206e6f74206f7760448201527f6e6572206e6f7220617070726f76656420666f7220616c6c0000000000000000606482015260840161072d565b61086383836113d6565b505050565b6108723382611444565b61088e5760405162461bcd60e51b815260040161072d90612684565b61086383838361152d565b600d546001600160a01b031633146108d957600d546040516364a14abf60e01b81526001600160a01b03909116600482015233602482015260440161072d565b6000811180156108eb57506000601154115b80156108f8575060115481115b1561092457601154604051630836aafb60e31b815261072d918391600401918252602082015260400190565b600061092f60085490565b905060008211801561094057508082105b1561096857604051636f68148b60e11b8152600481018390526024810182905260440161072d565b50601255565b600d546001600160a01b031633146109ae57600d546040516364a14abf60e01b81526001600160a01b03909116600482015233602482015260440161072d565b478111156109d85760405163ce9514f960e01b81524760048201526024810182905260440161072d565b604051339082156108fc029083906000818181858888f19350505050158015610a05573d6000803e3d6000fd5b5050565b6000610a1483610fcf565b8210610a765760405162461bcd60e51b815260206004820152602b60248201527f455243373231456e756d657261626c653a206f776e657220696e646578206f7560448201526a74206f6620626f756e647360a81b606482015260840161072d565b506001600160a01b03919091166000908152600660209081526040808320938352929052205490565b600c54341015610acf57600c54604051632a6cc23d60e21b8152600481019190915234602482015260440161072d565b610add600b80546001019055565b6000610ae8600b5490565b90506000601254118015610afd575080601254105b15610b285760125460405162fe039360e71b815260048101919091526024810182905260440161072d565b6000601154118015610b3b575080601154105b15610b67576011546040516351e1f26360e01b815260048101919091526024810182905260440161072d565b610b7183826116d4565b6000610b7e600243612720565b6040516bffffffffffffffffffffffff193360601b1660208201529040603482018190526054820184905291506000906074016040516020818303038152906040528051906020012090506000610bd78260001c611813565b9050610be38482611867565b610c066040518060600160405280602181526020016128406021913985836118f2565b610c108486610d95565b505050505050565b61086383838360405180602001604052806000815250611168565b600d546001600160a01b03163314610c7357600d546040516364a14abf60e01b81526001600160a01b03909116600482015233602482015260440161072d565b600d80546001600160a01b0319166001600160a01b038416179055805161086390600e9060208401906121b1565b6000610cac60085490565b8210610d0f5760405162461bcd60e51b815260206004820152602c60248201527f455243373231456e756d657261626c653a20676c6f62616c20696e646578206f60448201526b7574206f6620626f756e647360a01b606482015260840161072d565b60088281548110610d3057634e487b7160e01b600052603260045260246000fd5b90600052602060002001549050919050565b600d546001600160a01b03163314610d8257600d546040516364a14abf60e01b81526001600160a01b03909116600482015233602482015260440161072d565b8051610a0590600f9060208401906121b1565b610da0335b83611444565b610dc65760405163af2a76f160e01b81526004810183905233602482015260440161072d565b60008281526010602090815260409091208251610863928401906121b1565b6000818152600260205260408120546001600160a01b03168061062d5760405162461bcd60e51b815260206004820152602960248201527f4552433732313a206f776e657220717565727920666f72206e6f6e657869737460448201526832b73a103a37b5b2b760b91b606482015260840161072d565b6000600c54341015610e8e57600c54604051632a6cc23d60e21b8152600481019190915234602482015260440161072d565b610e9c600b80546001019055565b6000610ea7600b5490565b90506000601254118015610ebc575080601254105b15610ee75760125460405162fe039360e71b815260048101919091526024810182905260440161072d565b6000601154118015610efa575080601154105b15610f26576011546040516351e1f26360e01b815260048101919091526024810182905260440161072d565b610f3083826116d4565b6000610f3d600243612720565b6040516bffffffffffffffffffffffff193360601b1660208201529040603482018190526054820184905291506000906074016040516020818303038152906040528051906020012090506000610f968260001c611813565b9050610fa28482611867565b610fc56040518060600160405280602181526020016128406021913985836118f2565b5091949350505050565b60006001600160a01b03821661103a5760405162461bcd60e51b815260206004820152602a60248201527f4552433732313a2062616c616e636520717565727920666f7220746865207a65604482015269726f206164647265737360b01b606482015260840161072d565b506001600160a01b031660009081526003602052604090205490565b60008061062d600b5490565b600d546001600160a01b031633146110a257600d546040516364a14abf60e01b81526001600160a01b03909116600482015233602482015260440161072d565b600c55565b6060600180546106429061277a565b600f80546110c39061277a565b80601f01602080910402602001604051908101604052809291908181526020018280546110ef9061277a565b801561113c5780601f106111115761010080835404028352916020019161113c565b820191906000526020600020905b81548152906001019060200180831161111f57829003601f168201915b505050505081565b601060205260009081526040902080546110c39061277a565b610a05338383611939565b61117133610d9a565b61118d5760405162461bcd60e51b815260040161072d90612684565b61119984848484611a08565b50505050565b60606111aa826113b9565b6112105760405162461bcd60e51b815260206004820152603160248201527f45524337323155524953746f726167653a2055524920717565727920666f72206044820152703737b732bc34b9ba32b73a103a37b5b2b760791b606482015260840161072d565b6000828152600a6020526040812080546112299061277a565b80601f01602080910402602001604051908101604052809291908181526020018280546112559061277a565b80156112a25780601f10611277576101008083540402835291602001916112a2565b820191906000526020600020905b81548152906001019060200180831161128557829003601f168201915b5050505050905060006112b3611a3b565b90508051600014156112c6575092915050565b8151156112f85780826040516020016112e0929190612588565b60405160208183030381529060405292505050919050565b61130184611a4a565b949350505050565b600e80546110c39061277a565b600d546001600160a01b0316331461135657600d546040516364a14abf60e01b81526001600160a01b03909116600482015233602482015260440161072d565b8051610a0590600e9060208401906121b1565b60006001600160e01b031982166380ac58cd60e01b148061139a57506001600160e01b03198216635b5e139f60e01b145b8061062d57506301ffc9a760e01b6001600160e01b031983161461062d565b6000908152600260205260409020546001600160a01b0316151590565b600081815260046020526040902080546001600160a01b0319166001600160a01b038416908117909155819061140b82610de5565b6001600160a01b03167f8c5be1e5ebec7d5bd14f71427d1e84f3dd0314c0f7b2291e5b200ac8c7c3b92560405160405180910390a45050565b600061144f826113b9565b6114b05760405162461bcd60e51b815260206004820152602c60248201527f4552433732313a206f70657261746f7220717565727920666f72206e6f6e657860448201526b34b9ba32b73a103a37b5b2b760a11b606482015260840161072d565b60006114bb83610de5565b9050806001600160a01b0316846001600160a01b0316148061150257506001600160a01b0380821660009081526005602090815260408083209388168352929052205460ff165b806113015750836001600160a01b031661151b846106c5565b6001600160a01b031614949350505050565b826001600160a01b031661154082610de5565b6001600160a01b0316146115a45760405162461bcd60e51b815260206004820152602560248201527f4552433732313a207472616e736665722066726f6d20696e636f72726563742060448201526437bbb732b960d91b606482015260840161072d565b6001600160a01b0382166116065760405162461bcd60e51b8152602060048201526024808201527f4552433732313a207472616e7366657220746f20746865207a65726f206164646044820152637265737360e01b606482015260840161072d565b611611838383611b15565b61161c6000826113d6565b6001600160a01b0383166000908152600360205260408120805460019290611645908490612720565b90915550506001600160a01b03821660009081526003602052604081208054600192906116739084906126d5565b909155505060008181526002602052604080822080546001600160a01b0319166001600160a01b0386811691821790925591518493918716917fddf252ad1be2c89b69c2b068fc378daa952ba7f163c4a11628f55a4df523b3ef91a4505050565b6001600160a01b03821661172a5760405162461bcd60e51b815260206004820181905260248201527f4552433732313a206d696e7420746f20746865207a65726f2061646472657373604482015260640161072d565b611733816113b9565b156117805760405162461bcd60e51b815260206004820152601c60248201527f4552433732313a20746f6b656e20616c7265616479206d696e74656400000000604482015260640161072d565b61178c60008383611b15565b6001600160a01b03821660009081526003602052604081208054600192906117b59084906126d5565b909155505060008181526002602052604080822080546001600160a01b0319166001600160a01b03861690811790915590518392907fddf252ad1be2c89b69c2b068fc378daa952ba7f163c4a11628f55a4df523b3ef908290a45050565b60608161183a5750506040805180820190915260048152630307830360e41b602082015290565b8160005b811561185d578061184e816127b5565b915050600882901c915061183e565b6113018482611bcd565b611870826113b9565b6118d35760405162461bcd60e51b815260206004820152602e60248201527f45524337323155524953746f726167653a2055524920736574206f66206e6f6e60448201526d32bc34b9ba32b73a103a37b5b2b760911b606482015260840161072d565b6000828152600a602090815260409091208251610863928401906121b1565b61086383838360405160240161190a93929190612607565b60408051601f198184030181529190526020810180516001600160e01b031663a3f5c73960e01b179052611daf565b816001600160a01b0316836001600160a01b0316141561199b5760405162461bcd60e51b815260206004820152601960248201527f4552433732313a20617070726f766520746f2063616c6c657200000000000000604482015260640161072d565b6001600160a01b03838116600081815260056020908152604080832094871680845294825291829020805460ff191686151590811790915591519182527f17307eab39ab6107e8899845ad3d59bd9653f200f220920489ca2b5937696c31910160405180910390a3505050565b611a1384848461152d565b611a1f84848484611dd0565b6111995760405162461bcd60e51b815260040161072d90612632565b6060600f80546106429061277a565b6060611a55826113b9565b611ab95760405162461bcd60e51b815260206004820152602f60248201527f4552433732314d657461646174613a2055524920717565727920666f72206e6f60448201526e3732bc34b9ba32b73a103a37b5b2b760891b606482015260840161072d565b6000611ac3611a3b565b90506000815111611ae35760405180602001604052806000815250611b0e565b80611aed84611edd565b604051602001611afe929190612588565b6040516020818303038152906040525b9392505050565b6001600160a01b038316611b7057611b6b81600880546000838152600960205260408120829055600182018355919091527ff3f7a9fe364faab93b216da50a3214154f22a0a2b415b23a84c8169e8b636ee30155565b611b93565b816001600160a01b0316836001600160a01b031614611b9357611b938382611ff7565b6001600160a01b038216611baa5761086381612094565b826001600160a01b0316826001600160a01b03161461086357610863828261216d565b60606000611bdc836002612701565b611be79060026126d5565b67ffffffffffffffff811115611c0d57634e487b7160e01b600052604160045260246000fd5b6040519080825280601f01601f191660200182016040528015611c37576020820181803683370190505b509050600360fc1b81600081518110611c6057634e487b7160e01b600052603260045260246000fd5b60200101906001600160f81b031916908160001a905350600f60fb1b81600181518110611c9d57634e487b7160e01b600052603260045260246000fd5b60200101906001600160f81b031916908160001a9053506000611cc1846002612701565b611ccc9060016126d5565b90505b6001811115611d60576f181899199a1a9b1b9c1cb0b131b232b360811b85600f1660108110611d0e57634e487b7160e01b600052603260045260246000fd5b1a60f81b828281518110611d3257634e487b7160e01b600052603260045260246000fd5b60200101906001600160f81b031916908160001a90535060049490941c93611d5981612763565b9050611ccf565b508315611b0e5760405162461bcd60e51b815260206004820181905260248201527f537472696e67733a20686578206c656e67746820696e73756666696369656e74604482015260640161072d565b80516a636f6e736f6c652e6c6f67602083016000808483855afa5050505050565b60006001600160a01b0384163b15611ed257604051630a85bd0160e11b81526001600160a01b0385169063150b7a0290611e149033908990889088906004016125b7565b602060405180830381600087803b158015611e2e57600080fd5b505af1925050508015611e5e575060408051601f3d908101601f19168201909252611e5b918101906124c6565b60015b611eb8573d808015611e8c576040519150601f19603f3d011682016040523d82523d6000602084013e611e91565b606091505b508051611eb05760405162461bcd60e51b815260040161072d90612632565b805181602001fd5b6001600160e01b031916630a85bd0160e11b149050611301565b506001949350505050565b606081611f015750506040805180820190915260018152600360fc1b602082015290565b8160005b8115611f2b5780611f15816127b5565b9150611f249050600a836126ed565b9150611f05565b60008167ffffffffffffffff811115611f5457634e487b7160e01b600052604160045260246000fd5b6040519080825280601f01601f191660200182016040528015611f7e576020820181803683370190505b5090505b841561130157611f93600183612720565b9150611fa0600a866127d0565b611fab9060306126d5565b60f81b818381518110611fce57634e487b7160e01b600052603260045260246000fd5b60200101906001600160f81b031916908160001a905350611ff0600a866126ed565b9450611f82565b6000600161200484610fcf565b61200e9190612720565b600083815260076020526040902054909150808214612061576001600160a01b03841660009081526006602090815260408083208584528252808320548484528184208190558352600790915290208190555b5060009182526007602090815260408084208490556001600160a01b039094168352600681528383209183525290812055565b6008546000906120a690600190612720565b600083815260096020526040812054600880549394509092849081106120dc57634e487b7160e01b600052603260045260246000fd5b90600052602060002001549050806008838154811061210b57634e487b7160e01b600052603260045260246000fd5b600091825260208083209091019290925582815260099091526040808220849055858252812055600880548061215157634e487b7160e01b600052603160045260246000fd5b6001900381819060005260206000200160009055905550505050565b600061217883610fcf565b6001600160a01b039093166000908152600660209081526040808320868452825280832085905593825260079052919091209190915550565b8280546121bd9061277a565b90600052602060002090601f0160209004810192826121df5760008555612225565b82601f106121f857805160ff1916838001178555612225565b82800160010185558215612225579182015b8281111561222557825182559160200191906001019061220a565b50612231929150612235565b5090565b5b808211156122315760008155600101612236565b600067ffffffffffffffff8084111561226557612265612810565b604051601f8501601f19908116603f0116810190828211818310171561228d5761228d612810565b816040528093508581528686860111156122a657600080fd5b858560208301376000602087830101525050509392505050565b80356001600160a01b03811681146122d757600080fd5b919050565b600082601f8301126122ec578081fd5b611b0e8383356020850161224a565b60006020828403121561230c578081fd5b611b0e826122c0565b60008060408385031215612327578081fd5b612330836122c0565b915061233e602084016122c0565b90509250929050565b60008060006060848603121561235b578081fd5b612364846122c0565b9250612372602085016122c0565b9150604084013590509250925092565b60008060008060808587031215612397578081fd5b6123a0856122c0565b93506123ae602086016122c0565b925060408501359150606085013567ffffffffffffffff8111156123d0578182fd5b8501601f810187136123e0578182fd5b6123ef8782356020840161224a565b91505092959194509250565b6000806040838503121561240d578182fd5b612416836122c0565b91506020830135801515811461242a578182fd5b809150509250929050565b60008060408385031215612447578182fd5b612450836122c0565b9150602083013567ffffffffffffffff81111561246b578182fd5b612477858286016122dc565b9150509250929050565b60008060408385031215612493578182fd5b61249c836122c0565b946020939093013593505050565b6000602082840312156124bb578081fd5b8135611b0e81612826565b6000602082840312156124d7578081fd5b8151611b0e81612826565b6000602082840312156124f3578081fd5b813567ffffffffffffffff811115612509578182fd5b611301848285016122dc565b600060208284031215612526578081fd5b5035919050565b6000806040838503121561253f578182fd5b82359150602083013567ffffffffffffffff81111561246b578182fd5b60008151808452612574816020860160208601612737565b601f01601f19169290920160200192915050565b6000835161259a818460208801612737565b8351908301906125ae818360208801612737565b01949350505050565b6001600160a01b03858116825284166020820152604081018390526080606082018190526000906125ea9083018461255c565b9695505050505050565b602081526000611b0e602083018461255c565b60608152600061261a606083018661255c565b84602084015282810360408401526125ea818561255c565b60208082526032908201527f4552433732313a207472616e7366657220746f206e6f6e20455243373231526560408201527131b2b4bb32b91034b6b83632b6b2b73a32b960711b606082015260800190565b60208082526031908201527f4552433732313a207472616e736665722063616c6c6572206973206e6f74206f6040820152701ddb995c881b9bdc88185c1c1c9bdd9959607a1b606082015260800190565b600082198211156126e8576126e86127e4565b500190565b6000826126fc576126fc6127fa565b500490565b600081600019048311821515161561271b5761271b6127e4565b500290565b600082821015612732576127326127e4565b500390565b60005b8381101561275257818101518382015260200161273a565b838111156111995750506000910152565b600081612772576127726127e4565b506000190190565b600181811c9082168061278e57607f821691505b602082108114156127af57634e487b7160e01b600052602260045260246000fd5b50919050565b60006000198214156127c9576127c96127e4565b5060010190565b6000826127df576127df6127fa565b500690565b634e487b7160e01b600052601160045260246000fd5b634e487b7160e01b600052601260045260246000fd5b634e487b7160e01b600052604160045260246000fd5b6001600160e01b03198116811461283c57600080fd5b5056fe6d696e7465642c20746f6b656e49643a2025732c20746f6b656e5572693a202573a264697066735822122061a07777fbff88c7c3fc34a033199a4fee91d955717c0d3fbf8618f378d7aa7564736f6c63430008040033",
  "linkReferences": {},
  "deployedLinkReferences": {}
}