{
  "_format": "hh-sol-artifact-1",
  "abi": [
    {
      "inputs": [
        {
          "internalType": "uint256",
          "name": "_tokenPrice",
          "type": "uint256"
        },
        {
          "internalType": "address",
          "name": "_admin",
          "type": "address"
        }
      ],
      "stateMutability": "nonpayable",
      "type": "constructor"
    },
    {
      "inputs": [
        {
          "internalType": "address",
          "name": "admin",
          "type": "address"
        },
        {
          "internalType": "address",
          "name": "caller",
          "type": "address"
        }
      ],
      "name": "AdminOnly",
      "type": "error"
    },
    {
      "inputs": [
        {
          "internalType": "uint256",
          "name": "price",
          "type": "uint256"
        },
        {
          "internalType": "uint256",
          "name": "offer",
          "type": "uint256"
        }
      ],
      "name": "InsufficientOffer",
      "type": "error"
    },
    {
      "inputs": [
        {
          "internalType": "uint256",
          "name": "balance",
          "type": "uint256"
        },
        {
          "internalType": "uint256",
          "name": "amount",
          "type": "uint256"
        }
      ],
      "name": "InsufficientPoolBalance",
      "type": "error"
    },
    {
      "inputs": [
        {
          "internalType": "uint256",
          "name": "tokenId",
          "type": "uint256"
        },
        {
          "internalType": "address",
          "name": "caller",
          "type": "address"
        }
      ],
      "name": "OwnerOnly",
      "type": "error"
    },
    {
      "anonymous": false,
      "inputs": [
        {
          "indexed": true,
          "internalType": "address",
          "name": "owner",
          "type": "address"
        },
        {
          "indexed": true,
          "internalType": "address",
          "name": "approved",
          "type": "address"
        },
        {
          "indexed": true,
          "internalType": "uint256",
          "name": "tokenId",
          "type": "uint256"
        }
      ],
      "name": "Approval",
      "type": "event"
    },
    {
      "anonymous": false,
      "inputs": [
        {
          "indexed": true,
          "internalType": "address",
          "name": "owner",
          "type": "address"
        },
        {
          "indexed": true,
          "internalType": "address",
          "name": "operator",
          "type": "address"
        },
        {
          "indexed": false,
          "internalType": "bool",
          "name": "approved",
          "type": "bool"
        }
      ],
      "name": "ApprovalForAll",
      "type": "event"
    },
    {
      "anonymous": false,
      "inputs": [
        {
          "indexed": true,
          "internalType": "address",
          "name": "from",
          "type": "address"
        },
        {
          "indexed": true,
          "internalType": "address",
          "name": "to",
          "type": "address"
        },
        {
          "indexed": true,
          "internalType": "uint256",
          "name": "tokenId",
          "type": "uint256"
        }
      ],
      "name": "Transfer",
      "type": "event"
    },
    {
      "inputs": [],
      "name": "admin",
      "outputs": [
        {
          "internalType": "address",
          "name": "",
          "type": "address"
        }
      ],
      "stateMutability": "view",
      "type": "function"
    },
    {
      "inputs": [
        {
          "internalType": "address",
          "name": "to",
          "type": "address"
        },
        {
          "internalType": "uint256",
          "name": "tokenId",
          "type": "uint256"
        }
      ],
      "name": "approve",
      "outputs": [],
      "stateMutability": "nonpayable",
      "type": "function"
    },
    {
      "inputs": [
        {
          "internalType": "address",
          "name": "owner",
          "type": "address"
        }
      ],
      "name": "balanceOf",
      "outputs": [
        {
          "internalType": "uint256",
          "name": "",
          "type": "uint256"
        }
      ],
      "stateMutability": "view",
      "type": "function"
    },
    {
      "inputs": [
        {
          "internalType": "uint256",
          "name": "",
          "type": "uint256"
        }
      ],
      "name": "encryptPublicKeys",
      "outputs": [
        {
          "internalType": "string",
          "name": "",
          "type": "string"
        }
      ],
      "stateMutability": "view",
      "type": "function"
    },
    {
      "inputs": [
        {
          "internalType": "uint256",
          "name": "tokenId",
          "type": "uint256"
        }
      ],
      "name": "getApproved",
      "outputs": [
        {
          "internalType": "address",
          "name": "",
          "type": "address"
        }
      ],
      "stateMutability": "view",
      "type": "function"
    },
    {
      "inputs": [
        {
          "internalType": "address",
          "name": "owner",
          "type": "address"
        },
        {
          "internalType": "address",
          "name": "operator",
          "type": "address"
        }
      ],
      "name": "isApprovedForAll",
      "outputs": [
        {
          "internalType": "bool",
          "name": "",
          "type": "bool"
        }
      ],
      "stateMutability": "view",
      "type": "function"
    },
    {
      "inputs": [
        {
          "internalType": "address",
          "name": "player",
          "type": "address"
        }
      ],
      "name": "mint",
      "outputs": [
        {
          "internalType": "uint256",
          "name": "",
          "type": "uint256"
        }
      ],
      "stateMutability": "payable",
      "type": "function"
    },
    {
      "inputs": [],
      "name": "name",
      "outputs": [
        {
          "internalType": "string",
          "name": "",
          "type": "string"
        }
      ],
      "stateMutability": "view",
      "type": "function"
    },
    {
      "inputs": [
        {
          "internalType": "uint256",
          "name": "tokenId",
          "type": "uint256"
        }
      ],
      "name": "ownerOf",
      "outputs": [
        {
          "internalType": "address",
          "name": "",
          "type": "address"
        }
      ],
      "stateMutability": "view",
      "type": "function"
    },
    {
      "inputs": [
        {
          "internalType": "address",
          "name": "from",
          "type": "address"
        },
        {
          "internalType": "address",
          "name": "to",
          "type": "address"
        },
        {
          "internalType": "uint256",
          "name": "tokenId",
          "type": "uint256"
        }
      ],
      "name": "safeTransferFrom",
      "outputs": [],
      "stateMutability": "nonpayable",
      "type": "function"
    },
    {
      "inputs": [
        {
          "internalType": "address",
          "name": "from",
          "type": "address"
        },
        {
          "internalType": "address",
          "name": "to",
          "type": "address"
        },
        {
          "internalType": "uint256",
          "name": "tokenId",
          "type": "uint256"
        },
        {
          "internalType": "bytes",
          "name": "_data",
          "type": "bytes"
        }
      ],
      "name": "safeTransferFrom",
      "outputs": [],
      "stateMutability": "nonpayable",
      "type": "function"
    },
    {
      "inputs": [
        {
          "internalType": "address",
          "name": "operator",
          "type": "address"
        },
        {
          "internalType": "bool",
          "name": "approved",
          "type": "bool"
        }
      ],
      "name": "setApprovalForAll",
      "outputs": [],
      "stateMutability": "nonpayable",
      "type": "function"
    },
    {
      "inputs": [
        {
          "internalType": "uint256",
          "name": "tokenId",
          "type": "uint256"
        },
        {
          "internalType": "string",
          "name": "key",
          "type": "string"
        }
      ],
      "name": "setEncryptPublicKey",
      "outputs": [],
      "stateMutability": "nonpayable",
      "type": "function"
    },
    {
      "inputs": [
        {
          "internalType": "bytes4",
          "name": "interfaceId",
          "type": "bytes4"
        }
      ],
      "name": "supportsInterface",
      "outputs": [
        {
          "internalType": "bool",
          "name": "",
          "type": "bool"
        }
      ],
      "stateMutability": "view",
      "type": "function"
    },
    {
      "inputs": [],
      "name": "symbol",
      "outputs": [
        {
          "internalType": "string",
          "name": "",
          "type": "string"
        }
      ],
      "stateMutability": "view",
      "type": "function"
    },
    {
      "inputs": [],
      "name": "tokenPrice",
      "outputs": [
        {
          "internalType": "uint256",
          "name": "",
          "type": "uint256"
        }
      ],
      "stateMutability": "view",
      "type": "function"
    },
    {
      "inputs": [
        {
          "internalType": "uint256",
          "name": "tokenId",
          "type": "uint256"
        }
      ],
      "name": "tokenURI",
      "outputs": [
        {
          "internalType": "string",
          "name": "",
          "type": "string"
        }
      ],
      "stateMutability": "view",
      "type": "function"
    },
    {
      "inputs": [
        {
          "internalType": "address",
          "name": "from",
          "type": "address"
        },
        {
          "internalType": "address",
          "name": "to",
          "type": "address"
        },
        {
          "internalType": "uint256",
          "name": "tokenId",
          "type": "uint256"
        }
      ],
      "name": "transferFrom",
      "outputs": [],
      "stateMutability": "nonpayable",
      "type": "function"
    },
    {
      "inputs": [
        {
          "internalType": "uint256",
          "name": "_amount",
          "type": "uint256"
        }
      ],
      "name": "withdraw",
      "outputs": [],
      "stateMutability": "nonpayable",
      "type": "function"
    }
  ],
  "bytecode": "0x60806040523480156200001157600080fd5b5060405162003a9838038062003a98833981810160405281019062000037919062000205565b6040518060400160405280601381526020017f526574726963416e64486973467269656e6473000000000000000000000000008152506040518060400160405280600481526020017f52414846000000000000000000000000000000000000000000000000000000008152508160009080519060200190620000bb92919062000127565b508060019080519060200190620000d492919062000127565b5050508160088190555080600960006101000a81548173ffffffffffffffffffffffffffffffffffffffff021916908373ffffffffffffffffffffffffffffffffffffffff16021790555050506200031d565b828054620001359062000284565b90600052602060002090601f016020900481019282620001595760008555620001a5565b82601f106200017457805160ff1916838001178555620001a5565b82800160010185558215620001a5579182015b82811115620001a457825182559160200191906001019062000187565b5b509050620001b49190620001b8565b5090565b5b80821115620001d3576000816000905550600101620001b9565b5090565b600081519050620001e881620002e9565b92915050565b600081519050620001ff8162000303565b92915050565b600080604083850312156200021957600080fd5b60006200022985828601620001ee565b92505060206200023c85828601620001d7565b9150509250929050565b600062000253826200025a565b9050919050565b600073ffffffffffffffffffffffffffffffffffffffff82169050919050565b6000819050919050565b600060028204905060018216806200029d57607f821691505b60208210811415620002b457620002b3620002ba565b5b50919050565b7f4e487b7100000000000000000000000000000000000000000000000000000000600052602260045260246000fd5b620002f48162000246565b81146200030057600080fd5b50565b6200030e816200027a565b81146200031a57600080fd5b50565b61376b806200032d6000396000f3fe6080604052600436106101145760003560e01c80636a627842116100a0578063a22cb46511610064578063a22cb465146103c8578063b88d4fde146103f1578063c87b56dd1461041a578063e985e9c514610457578063f851a4401461049457610114565b80636a627842146102c857806370a08231146102f85780637ff9b5961461033557806395d89b41146103605780639df8fa9e1461038b57610114565b806323b872dd116100e757806323b872dd146101e75780632e1a7d4d1461021057806342842e0e146102395780635de8f985146102625780636352211e1461028b57610114565b806301ffc9a71461011957806306fdde0314610156578063081812fc14610181578063095ea7b3146101be575b600080fd5b34801561012557600080fd5b50610140600480360381019061013b9190612522565b6104bf565b60405161014d9190612a4a565b60405180910390f35b34801561016257600080fd5b5061016b6105a1565b6040516101789190612a65565b60405180910390f35b34801561018d57600080fd5b506101a860048036038101906101a39190612574565b610633565b6040516101b591906129ba565b60405180910390f35b3480156101ca57600080fd5b506101e560048036038101906101e091906124e6565b6106b8565b005b3480156101f357600080fd5b5061020e600480360381019061020991906123e0565b6107d0565b005b34801561021c57600080fd5b5061023760048036038101906102329190612574565b610830565b005b34801561024557600080fd5b50610260600480360381019061025b91906123e0565b610977565b005b34801561026e57600080fd5b506102896004803603810190610284919061259d565b610997565b005b34801561029757600080fd5b506102b260048036038101906102ad9190612574565b610a1e565b6040516102bf91906129ba565b60405180910390f35b6102e260048036038101906102dd919061237b565b610ad0565b6040516102ef9190612cec565b60405180910390f35b34801561030457600080fd5b5061031f600480360381019061031a919061237b565b610bc9565b60405161032c9190612cec565b60405180910390f35b34801561034157600080fd5b5061034a610c81565b6040516103579190612cec565b60405180910390f35b34801561036c57600080fd5b50610375610c87565b6040516103829190612a65565b60405180910390f35b34801561039757600080fd5b506103b260048036038101906103ad9190612574565b610d19565b6040516103bf9190612a65565b60405180910390f35b3480156103d457600080fd5b506103ef60048036038101906103ea91906124aa565b610db9565b005b3480156103fd57600080fd5b506104186004803603810190610413919061242f565b610dcf565b005b34801561042657600080fd5b50610441600480360381019061043c9190612574565b610e31565b60405161044e9190612a65565b60405180910390f35b34801561046357600080fd5b5061047e600480360381019061047991906123a4565b610f83565b60405161048b9190612a4a565b60405180910390f35b3480156104a057600080fd5b506104a9611017565b6040516104b691906129ba565b60405180910390f35b60007f80ac58cd000000000000000000000000000000000000000000000000000000007bffffffffffffffffffffffffffffffffffffffffffffffffffffffff1916827bffffffffffffffffffffffffffffffffffffffffffffffffffffffff1916148061058a57507f5b5e139f000000000000000000000000000000000000000000000000000000007bffffffffffffffffffffffffffffffffffffffffffffffffffffffff1916827bffffffffffffffffffffffffffffffffffffffffffffffffffffffff1916145b8061059a57506105998261103d565b5b9050919050565b6060600080546105b090613022565b80601f01602080910402602001604051908101604052809291908181526020018280546105dc90613022565b80156106295780601f106105fe57610100808354040283529160200191610629565b820191906000526020600020905b81548152906001019060200180831161060c57829003601f168201915b5050505050905090565b600061063e826110a7565b61067d576040517f08c379a000000000000000000000000000000000000000000000000000000000815260040161067490612c4c565b60405180910390fd5b6004600083815260200190815260200160002060009054906101000a900473ffffffffffffffffffffffffffffffffffffffff169050919050565b60006106c382610a1e565b90508073ffffffffffffffffffffffffffffffffffffffff168373ffffffffffffffffffffffffffffffffffffffff161415610734576040517f08c379a000000000000000000000000000000000000000000000000000000000815260040161072b90612cac565b60405180910390fd5b8073ffffffffffffffffffffffffffffffffffffffff16610753611113565b73ffffffffffffffffffffffffffffffffffffffff16148061078257506107818161077c611113565b610f83565b5b6107c1576040517f08c379a00000000000000000000000000000000000000000000000000000000081526004016107b890612b8c565b60405180910390fd5b6107cb838361111b565b505050565b6107e16107db611113565b826111d4565b610820576040517f08c379a000000000000000000000000000000000000000000000000000000000815260040161081790612ccc565b60405180910390fd5b61082b8383836112b2565b505050565b600960009054906101000a900473ffffffffffffffffffffffffffffffffffffffff1673ffffffffffffffffffffffffffffffffffffffff163373ffffffffffffffffffffffffffffffffffffffff16146108e657600960009054906101000a900473ffffffffffffffffffffffffffffffffffffffff16336040517f64a14abf0000000000000000000000000000000000000000000000000000000081526004016108dd9291906129d5565b60405180910390fd5b4781111561092d5747816040517fce9514f9000000000000000000000000000000000000000000000000000000008152600401610924929190612d30565b60405180910390fd5b3373ffffffffffffffffffffffffffffffffffffffff166108fc829081150290604051600060405180830381858888f19350505050158015610973573d6000803e3d6000fd5b5050565b61099283838360405180602001604052806000815250610dcf565b505050565b6109a86109a2611113565b836111d4565b6109f257816109b5611113565b6040517faf2a76f10000000000000000000000000000000000000000000000000000000081526004016109e9929190612d07565b60405180910390fd5b80600a60008481526020019081526020016000209080519060200190610a1992919061219f565b505050565b6000806002600084815260200190815260200160002060009054906101000a900473ffffffffffffffffffffffffffffffffffffffff169050600073ffffffffffffffffffffffffffffffffffffffff168173ffffffffffffffffffffffffffffffffffffffff161415610ac7576040517f08c379a0000000000000000000000000000000000000000000000000000000008152600401610abe90612bcc565b60405180910390fd5b80915050919050565b6000600854341015610b1d57600854346040517fa9b308f4000000000000000000000000000000000000000000000000000000008152600401610b14929190612d30565b60405180910390fd5b610b27600761150e565b6000610b336007611524565b9050610b3f8382611532565b6000600243610b4e9190612f04565b4090506000338284604051602001610b6893929190612959565b6040516020818303038152906040528051906020012090506000610b8e8260001c611700565b9050610b9a8482611786565b610bbd6040518060600160405280602181526020016137156021913985836117fa565b83945050505050919050565b60008073ffffffffffffffffffffffffffffffffffffffff168273ffffffffffffffffffffffffffffffffffffffff161415610c3a576040517f08c379a0000000000000000000000000000000000000000000000000000000008152600401610c3190612bac565b60405180910390fd5b600360008373ffffffffffffffffffffffffffffffffffffffff1673ffffffffffffffffffffffffffffffffffffffff168152602001908152602001600020549050919050565b60085481565b606060018054610c9690613022565b80601f0160208091040260200160405190810160405280929190818152602001828054610cc290613022565b8015610d0f5780601f10610ce457610100808354040283529160200191610d0f565b820191906000526020600020905b815481529060010190602001808311610cf257829003601f168201915b5050505050905090565b600a6020528060005260406000206000915090508054610d3890613022565b80601f0160208091040260200160405190810160405280929190818152602001828054610d6490613022565b8015610db15780601f10610d8657610100808354040283529160200191610db1565b820191906000526020600020905b815481529060010190602001808311610d9457829003601f168201915b505050505081565b610dcb610dc4611113565b8383611899565b5050565b610de0610dda611113565b836111d4565b610e1f576040517f08c379a0000000000000000000000000000000000000000000000000000000008152600401610e1690612ccc565b60405180910390fd5b610e2b84848484611a06565b50505050565b6060610e3c826110a7565b610e7b576040517f08c379a0000000000000000000000000000000000000000000000000000000008152600401610e7290612c2c565b60405180910390fd5b6000600660008481526020019081526020016000208054610e9b90613022565b80601f0160208091040260200160405190810160405280929190818152602001828054610ec790613022565b8015610f145780601f10610ee957610100808354040283529160200191610f14565b820191906000526020600020905b815481529060010190602001808311610ef757829003601f168201915b505050505090506000610f25611a62565b9050600081511415610f3b578192505050610f7e565b600082511115610f70578082604051602001610f58929190612996565b60405160208183030381529060405292505050610f7e565b610f7984611a79565b925050505b919050565b6000600560008473ffffffffffffffffffffffffffffffffffffffff1673ffffffffffffffffffffffffffffffffffffffff16815260200190815260200160002060008373ffffffffffffffffffffffffffffffffffffffff1673ffffffffffffffffffffffffffffffffffffffff16815260200190815260200160002060009054906101000a900460ff16905092915050565b600960009054906101000a900473ffffffffffffffffffffffffffffffffffffffff1681565b60007f01ffc9a7000000000000000000000000000000000000000000000000000000007bffffffffffffffffffffffffffffffffffffffffffffffffffffffff1916827bffffffffffffffffffffffffffffffffffffffffffffffffffffffff1916149050919050565b60008073ffffffffffffffffffffffffffffffffffffffff166002600084815260200190815260200160002060009054906101000a900473ffffffffffffffffffffffffffffffffffffffff1673ffffffffffffffffffffffffffffffffffffffff1614159050919050565b600033905090565b816004600083815260200190815260200160002060006101000a81548173ffffffffffffffffffffffffffffffffffffffff021916908373ffffffffffffffffffffffffffffffffffffffff160217905550808273ffffffffffffffffffffffffffffffffffffffff1661118e83610a1e565b73ffffffffffffffffffffffffffffffffffffffff167f8c5be1e5ebec7d5bd14f71427d1e84f3dd0314c0f7b2291e5b200ac8c7c3b92560405160405180910390a45050565b60006111df826110a7565b61121e576040517f08c379a000000000000000000000000000000000000000000000000000000000815260040161121590612b6c565b60405180910390fd5b600061122983610a1e565b90508073ffffffffffffffffffffffffffffffffffffffff168473ffffffffffffffffffffffffffffffffffffffff16148061129857508373ffffffffffffffffffffffffffffffffffffffff1661128084610633565b73ffffffffffffffffffffffffffffffffffffffff16145b806112a957506112a88185610f83565b5b91505092915050565b8273ffffffffffffffffffffffffffffffffffffffff166112d282610a1e565b73ffffffffffffffffffffffffffffffffffffffff1614611328576040517f08c379a000000000000000000000000000000000000000000000000000000000815260040161131f90612c6c565b60405180910390fd5b600073ffffffffffffffffffffffffffffffffffffffff168273ffffffffffffffffffffffffffffffffffffffff161415611398576040517f08c379a000000000000000000000000000000000000000000000000000000000815260040161138f90612b2c565b60405180910390fd5b6113a3838383611b20565b6113ae60008261111b565b6001600360008573ffffffffffffffffffffffffffffffffffffffff1673ffffffffffffffffffffffffffffffffffffffff16815260200190815260200160002060008282546113fe9190612f04565b925050819055506001600360008473ffffffffffffffffffffffffffffffffffffffff1673ffffffffffffffffffffffffffffffffffffffff16815260200190815260200160002060008282546114559190612e23565b92505081905550816002600083815260200190815260200160002060006101000a81548173ffffffffffffffffffffffffffffffffffffffff021916908373ffffffffffffffffffffffffffffffffffffffff160217905550808273ffffffffffffffffffffffffffffffffffffffff168473ffffffffffffffffffffffffffffffffffffffff167fddf252ad1be2c89b69c2b068fc378daa952ba7f163c4a11628f55a4df523b3ef60405160405180910390a4505050565b6001816000016000828254019250508190555050565b600081600001549050919050565b600073ffffffffffffffffffffffffffffffffffffffff168273ffffffffffffffffffffffffffffffffffffffff1614156115a2576040517f08c379a000000000000000000000000000000000000000000000000000000000815260040161159990612c0c565b60405180910390fd5b6115ab816110a7565b156115eb576040517f08c379a00000000000000000000000000000000000000000000000000000000081526004016115e290612b0c565b60405180910390fd5b6115f760008383611b20565b6001600360008473ffffffffffffffffffffffffffffffffffffffff1673ffffffffffffffffffffffffffffffffffffffff16815260200190815260200160002060008282546116479190612e23565b92505081905550816002600083815260200190815260200160002060006101000a81548173ffffffffffffffffffffffffffffffffffffffff021916908373ffffffffffffffffffffffffffffffffffffffff160217905550808273ffffffffffffffffffffffffffffffffffffffff16600073ffffffffffffffffffffffffffffffffffffffff167fddf252ad1be2c89b69c2b068fc378daa952ba7f163c4a11628f55a4df523b3ef60405160405180910390a45050565b60606000821415611748576040518060400160405280600481526020017f30783030000000000000000000000000000000000000000000000000000000008152509050611781565b600082905060005b6000821461177257808061176390613085565b915050600882901c9150611750565b61177c8482611b25565b925050505b919050565b61178f826110a7565b6117ce576040517f08c379a00000000000000000000000000000000000000000000000000000000081526004016117c590612bec565b60405180910390fd5b806006600084815260200190815260200160002090805190602001906117f592919061219f565b505050565b61189483838360405160240161181293929190612a87565b6040516020818303038152906040527fa3f5c739000000000000000000000000000000000000000000000000000000007bffffffffffffffffffffffffffffffffffffffffffffffffffffffff19166020820180517bffffffffffffffffffffffffffffffffffffffffffffffffffffffff8381831617835250505050611e1f565b505050565b8173ffffffffffffffffffffffffffffffffffffffff168373ffffffffffffffffffffffffffffffffffffffff161415611908576040517f08c379a00000000000000000000000000000000000000000000000000000000081526004016118ff90612b4c565b60405180910390fd5b80600560008573ffffffffffffffffffffffffffffffffffffffff1673ffffffffffffffffffffffffffffffffffffffff16815260200190815260200160002060008473ffffffffffffffffffffffffffffffffffffffff1673ffffffffffffffffffffffffffffffffffffffff16815260200190815260200160002060006101000a81548160ff0219169083151502179055508173ffffffffffffffffffffffffffffffffffffffff168373ffffffffffffffffffffffffffffffffffffffff167f17307eab39ab6107e8899845ad3d59bd9653f200f220920489ca2b5937696c31836040516119f99190612a4a565b60405180910390a3505050565b611a118484846112b2565b611a1d84848484611e48565b611a5c576040517f08c379a0000000000000000000000000000000000000000000000000000000008152600401611a5390612aec565b60405180910390fd5b50505050565b606060405180602001604052806000815250905090565b6060611a84826110a7565b611ac3576040517f08c379a0000000000000000000000000000000000000000000000000000000008152600401611aba90612c8c565b60405180910390fd5b6000611acd611a62565b90506000815111611aed5760405180602001604052806000815250611b18565b80611af784611fdf565b604051602001611b08929190612996565b6040516020818303038152906040525b915050919050565b505050565b606060006002836002611b389190612eaa565b611b429190612e23565b67ffffffffffffffff811115611b81577f4e487b7100000000000000000000000000000000000000000000000000000000600052604160045260246000fd5b6040519080825280601f01601f191660200182016040528015611bb35781602001600182028036833780820191505090505b5090507f300000000000000000000000000000000000000000000000000000000000000081600081518110611c11577f4e487b7100000000000000000000000000000000000000000000000000000000600052603260045260246000fd5b60200101907effffffffffffffffffffffffffffffffffffffffffffffffffffffffffffff1916908160001a9053507f780000000000000000000000000000000000000000000000000000000000000081600181518110611c9b577f4e487b7100000000000000000000000000000000000000000000000000000000600052603260045260246000fd5b60200101907effffffffffffffffffffffffffffffffffffffffffffffffffffffffffffff1916908160001a90535060006001846002611cdb9190612eaa565b611ce59190612e23565b90505b6001811115611dd1577f3031323334353637383961626364656600000000000000000000000000000000600f861660108110611d4d577f4e487b7100000000000000000000000000000000000000000000000000000000600052603260045260246000fd5b1a60f81b828281518110611d8a577f4e487b7100000000000000000000000000000000000000000000000000000000600052603260045260246000fd5b60200101907effffffffffffffffffffffffffffffffffffffffffffffffffffffffffffff1916908160001a905350600485901c945080611dca90612ff8565b9050611ce8565b5060008414611e15576040517f08c379a0000000000000000000000000000000000000000000000000000000008152600401611e0c90612acc565b60405180910390fd5b8091505092915050565b60008151905060006a636f6e736f6c652e6c6f679050602083016000808483855afa5050505050565b6000611e698473ffffffffffffffffffffffffffffffffffffffff1661218c565b15611fd2578373ffffffffffffffffffffffffffffffffffffffff1663150b7a02611e92611113565b8786866040518563ffffffff1660e01b8152600401611eb494939291906129fe565b602060405180830381600087803b158015611ece57600080fd5b505af1925050508015611eff57506040513d601f19601f82011682018060405250810190611efc919061254b565b60015b611f82573d8060008114611f2f576040519150601f19603f3d011682016040523d82523d6000602084013e611f34565b606091505b50600081511415611f7a576040517f08c379a0000000000000000000000000000000000000000000000000000000008152600401611f7190612aec565b60405180910390fd5b805181602001fd5b63150b7a0260e01b7bffffffffffffffffffffffffffffffffffffffffffffffffffffffff1916817bffffffffffffffffffffffffffffffffffffffffffffffffffffffff191614915050611fd7565b600190505b949350505050565b60606000821415612027576040518060400160405280600181526020017f30000000000000000000000000000000000000000000000000000000000000008152509050612187565b600082905060005b6000821461205957808061204290613085565b915050600a826120529190612e79565b915061202f565b60008167ffffffffffffffff81111561209b577f4e487b7100000000000000000000000000000000000000000000000000000000600052604160045260246000fd5b6040519080825280601f01601f1916602001820160405280156120cd5781602001600182028036833780820191505090505b5090505b60008514612180576001826120e69190612f04565b9150600a856120f59190613106565b60306121019190612e23565b60f81b81838151811061213d577f4e487b7100000000000000000000000000000000000000000000000000000000600052603260045260246000fd5b60200101907effffffffffffffffffffffffffffffffffffffffffffffffffffffffffffff1916908160001a905350600a856121799190612e79565b94506120d1565b8093505050505b919050565b600080823b905060008111915050919050565b8280546121ab90613022565b90600052602060002090601f0160209004810192826121cd5760008555612214565b82601f106121e657805160ff1916838001178555612214565b82800160010185558215612214579182015b828111156122135782518255916020019190600101906121f8565b5b5090506122219190612225565b5090565b5b8082111561223e576000816000905550600101612226565b5090565b600061225561225084612d7e565b612d59565b90508281526020810184848401111561226d57600080fd5b612278848285612fb6565b509392505050565b600061229361228e84612daf565b612d59565b9050828152602081018484840111156122ab57600080fd5b6122b6848285612fb6565b509392505050565b6000813590506122cd816136b8565b92915050565b6000813590506122e2816136cf565b92915050565b6000813590506122f7816136e6565b92915050565b60008151905061230c816136e6565b92915050565b600082601f83011261232357600080fd5b8135612333848260208601612242565b91505092915050565b600082601f83011261234d57600080fd5b813561235d848260208601612280565b91505092915050565b600081359050612375816136fd565b92915050565b60006020828403121561238d57600080fd5b600061239b848285016122be565b91505092915050565b600080604083850312156123b757600080fd5b60006123c5858286016122be565b92505060206123d6858286016122be565b9150509250929050565b6000806000606084860312156123f557600080fd5b6000612403868287016122be565b9350506020612414868287016122be565b925050604061242586828701612366565b9150509250925092565b6000806000806080858703121561244557600080fd5b6000612453878288016122be565b9450506020612464878288016122be565b935050604061247587828801612366565b925050606085013567ffffffffffffffff81111561249257600080fd5b61249e87828801612312565b91505092959194509250565b600080604083850312156124bd57600080fd5b60006124cb858286016122be565b92505060206124dc858286016122d3565b9150509250929050565b600080604083850312156124f957600080fd5b6000612507858286016122be565b925050602061251885828601612366565b9150509250929050565b60006020828403121561253457600080fd5b6000612542848285016122e8565b91505092915050565b60006020828403121561255d57600080fd5b600061256b848285016122fd565b91505092915050565b60006020828403121561258657600080fd5b600061259484828501612366565b91505092915050565b600080604083850312156125b057600080fd5b60006125be85828601612366565b925050602083013567ffffffffffffffff8111156125db57600080fd5b6125e78582860161233c565b9150509250929050565b6125fa81612f38565b82525050565b61261161260c82612f38565b6130ce565b82525050565b61262081612f4a565b82525050565b61263761263282612f56565b6130e0565b82525050565b600061264882612de0565b6126528185612df6565b9350612662818560208601612fc5565b61266b816131f3565b840191505092915050565b600061268182612deb565b61268b8185612e07565b935061269b818560208601612fc5565b6126a4816131f3565b840191505092915050565b60006126ba82612deb565b6126c48185612e18565b93506126d4818560208601612fc5565b80840191505092915050565b60006126ed602083612e07565b91506126f882613211565b602082019050919050565b6000612710603283612e07565b915061271b8261323a565b604082019050919050565b6000612733601c83612e07565b915061273e82613289565b602082019050919050565b6000612756602483612e07565b9150612761826132b2565b604082019050919050565b6000612779601983612e07565b915061278482613301565b602082019050919050565b600061279c602c83612e07565b91506127a78261332a565b604082019050919050565b60006127bf603883612e07565b91506127ca82613379565b604082019050919050565b60006127e2602a83612e07565b91506127ed826133c8565b604082019050919050565b6000612805602983612e07565b915061281082613417565b604082019050919050565b6000612828602e83612e07565b915061283382613466565b604082019050919050565b600061284b602083612e07565b9150612856826134b5565b602082019050919050565b600061286e603183612e07565b9150612879826134de565b604082019050919050565b6000612891602c83612e07565b915061289c8261352d565b604082019050919050565b60006128b4602983612e07565b91506128bf8261357c565b604082019050919050565b60006128d7602f83612e07565b91506128e2826135cb565b604082019050919050565b60006128fa602183612e07565b91506129058261361a565b604082019050919050565b600061291d603183612e07565b915061292882613669565b604082019050919050565b61293c81612fac565b82525050565b61295361294e82612fac565b6130fc565b82525050565b60006129658286612600565b6014820191506129758285612626565b6020820191506129858284612942565b602082019150819050949350505050565b60006129a282856126af565b91506129ae82846126af565b91508190509392505050565b60006020820190506129cf60008301846125f1565b92915050565b60006040820190506129ea60008301856125f1565b6129f760208301846125f1565b9392505050565b6000608082019050612a1360008301876125f1565b612a2060208301866125f1565b612a2d6040830185612933565b8181036060830152612a3f818461263d565b905095945050505050565b6000602082019050612a5f6000830184612617565b92915050565b60006020820190508181036000830152612a7f8184612676565b905092915050565b60006060820190508181036000830152612aa18186612676565b9050612ab06020830185612933565b8181036040830152612ac28184612676565b9050949350505050565b60006020820190508181036000830152612ae5816126e0565b9050919050565b60006020820190508181036000830152612b0581612703565b9050919050565b60006020820190508181036000830152612b2581612726565b9050919050565b60006020820190508181036000830152612b4581612749565b9050919050565b60006020820190508181036000830152612b658161276c565b9050919050565b60006020820190508181036000830152612b858161278f565b9050919050565b60006020820190508181036000830152612ba5816127b2565b9050919050565b60006020820190508181036000830152612bc5816127d5565b9050919050565b60006020820190508181036000830152612be5816127f8565b9050919050565b60006020820190508181036000830152612c058161281b565b9050919050565b60006020820190508181036000830152612c258161283e565b9050919050565b60006020820190508181036000830152612c4581612861565b9050919050565b60006020820190508181036000830152612c6581612884565b9050919050565b60006020820190508181036000830152612c85816128a7565b9050919050565b60006020820190508181036000830152612ca5816128ca565b9050919050565b60006020820190508181036000830152612cc5816128ed565b9050919050565b60006020820190508181036000830152612ce581612910565b9050919050565b6000602082019050612d016000830184612933565b92915050565b6000604082019050612d1c6000830185612933565b612d2960208301846125f1565b9392505050565b6000604082019050612d456000830185612933565b612d526020830184612933565b9392505050565b6000612d63612d74565b9050612d6f8282613054565b919050565b6000604051905090565b600067ffffffffffffffff821115612d9957612d986131c4565b5b612da2826131f3565b9050602081019050919050565b600067ffffffffffffffff821115612dca57612dc96131c4565b5b612dd3826131f3565b9050602081019050919050565b600081519050919050565b600081519050919050565b600082825260208201905092915050565b600082825260208201905092915050565b600081905092915050565b6000612e2e82612fac565b9150612e3983612fac565b9250827fffffffffffffffffffffffffffffffffffffffffffffffffffffffffffffffff03821115612e6e57612e6d613137565b5b828201905092915050565b6000612e8482612fac565b9150612e8f83612fac565b925082612e9f57612e9e613166565b5b828204905092915050565b6000612eb582612fac565b9150612ec083612fac565b9250817fffffffffffffffffffffffffffffffffffffffffffffffffffffffffffffffff0483118215151615612ef957612ef8613137565b5b828202905092915050565b6000612f0f82612fac565b9150612f1a83612fac565b925082821015612f2d57612f2c613137565b5b828203905092915050565b6000612f4382612f8c565b9050919050565b60008115159050919050565b6000819050919050565b60007fffffffff0000000000000000000000000000000000000000000000000000000082169050919050565b600073ffffffffffffffffffffffffffffffffffffffff82169050919050565b6000819050919050565b82818337600083830152505050565b60005b83811015612fe3578082015181840152602081019050612fc8565b83811115612ff2576000848401525b50505050565b600061300382612fac565b9150600082141561301757613016613137565b5b600182039050919050565b6000600282049050600182168061303a57607f821691505b6020821081141561304e5761304d613195565b5b50919050565b61305d826131f3565b810181811067ffffffffffffffff8211171561307c5761307b6131c4565b5b80604052505050565b600061309082612fac565b91507fffffffffffffffffffffffffffffffffffffffffffffffffffffffffffffffff8214156130c3576130c2613137565b5b600182019050919050565b60006130d9826130ea565b9050919050565b6000819050919050565b60006130f582613204565b9050919050565b6000819050919050565b600061311182612fac565b915061311c83612fac565b92508261312c5761312b613166565b5b828206905092915050565b7f4e487b7100000000000000000000000000000000000000000000000000000000600052601160045260246000fd5b7f4e487b7100000000000000000000000000000000000000000000000000000000600052601260045260246000fd5b7f4e487b7100000000000000000000000000000000000000000000000000000000600052602260045260246000fd5b7f4e487b7100000000000000000000000000000000000000000000000000000000600052604160045260246000fd5b6000601f19601f8301169050919050565b60008160601b9050919050565b7f537472696e67733a20686578206c656e67746820696e73756666696369656e74600082015250565b7f4552433732313a207472616e7366657220746f206e6f6e20455243373231526560008201527f63656976657220696d706c656d656e7465720000000000000000000000000000602082015250565b7f4552433732313a20746f6b656e20616c7265616479206d696e74656400000000600082015250565b7f4552433732313a207472616e7366657220746f20746865207a65726f2061646460008201527f7265737300000000000000000000000000000000000000000000000000000000602082015250565b7f4552433732313a20617070726f766520746f2063616c6c657200000000000000600082015250565b7f4552433732313a206f70657261746f7220717565727920666f72206e6f6e657860008201527f697374656e7420746f6b656e0000000000000000000000000000000000000000602082015250565b7f4552433732313a20617070726f76652063616c6c6572206973206e6f74206f7760008201527f6e6572206e6f7220617070726f76656420666f7220616c6c0000000000000000602082015250565b7f4552433732313a2062616c616e636520717565727920666f7220746865207a6560008201527f726f206164647265737300000000000000000000000000000000000000000000602082015250565b7f4552433732313a206f776e657220717565727920666f72206e6f6e657869737460008201527f656e7420746f6b656e0000000000000000000000000000000000000000000000602082015250565b7f45524337323155524953746f726167653a2055524920736574206f66206e6f6e60008201527f6578697374656e7420746f6b656e000000000000000000000000000000000000602082015250565b7f4552433732313a206d696e7420746f20746865207a65726f2061646472657373600082015250565b7f45524337323155524953746f726167653a2055524920717565727920666f722060008201527f6e6f6e6578697374656e7420746f6b656e000000000000000000000000000000602082015250565b7f4552433732313a20617070726f76656420717565727920666f72206e6f6e657860008201527f697374656e7420746f6b656e0000000000000000000000000000000000000000602082015250565b7f4552433732313a207472616e73666572206f6620746f6b656e2074686174206960008201527f73206e6f74206f776e0000000000000000000000000000000000000000000000602082015250565b7f4552433732314d657461646174613a2055524920717565727920666f72206e6f60008201527f6e6578697374656e7420746f6b656e0000000000000000000000000000000000602082015250565b7f4552433732313a20617070726f76616c20746f2063757272656e74206f776e6560008201527f7200000000000000000000000000000000000000000000000000000000000000602082015250565b7f4552433732313a207472616e736665722063616c6c6572206973206e6f74206f60008201527f776e6572206e6f7220617070726f766564000000000000000000000000000000602082015250565b6136c181612f38565b81146136cc57600080fd5b50565b6136d881612f4a565b81146136e357600080fd5b50565b6136ef81612f60565b81146136fa57600080fd5b50565b61370681612fac565b811461371157600080fd5b5056fe6d696e7465642c20746f6b656e49643a2025732c20746f6b656e5572693a202573a2646970667358221220b61c1cf2b2ed33c8864528dcdbd1743f63499027e8a81ee74e7ab7dd386fabf364736f6c63430008040033",
  "linkReferences": {},
  "deployedLinkReferences": {}
}